{
	"contracts/freeSocial.sol": {
		"freeSocial": {
			"abi": [
				{
					"inputs": [],
					"stateMutability": "nonpayable",
					"type": "constructor"
				},
				{
					"inputs": [],
					"name": "MAXIMO_DE_CARACTERES",
					"outputs": [
						{
							"internalType": "uint16",
							"name": "",
							"type": "uint16"
						}
					],
					"stateMutability": "view",
					"type": "function"
				},
				{
					"inputs": [
						{
							"internalType": "uint16",
							"name": "_novoMaximoDeCaracteres",
							"type": "uint16"
						}
					],
					"name": "alterarMaximoDeCaracteres",
					"outputs": [],
					"stateMutability": "nonpayable",
					"type": "function"
				},
				{
					"inputs": [
						{
							"internalType": "string",
							"name": "_texto",
							"type": "string"
						}
					],
					"name": "criarPost",
					"outputs": [],
					"stateMutability": "nonpayable",
					"type": "function"
				},
				{
					"inputs": [
						{
							"internalType": "address",
							"name": "autor",
							"type": "address"
						},
						{
							"internalType": "uint256",
							"name": "id",
							"type": "uint256"
						}
					],
					"name": "curtirPost",
					"outputs": [],
					"stateMutability": "nonpayable",
					"type": "function"
				},
				{
					"inputs": [
						{
							"internalType": "address",
							"name": "autor",
							"type": "address"
						},
						{
							"internalType": "uint256",
							"name": "id",
							"type": "uint256"
						}
					],
					"name": "descurtirPost",
					"outputs": [],
					"stateMutability": "nonpayable",
					"type": "function"
				},
				{
					"inputs": [],
					"name": "donoDoContrato",
					"outputs": [
						{
							"internalType": "address",
							"name": "",
							"type": "address"
						}
					],
					"stateMutability": "view",
					"type": "function"
				},
				{
					"inputs": [
						{
							"internalType": "address",
							"name": "",
							"type": "address"
						},
						{
							"internalType": "uint256",
							"name": "",
							"type": "uint256"
						}
					],
					"name": "posts",
					"outputs": [
						{
							"internalType": "uint256",
							"name": "id",
							"type": "uint256"
						},
						{
							"internalType": "address",
							"name": "autor",
							"type": "address"
						},
						{
							"internalType": "string",
							"name": "conteudo",
							"type": "string"
						},
						{
							"internalType": "uint256",
							"name": "dataHora",
							"type": "uint256"
						},
						{
							"internalType": "uint256",
							"name": "curtidas",
							"type": "uint256"
						}
					],
					"stateMutability": "view",
					"type": "function"
				},
				{
					"inputs": [
						{
							"internalType": "address",
							"name": "_criadorDoPost",
							"type": "address"
						},
						{
							"internalType": "uint256",
							"name": "_index",
							"type": "uint256"
						}
					],
					"name": "visualizarPost",
					"outputs": [
						{
							"components": [
								{
									"internalType": "uint256",
									"name": "id",
									"type": "uint256"
								},
								{
									"internalType": "address",
									"name": "autor",
									"type": "address"
								},
								{
									"internalType": "string",
									"name": "conteudo",
									"type": "string"
								},
								{
									"internalType": "uint256",
									"name": "dataHora",
									"type": "uint256"
								},
								{
									"internalType": "uint256",
									"name": "curtidas",
									"type": "uint256"
								}
							],
							"internalType": "struct freeSocial.Post",
							"name": "",
							"type": "tuple"
						}
					],
					"stateMutability": "view",
					"type": "function"
				},
				{
					"inputs": [
						{
							"internalType": "address",
							"name": "_criadorDoPost",
							"type": "address"
						}
					],
					"name": "visualizarTodosOsPosts",
					"outputs": [
						{
							"components": [
								{
									"internalType": "uint256",
									"name": "id",
									"type": "uint256"
								},
								{
									"internalType": "address",
									"name": "autor",
									"type": "address"
								},
								{
									"internalType": "string",
									"name": "conteudo",
									"type": "string"
								},
								{
									"internalType": "uint256",
									"name": "dataHora",
									"type": "uint256"
								},
								{
									"internalType": "uint256",
									"name": "curtidas",
									"type": "uint256"
								}
							],
							"internalType": "struct freeSocial.Post[]",
							"name": "",
							"type": "tuple[]"
						}
					],
					"stateMutability": "view",
					"type": "function"
				}
			],
			"devdoc": {
				"kind": "dev",
				"methods": {},
				"version": 1
			},
			"evm": {
				"assembly": "    /* \"contracts/freeSocial.sol\":62:1979  contract freeSocial {... */\n  mstore(0x40, 0x80)\n    /* \"contracts/freeSocial.sol\":126:129  280 */\n  0x0118\n    /* \"contracts/freeSocial.sol\":89:129  uint16 public MAXIMO_DE_CARACTERES = 280 */\n  0x00\n  dup1\n  0x0100\n  exp\n  dup2\n  sload\n  dup2\n  0xffff\n  mul\n  not\n  and\n  swap1\n  dup4\n  0xffff\n  and\n  mul\n  or\n  swap1\n  sstore\n  pop\n    /* \"contracts/freeSocial.sol\":377:437  constructor() {... */\n  callvalue\n  dup1\n  iszero\n  tag_1\n  jumpi\n  0x00\n  dup1\n  revert\ntag_1:\n  pop\n    /* \"contracts/freeSocial.sol\":419:429  msg.sender */\n  caller\n    /* \"contracts/freeSocial.sol\":402:416  donoDoContrato */\n  0x02\n  0x00\n    /* \"contracts/freeSocial.sol\":402:429  donoDoContrato = msg.sender */\n  0x0100\n  exp\n  dup2\n  sload\n  dup2\n  0xffffffffffffffffffffffffffffffffffffffff\n  mul\n  not\n  and\n  swap1\n  dup4\n  0xffffffffffffffffffffffffffffffffffffffff\n  and\n  mul\n  or\n  swap1\n  sstore\n  pop\n    /* \"contracts/freeSocial.sol\":62:1979  contract freeSocial {... */\n  dataSize(sub_0)\n  dup1\n  dataOffset(sub_0)\n  0x00\n  codecopy\n  0x00\n  return\nstop\n\nsub_0: assembly {\n        /* \"contracts/freeSocial.sol\":62:1979  contract freeSocial {... */\n      mstore(0x40, 0x80)\n      callvalue\n      dup1\n      iszero\n      tag_1\n      jumpi\n      0x00\n      dup1\n      revert\n    tag_1:\n      pop\n      jumpi(tag_2, lt(calldatasize, 0x04))\n      shr(0xe0, calldataload(0x00))\n      dup1\n      0x5c538df3\n      gt\n      tag_12\n      jumpi\n      dup1\n      0x5c538df3\n      eq\n      tag_7\n      jumpi\n      dup1\n      0x6de69b24\n      eq\n      tag_8\n      jumpi\n      dup1\n      0x94495c3c\n      eq\n      tag_9\n      jumpi\n      dup1\n      0xb36fe3f0\n      eq\n      tag_10\n      jumpi\n      dup1\n      0xfe0ba9de\n      eq\n      tag_11\n      jumpi\n      jump(tag_2)\n    tag_12:\n      dup1\n      0x0ba824d3\n      eq\n      tag_3\n      jumpi\n      dup1\n      0x1250c45a\n      eq\n      tag_4\n      jumpi\n      dup1\n      0x36013acd\n      eq\n      tag_5\n      jumpi\n      dup1\n      0x49a9839f\n      eq\n      tag_6\n      jumpi\n    tag_2:\n      0x00\n      dup1\n      revert\n        /* \"contracts/freeSocial.sol\":1056:1230  function curtirPost(address autor, uint256 id) external {... */\n    tag_3:\n      tag_13\n      0x04\n      dup1\n      calldatasize\n      sub\n      dup2\n      add\n      swap1\n      tag_14\n      swap2\n      swap1\n      tag_15\n      jump\t// in\n    tag_14:\n      tag_16\n      jump\t// in\n    tag_13:\n      stop\n        /* \"contracts/freeSocial.sol\":1238:1503  function descurtirPost(address autor, uint256 id) external {... */\n    tag_4:\n      tag_17\n      0x04\n      dup1\n      calldatasize\n      sub\n      dup2\n      add\n      swap1\n      tag_18\n      swap2\n      swap1\n      tag_15\n      jump\t// in\n    tag_18:\n      tag_19\n      jump\t// in\n    tag_17:\n      stop\n        /* \"contracts/freeSocial.sol\":89:129  uint16 public MAXIMO_DE_CARACTERES = 280 */\n    tag_5:\n      tag_20\n      tag_21\n      jump\t// in\n    tag_20:\n      mload(0x40)\n      tag_22\n      swap2\n      swap1\n      tag_23\n      jump\t// in\n    tag_22:\n      mload(0x40)\n      dup1\n      swap2\n      sub\n      swap1\n      return\n        /* \"contracts/freeSocial.sol\":1511:1671  function alterarMaximoDeCaracteres(uint16 _novoMaximoDeCaracteres) public apenasDonoDoContrato {... */\n    tag_6:\n      tag_24\n      0x04\n      dup1\n      calldatasize\n      sub\n      dup2\n      add\n      swap1\n      tag_25\n      swap2\n      swap1\n      tag_26\n      jump\t// in\n    tag_25:\n      tag_27\n      jump\t// in\n    tag_24:\n      stop\n        /* \"contracts/freeSocial.sol\":291:330  mapping(address => Post[]) public posts */\n    tag_7:\n      tag_28\n      0x04\n      dup1\n      calldatasize\n      sub\n      dup2\n      add\n      swap1\n      tag_29\n      swap2\n      swap1\n      tag_15\n      jump\t// in\n    tag_29:\n      tag_30\n      jump\t// in\n    tag_28:\n      mload(0x40)\n      tag_31\n      swap6\n      swap5\n      swap4\n      swap3\n      swap2\n      swap1\n      tag_32\n      jump\t// in\n    tag_31:\n      mload(0x40)\n      dup1\n      swap2\n      sub\n      swap1\n      return\n        /* \"contracts/freeSocial.sol\":1679:1829  function visualizarPost(address _criadorDoPost, uint _index) public view returns (Post memory) {... */\n    tag_8:\n      tag_33\n      0x04\n      dup1\n      calldatasize\n      sub\n      dup2\n      add\n      swap1\n      tag_34\n      swap2\n      swap1\n      tag_15\n      jump\t// in\n    tag_34:\n      tag_35\n      jump\t// in\n    tag_33:\n      mload(0x40)\n      tag_36\n      swap2\n      swap1\n      tag_37\n      jump\t// in\n    tag_36:\n      mload(0x40)\n      dup1\n      swap2\n      sub\n      swap1\n      return\n        /* \"contracts/freeSocial.sol\":1837:1976  function visualizarTodosOsPosts(address _criadorDoPost) public view returns (Post[] memory) {... */\n    tag_9:\n      tag_38\n      0x04\n      dup1\n      calldatasize\n      sub\n      dup2\n      add\n      swap1\n      tag_39\n      swap2\n      swap1\n      tag_40\n      jump\t// in\n    tag_39:\n      tag_41\n      jump\t// in\n    tag_38:\n      mload(0x40)\n      tag_42\n      swap2\n      swap1\n      tag_43\n      jump\t// in\n    tag_42:\n      mload(0x40)\n      dup1\n      swap2\n      sub\n      swap1\n      return\n        /* \"contracts/freeSocial.sol\":607:1048  function criarPost(string memory _texto) public {... */\n    tag_10:\n      tag_44\n      0x04\n      dup1\n      calldatasize\n      sub\n      dup2\n      add\n      swap1\n      tag_45\n      swap2\n      swap1\n      tag_46\n      jump\t// in\n    tag_45:\n      tag_47\n      jump\t// in\n    tag_44:\n      stop\n        /* \"contracts/freeSocial.sol\":339:368  address public donoDoContrato */\n    tag_11:\n      tag_48\n      tag_49\n      jump\t// in\n    tag_48:\n      mload(0x40)\n      tag_50\n      swap2\n      swap1\n      tag_51\n      jump\t// in\n    tag_50:\n      mload(0x40)\n      dup1\n      swap2\n      sub\n      swap1\n      return\n        /* \"contracts/freeSocial.sol\":1056:1230  function curtirPost(address autor, uint256 id) external {... */\n    tag_16:\n        /* \"contracts/freeSocial.sol\":1154:1156  id */\n      dup1\n        /* \"contracts/freeSocial.sol\":1131:1136  posts */\n      0x01\n        /* \"contracts/freeSocial.sol\":1131:1143  posts[autor] */\n      0x00\n        /* \"contracts/freeSocial.sol\":1137:1142  autor */\n      dup5\n        /* \"contracts/freeSocial.sol\":1131:1143  posts[autor] */\n      0xffffffffffffffffffffffffffffffffffffffff\n      and\n      0xffffffffffffffffffffffffffffffffffffffff\n      and\n      dup2\n      mstore\n      0x20\n      add\n      swap1\n      dup2\n      mstore\n      0x20\n      add\n      0x00\n      keccak256\n        /* \"contracts/freeSocial.sol\":1144:1146  id */\n      dup3\n        /* \"contracts/freeSocial.sol\":1131:1147  posts[autor][id] */\n      dup2\n      sload\n      dup2\n      lt\n      tag_53\n      jumpi\n      tag_54\n      tag_55\n      jump\t// in\n    tag_54:\n    tag_53:\n      swap1\n      0x00\n      mstore\n      keccak256(0x00, 0x20)\n      swap1\n      0x05\n      mul\n      add\n        /* \"contracts/freeSocial.sol\":1131:1150  posts[autor][id].id */\n      0x00\n      add\n      sload\n        /* \"contracts/freeSocial.sol\":1131:1156  posts[autor][id].id == id */\n      eq\n        /* \"contracts/freeSocial.sol\":1123:1182  require(posts[autor][id].id == id, \"Este post nao existe.\") */\n      tag_57\n      jumpi\n      mload(0x40)\n      0x08c379a000000000000000000000000000000000000000000000000000000000\n      dup2\n      mstore\n      0x04\n      add\n      tag_58\n      swap1\n      tag_59\n      jump\t// in\n    tag_58:\n      mload(0x40)\n      dup1\n      swap2\n      sub\n      swap1\n      revert\n    tag_57:\n        /* \"contracts/freeSocial.sol\":1195:1200  posts */\n      0x01\n        /* \"contracts/freeSocial.sol\":1195:1207  posts[autor] */\n      0x00\n        /* \"contracts/freeSocial.sol\":1201:1206  autor */\n      dup4\n        /* \"contracts/freeSocial.sol\":1195:1207  posts[autor] */\n      0xffffffffffffffffffffffffffffffffffffffff\n      and\n      0xffffffffffffffffffffffffffffffffffffffff\n      and\n      dup2\n      mstore\n      0x20\n      add\n      swap1\n      dup2\n      mstore\n      0x20\n      add\n      0x00\n      keccak256\n        /* \"contracts/freeSocial.sol\":1208:1210  id */\n      dup2\n        /* \"contracts/freeSocial.sol\":1195:1211  posts[autor][id] */\n      dup2\n      sload\n      dup2\n      lt\n      tag_60\n      jumpi\n      tag_61\n      tag_55\n      jump\t// in\n    tag_61:\n    tag_60:\n      swap1\n      0x00\n      mstore\n      keccak256(0x00, 0x20)\n      swap1\n      0x05\n      mul\n      add\n        /* \"contracts/freeSocial.sol\":1195:1220  posts[autor][id].curtidas */\n      0x04\n      add\n      0x00\n        /* \"contracts/freeSocial.sol\":1195:1222  posts[autor][id].curtidas++ */\n      dup2\n      sload\n      dup1\n      swap3\n      swap2\n      swap1\n      tag_63\n      swap1\n      tag_64\n      jump\t// in\n    tag_63:\n      swap2\n      swap1\n      pop\n      sstore\n      pop\n        /* \"contracts/freeSocial.sol\":1056:1230  function curtirPost(address autor, uint256 id) external {... */\n      pop\n      pop\n      jump\t// out\n        /* \"contracts/freeSocial.sol\":1238:1503  function descurtirPost(address autor, uint256 id) external {... */\n    tag_19:\n        /* \"contracts/freeSocial.sol\":1339:1341  id */\n      dup1\n        /* \"contracts/freeSocial.sol\":1316:1321  posts */\n      0x01\n        /* \"contracts/freeSocial.sol\":1316:1328  posts[autor] */\n      0x00\n        /* \"contracts/freeSocial.sol\":1322:1327  autor */\n      dup5\n        /* \"contracts/freeSocial.sol\":1316:1328  posts[autor] */\n      0xffffffffffffffffffffffffffffffffffffffff\n      and\n      0xffffffffffffffffffffffffffffffffffffffff\n      and\n      dup2\n      mstore\n      0x20\n      add\n      swap1\n      dup2\n      mstore\n      0x20\n      add\n      0x00\n      keccak256\n        /* \"contracts/freeSocial.sol\":1329:1331  id */\n      dup3\n        /* \"contracts/freeSocial.sol\":1316:1332  posts[autor][id] */\n      dup2\n      sload\n      dup2\n      lt\n      tag_66\n      jumpi\n      tag_67\n      tag_55\n      jump\t// in\n    tag_67:\n    tag_66:\n      swap1\n      0x00\n      mstore\n      keccak256(0x00, 0x20)\n      swap1\n      0x05\n      mul\n      add\n        /* \"contracts/freeSocial.sol\":1316:1335  posts[autor][id].id */\n      0x00\n      add\n      sload\n        /* \"contracts/freeSocial.sol\":1316:1341  posts[autor][id].id == id */\n      eq\n        /* \"contracts/freeSocial.sol\":1308:1367  require(posts[autor][id].id == id, \"Este post nao existe.\") */\n      tag_69\n      jumpi\n      mload(0x40)\n      0x08c379a000000000000000000000000000000000000000000000000000000000\n      dup2\n      mstore\n      0x04\n      add\n      tag_70\n      swap1\n      tag_59\n      jump\t// in\n    tag_70:\n      mload(0x40)\n      dup1\n      swap2\n      sub\n      swap1\n      revert\n    tag_69:\n        /* \"contracts/freeSocial.sol\":1414:1415  0 */\n      0x00\n        /* \"contracts/freeSocial.sol\":1386:1391  posts */\n      0x01\n        /* \"contracts/freeSocial.sol\":1386:1398  posts[autor] */\n      0x00\n        /* \"contracts/freeSocial.sol\":1392:1397  autor */\n      dup5\n        /* \"contracts/freeSocial.sol\":1386:1398  posts[autor] */\n      0xffffffffffffffffffffffffffffffffffffffff\n      and\n      0xffffffffffffffffffffffffffffffffffffffff\n      and\n      dup2\n      mstore\n      0x20\n      add\n      swap1\n      dup2\n      mstore\n      0x20\n      add\n      0x00\n      keccak256\n        /* \"contracts/freeSocial.sol\":1399:1401  id */\n      dup3\n        /* \"contracts/freeSocial.sol\":1386:1402  posts[autor][id] */\n      dup2\n      sload\n      dup2\n      lt\n      tag_71\n      jumpi\n      tag_72\n      tag_55\n      jump\t// in\n    tag_72:\n    tag_71:\n      swap1\n      0x00\n      mstore\n      keccak256(0x00, 0x20)\n      swap1\n      0x05\n      mul\n      add\n        /* \"contracts/freeSocial.sol\":1386:1411  posts[autor][id].curtidas */\n      0x04\n      add\n      sload\n        /* \"contracts/freeSocial.sol\":1386:1415  posts[autor][id].curtidas > 0 */\n      gt\n        /* \"contracts/freeSocial.sol\":1378:1447  require(posts[autor][id].curtidas > 0, \"O post nao possui curtidas.\") */\n      tag_74\n      jumpi\n      mload(0x40)\n      0x08c379a000000000000000000000000000000000000000000000000000000000\n      dup2\n      mstore\n      0x04\n      add\n      tag_75\n      swap1\n      tag_76\n      jump\t// in\n    tag_75:\n      mload(0x40)\n      dup1\n      swap2\n      sub\n      swap1\n      revert\n    tag_74:\n        /* \"contracts/freeSocial.sol\":1468:1473  posts */\n      0x01\n        /* \"contracts/freeSocial.sol\":1468:1480  posts[autor] */\n      0x00\n        /* \"contracts/freeSocial.sol\":1474:1479  autor */\n      dup4\n        /* \"contracts/freeSocial.sol\":1468:1480  posts[autor] */\n      0xffffffffffffffffffffffffffffffffffffffff\n      and\n      0xffffffffffffffffffffffffffffffffffffffff\n      and\n      dup2\n      mstore\n      0x20\n      add\n      swap1\n      dup2\n      mstore\n      0x20\n      add\n      0x00\n      keccak256\n        /* \"contracts/freeSocial.sol\":1481:1483  id */\n      dup2\n        /* \"contracts/freeSocial.sol\":1468:1484  posts[autor][id] */\n      dup2\n      sload\n      dup2\n      lt\n      tag_77\n      jumpi\n      tag_78\n      tag_55\n      jump\t// in\n    tag_78:\n    tag_77:\n      swap1\n      0x00\n      mstore\n      keccak256(0x00, 0x20)\n      swap1\n      0x05\n      mul\n      add\n        /* \"contracts/freeSocial.sol\":1468:1493  posts[autor][id].curtidas */\n      0x04\n      add\n      0x00\n        /* \"contracts/freeSocial.sol\":1468:1495  posts[autor][id].curtidas-- */\n      dup2\n      sload\n      dup1\n      swap3\n      swap2\n      swap1\n      tag_80\n      swap1\n      tag_81\n      jump\t// in\n    tag_80:\n      swap2\n      swap1\n      pop\n      sstore\n      pop\n        /* \"contracts/freeSocial.sol\":1238:1503  function descurtirPost(address autor, uint256 id) external {... */\n      pop\n      pop\n      jump\t// out\n        /* \"contracts/freeSocial.sol\":89:129  uint16 public MAXIMO_DE_CARACTERES = 280 */\n    tag_21:\n      0x00\n      dup1\n      sload\n      swap1\n      0x0100\n      exp\n      swap1\n      div\n      0xffff\n      and\n      dup2\n      jump\t// out\n        /* \"contracts/freeSocial.sol\":1511:1671  function alterarMaximoDeCaracteres(uint16 _novoMaximoDeCaracteres) public apenasDonoDoContrato {... */\n    tag_27:\n        /* \"contracts/freeSocial.sol\":508:522  donoDoContrato */\n      0x02\n      0x00\n      swap1\n      sload\n      swap1\n      0x0100\n      exp\n      swap1\n      div\n      0xffffffffffffffffffffffffffffffffffffffff\n      and\n        /* \"contracts/freeSocial.sol\":494:522  msg.sender == donoDoContrato */\n      0xffffffffffffffffffffffffffffffffffffffff\n      and\n        /* \"contracts/freeSocial.sol\":494:504  msg.sender */\n      caller\n        /* \"contracts/freeSocial.sol\":494:522  msg.sender == donoDoContrato */\n      0xffffffffffffffffffffffffffffffffffffffff\n      and\n      eq\n        /* \"contracts/freeSocial.sol\":486:579  require(msg.sender == donoDoContrato, \"Apenas o dono do contrato pode executar essa funcao!\") */\n      tag_83\n      jumpi\n      mload(0x40)\n      0x08c379a000000000000000000000000000000000000000000000000000000000\n      dup2\n      mstore\n      0x04\n      add\n      tag_84\n      swap1\n      tag_85\n      jump\t// in\n    tag_84:\n      mload(0x40)\n      dup1\n      swap2\n      sub\n      swap1\n      revert\n    tag_83:\n        /* \"contracts/freeSocial.sol\":1640:1663  _novoMaximoDeCaracteres */\n      dup1\n        /* \"contracts/freeSocial.sol\":1617:1637  MAXIMO_DE_CARACTERES */\n      0x00\n      dup1\n        /* \"contracts/freeSocial.sol\":1617:1663  MAXIMO_DE_CARACTERES = _novoMaximoDeCaracteres */\n      0x0100\n      exp\n      dup2\n      sload\n      dup2\n      0xffff\n      mul\n      not\n      and\n      swap1\n      dup4\n      0xffff\n      and\n      mul\n      or\n      swap1\n      sstore\n      pop\n        /* \"contracts/freeSocial.sol\":1511:1671  function alterarMaximoDeCaracteres(uint16 _novoMaximoDeCaracteres) public apenasDonoDoContrato {... */\n      pop\n      jump\t// out\n        /* \"contracts/freeSocial.sol\":291:330  mapping(address => Post[]) public posts */\n    tag_30:\n      mstore(0x20, 0x01)\n      dup2\n      0x00\n      mstore\n      keccak256(0x00, 0x40)\n      dup2\n      dup2\n      sload\n      dup2\n      lt\n      tag_87\n      jumpi\n      0x00\n      dup1\n      revert\n    tag_87:\n      swap1\n      0x00\n      mstore\n      keccak256(0x00, 0x20)\n      swap1\n      0x05\n      mul\n      add\n      0x00\n      swap2\n      pop\n      swap2\n      pop\n      pop\n      dup1\n      0x00\n      add\n      sload\n      swap1\n      dup1\n      0x01\n      add\n      0x00\n      swap1\n      sload\n      swap1\n      0x0100\n      exp\n      swap1\n      div\n      0xffffffffffffffffffffffffffffffffffffffff\n      and\n      swap1\n      dup1\n      0x02\n      add\n      dup1\n      sload\n      tag_89\n      swap1\n      tag_90\n      jump\t// in\n    tag_89:\n      dup1\n      0x1f\n      add\n      0x20\n      dup1\n      swap2\n      div\n      mul\n      0x20\n      add\n      mload(0x40)\n      swap1\n      dup2\n      add\n      0x40\n      mstore\n      dup1\n      swap3\n      swap2\n      swap1\n      dup2\n      dup2\n      mstore\n      0x20\n      add\n      dup3\n      dup1\n      sload\n      tag_91\n      swap1\n      tag_90\n      jump\t// in\n    tag_91:\n      dup1\n      iszero\n      tag_92\n      jumpi\n      dup1\n      0x1f\n      lt\n      tag_93\n      jumpi\n      0x0100\n      dup1\n      dup4\n      sload\n      div\n      mul\n      dup4\n      mstore\n      swap2\n      0x20\n      add\n      swap2\n      jump(tag_92)\n    tag_93:\n      dup3\n      add\n      swap2\n      swap1\n      0x00\n      mstore\n      keccak256(0x00, 0x20)\n      swap1\n    tag_94:\n      dup2\n      sload\n      dup2\n      mstore\n      swap1\n      0x01\n      add\n      swap1\n      0x20\n      add\n      dup1\n      dup4\n      gt\n      tag_94\n      jumpi\n      dup3\n      swap1\n      sub\n      0x1f\n      and\n      dup3\n      add\n      swap2\n    tag_92:\n      pop\n      pop\n      pop\n      pop\n      pop\n      swap1\n      dup1\n      0x03\n      add\n      sload\n      swap1\n      dup1\n      0x04\n      add\n      sload\n      swap1\n      pop\n      dup6\n      jump\t// out\n        /* \"contracts/freeSocial.sol\":1679:1829  function visualizarPost(address _criadorDoPost, uint _index) public view returns (Post memory) {... */\n    tag_35:\n        /* \"contracts/freeSocial.sol\":1761:1772  Post memory */\n      tag_95\n      tag_96\n      jump\t// in\n    tag_95:\n        /* \"contracts/freeSocial.sol\":1792:1797  posts */\n      0x01\n        /* \"contracts/freeSocial.sol\":1792:1813  posts[_criadorDoPost] */\n      0x00\n        /* \"contracts/freeSocial.sol\":1798:1812  _criadorDoPost */\n      dup5\n        /* \"contracts/freeSocial.sol\":1792:1813  posts[_criadorDoPost] */\n      0xffffffffffffffffffffffffffffffffffffffff\n      and\n      0xffffffffffffffffffffffffffffffffffffffff\n      and\n      dup2\n      mstore\n      0x20\n      add\n      swap1\n      dup2\n      mstore\n      0x20\n      add\n      0x00\n      keccak256\n        /* \"contracts/freeSocial.sol\":1814:1820  _index */\n      dup3\n        /* \"contracts/freeSocial.sol\":1792:1821  posts[_criadorDoPost][_index] */\n      dup2\n      sload\n      dup2\n      lt\n      tag_98\n      jumpi\n      tag_99\n      tag_55\n      jump\t// in\n    tag_99:\n    tag_98:\n      swap1\n      0x00\n      mstore\n      keccak256(0x00, 0x20)\n      swap1\n      0x05\n      mul\n      add\n        /* \"contracts/freeSocial.sol\":1785:1821  return posts[_criadorDoPost][_index] */\n      mload(0x40)\n      dup1\n      0xa0\n      add\n      0x40\n      mstore\n      swap1\n      dup2\n      0x00\n      dup3\n      add\n      sload\n      dup2\n      mstore\n      0x20\n      add\n      0x01\n      dup3\n      add\n      0x00\n      swap1\n      sload\n      swap1\n      0x0100\n      exp\n      swap1\n      div\n      0xffffffffffffffffffffffffffffffffffffffff\n      and\n      0xffffffffffffffffffffffffffffffffffffffff\n      and\n      0xffffffffffffffffffffffffffffffffffffffff\n      and\n      dup2\n      mstore\n      0x20\n      add\n      0x02\n      dup3\n      add\n      dup1\n      sload\n      tag_101\n      swap1\n      tag_90\n      jump\t// in\n    tag_101:\n      dup1\n      0x1f\n      add\n      0x20\n      dup1\n      swap2\n      div\n      mul\n      0x20\n      add\n      mload(0x40)\n      swap1\n      dup2\n      add\n      0x40\n      mstore\n      dup1\n      swap3\n      swap2\n      swap1\n      dup2\n      dup2\n      mstore\n      0x20\n      add\n      dup3\n      dup1\n      sload\n      tag_102\n      swap1\n      tag_90\n      jump\t// in\n    tag_102:\n      dup1\n      iszero\n      tag_103\n      jumpi\n      dup1\n      0x1f\n      lt\n      tag_104\n      jumpi\n      0x0100\n      dup1\n      dup4\n      sload\n      div\n      mul\n      dup4\n      mstore\n      swap2\n      0x20\n      add\n      swap2\n      jump(tag_103)\n    tag_104:\n      dup3\n      add\n      swap2\n      swap1\n      0x00\n      mstore\n      keccak256(0x00, 0x20)\n      swap1\n    tag_105:\n      dup2\n      sload\n      dup2\n      mstore\n      swap1\n      0x01\n      add\n      swap1\n      0x20\n      add\n      dup1\n      dup4\n      gt\n      tag_105\n      jumpi\n      dup3\n      swap1\n      sub\n      0x1f\n      and\n      dup3\n      add\n      swap2\n    tag_103:\n      pop\n      pop\n      pop\n      pop\n      pop\n      dup2\n      mstore\n      0x20\n      add\n      0x03\n      dup3\n      add\n      sload\n      dup2\n      mstore\n      0x20\n      add\n      0x04\n      dup3\n      add\n      sload\n      dup2\n      mstore\n      pop\n      pop\n      swap1\n      pop\n        /* \"contracts/freeSocial.sol\":1679:1829  function visualizarPost(address _criadorDoPost, uint _index) public view returns (Post memory) {... */\n      swap3\n      swap2\n      pop\n      pop\n      jump\t// out\n        /* \"contracts/freeSocial.sol\":1837:1976  function visualizarTodosOsPosts(address _criadorDoPost) public view returns (Post[] memory) {... */\n    tag_41:\n        /* \"contracts/freeSocial.sol\":1914:1927  Post[] memory */\n      0x60\n        /* \"contracts/freeSocial.sol\":1947:1952  posts */\n      0x01\n        /* \"contracts/freeSocial.sol\":1947:1968  posts[_criadorDoPost] */\n      0x00\n        /* \"contracts/freeSocial.sol\":1953:1967  _criadorDoPost */\n      dup4\n        /* \"contracts/freeSocial.sol\":1947:1968  posts[_criadorDoPost] */\n      0xffffffffffffffffffffffffffffffffffffffff\n      and\n      0xffffffffffffffffffffffffffffffffffffffff\n      and\n      dup2\n      mstore\n      0x20\n      add\n      swap1\n      dup2\n      mstore\n      0x20\n      add\n      0x00\n      keccak256\n        /* \"contracts/freeSocial.sol\":1940:1968  return posts[_criadorDoPost] */\n      dup1\n      sload\n      dup1\n      0x20\n      mul\n      0x20\n      add\n      mload(0x40)\n      swap1\n      dup2\n      add\n      0x40\n      mstore\n      dup1\n      swap3\n      swap2\n      swap1\n      dup2\n      dup2\n      mstore\n      0x20\n      add\n      0x00\n      swap1\n    tag_107:\n      dup3\n      dup3\n      lt\n      iszero\n      tag_108\n      jumpi\n      dup4\n      dup3\n      swap1\n      0x00\n      mstore\n      keccak256(0x00, 0x20)\n      swap1\n      0x05\n      mul\n      add\n      mload(0x40)\n      dup1\n      0xa0\n      add\n      0x40\n      mstore\n      swap1\n      dup2\n      0x00\n      dup3\n      add\n      sload\n      dup2\n      mstore\n      0x20\n      add\n      0x01\n      dup3\n      add\n      0x00\n      swap1\n      sload\n      swap1\n      0x0100\n      exp\n      swap1\n      div\n      0xffffffffffffffffffffffffffffffffffffffff\n      and\n      0xffffffffffffffffffffffffffffffffffffffff\n      and\n      0xffffffffffffffffffffffffffffffffffffffff\n      and\n      dup2\n      mstore\n      0x20\n      add\n      0x02\n      dup3\n      add\n      dup1\n      sload\n      tag_110\n      swap1\n      tag_90\n      jump\t// in\n    tag_110:\n      dup1\n      0x1f\n      add\n      0x20\n      dup1\n      swap2\n      div\n      mul\n      0x20\n      add\n      mload(0x40)\n      swap1\n      dup2\n      add\n      0x40\n      mstore\n      dup1\n      swap3\n      swap2\n      swap1\n      dup2\n      dup2\n      mstore\n      0x20\n      add\n      dup3\n      dup1\n      sload\n      tag_111\n      swap1\n      tag_90\n      jump\t// in\n    tag_111:\n      dup1\n      iszero\n      tag_112\n      jumpi\n      dup1\n      0x1f\n      lt\n      tag_113\n      jumpi\n      0x0100\n      dup1\n      dup4\n      sload\n      div\n      mul\n      dup4\n      mstore\n      swap2\n      0x20\n      add\n      swap2\n      jump(tag_112)\n    tag_113:\n      dup3\n      add\n      swap2\n      swap1\n      0x00\n      mstore\n      keccak256(0x00, 0x20)\n      swap1\n    tag_114:\n      dup2\n      sload\n      dup2\n      mstore\n      swap1\n      0x01\n      add\n      swap1\n      0x20\n      add\n      dup1\n      dup4\n      gt\n      tag_114\n      jumpi\n      dup3\n      swap1\n      sub\n      0x1f\n      and\n      dup3\n      add\n      swap2\n    tag_112:\n      pop\n      pop\n      pop\n      pop\n      pop\n      dup2\n      mstore\n      0x20\n      add\n      0x03\n      dup3\n      add\n      sload\n      dup2\n      mstore\n      0x20\n      add\n      0x04\n      dup3\n      add\n      sload\n      dup2\n      mstore\n      pop\n      pop\n      dup2\n      mstore\n      0x20\n      add\n      swap1\n      0x01\n      add\n      swap1\n      jump(tag_107)\n    tag_108:\n      pop\n      pop\n      pop\n      pop\n      swap1\n      pop\n        /* \"contracts/freeSocial.sol\":1837:1976  function visualizarTodosOsPosts(address _criadorDoPost) public view returns (Post[] memory) {... */\n      swap2\n      swap1\n      pop\n      jump\t// out\n        /* \"contracts/freeSocial.sol\":607:1048  function criarPost(string memory _texto) public {... */\n    tag_47:\n        /* \"contracts/freeSocial.sol\":698:718  MAXIMO_DE_CARACTERES */\n      0x00\n      dup1\n      sload\n      swap1\n      0x0100\n      exp\n      swap1\n      div\n      0xffff\n      and\n        /* \"contracts/freeSocial.sol\":674:718  bytes(_texto).length <= MAXIMO_DE_CARACTERES */\n      0xffff\n      and\n        /* \"contracts/freeSocial.sol\":680:686  _texto */\n      dup2\n        /* \"contracts/freeSocial.sol\":674:694  bytes(_texto).length */\n      mload\n        /* \"contracts/freeSocial.sol\":674:718  bytes(_texto).length <= MAXIMO_DE_CARACTERES */\n      gt\n      iszero\n        /* \"contracts/freeSocial.sol\":666:772  require(bytes(_texto).length <= MAXIMO_DE_CARACTERES, \"Quantidade maxima de caracteres foi ultrapassada!\") */\n      tag_116\n      jumpi\n      mload(0x40)\n      0x08c379a000000000000000000000000000000000000000000000000000000000\n      dup2\n      mstore\n      0x04\n      add\n      tag_117\n      swap1\n      tag_118\n      jump\t// in\n    tag_117:\n      mload(0x40)\n      dup1\n      swap2\n      sub\n      swap1\n      revert\n    tag_116:\n        /* \"contracts/freeSocial.sol\":785:804  Post memory newPost */\n      0x00\n        /* \"contracts/freeSocial.sol\":807:996  Post({... */\n      mload(0x40)\n      dup1\n      0xa0\n      add\n      0x40\n      mstore\n      dup1\n        /* \"contracts/freeSocial.sol\":831:836  posts */\n      0x01\n        /* \"contracts/freeSocial.sol\":831:848  posts[msg.sender] */\n      0x00\n        /* \"contracts/freeSocial.sol\":837:847  msg.sender */\n      caller\n        /* \"contracts/freeSocial.sol\":831:848  posts[msg.sender] */\n      0xffffffffffffffffffffffffffffffffffffffff\n      and\n      0xffffffffffffffffffffffffffffffffffffffff\n      and\n      dup2\n      mstore\n      0x20\n      add\n      swap1\n      dup2\n      mstore\n      0x20\n      add\n      0x00\n      keccak256\n        /* \"contracts/freeSocial.sol\":831:855  posts[msg.sender].length */\n      dup1\n      sload\n      swap1\n      pop\n        /* \"contracts/freeSocial.sol\":807:996  Post({... */\n      dup2\n      mstore\n      0x20\n      add\n        /* \"contracts/freeSocial.sol\":877:887  msg.sender */\n      caller\n        /* \"contracts/freeSocial.sol\":807:996  Post({... */\n      0xffffffffffffffffffffffffffffffffffffffff\n      and\n      dup2\n      mstore\n      0x20\n      add\n        /* \"contracts/freeSocial.sol\":912:918  _texto */\n      dup4\n        /* \"contracts/freeSocial.sol\":807:996  Post({... */\n      dup2\n      mstore\n      0x20\n      add\n        /* \"contracts/freeSocial.sol\":943:958  block.timestamp */\n      timestamp\n        /* \"contracts/freeSocial.sol\":807:996  Post({... */\n      dup2\n      mstore\n      0x20\n      add\n        /* \"contracts/freeSocial.sol\":983:984  0 */\n      0x00\n        /* \"contracts/freeSocial.sol\":807:996  Post({... */\n      dup2\n      mstore\n      pop\n        /* \"contracts/freeSocial.sol\":785:996  Post memory newPost = Post({... */\n      swap1\n      pop\n        /* \"contracts/freeSocial.sol\":1009:1014  posts */\n      0x01\n        /* \"contracts/freeSocial.sol\":1009:1026  posts[msg.sender] */\n      0x00\n        /* \"contracts/freeSocial.sol\":1015:1025  msg.sender */\n      caller\n        /* \"contracts/freeSocial.sol\":1009:1026  posts[msg.sender] */\n      0xffffffffffffffffffffffffffffffffffffffff\n      and\n      0xffffffffffffffffffffffffffffffffffffffff\n      and\n      dup2\n      mstore\n      0x20\n      add\n      swap1\n      dup2\n      mstore\n      0x20\n      add\n      0x00\n      keccak256\n        /* \"contracts/freeSocial.sol\":1032:1039  newPost */\n      dup2\n        /* \"contracts/freeSocial.sol\":1009:1040  posts[msg.sender].push(newPost) */\n      swap1\n      dup1\n      0x01\n      dup2\n      sload\n      add\n      dup1\n      dup3\n      sstore\n      dup1\n      swap2\n      pop\n      pop\n      0x01\n      swap1\n      sub\n      swap1\n      0x00\n      mstore\n      keccak256(0x00, 0x20)\n      swap1\n      0x05\n      mul\n      add\n      0x00\n      swap1\n      swap2\n      swap1\n      swap2\n      swap1\n      swap2\n      pop\n      0x00\n      dup3\n      add\n      mload\n      dup2\n      0x00\n      add\n      sstore\n      0x20\n      dup3\n      add\n      mload\n      dup2\n      0x01\n      add\n      exp(0x0100, 0x00)\n      dup2\n      sload\n      dup2\n      0xffffffffffffffffffffffffffffffffffffffff\n      mul\n      not\n      and\n      swap1\n      dup4\n      0xffffffffffffffffffffffffffffffffffffffff\n      and\n      mul\n      or\n      swap1\n      sstore\n      pop\n      0x40\n      dup3\n      add\n      mload\n      dup2\n      0x02\n      add\n      swap1\n      dup2\n      tag_120\n      swap2\n      swap1\n      tag_121\n      jump\t// in\n    tag_120:\n      pop\n      0x60\n      dup3\n      add\n      mload\n      dup2\n      0x03\n      add\n      sstore\n      0x80\n      dup3\n      add\n      mload\n      dup2\n      0x04\n      add\n      sstore\n      pop\n      pop\n        /* \"contracts/freeSocial.sol\":655:1048  {... */\n      pop\n        /* \"contracts/freeSocial.sol\":607:1048  function criarPost(string memory _texto) public {... */\n      pop\n      jump\t// out\n        /* \"contracts/freeSocial.sol\":339:368  address public donoDoContrato */\n    tag_49:\n      0x02\n      0x00\n      swap1\n      sload\n      swap1\n      0x0100\n      exp\n      swap1\n      div\n      0xffffffffffffffffffffffffffffffffffffffff\n      and\n      dup2\n      jump\t// out\n    tag_96:\n      mload(0x40)\n      dup1\n      0xa0\n      add\n      0x40\n      mstore\n      dup1\n      0x00\n      dup2\n      mstore\n      0x20\n      add\n      and(0xffffffffffffffffffffffffffffffffffffffff, 0x00)\n      dup2\n      mstore\n      0x20\n      add\n      0x60\n      dup2\n      mstore\n      0x20\n      add\n      0x00\n      dup2\n      mstore\n      0x20\n      add\n      0x00\n      dup2\n      mstore\n      pop\n      swap1\n      jump\t// out\n        /* \"#utility.yul\":7:82   */\n    tag_122:\n        /* \"#utility.yul\":40:46   */\n      0x00\n        /* \"#utility.yul\":73:75   */\n      0x40\n        /* \"#utility.yul\":67:76   */\n      mload\n        /* \"#utility.yul\":57:76   */\n      swap1\n      pop\n        /* \"#utility.yul\":7:82   */\n      swap1\n      jump\t// out\n        /* \"#utility.yul\":88:205   */\n    tag_123:\n        /* \"#utility.yul\":197:198   */\n      0x00\n        /* \"#utility.yul\":194:195   */\n      dup1\n        /* \"#utility.yul\":187:199   */\n      revert\n        /* \"#utility.yul\":211:328   */\n    tag_124:\n        /* \"#utility.yul\":320:321   */\n      0x00\n        /* \"#utility.yul\":317:318   */\n      dup1\n        /* \"#utility.yul\":310:322   */\n      revert\n        /* \"#utility.yul\":334:460   */\n    tag_125:\n        /* \"#utility.yul\":371:378   */\n      0x00\n        /* \"#utility.yul\":411:453   */\n      0xffffffffffffffffffffffffffffffffffffffff\n        /* \"#utility.yul\":404:409   */\n      dup3\n        /* \"#utility.yul\":400:454   */\n      and\n        /* \"#utility.yul\":389:454   */\n      swap1\n      pop\n        /* \"#utility.yul\":334:460   */\n      swap2\n      swap1\n      pop\n      jump\t// out\n        /* \"#utility.yul\":466:562   */\n    tag_126:\n        /* \"#utility.yul\":503:510   */\n      0x00\n        /* \"#utility.yul\":532:556   */\n      tag_195\n        /* \"#utility.yul\":550:555   */\n      dup3\n        /* \"#utility.yul\":532:556   */\n      tag_125\n      jump\t// in\n    tag_195:\n        /* \"#utility.yul\":521:556   */\n      swap1\n      pop\n        /* \"#utility.yul\":466:562   */\n      swap2\n      swap1\n      pop\n      jump\t// out\n        /* \"#utility.yul\":568:690   */\n    tag_127:\n        /* \"#utility.yul\":641:665   */\n      tag_197\n        /* \"#utility.yul\":659:664   */\n      dup2\n        /* \"#utility.yul\":641:665   */\n      tag_126\n      jump\t// in\n    tag_197:\n        /* \"#utility.yul\":634:639   */\n      dup2\n        /* \"#utility.yul\":631:666   */\n      eq\n        /* \"#utility.yul\":621:684   */\n      tag_198\n      jumpi\n        /* \"#utility.yul\":680:681   */\n      0x00\n        /* \"#utility.yul\":677:678   */\n      dup1\n        /* \"#utility.yul\":670:682   */\n      revert\n        /* \"#utility.yul\":621:684   */\n    tag_198:\n        /* \"#utility.yul\":568:690   */\n      pop\n      jump\t// out\n        /* \"#utility.yul\":696:835   */\n    tag_128:\n        /* \"#utility.yul\":742:747   */\n      0x00\n        /* \"#utility.yul\":780:786   */\n      dup2\n        /* \"#utility.yul\":767:787   */\n      calldataload\n        /* \"#utility.yul\":758:787   */\n      swap1\n      pop\n        /* \"#utility.yul\":796:829   */\n      tag_200\n        /* \"#utility.yul\":823:828   */\n      dup2\n        /* \"#utility.yul\":796:829   */\n      tag_127\n      jump\t// in\n    tag_200:\n        /* \"#utility.yul\":696:835   */\n      swap3\n      swap2\n      pop\n      pop\n      jump\t// out\n        /* \"#utility.yul\":841:918   */\n    tag_129:\n        /* \"#utility.yul\":878:885   */\n      0x00\n        /* \"#utility.yul\":907:912   */\n      dup2\n        /* \"#utility.yul\":896:912   */\n      swap1\n      pop\n        /* \"#utility.yul\":841:918   */\n      swap2\n      swap1\n      pop\n      jump\t// out\n        /* \"#utility.yul\":924:1046   */\n    tag_130:\n        /* \"#utility.yul\":997:1021   */\n      tag_203\n        /* \"#utility.yul\":1015:1020   */\n      dup2\n        /* \"#utility.yul\":997:1021   */\n      tag_129\n      jump\t// in\n    tag_203:\n        /* \"#utility.yul\":990:995   */\n      dup2\n        /* \"#utility.yul\":987:1022   */\n      eq\n        /* \"#utility.yul\":977:1040   */\n      tag_204\n      jumpi\n        /* \"#utility.yul\":1036:1037   */\n      0x00\n        /* \"#utility.yul\":1033:1034   */\n      dup1\n        /* \"#utility.yul\":1026:1038   */\n      revert\n        /* \"#utility.yul\":977:1040   */\n    tag_204:\n        /* \"#utility.yul\":924:1046   */\n      pop\n      jump\t// out\n        /* \"#utility.yul\":1052:1191   */\n    tag_131:\n        /* \"#utility.yul\":1098:1103   */\n      0x00\n        /* \"#utility.yul\":1136:1142   */\n      dup2\n        /* \"#utility.yul\":1123:1143   */\n      calldataload\n        /* \"#utility.yul\":1114:1143   */\n      swap1\n      pop\n        /* \"#utility.yul\":1152:1185   */\n      tag_206\n        /* \"#utility.yul\":1179:1184   */\n      dup2\n        /* \"#utility.yul\":1152:1185   */\n      tag_130\n      jump\t// in\n    tag_206:\n        /* \"#utility.yul\":1052:1191   */\n      swap3\n      swap2\n      pop\n      pop\n      jump\t// out\n        /* \"#utility.yul\":1197:1671   */\n    tag_15:\n        /* \"#utility.yul\":1265:1271   */\n      0x00\n        /* \"#utility.yul\":1273:1279   */\n      dup1\n        /* \"#utility.yul\":1322:1324   */\n      0x40\n        /* \"#utility.yul\":1310:1319   */\n      dup4\n        /* \"#utility.yul\":1301:1308   */\n      dup6\n        /* \"#utility.yul\":1297:1320   */\n      sub\n        /* \"#utility.yul\":1293:1325   */\n      slt\n        /* \"#utility.yul\":1290:1409   */\n      iszero\n      tag_208\n      jumpi\n        /* \"#utility.yul\":1328:1407   */\n      tag_209\n      tag_123\n      jump\t// in\n    tag_209:\n        /* \"#utility.yul\":1290:1409   */\n    tag_208:\n        /* \"#utility.yul\":1448:1449   */\n      0x00\n        /* \"#utility.yul\":1473:1526   */\n      tag_210\n        /* \"#utility.yul\":1518:1525   */\n      dup6\n        /* \"#utility.yul\":1509:1515   */\n      dup3\n        /* \"#utility.yul\":1498:1507   */\n      dup7\n        /* \"#utility.yul\":1494:1516   */\n      add\n        /* \"#utility.yul\":1473:1526   */\n      tag_128\n      jump\t// in\n    tag_210:\n        /* \"#utility.yul\":1463:1526   */\n      swap3\n      pop\n        /* \"#utility.yul\":1419:1536   */\n      pop\n        /* \"#utility.yul\":1575:1577   */\n      0x20\n        /* \"#utility.yul\":1601:1654   */\n      tag_211\n        /* \"#utility.yul\":1646:1653   */\n      dup6\n        /* \"#utility.yul\":1637:1643   */\n      dup3\n        /* \"#utility.yul\":1626:1635   */\n      dup7\n        /* \"#utility.yul\":1622:1644   */\n      add\n        /* \"#utility.yul\":1601:1654   */\n      tag_131\n      jump\t// in\n    tag_211:\n        /* \"#utility.yul\":1591:1654   */\n      swap2\n      pop\n        /* \"#utility.yul\":1546:1664   */\n      pop\n        /* \"#utility.yul\":1197:1671   */\n      swap3\n      pop\n      swap3\n      swap1\n      pop\n      jump\t// out\n        /* \"#utility.yul\":1677:1766   */\n    tag_132:\n        /* \"#utility.yul\":1713:1720   */\n      0x00\n        /* \"#utility.yul\":1753:1759   */\n      0xffff\n        /* \"#utility.yul\":1746:1751   */\n      dup3\n        /* \"#utility.yul\":1742:1760   */\n      and\n        /* \"#utility.yul\":1731:1760   */\n      swap1\n      pop\n        /* \"#utility.yul\":1677:1766   */\n      swap2\n      swap1\n      pop\n      jump\t// out\n        /* \"#utility.yul\":1772:1887   */\n    tag_133:\n        /* \"#utility.yul\":1857:1880   */\n      tag_214\n        /* \"#utility.yul\":1874:1879   */\n      dup2\n        /* \"#utility.yul\":1857:1880   */\n      tag_132\n      jump\t// in\n    tag_214:\n        /* \"#utility.yul\":1852:1855   */\n      dup3\n        /* \"#utility.yul\":1845:1881   */\n      mstore\n        /* \"#utility.yul\":1772:1887   */\n      pop\n      pop\n      jump\t// out\n        /* \"#utility.yul\":1893:2111   */\n    tag_23:\n        /* \"#utility.yul\":1984:1988   */\n      0x00\n        /* \"#utility.yul\":2022:2024   */\n      0x20\n        /* \"#utility.yul\":2011:2020   */\n      dup3\n        /* \"#utility.yul\":2007:2025   */\n      add\n        /* \"#utility.yul\":1999:2025   */\n      swap1\n      pop\n        /* \"#utility.yul\":2035:2104   */\n      tag_216\n        /* \"#utility.yul\":2101:2102   */\n      0x00\n        /* \"#utility.yul\":2090:2099   */\n      dup4\n        /* \"#utility.yul\":2086:2103   */\n      add\n        /* \"#utility.yul\":2077:2083   */\n      dup5\n        /* \"#utility.yul\":2035:2104   */\n      tag_133\n      jump\t// in\n    tag_216:\n        /* \"#utility.yul\":1893:2111   */\n      swap3\n      swap2\n      pop\n      pop\n      jump\t// out\n        /* \"#utility.yul\":2117:2237   */\n    tag_134:\n        /* \"#utility.yul\":2189:2212   */\n      tag_218\n        /* \"#utility.yul\":2206:2211   */\n      dup2\n        /* \"#utility.yul\":2189:2212   */\n      tag_132\n      jump\t// in\n    tag_218:\n        /* \"#utility.yul\":2182:2187   */\n      dup2\n        /* \"#utility.yul\":2179:2213   */\n      eq\n        /* \"#utility.yul\":2169:2231   */\n      tag_219\n      jumpi\n        /* \"#utility.yul\":2227:2228   */\n      0x00\n        /* \"#utility.yul\":2224:2225   */\n      dup1\n        /* \"#utility.yul\":2217:2229   */\n      revert\n        /* \"#utility.yul\":2169:2231   */\n    tag_219:\n        /* \"#utility.yul\":2117:2237   */\n      pop\n      jump\t// out\n        /* \"#utility.yul\":2243:2380   */\n    tag_135:\n        /* \"#utility.yul\":2288:2293   */\n      0x00\n        /* \"#utility.yul\":2326:2332   */\n      dup2\n        /* \"#utility.yul\":2313:2333   */\n      calldataload\n        /* \"#utility.yul\":2304:2333   */\n      swap1\n      pop\n        /* \"#utility.yul\":2342:2374   */\n      tag_221\n        /* \"#utility.yul\":2368:2373   */\n      dup2\n        /* \"#utility.yul\":2342:2374   */\n      tag_134\n      jump\t// in\n    tag_221:\n        /* \"#utility.yul\":2243:2380   */\n      swap3\n      swap2\n      pop\n      pop\n      jump\t// out\n        /* \"#utility.yul\":2386:2713   */\n    tag_26:\n        /* \"#utility.yul\":2444:2450   */\n      0x00\n        /* \"#utility.yul\":2493:2495   */\n      0x20\n        /* \"#utility.yul\":2481:2490   */\n      dup3\n        /* \"#utility.yul\":2472:2479   */\n      dup5\n        /* \"#utility.yul\":2468:2491   */\n      sub\n        /* \"#utility.yul\":2464:2496   */\n      slt\n        /* \"#utility.yul\":2461:2580   */\n      iszero\n      tag_223\n      jumpi\n        /* \"#utility.yul\":2499:2578   */\n      tag_224\n      tag_123\n      jump\t// in\n    tag_224:\n        /* \"#utility.yul\":2461:2580   */\n    tag_223:\n        /* \"#utility.yul\":2619:2620   */\n      0x00\n        /* \"#utility.yul\":2644:2696   */\n      tag_225\n        /* \"#utility.yul\":2688:2695   */\n      dup5\n        /* \"#utility.yul\":2679:2685   */\n      dup3\n        /* \"#utility.yul\":2668:2677   */\n      dup6\n        /* \"#utility.yul\":2664:2686   */\n      add\n        /* \"#utility.yul\":2644:2696   */\n      tag_135\n      jump\t// in\n    tag_225:\n        /* \"#utility.yul\":2634:2696   */\n      swap2\n      pop\n        /* \"#utility.yul\":2590:2706   */\n      pop\n        /* \"#utility.yul\":2386:2713   */\n      swap3\n      swap2\n      pop\n      pop\n      jump\t// out\n        /* \"#utility.yul\":2719:2837   */\n    tag_136:\n        /* \"#utility.yul\":2806:2830   */\n      tag_227\n        /* \"#utility.yul\":2824:2829   */\n      dup2\n        /* \"#utility.yul\":2806:2830   */\n      tag_129\n      jump\t// in\n    tag_227:\n        /* \"#utility.yul\":2801:2804   */\n      dup3\n        /* \"#utility.yul\":2794:2831   */\n      mstore\n        /* \"#utility.yul\":2719:2837   */\n      pop\n      pop\n      jump\t// out\n        /* \"#utility.yul\":2843:2961   */\n    tag_137:\n        /* \"#utility.yul\":2930:2954   */\n      tag_229\n        /* \"#utility.yul\":2948:2953   */\n      dup2\n        /* \"#utility.yul\":2930:2954   */\n      tag_126\n      jump\t// in\n    tag_229:\n        /* \"#utility.yul\":2925:2928   */\n      dup3\n        /* \"#utility.yul\":2918:2955   */\n      mstore\n        /* \"#utility.yul\":2843:2961   */\n      pop\n      pop\n      jump\t// out\n        /* \"#utility.yul\":2967:3066   */\n    tag_138:\n        /* \"#utility.yul\":3019:3025   */\n      0x00\n        /* \"#utility.yul\":3053:3058   */\n      dup2\n        /* \"#utility.yul\":3047:3059   */\n      mload\n        /* \"#utility.yul\":3037:3059   */\n      swap1\n      pop\n        /* \"#utility.yul\":2967:3066   */\n      swap2\n      swap1\n      pop\n      jump\t// out\n        /* \"#utility.yul\":3072:3241   */\n    tag_139:\n        /* \"#utility.yul\":3156:3167   */\n      0x00\n        /* \"#utility.yul\":3190:3196   */\n      dup3\n        /* \"#utility.yul\":3185:3188   */\n      dup3\n        /* \"#utility.yul\":3178:3197   */\n      mstore\n        /* \"#utility.yul\":3230:3234   */\n      0x20\n        /* \"#utility.yul\":3225:3228   */\n      dup3\n        /* \"#utility.yul\":3221:3235   */\n      add\n        /* \"#utility.yul\":3206:3235   */\n      swap1\n      pop\n        /* \"#utility.yul\":3072:3241   */\n      swap3\n      swap2\n      pop\n      pop\n      jump\t// out\n        /* \"#utility.yul\":3247:3386   */\n    tag_140:\n        /* \"#utility.yul\":3336:3342   */\n      dup3\n        /* \"#utility.yul\":3331:3334   */\n      dup2\n        /* \"#utility.yul\":3326:3329   */\n      dup4\n        /* \"#utility.yul\":3320:3343   */\n      mcopy\n        /* \"#utility.yul\":3377:3378   */\n      0x00\n        /* \"#utility.yul\":3368:3374   */\n      dup4\n        /* \"#utility.yul\":3363:3366   */\n      dup4\n        /* \"#utility.yul\":3359:3375   */\n      add\n        /* \"#utility.yul\":3352:3379   */\n      mstore\n        /* \"#utility.yul\":3247:3386   */\n      pop\n      pop\n      pop\n      jump\t// out\n        /* \"#utility.yul\":3392:3494   */\n    tag_141:\n        /* \"#utility.yul\":3433:3439   */\n      0x00\n        /* \"#utility.yul\":3484:3486   */\n      0x1f\n        /* \"#utility.yul\":3480:3487   */\n      not\n        /* \"#utility.yul\":3475:3477   */\n      0x1f\n        /* \"#utility.yul\":3468:3473   */\n      dup4\n        /* \"#utility.yul\":3464:3478   */\n      add\n        /* \"#utility.yul\":3460:3488   */\n      and\n        /* \"#utility.yul\":3450:3488   */\n      swap1\n      pop\n        /* \"#utility.yul\":3392:3494   */\n      swap2\n      swap1\n      pop\n      jump\t// out\n        /* \"#utility.yul\":3500:3877   */\n    tag_142:\n        /* \"#utility.yul\":3588:3591   */\n      0x00\n        /* \"#utility.yul\":3616:3655   */\n      tag_235\n        /* \"#utility.yul\":3649:3654   */\n      dup3\n        /* \"#utility.yul\":3616:3655   */\n      tag_138\n      jump\t// in\n    tag_235:\n        /* \"#utility.yul\":3671:3742   */\n      tag_236\n        /* \"#utility.yul\":3735:3741   */\n      dup2\n        /* \"#utility.yul\":3730:3733   */\n      dup6\n        /* \"#utility.yul\":3671:3742   */\n      tag_139\n      jump\t// in\n    tag_236:\n        /* \"#utility.yul\":3664:3742   */\n      swap4\n      pop\n        /* \"#utility.yul\":3751:3816   */\n      tag_237\n        /* \"#utility.yul\":3809:3815   */\n      dup2\n        /* \"#utility.yul\":3804:3807   */\n      dup6\n        /* \"#utility.yul\":3797:3801   */\n      0x20\n        /* \"#utility.yul\":3790:3795   */\n      dup7\n        /* \"#utility.yul\":3786:3802   */\n      add\n        /* \"#utility.yul\":3751:3816   */\n      tag_140\n      jump\t// in\n    tag_237:\n        /* \"#utility.yul\":3841:3870   */\n      tag_238\n        /* \"#utility.yul\":3863:3869   */\n      dup2\n        /* \"#utility.yul\":3841:3870   */\n      tag_141\n      jump\t// in\n    tag_238:\n        /* \"#utility.yul\":3836:3839   */\n      dup5\n        /* \"#utility.yul\":3832:3871   */\n      add\n        /* \"#utility.yul\":3825:3871   */\n      swap2\n      pop\n        /* \"#utility.yul\":3592:3877   */\n      pop\n        /* \"#utility.yul\":3500:3877   */\n      swap3\n      swap2\n      pop\n      pop\n      jump\t// out\n        /* \"#utility.yul\":3883:4638   */\n    tag_32:\n        /* \"#utility.yul\":4108:4112   */\n      0x00\n        /* \"#utility.yul\":4146:4149   */\n      0xa0\n        /* \"#utility.yul\":4135:4144   */\n      dup3\n        /* \"#utility.yul\":4131:4150   */\n      add\n        /* \"#utility.yul\":4123:4150   */\n      swap1\n      pop\n        /* \"#utility.yul\":4160:4231   */\n      tag_240\n        /* \"#utility.yul\":4228:4229   */\n      0x00\n        /* \"#utility.yul\":4217:4226   */\n      dup4\n        /* \"#utility.yul\":4213:4230   */\n      add\n        /* \"#utility.yul\":4204:4210   */\n      dup9\n        /* \"#utility.yul\":4160:4231   */\n      tag_136\n      jump\t// in\n    tag_240:\n        /* \"#utility.yul\":4241:4313   */\n      tag_241\n        /* \"#utility.yul\":4309:4311   */\n      0x20\n        /* \"#utility.yul\":4298:4307   */\n      dup4\n        /* \"#utility.yul\":4294:4312   */\n      add\n        /* \"#utility.yul\":4285:4291   */\n      dup8\n        /* \"#utility.yul\":4241:4313   */\n      tag_137\n      jump\t// in\n    tag_241:\n        /* \"#utility.yul\":4360:4369   */\n      dup2\n        /* \"#utility.yul\":4354:4358   */\n      dup2\n        /* \"#utility.yul\":4350:4370   */\n      sub\n        /* \"#utility.yul\":4345:4347   */\n      0x40\n        /* \"#utility.yul\":4334:4343   */\n      dup4\n        /* \"#utility.yul\":4330:4348   */\n      add\n        /* \"#utility.yul\":4323:4371   */\n      mstore\n        /* \"#utility.yul\":4388:4466   */\n      tag_242\n        /* \"#utility.yul\":4461:4465   */\n      dup2\n        /* \"#utility.yul\":4452:4458   */\n      dup7\n        /* \"#utility.yul\":4388:4466   */\n      tag_142\n      jump\t// in\n    tag_242:\n        /* \"#utility.yul\":4380:4466   */\n      swap1\n      pop\n        /* \"#utility.yul\":4476:4548   */\n      tag_243\n        /* \"#utility.yul\":4544:4546   */\n      0x60\n        /* \"#utility.yul\":4533:4542   */\n      dup4\n        /* \"#utility.yul\":4529:4547   */\n      add\n        /* \"#utility.yul\":4520:4526   */\n      dup6\n        /* \"#utility.yul\":4476:4548   */\n      tag_136\n      jump\t// in\n    tag_243:\n        /* \"#utility.yul\":4558:4631   */\n      tag_244\n        /* \"#utility.yul\":4626:4629   */\n      0x80\n        /* \"#utility.yul\":4615:4624   */\n      dup4\n        /* \"#utility.yul\":4611:4630   */\n      add\n        /* \"#utility.yul\":4602:4608   */\n      dup5\n        /* \"#utility.yul\":4558:4631   */\n      tag_136\n      jump\t// in\n    tag_244:\n        /* \"#utility.yul\":3883:4638   */\n      swap7\n      swap6\n      pop\n      pop\n      pop\n      pop\n      pop\n      pop\n      jump\t// out\n        /* \"#utility.yul\":4644:4752   */\n    tag_143:\n        /* \"#utility.yul\":4721:4745   */\n      tag_246\n        /* \"#utility.yul\":4739:4744   */\n      dup2\n        /* \"#utility.yul\":4721:4745   */\n      tag_129\n      jump\t// in\n    tag_246:\n        /* \"#utility.yul\":4716:4719   */\n      dup3\n        /* \"#utility.yul\":4709:4746   */\n      mstore\n        /* \"#utility.yul\":4644:4752   */\n      pop\n      pop\n      jump\t// out\n        /* \"#utility.yul\":4758:4866   */\n    tag_144:\n        /* \"#utility.yul\":4835:4859   */\n      tag_248\n        /* \"#utility.yul\":4853:4858   */\n      dup2\n        /* \"#utility.yul\":4835:4859   */\n      tag_126\n      jump\t// in\n    tag_248:\n        /* \"#utility.yul\":4830:4833   */\n      dup3\n        /* \"#utility.yul\":4823:4860   */\n      mstore\n        /* \"#utility.yul\":4758:4866   */\n      pop\n      pop\n      jump\t// out\n        /* \"#utility.yul\":4872:5031   */\n    tag_145:\n        /* \"#utility.yul\":4946:4957   */\n      0x00\n        /* \"#utility.yul\":4980:4986   */\n      dup3\n        /* \"#utility.yul\":4975:4978   */\n      dup3\n        /* \"#utility.yul\":4968:4987   */\n      mstore\n        /* \"#utility.yul\":5020:5024   */\n      0x20\n        /* \"#utility.yul\":5015:5018   */\n      dup3\n        /* \"#utility.yul\":5011:5025   */\n      add\n        /* \"#utility.yul\":4996:5025   */\n      swap1\n      pop\n        /* \"#utility.yul\":4872:5031   */\n      swap3\n      swap2\n      pop\n      pop\n      jump\t// out\n        /* \"#utility.yul\":5037:5394   */\n    tag_146:\n        /* \"#utility.yul\":5115:5118   */\n      0x00\n        /* \"#utility.yul\":5143:5182   */\n      tag_251\n        /* \"#utility.yul\":5176:5181   */\n      dup3\n        /* \"#utility.yul\":5143:5182   */\n      tag_138\n      jump\t// in\n    tag_251:\n        /* \"#utility.yul\":5198:5259   */\n      tag_252\n        /* \"#utility.yul\":5252:5258   */\n      dup2\n        /* \"#utility.yul\":5247:5250   */\n      dup6\n        /* \"#utility.yul\":5198:5259   */\n      tag_145\n      jump\t// in\n    tag_252:\n        /* \"#utility.yul\":5191:5259   */\n      swap4\n      pop\n        /* \"#utility.yul\":5268:5333   */\n      tag_253\n        /* \"#utility.yul\":5326:5332   */\n      dup2\n        /* \"#utility.yul\":5321:5324   */\n      dup6\n        /* \"#utility.yul\":5314:5318   */\n      0x20\n        /* \"#utility.yul\":5307:5312   */\n      dup7\n        /* \"#utility.yul\":5303:5319   */\n      add\n        /* \"#utility.yul\":5268:5333   */\n      tag_140\n      jump\t// in\n    tag_253:\n        /* \"#utility.yul\":5358:5387   */\n      tag_254\n        /* \"#utility.yul\":5380:5386   */\n      dup2\n        /* \"#utility.yul\":5358:5387   */\n      tag_141\n      jump\t// in\n    tag_254:\n        /* \"#utility.yul\":5353:5356   */\n      dup5\n        /* \"#utility.yul\":5349:5388   */\n      add\n        /* \"#utility.yul\":5342:5388   */\n      swap2\n      pop\n        /* \"#utility.yul\":5119:5394   */\n      pop\n        /* \"#utility.yul\":5037:5394   */\n      swap3\n      swap2\n      pop\n      pop\n      jump\t// out\n        /* \"#utility.yul\":5456:6585   */\n    tag_147:\n        /* \"#utility.yul\":5565:5568   */\n      0x00\n        /* \"#utility.yul\":5601:5605   */\n      0xa0\n        /* \"#utility.yul\":5596:5599   */\n      dup4\n        /* \"#utility.yul\":5592:5606   */\n      add\n        /* \"#utility.yul\":5686:5690   */\n      0x00\n        /* \"#utility.yul\":5679:5684   */\n      dup4\n        /* \"#utility.yul\":5675:5691   */\n      add\n        /* \"#utility.yul\":5669:5692   */\n      mload\n        /* \"#utility.yul\":5705:5768   */\n      tag_256\n        /* \"#utility.yul\":5762:5766   */\n      0x00\n        /* \"#utility.yul\":5757:5760   */\n      dup7\n        /* \"#utility.yul\":5753:5767   */\n      add\n        /* \"#utility.yul\":5739:5751   */\n      dup3\n        /* \"#utility.yul\":5705:5768   */\n      tag_143\n      jump\t// in\n    tag_256:\n        /* \"#utility.yul\":5616:5778   */\n      pop\n        /* \"#utility.yul\":5861:5865   */\n      0x20\n        /* \"#utility.yul\":5854:5859   */\n      dup4\n        /* \"#utility.yul\":5850:5866   */\n      add\n        /* \"#utility.yul\":5844:5867   */\n      mload\n        /* \"#utility.yul\":5880:5943   */\n      tag_257\n        /* \"#utility.yul\":5937:5941   */\n      0x20\n        /* \"#utility.yul\":5932:5935   */\n      dup7\n        /* \"#utility.yul\":5928:5942   */\n      add\n        /* \"#utility.yul\":5914:5926   */\n      dup3\n        /* \"#utility.yul\":5880:5943   */\n      tag_144\n      jump\t// in\n    tag_257:\n        /* \"#utility.yul\":5788:5953   */\n      pop\n        /* \"#utility.yul\":6039:6043   */\n      0x40\n        /* \"#utility.yul\":6032:6037   */\n      dup4\n        /* \"#utility.yul\":6028:6044   */\n      add\n        /* \"#utility.yul\":6022:6045   */\n      mload\n        /* \"#utility.yul\":6092:6095   */\n      dup5\n        /* \"#utility.yul\":6086:6090   */\n      dup3\n        /* \"#utility.yul\":6082:6096   */\n      sub\n        /* \"#utility.yul\":6075:6079   */\n      0x40\n        /* \"#utility.yul\":6070:6073   */\n      dup7\n        /* \"#utility.yul\":6066:6080   */\n      add\n        /* \"#utility.yul\":6059:6097   */\n      mstore\n        /* \"#utility.yul\":6118:6191   */\n      tag_258\n        /* \"#utility.yul\":6186:6190   */\n      dup3\n        /* \"#utility.yul\":6172:6184   */\n      dup3\n        /* \"#utility.yul\":6118:6191   */\n      tag_146\n      jump\t// in\n    tag_258:\n        /* \"#utility.yul\":6110:6191   */\n      swap2\n      pop\n        /* \"#utility.yul\":5963:6202   */\n      pop\n        /* \"#utility.yul\":6288:6292   */\n      0x60\n        /* \"#utility.yul\":6281:6286   */\n      dup4\n        /* \"#utility.yul\":6277:6293   */\n      add\n        /* \"#utility.yul\":6271:6294   */\n      mload\n        /* \"#utility.yul\":6307:6370   */\n      tag_259\n        /* \"#utility.yul\":6364:6368   */\n      0x60\n        /* \"#utility.yul\":6359:6362   */\n      dup7\n        /* \"#utility.yul\":6355:6369   */\n      add\n        /* \"#utility.yul\":6341:6353   */\n      dup3\n        /* \"#utility.yul\":6307:6370   */\n      tag_143\n      jump\t// in\n    tag_259:\n        /* \"#utility.yul\":6212:6380   */\n      pop\n        /* \"#utility.yul\":6466:6470   */\n      0x80\n        /* \"#utility.yul\":6459:6464   */\n      dup4\n        /* \"#utility.yul\":6455:6471   */\n      add\n        /* \"#utility.yul\":6449:6472   */\n      mload\n        /* \"#utility.yul\":6485:6548   */\n      tag_260\n        /* \"#utility.yul\":6542:6546   */\n      0x80\n        /* \"#utility.yul\":6537:6540   */\n      dup7\n        /* \"#utility.yul\":6533:6547   */\n      add\n        /* \"#utility.yul\":6519:6531   */\n      dup3\n        /* \"#utility.yul\":6485:6548   */\n      tag_143\n      jump\t// in\n    tag_260:\n        /* \"#utility.yul\":6390:6558   */\n      pop\n        /* \"#utility.yul\":6575:6579   */\n      dup1\n        /* \"#utility.yul\":6568:6579   */\n      swap2\n      pop\n        /* \"#utility.yul\":5570:6585   */\n      pop\n        /* \"#utility.yul\":5456:6585   */\n      swap3\n      swap2\n      pop\n      pop\n      jump\t// out\n        /* \"#utility.yul\":6591:6944   */\n    tag_37:\n        /* \"#utility.yul\":6724:6728   */\n      0x00\n        /* \"#utility.yul\":6762:6764   */\n      0x20\n        /* \"#utility.yul\":6751:6760   */\n      dup3\n        /* \"#utility.yul\":6747:6765   */\n      add\n        /* \"#utility.yul\":6739:6765   */\n      swap1\n      pop\n        /* \"#utility.yul\":6811:6820   */\n      dup2\n        /* \"#utility.yul\":6805:6809   */\n      dup2\n        /* \"#utility.yul\":6801:6821   */\n      sub\n        /* \"#utility.yul\":6797:6798   */\n      0x00\n        /* \"#utility.yul\":6786:6795   */\n      dup4\n        /* \"#utility.yul\":6782:6799   */\n      add\n        /* \"#utility.yul\":6775:6822   */\n      mstore\n        /* \"#utility.yul\":6839:6937   */\n      tag_262\n        /* \"#utility.yul\":6932:6936   */\n      dup2\n        /* \"#utility.yul\":6923:6929   */\n      dup5\n        /* \"#utility.yul\":6839:6937   */\n      tag_147\n      jump\t// in\n    tag_262:\n        /* \"#utility.yul\":6831:6937   */\n      swap1\n      pop\n        /* \"#utility.yul\":6591:6944   */\n      swap3\n      swap2\n      pop\n      pop\n      jump\t// out\n        /* \"#utility.yul\":6950:7279   */\n    tag_40:\n        /* \"#utility.yul\":7009:7015   */\n      0x00\n        /* \"#utility.yul\":7058:7060   */\n      0x20\n        /* \"#utility.yul\":7046:7055   */\n      dup3\n        /* \"#utility.yul\":7037:7044   */\n      dup5\n        /* \"#utility.yul\":7033:7056   */\n      sub\n        /* \"#utility.yul\":7029:7061   */\n      slt\n        /* \"#utility.yul\":7026:7145   */\n      iszero\n      tag_264\n      jumpi\n        /* \"#utility.yul\":7064:7143   */\n      tag_265\n      tag_123\n      jump\t// in\n    tag_265:\n        /* \"#utility.yul\":7026:7145   */\n    tag_264:\n        /* \"#utility.yul\":7184:7185   */\n      0x00\n        /* \"#utility.yul\":7209:7262   */\n      tag_266\n        /* \"#utility.yul\":7254:7261   */\n      dup5\n        /* \"#utility.yul\":7245:7251   */\n      dup3\n        /* \"#utility.yul\":7234:7243   */\n      dup6\n        /* \"#utility.yul\":7230:7252   */\n      add\n        /* \"#utility.yul\":7209:7262   */\n      tag_128\n      jump\t// in\n    tag_266:\n        /* \"#utility.yul\":7199:7262   */\n      swap2\n      pop\n        /* \"#utility.yul\":7155:7272   */\n      pop\n        /* \"#utility.yul\":6950:7279   */\n      swap3\n      swap2\n      pop\n      pop\n      jump\t// out\n        /* \"#utility.yul\":7285:7419   */\n    tag_148:\n        /* \"#utility.yul\":7372:7378   */\n      0x00\n        /* \"#utility.yul\":7406:7411   */\n      dup2\n        /* \"#utility.yul\":7400:7412   */\n      mload\n        /* \"#utility.yul\":7390:7412   */\n      swap1\n      pop\n        /* \"#utility.yul\":7285:7419   */\n      swap2\n      swap1\n      pop\n      jump\t// out\n        /* \"#utility.yul\":7425:7629   */\n    tag_149:\n        /* \"#utility.yul\":7544:7555   */\n      0x00\n        /* \"#utility.yul\":7578:7584   */\n      dup3\n        /* \"#utility.yul\":7573:7576   */\n      dup3\n        /* \"#utility.yul\":7566:7585   */\n      mstore\n        /* \"#utility.yul\":7618:7622   */\n      0x20\n        /* \"#utility.yul\":7613:7616   */\n      dup3\n        /* \"#utility.yul\":7609:7623   */\n      add\n        /* \"#utility.yul\":7594:7623   */\n      swap1\n      pop\n        /* \"#utility.yul\":7425:7629   */\n      swap3\n      swap2\n      pop\n      pop\n      jump\t// out\n        /* \"#utility.yul\":7635:7787   */\n    tag_150:\n        /* \"#utility.yul\":7722:7726   */\n      0x00\n        /* \"#utility.yul\":7745:7748   */\n      dup2\n        /* \"#utility.yul\":7737:7748   */\n      swap1\n      pop\n        /* \"#utility.yul\":7775:7779   */\n      0x20\n        /* \"#utility.yul\":7770:7773   */\n      dup3\n        /* \"#utility.yul\":7766:7780   */\n      add\n        /* \"#utility.yul\":7758:7780   */\n      swap1\n      pop\n        /* \"#utility.yul\":7635:7787   */\n      swap2\n      swap1\n      pop\n      jump\t// out\n        /* \"#utility.yul\":7849:8968   */\n    tag_151:\n        /* \"#utility.yul\":7948:7951   */\n      0x00\n        /* \"#utility.yul\":7984:7988   */\n      0xa0\n        /* \"#utility.yul\":7979:7982   */\n      dup4\n        /* \"#utility.yul\":7975:7989   */\n      add\n        /* \"#utility.yul\":8069:8073   */\n      0x00\n        /* \"#utility.yul\":8062:8067   */\n      dup4\n        /* \"#utility.yul\":8058:8074   */\n      add\n        /* \"#utility.yul\":8052:8075   */\n      mload\n        /* \"#utility.yul\":8088:8151   */\n      tag_271\n        /* \"#utility.yul\":8145:8149   */\n      0x00\n        /* \"#utility.yul\":8140:8143   */\n      dup7\n        /* \"#utility.yul\":8136:8150   */\n      add\n        /* \"#utility.yul\":8122:8134   */\n      dup3\n        /* \"#utility.yul\":8088:8151   */\n      tag_143\n      jump\t// in\n    tag_271:\n        /* \"#utility.yul\":7999:8161   */\n      pop\n        /* \"#utility.yul\":8244:8248   */\n      0x20\n        /* \"#utility.yul\":8237:8242   */\n      dup4\n        /* \"#utility.yul\":8233:8249   */\n      add\n        /* \"#utility.yul\":8227:8250   */\n      mload\n        /* \"#utility.yul\":8263:8326   */\n      tag_272\n        /* \"#utility.yul\":8320:8324   */\n      0x20\n        /* \"#utility.yul\":8315:8318   */\n      dup7\n        /* \"#utility.yul\":8311:8325   */\n      add\n        /* \"#utility.yul\":8297:8309   */\n      dup3\n        /* \"#utility.yul\":8263:8326   */\n      tag_144\n      jump\t// in\n    tag_272:\n        /* \"#utility.yul\":8171:8336   */\n      pop\n        /* \"#utility.yul\":8422:8426   */\n      0x40\n        /* \"#utility.yul\":8415:8420   */\n      dup4\n        /* \"#utility.yul\":8411:8427   */\n      add\n        /* \"#utility.yul\":8405:8428   */\n      mload\n        /* \"#utility.yul\":8475:8478   */\n      dup5\n        /* \"#utility.yul\":8469:8473   */\n      dup3\n        /* \"#utility.yul\":8465:8479   */\n      sub\n        /* \"#utility.yul\":8458:8462   */\n      0x40\n        /* \"#utility.yul\":8453:8456   */\n      dup7\n        /* \"#utility.yul\":8449:8463   */\n      add\n        /* \"#utility.yul\":8442:8480   */\n      mstore\n        /* \"#utility.yul\":8501:8574   */\n      tag_273\n        /* \"#utility.yul\":8569:8573   */\n      dup3\n        /* \"#utility.yul\":8555:8567   */\n      dup3\n        /* \"#utility.yul\":8501:8574   */\n      tag_146\n      jump\t// in\n    tag_273:\n        /* \"#utility.yul\":8493:8574   */\n      swap2\n      pop\n        /* \"#utility.yul\":8346:8585   */\n      pop\n        /* \"#utility.yul\":8671:8675   */\n      0x60\n        /* \"#utility.yul\":8664:8669   */\n      dup4\n        /* \"#utility.yul\":8660:8676   */\n      add\n        /* \"#utility.yul\":8654:8677   */\n      mload\n        /* \"#utility.yul\":8690:8753   */\n      tag_274\n        /* \"#utility.yul\":8747:8751   */\n      0x60\n        /* \"#utility.yul\":8742:8745   */\n      dup7\n        /* \"#utility.yul\":8738:8752   */\n      add\n        /* \"#utility.yul\":8724:8736   */\n      dup3\n        /* \"#utility.yul\":8690:8753   */\n      tag_143\n      jump\t// in\n    tag_274:\n        /* \"#utility.yul\":8595:8763   */\n      pop\n        /* \"#utility.yul\":8849:8853   */\n      0x80\n        /* \"#utility.yul\":8842:8847   */\n      dup4\n        /* \"#utility.yul\":8838:8854   */\n      add\n        /* \"#utility.yul\":8832:8855   */\n      mload\n        /* \"#utility.yul\":8868:8931   */\n      tag_275\n        /* \"#utility.yul\":8925:8929   */\n      0x80\n        /* \"#utility.yul\":8920:8923   */\n      dup7\n        /* \"#utility.yul\":8916:8930   */\n      add\n        /* \"#utility.yul\":8902:8914   */\n      dup3\n        /* \"#utility.yul\":8868:8931   */\n      tag_143\n      jump\t// in\n    tag_275:\n        /* \"#utility.yul\":8773:8941   */\n      pop\n        /* \"#utility.yul\":8958:8962   */\n      dup1\n        /* \"#utility.yul\":8951:8962   */\n      swap2\n      pop\n        /* \"#utility.yul\":7953:8968   */\n      pop\n        /* \"#utility.yul\":7849:8968   */\n      swap3\n      swap2\n      pop\n      pop\n      jump\t// out\n        /* \"#utility.yul\":8974:9210   */\n    tag_152:\n        /* \"#utility.yul\":9083:9093   */\n      0x00\n        /* \"#utility.yul\":9118:9204   */\n      tag_277\n        /* \"#utility.yul\":9200:9203   */\n      dup4\n        /* \"#utility.yul\":9192:9198   */\n      dup4\n        /* \"#utility.yul\":9118:9204   */\n      tag_151\n      jump\t// in\n    tag_277:\n        /* \"#utility.yul\":9104:9204   */\n      swap1\n      pop\n        /* \"#utility.yul\":8974:9210   */\n      swap3\n      swap2\n      pop\n      pop\n      jump\t// out\n        /* \"#utility.yul\":9216:9349   */\n    tag_153:\n        /* \"#utility.yul\":9306:9310   */\n      0x00\n        /* \"#utility.yul\":9338:9342   */\n      0x20\n        /* \"#utility.yul\":9333:9336   */\n      dup3\n        /* \"#utility.yul\":9329:9343   */\n      add\n        /* \"#utility.yul\":9321:9343   */\n      swap1\n      pop\n        /* \"#utility.yul\":9216:9349   */\n      swap2\n      swap1\n      pop\n      jump\t// out\n        /* \"#utility.yul\":9415:10486   */\n    tag_154:\n        /* \"#utility.yul\":9574:9577   */\n      0x00\n        /* \"#utility.yul\":9603:9677   */\n      tag_280\n        /* \"#utility.yul\":9671:9676   */\n      dup3\n        /* \"#utility.yul\":9603:9677   */\n      tag_148\n      jump\t// in\n    tag_280:\n        /* \"#utility.yul\":9693:9799   */\n      tag_281\n        /* \"#utility.yul\":9792:9798   */\n      dup2\n        /* \"#utility.yul\":9787:9790   */\n      dup6\n        /* \"#utility.yul\":9693:9799   */\n      tag_149\n      jump\t// in\n    tag_281:\n        /* \"#utility.yul\":9686:9799   */\n      swap4\n      pop\n        /* \"#utility.yul\":9825:9828   */\n      dup4\n        /* \"#utility.yul\":9870:9874   */\n      0x20\n        /* \"#utility.yul\":9862:9868   */\n      dup3\n        /* \"#utility.yul\":9858:9875   */\n      mul\n        /* \"#utility.yul\":9853:9856   */\n      dup6\n        /* \"#utility.yul\":9849:9876   */\n      add\n        /* \"#utility.yul\":9900:9976   */\n      tag_282\n        /* \"#utility.yul\":9970:9975   */\n      dup6\n        /* \"#utility.yul\":9900:9976   */\n      tag_150\n      jump\t// in\n    tag_282:\n        /* \"#utility.yul\":9999:10006   */\n      dup1\n        /* \"#utility.yul\":10030:10031   */\n      0x00\n        /* \"#utility.yul\":10015:10441   */\n    tag_283:\n        /* \"#utility.yul\":10040:10046   */\n      dup6\n        /* \"#utility.yul\":10037:10038   */\n      dup2\n        /* \"#utility.yul\":10034:10047   */\n      lt\n        /* \"#utility.yul\":10015:10441   */\n      iszero\n      tag_285\n      jumpi\n        /* \"#utility.yul\":10111:10120   */\n      dup5\n        /* \"#utility.yul\":10105:10109   */\n      dup5\n        /* \"#utility.yul\":10101:10121   */\n      sub\n        /* \"#utility.yul\":10096:10099   */\n      dup10\n        /* \"#utility.yul\":10089:10122   */\n      mstore\n        /* \"#utility.yul\":10162:10168   */\n      dup2\n        /* \"#utility.yul\":10156:10169   */\n      mload\n        /* \"#utility.yul\":10190:10294   */\n      tag_286\n        /* \"#utility.yul\":10289:10293   */\n      dup6\n        /* \"#utility.yul\":10274:10287   */\n      dup3\n        /* \"#utility.yul\":10190:10294   */\n      tag_152\n      jump\t// in\n    tag_286:\n        /* \"#utility.yul\":10182:10294   */\n      swap5\n      pop\n        /* \"#utility.yul\":10317:10397   */\n      tag_287\n        /* \"#utility.yul\":10390:10396   */\n      dup4\n        /* \"#utility.yul\":10317:10397   */\n      tag_153\n      jump\t// in\n    tag_287:\n        /* \"#utility.yul\":10307:10397   */\n      swap3\n      pop\n        /* \"#utility.yul\":10426:10430   */\n      0x20\n        /* \"#utility.yul\":10421:10424   */\n      dup11\n        /* \"#utility.yul\":10417:10431   */\n      add\n        /* \"#utility.yul\":10410:10431   */\n      swap10\n      pop\n        /* \"#utility.yul\":10075:10441   */\n      pop\n        /* \"#utility.yul\":10062:10063   */\n      0x01\n        /* \"#utility.yul\":10059:10060   */\n      dup2\n        /* \"#utility.yul\":10055:10064   */\n      add\n        /* \"#utility.yul\":10050:10064   */\n      swap1\n      pop\n        /* \"#utility.yul\":10015:10441   */\n      jump(tag_283)\n    tag_285:\n        /* \"#utility.yul\":10019:10033   */\n      pop\n        /* \"#utility.yul\":10457:10461   */\n      dup3\n        /* \"#utility.yul\":10450:10461   */\n      swap8\n      pop\n        /* \"#utility.yul\":10477:10480   */\n      dup8\n        /* \"#utility.yul\":10470:10480   */\n      swap6\n      pop\n        /* \"#utility.yul\":9579:10486   */\n      pop\n      pop\n      pop\n      pop\n      pop\n        /* \"#utility.yul\":9415:10486   */\n      swap3\n      swap2\n      pop\n      pop\n      jump\t// out\n        /* \"#utility.yul\":10492:10945   */\n    tag_43:\n        /* \"#utility.yul\":10675:10679   */\n      0x00\n        /* \"#utility.yul\":10713:10715   */\n      0x20\n        /* \"#utility.yul\":10702:10711   */\n      dup3\n        /* \"#utility.yul\":10698:10716   */\n      add\n        /* \"#utility.yul\":10690:10716   */\n      swap1\n      pop\n        /* \"#utility.yul\":10762:10771   */\n      dup2\n        /* \"#utility.yul\":10756:10760   */\n      dup2\n        /* \"#utility.yul\":10752:10772   */\n      sub\n        /* \"#utility.yul\":10748:10749   */\n      0x00\n        /* \"#utility.yul\":10737:10746   */\n      dup4\n        /* \"#utility.yul\":10733:10750   */\n      add\n        /* \"#utility.yul\":10726:10773   */\n      mstore\n        /* \"#utility.yul\":10790:10938   */\n      tag_289\n        /* \"#utility.yul\":10933:10937   */\n      dup2\n        /* \"#utility.yul\":10924:10930   */\n      dup5\n        /* \"#utility.yul\":10790:10938   */\n      tag_154\n      jump\t// in\n    tag_289:\n        /* \"#utility.yul\":10782:10938   */\n      swap1\n      pop\n        /* \"#utility.yul\":10492:10945   */\n      swap3\n      swap2\n      pop\n      pop\n      jump\t// out\n        /* \"#utility.yul\":10951:11068   */\n    tag_155:\n        /* \"#utility.yul\":11060:11061   */\n      0x00\n        /* \"#utility.yul\":11057:11058   */\n      dup1\n        /* \"#utility.yul\":11050:11062   */\n      revert\n        /* \"#utility.yul\":11074:11191   */\n    tag_156:\n        /* \"#utility.yul\":11183:11184   */\n      0x00\n        /* \"#utility.yul\":11180:11181   */\n      dup1\n        /* \"#utility.yul\":11173:11185   */\n      revert\n        /* \"#utility.yul\":11197:11377   */\n    tag_157:\n        /* \"#utility.yul\":11245:11322   */\n      0x4e487b7100000000000000000000000000000000000000000000000000000000\n        /* \"#utility.yul\":11242:11243   */\n      0x00\n        /* \"#utility.yul\":11235:11323   */\n      mstore\n        /* \"#utility.yul\":11342:11346   */\n      0x41\n        /* \"#utility.yul\":11339:11340   */\n      0x04\n        /* \"#utility.yul\":11332:11347   */\n      mstore\n        /* \"#utility.yul\":11366:11370   */\n      0x24\n        /* \"#utility.yul\":11363:11364   */\n      0x00\n        /* \"#utility.yul\":11356:11371   */\n      revert\n        /* \"#utility.yul\":11383:11664   */\n    tag_158:\n        /* \"#utility.yul\":11466:11493   */\n      tag_294\n        /* \"#utility.yul\":11488:11492   */\n      dup3\n        /* \"#utility.yul\":11466:11493   */\n      tag_141\n      jump\t// in\n    tag_294:\n        /* \"#utility.yul\":11458:11464   */\n      dup2\n        /* \"#utility.yul\":11454:11494   */\n      add\n        /* \"#utility.yul\":11596:11602   */\n      dup2\n        /* \"#utility.yul\":11584:11594   */\n      dup2\n        /* \"#utility.yul\":11581:11603   */\n      lt\n        /* \"#utility.yul\":11560:11578   */\n      0xffffffffffffffff\n        /* \"#utility.yul\":11548:11558   */\n      dup3\n        /* \"#utility.yul\":11545:11579   */\n      gt\n        /* \"#utility.yul\":11542:11604   */\n      or\n        /* \"#utility.yul\":11539:11627   */\n      iszero\n      tag_295\n      jumpi\n        /* \"#utility.yul\":11607:11625   */\n      tag_296\n      tag_157\n      jump\t// in\n    tag_296:\n        /* \"#utility.yul\":11539:11627   */\n    tag_295:\n        /* \"#utility.yul\":11647:11657   */\n      dup1\n        /* \"#utility.yul\":11643:11645   */\n      0x40\n        /* \"#utility.yul\":11636:11658   */\n      mstore\n        /* \"#utility.yul\":11426:11664   */\n      pop\n        /* \"#utility.yul\":11383:11664   */\n      pop\n      pop\n      jump\t// out\n        /* \"#utility.yul\":11670:11799   */\n    tag_159:\n        /* \"#utility.yul\":11704:11710   */\n      0x00\n        /* \"#utility.yul\":11731:11751   */\n      tag_298\n      tag_122\n      jump\t// in\n    tag_298:\n        /* \"#utility.yul\":11721:11751   */\n      swap1\n      pop\n        /* \"#utility.yul\":11760:11793   */\n      tag_299\n        /* \"#utility.yul\":11788:11792   */\n      dup3\n        /* \"#utility.yul\":11780:11786   */\n      dup3\n        /* \"#utility.yul\":11760:11793   */\n      tag_158\n      jump\t// in\n    tag_299:\n        /* \"#utility.yul\":11670:11799   */\n      swap2\n      swap1\n      pop\n      jump\t// out\n        /* \"#utility.yul\":11805:12113   */\n    tag_160:\n        /* \"#utility.yul\":11867:11871   */\n      0x00\n        /* \"#utility.yul\":11957:11975   */\n      0xffffffffffffffff\n        /* \"#utility.yul\":11949:11955   */\n      dup3\n        /* \"#utility.yul\":11946:11976   */\n      gt\n        /* \"#utility.yul\":11943:11999   */\n      iszero\n      tag_301\n      jumpi\n        /* \"#utility.yul\":11979:11997   */\n      tag_302\n      tag_157\n      jump\t// in\n    tag_302:\n        /* \"#utility.yul\":11943:11999   */\n    tag_301:\n        /* \"#utility.yul\":12017:12046   */\n      tag_303\n        /* \"#utility.yul\":12039:12045   */\n      dup3\n        /* \"#utility.yul\":12017:12046   */\n      tag_141\n      jump\t// in\n    tag_303:\n        /* \"#utility.yul\":12009:12046   */\n      swap1\n      pop\n        /* \"#utility.yul\":12101:12105   */\n      0x20\n        /* \"#utility.yul\":12095:12099   */\n      dup2\n        /* \"#utility.yul\":12091:12106   */\n      add\n        /* \"#utility.yul\":12083:12106   */\n      swap1\n      pop\n        /* \"#utility.yul\":11805:12113   */\n      swap2\n      swap1\n      pop\n      jump\t// out\n        /* \"#utility.yul\":12119:12267   */\n    tag_161:\n        /* \"#utility.yul\":12217:12223   */\n      dup3\n        /* \"#utility.yul\":12212:12215   */\n      dup2\n        /* \"#utility.yul\":12207:12210   */\n      dup4\n        /* \"#utility.yul\":12194:12224   */\n      calldatacopy\n        /* \"#utility.yul\":12258:12259   */\n      0x00\n        /* \"#utility.yul\":12249:12255   */\n      dup4\n        /* \"#utility.yul\":12244:12247   */\n      dup4\n        /* \"#utility.yul\":12240:12256   */\n      add\n        /* \"#utility.yul\":12233:12260   */\n      mstore\n        /* \"#utility.yul\":12119:12267   */\n      pop\n      pop\n      pop\n      jump\t// out\n        /* \"#utility.yul\":12273:12698   */\n    tag_162:\n        /* \"#utility.yul\":12351:12356   */\n      0x00\n        /* \"#utility.yul\":12376:12442   */\n      tag_306\n        /* \"#utility.yul\":12392:12441   */\n      tag_307\n        /* \"#utility.yul\":12434:12440   */\n      dup5\n        /* \"#utility.yul\":12392:12441   */\n      tag_160\n      jump\t// in\n    tag_307:\n        /* \"#utility.yul\":12376:12442   */\n      tag_159\n      jump\t// in\n    tag_306:\n        /* \"#utility.yul\":12367:12442   */\n      swap1\n      pop\n        /* \"#utility.yul\":12465:12471   */\n      dup3\n        /* \"#utility.yul\":12458:12463   */\n      dup2\n        /* \"#utility.yul\":12451:12472   */\n      mstore\n        /* \"#utility.yul\":12503:12507   */\n      0x20\n        /* \"#utility.yul\":12496:12501   */\n      dup2\n        /* \"#utility.yul\":12492:12508   */\n      add\n        /* \"#utility.yul\":12541:12544   */\n      dup5\n        /* \"#utility.yul\":12532:12538   */\n      dup5\n        /* \"#utility.yul\":12527:12530   */\n      dup5\n        /* \"#utility.yul\":12523:12539   */\n      add\n        /* \"#utility.yul\":12520:12545   */\n      gt\n        /* \"#utility.yul\":12517:12629   */\n      iszero\n      tag_308\n      jumpi\n        /* \"#utility.yul\":12548:12627   */\n      tag_309\n      tag_156\n      jump\t// in\n    tag_309:\n        /* \"#utility.yul\":12517:12629   */\n    tag_308:\n        /* \"#utility.yul\":12638:12692   */\n      tag_310\n        /* \"#utility.yul\":12685:12691   */\n      dup5\n        /* \"#utility.yul\":12680:12683   */\n      dup3\n        /* \"#utility.yul\":12675:12678   */\n      dup6\n        /* \"#utility.yul\":12638:12692   */\n      tag_161\n      jump\t// in\n    tag_310:\n        /* \"#utility.yul\":12357:12698   */\n      pop\n        /* \"#utility.yul\":12273:12698   */\n      swap4\n      swap3\n      pop\n      pop\n      pop\n      jump\t// out\n        /* \"#utility.yul\":12718:13058   */\n    tag_163:\n        /* \"#utility.yul\":12774:12779   */\n      0x00\n        /* \"#utility.yul\":12823:12826   */\n      dup3\n        /* \"#utility.yul\":12816:12820   */\n      0x1f\n        /* \"#utility.yul\":12808:12814   */\n      dup4\n        /* \"#utility.yul\":12804:12821   */\n      add\n        /* \"#utility.yul\":12800:12827   */\n      slt\n        /* \"#utility.yul\":12790:12912   */\n      tag_312\n      jumpi\n        /* \"#utility.yul\":12831:12910   */\n      tag_313\n      tag_155\n      jump\t// in\n    tag_313:\n        /* \"#utility.yul\":12790:12912   */\n    tag_312:\n        /* \"#utility.yul\":12948:12954   */\n      dup2\n        /* \"#utility.yul\":12935:12955   */\n      calldataload\n        /* \"#utility.yul\":12973:13052   */\n      tag_314\n        /* \"#utility.yul\":13048:13051   */\n      dup5\n        /* \"#utility.yul\":13040:13046   */\n      dup3\n        /* \"#utility.yul\":13033:13037   */\n      0x20\n        /* \"#utility.yul\":13025:13031   */\n      dup7\n        /* \"#utility.yul\":13021:13038   */\n      add\n        /* \"#utility.yul\":12973:13052   */\n      tag_162\n      jump\t// in\n    tag_314:\n        /* \"#utility.yul\":12964:13052   */\n      swap2\n      pop\n        /* \"#utility.yul\":12780:13058   */\n      pop\n        /* \"#utility.yul\":12718:13058   */\n      swap3\n      swap2\n      pop\n      pop\n      jump\t// out\n        /* \"#utility.yul\":13064:13573   */\n    tag_46:\n        /* \"#utility.yul\":13133:13139   */\n      0x00\n        /* \"#utility.yul\":13182:13184   */\n      0x20\n        /* \"#utility.yul\":13170:13179   */\n      dup3\n        /* \"#utility.yul\":13161:13168   */\n      dup5\n        /* \"#utility.yul\":13157:13180   */\n      sub\n        /* \"#utility.yul\":13153:13185   */\n      slt\n        /* \"#utility.yul\":13150:13269   */\n      iszero\n      tag_316\n      jumpi\n        /* \"#utility.yul\":13188:13267   */\n      tag_317\n      tag_123\n      jump\t// in\n    tag_317:\n        /* \"#utility.yul\":13150:13269   */\n    tag_316:\n        /* \"#utility.yul\":13336:13337   */\n      0x00\n        /* \"#utility.yul\":13325:13334   */\n      dup3\n        /* \"#utility.yul\":13321:13338   */\n      add\n        /* \"#utility.yul\":13308:13339   */\n      calldataload\n        /* \"#utility.yul\":13366:13384   */\n      0xffffffffffffffff\n        /* \"#utility.yul\":13358:13364   */\n      dup2\n        /* \"#utility.yul\":13355:13385   */\n      gt\n        /* \"#utility.yul\":13352:13469   */\n      iszero\n      tag_318\n      jumpi\n        /* \"#utility.yul\":13388:13467   */\n      tag_319\n      tag_124\n      jump\t// in\n    tag_319:\n        /* \"#utility.yul\":13352:13469   */\n    tag_318:\n        /* \"#utility.yul\":13493:13556   */\n      tag_320\n        /* \"#utility.yul\":13548:13555   */\n      dup5\n        /* \"#utility.yul\":13539:13545   */\n      dup3\n        /* \"#utility.yul\":13528:13537   */\n      dup6\n        /* \"#utility.yul\":13524:13546   */\n      add\n        /* \"#utility.yul\":13493:13556   */\n      tag_163\n      jump\t// in\n    tag_320:\n        /* \"#utility.yul\":13483:13556   */\n      swap2\n      pop\n        /* \"#utility.yul\":13279:13566   */\n      pop\n        /* \"#utility.yul\":13064:13573   */\n      swap3\n      swap2\n      pop\n      pop\n      jump\t// out\n        /* \"#utility.yul\":13579:13801   */\n    tag_51:\n        /* \"#utility.yul\":13672:13676   */\n      0x00\n        /* \"#utility.yul\":13710:13712   */\n      0x20\n        /* \"#utility.yul\":13699:13708   */\n      dup3\n        /* \"#utility.yul\":13695:13713   */\n      add\n        /* \"#utility.yul\":13687:13713   */\n      swap1\n      pop\n        /* \"#utility.yul\":13723:13794   */\n      tag_322\n        /* \"#utility.yul\":13791:13792   */\n      0x00\n        /* \"#utility.yul\":13780:13789   */\n      dup4\n        /* \"#utility.yul\":13776:13793   */\n      add\n        /* \"#utility.yul\":13767:13773   */\n      dup5\n        /* \"#utility.yul\":13723:13794   */\n      tag_137\n      jump\t// in\n    tag_322:\n        /* \"#utility.yul\":13579:13801   */\n      swap3\n      swap2\n      pop\n      pop\n      jump\t// out\n        /* \"#utility.yul\":13807:13987   */\n    tag_55:\n        /* \"#utility.yul\":13855:13932   */\n      0x4e487b7100000000000000000000000000000000000000000000000000000000\n        /* \"#utility.yul\":13852:13853   */\n      0x00\n        /* \"#utility.yul\":13845:13933   */\n      mstore\n        /* \"#utility.yul\":13952:13956   */\n      0x32\n        /* \"#utility.yul\":13949:13950   */\n      0x04\n        /* \"#utility.yul\":13942:13957   */\n      mstore\n        /* \"#utility.yul\":13976:13980   */\n      0x24\n        /* \"#utility.yul\":13973:13974   */\n      0x00\n        /* \"#utility.yul\":13966:13981   */\n      revert\n        /* \"#utility.yul\":13993:14164   */\n    tag_164:\n        /* \"#utility.yul\":14133:14156   */\n      0x4573746520706f7374206e616f206578697374652e0000000000000000000000\n        /* \"#utility.yul\":14129:14130   */\n      0x00\n        /* \"#utility.yul\":14121:14127   */\n      dup3\n        /* \"#utility.yul\":14117:14131   */\n      add\n        /* \"#utility.yul\":14110:14157   */\n      mstore\n        /* \"#utility.yul\":13993:14164   */\n      pop\n      jump\t// out\n        /* \"#utility.yul\":14170:14536   */\n    tag_165:\n        /* \"#utility.yul\":14312:14315   */\n      0x00\n        /* \"#utility.yul\":14333:14400   */\n      tag_326\n        /* \"#utility.yul\":14397:14399   */\n      0x15\n        /* \"#utility.yul\":14392:14395   */\n      dup4\n        /* \"#utility.yul\":14333:14400   */\n      tag_139\n      jump\t// in\n    tag_326:\n        /* \"#utility.yul\":14326:14400   */\n      swap2\n      pop\n        /* \"#utility.yul\":14409:14502   */\n      tag_327\n        /* \"#utility.yul\":14498:14501   */\n      dup3\n        /* \"#utility.yul\":14409:14502   */\n      tag_164\n      jump\t// in\n    tag_327:\n        /* \"#utility.yul\":14527:14529   */\n      0x20\n        /* \"#utility.yul\":14522:14525   */\n      dup3\n        /* \"#utility.yul\":14518:14530   */\n      add\n        /* \"#utility.yul\":14511:14530   */\n      swap1\n      pop\n        /* \"#utility.yul\":14170:14536   */\n      swap2\n      swap1\n      pop\n      jump\t// out\n        /* \"#utility.yul\":14542:14961   */\n    tag_59:\n        /* \"#utility.yul\":14708:14712   */\n      0x00\n        /* \"#utility.yul\":14746:14748   */\n      0x20\n        /* \"#utility.yul\":14735:14744   */\n      dup3\n        /* \"#utility.yul\":14731:14749   */\n      add\n        /* \"#utility.yul\":14723:14749   */\n      swap1\n      pop\n        /* \"#utility.yul\":14795:14804   */\n      dup2\n        /* \"#utility.yul\":14789:14793   */\n      dup2\n        /* \"#utility.yul\":14785:14805   */\n      sub\n        /* \"#utility.yul\":14781:14782   */\n      0x00\n        /* \"#utility.yul\":14770:14779   */\n      dup4\n        /* \"#utility.yul\":14766:14783   */\n      add\n        /* \"#utility.yul\":14759:14806   */\n      mstore\n        /* \"#utility.yul\":14823:14954   */\n      tag_329\n        /* \"#utility.yul\":14949:14953   */\n      dup2\n        /* \"#utility.yul\":14823:14954   */\n      tag_165\n      jump\t// in\n    tag_329:\n        /* \"#utility.yul\":14815:14954   */\n      swap1\n      pop\n        /* \"#utility.yul\":14542:14961   */\n      swap2\n      swap1\n      pop\n      jump\t// out\n        /* \"#utility.yul\":14967:15147   */\n    tag_166:\n        /* \"#utility.yul\":15015:15092   */\n      0x4e487b7100000000000000000000000000000000000000000000000000000000\n        /* \"#utility.yul\":15012:15013   */\n      0x00\n        /* \"#utility.yul\":15005:15093   */\n      mstore\n        /* \"#utility.yul\":15112:15116   */\n      0x11\n        /* \"#utility.yul\":15109:15110   */\n      0x04\n        /* \"#utility.yul\":15102:15117   */\n      mstore\n        /* \"#utility.yul\":15136:15140   */\n      0x24\n        /* \"#utility.yul\":15133:15134   */\n      0x00\n        /* \"#utility.yul\":15126:15141   */\n      revert\n        /* \"#utility.yul\":15153:15386   */\n    tag_64:\n        /* \"#utility.yul\":15192:15195   */\n      0x00\n        /* \"#utility.yul\":15215:15239   */\n      tag_332\n        /* \"#utility.yul\":15233:15238   */\n      dup3\n        /* \"#utility.yul\":15215:15239   */\n      tag_129\n      jump\t// in\n    tag_332:\n        /* \"#utility.yul\":15206:15239   */\n      swap2\n      pop\n        /* \"#utility.yul\":15261:15327   */\n      0xffffffffffffffffffffffffffffffffffffffffffffffffffffffffffffffff\n        /* \"#utility.yul\":15254:15259   */\n      dup3\n        /* \"#utility.yul\":15251:15328   */\n      sub\n        /* \"#utility.yul\":15248:15351   */\n      tag_333\n      jumpi\n        /* \"#utility.yul\":15331:15349   */\n      tag_334\n      tag_166\n      jump\t// in\n    tag_334:\n        /* \"#utility.yul\":15248:15351   */\n    tag_333:\n        /* \"#utility.yul\":15378:15379   */\n      0x01\n        /* \"#utility.yul\":15371:15376   */\n      dup3\n        /* \"#utility.yul\":15367:15380   */\n      add\n        /* \"#utility.yul\":15360:15380   */\n      swap1\n      pop\n        /* \"#utility.yul\":15153:15386   */\n      swap2\n      swap1\n      pop\n      jump\t// out\n        /* \"#utility.yul\":15392:15569   */\n    tag_167:\n        /* \"#utility.yul\":15532:15561   */\n      0x4f20706f7374206e616f20706f737375692063757274696461732e0000000000\n        /* \"#utility.yul\":15528:15529   */\n      0x00\n        /* \"#utility.yul\":15520:15526   */\n      dup3\n        /* \"#utility.yul\":15516:15530   */\n      add\n        /* \"#utility.yul\":15509:15562   */\n      mstore\n        /* \"#utility.yul\":15392:15569   */\n      pop\n      jump\t// out\n        /* \"#utility.yul\":15575:15941   */\n    tag_168:\n        /* \"#utility.yul\":15717:15720   */\n      0x00\n        /* \"#utility.yul\":15738:15805   */\n      tag_337\n        /* \"#utility.yul\":15802:15804   */\n      0x1b\n        /* \"#utility.yul\":15797:15800   */\n      dup4\n        /* \"#utility.yul\":15738:15805   */\n      tag_139\n      jump\t// in\n    tag_337:\n        /* \"#utility.yul\":15731:15805   */\n      swap2\n      pop\n        /* \"#utility.yul\":15814:15907   */\n      tag_338\n        /* \"#utility.yul\":15903:15906   */\n      dup3\n        /* \"#utility.yul\":15814:15907   */\n      tag_167\n      jump\t// in\n    tag_338:\n        /* \"#utility.yul\":15932:15934   */\n      0x20\n        /* \"#utility.yul\":15927:15930   */\n      dup3\n        /* \"#utility.yul\":15923:15935   */\n      add\n        /* \"#utility.yul\":15916:15935   */\n      swap1\n      pop\n        /* \"#utility.yul\":15575:15941   */\n      swap2\n      swap1\n      pop\n      jump\t// out\n        /* \"#utility.yul\":15947:16366   */\n    tag_76:\n        /* \"#utility.yul\":16113:16117   */\n      0x00\n        /* \"#utility.yul\":16151:16153   */\n      0x20\n        /* \"#utility.yul\":16140:16149   */\n      dup3\n        /* \"#utility.yul\":16136:16154   */\n      add\n        /* \"#utility.yul\":16128:16154   */\n      swap1\n      pop\n        /* \"#utility.yul\":16200:16209   */\n      dup2\n        /* \"#utility.yul\":16194:16198   */\n      dup2\n        /* \"#utility.yul\":16190:16210   */\n      sub\n        /* \"#utility.yul\":16186:16187   */\n      0x00\n        /* \"#utility.yul\":16175:16184   */\n      dup4\n        /* \"#utility.yul\":16171:16188   */\n      add\n        /* \"#utility.yul\":16164:16211   */\n      mstore\n        /* \"#utility.yul\":16228:16359   */\n      tag_340\n        /* \"#utility.yul\":16354:16358   */\n      dup2\n        /* \"#utility.yul\":16228:16359   */\n      tag_168\n      jump\t// in\n    tag_340:\n        /* \"#utility.yul\":16220:16359   */\n      swap1\n      pop\n        /* \"#utility.yul\":15947:16366   */\n      swap2\n      swap1\n      pop\n      jump\t// out\n        /* \"#utility.yul\":16372:16543   */\n    tag_81:\n        /* \"#utility.yul\":16411:16414   */\n      0x00\n        /* \"#utility.yul\":16434:16458   */\n      tag_342\n        /* \"#utility.yul\":16452:16457   */\n      dup3\n        /* \"#utility.yul\":16434:16458   */\n      tag_129\n      jump\t// in\n    tag_342:\n        /* \"#utility.yul\":16425:16458   */\n      swap2\n      pop\n        /* \"#utility.yul\":16480:16484   */\n      0x00\n        /* \"#utility.yul\":16473:16478   */\n      dup3\n        /* \"#utility.yul\":16470:16485   */\n      sub\n        /* \"#utility.yul\":16467:16508   */\n      tag_343\n      jumpi\n        /* \"#utility.yul\":16488:16506   */\n      tag_344\n      tag_166\n      jump\t// in\n    tag_344:\n        /* \"#utility.yul\":16467:16508   */\n    tag_343:\n        /* \"#utility.yul\":16535:16536   */\n      0x01\n        /* \"#utility.yul\":16528:16533   */\n      dup3\n        /* \"#utility.yul\":16524:16537   */\n      sub\n        /* \"#utility.yul\":16517:16537   */\n      swap1\n      pop\n        /* \"#utility.yul\":16372:16543   */\n      swap2\n      swap1\n      pop\n      jump\t// out\n        /* \"#utility.yul\":16549:16788   */\n    tag_169:\n        /* \"#utility.yul\":16689:16723   */\n      0x4170656e6173206f20646f6e6f20646f20636f6e747261746f20706f64652065\n        /* \"#utility.yul\":16685:16686   */\n      0x00\n        /* \"#utility.yul\":16677:16683   */\n      dup3\n        /* \"#utility.yul\":16673:16687   */\n      add\n        /* \"#utility.yul\":16666:16724   */\n      mstore\n        /* \"#utility.yul\":16758:16780   */\n      0x7865637574617220657373612066756e63616f21000000000000000000000000\n        /* \"#utility.yul\":16753:16755   */\n      0x20\n        /* \"#utility.yul\":16745:16751   */\n      dup3\n        /* \"#utility.yul\":16741:16756   */\n      add\n        /* \"#utility.yul\":16734:16781   */\n      mstore\n        /* \"#utility.yul\":16549:16788   */\n      pop\n      jump\t// out\n        /* \"#utility.yul\":16794:17160   */\n    tag_170:\n        /* \"#utility.yul\":16936:16939   */\n      0x00\n        /* \"#utility.yul\":16957:17024   */\n      tag_347\n        /* \"#utility.yul\":17021:17023   */\n      0x34\n        /* \"#utility.yul\":17016:17019   */\n      dup4\n        /* \"#utility.yul\":16957:17024   */\n      tag_139\n      jump\t// in\n    tag_347:\n        /* \"#utility.yul\":16950:17024   */\n      swap2\n      pop\n        /* \"#utility.yul\":17033:17126   */\n      tag_348\n        /* \"#utility.yul\":17122:17125   */\n      dup3\n        /* \"#utility.yul\":17033:17126   */\n      tag_169\n      jump\t// in\n    tag_348:\n        /* \"#utility.yul\":17151:17153   */\n      0x40\n        /* \"#utility.yul\":17146:17149   */\n      dup3\n        /* \"#utility.yul\":17142:17154   */\n      add\n        /* \"#utility.yul\":17135:17154   */\n      swap1\n      pop\n        /* \"#utility.yul\":16794:17160   */\n      swap2\n      swap1\n      pop\n      jump\t// out\n        /* \"#utility.yul\":17166:17585   */\n    tag_85:\n        /* \"#utility.yul\":17332:17336   */\n      0x00\n        /* \"#utility.yul\":17370:17372   */\n      0x20\n        /* \"#utility.yul\":17359:17368   */\n      dup3\n        /* \"#utility.yul\":17355:17373   */\n      add\n        /* \"#utility.yul\":17347:17373   */\n      swap1\n      pop\n        /* \"#utility.yul\":17419:17428   */\n      dup2\n        /* \"#utility.yul\":17413:17417   */\n      dup2\n        /* \"#utility.yul\":17409:17429   */\n      sub\n        /* \"#utility.yul\":17405:17406   */\n      0x00\n        /* \"#utility.yul\":17394:17403   */\n      dup4\n        /* \"#utility.yul\":17390:17407   */\n      add\n        /* \"#utility.yul\":17383:17430   */\n      mstore\n        /* \"#utility.yul\":17447:17578   */\n      tag_350\n        /* \"#utility.yul\":17573:17577   */\n      dup2\n        /* \"#utility.yul\":17447:17578   */\n      tag_170\n      jump\t// in\n    tag_350:\n        /* \"#utility.yul\":17439:17578   */\n      swap1\n      pop\n        /* \"#utility.yul\":17166:17585   */\n      swap2\n      swap1\n      pop\n      jump\t// out\n        /* \"#utility.yul\":17591:17771   */\n    tag_171:\n        /* \"#utility.yul\":17639:17716   */\n      0x4e487b7100000000000000000000000000000000000000000000000000000000\n        /* \"#utility.yul\":17636:17637   */\n      0x00\n        /* \"#utility.yul\":17629:17717   */\n      mstore\n        /* \"#utility.yul\":17736:17740   */\n      0x22\n        /* \"#utility.yul\":17733:17734   */\n      0x04\n        /* \"#utility.yul\":17726:17741   */\n      mstore\n        /* \"#utility.yul\":17760:17764   */\n      0x24\n        /* \"#utility.yul\":17757:17758   */\n      0x00\n        /* \"#utility.yul\":17750:17765   */\n      revert\n        /* \"#utility.yul\":17777:18097   */\n    tag_90:\n        /* \"#utility.yul\":17821:17827   */\n      0x00\n        /* \"#utility.yul\":17858:17859   */\n      0x02\n        /* \"#utility.yul\":17852:17856   */\n      dup3\n        /* \"#utility.yul\":17848:17860   */\n      div\n        /* \"#utility.yul\":17838:17860   */\n      swap1\n      pop\n        /* \"#utility.yul\":17905:17906   */\n      0x01\n        /* \"#utility.yul\":17899:17903   */\n      dup3\n        /* \"#utility.yul\":17895:17907   */\n      and\n        /* \"#utility.yul\":17926:17944   */\n      dup1\n        /* \"#utility.yul\":17916:17997   */\n      tag_353\n      jumpi\n        /* \"#utility.yul\":17982:17986   */\n      0x7f\n        /* \"#utility.yul\":17974:17980   */\n      dup3\n        /* \"#utility.yul\":17970:17987   */\n      and\n        /* \"#utility.yul\":17960:17987   */\n      swap2\n      pop\n        /* \"#utility.yul\":17916:17997   */\n    tag_353:\n        /* \"#utility.yul\":18044:18046   */\n      0x20\n        /* \"#utility.yul\":18036:18042   */\n      dup3\n        /* \"#utility.yul\":18033:18047   */\n      lt\n        /* \"#utility.yul\":18013:18031   */\n      dup2\n        /* \"#utility.yul\":18010:18048   */\n      sub\n        /* \"#utility.yul\":18007:18091   */\n      tag_354\n      jumpi\n        /* \"#utility.yul\":18063:18081   */\n      tag_355\n      tag_171\n      jump\t// in\n    tag_355:\n        /* \"#utility.yul\":18007:18091   */\n    tag_354:\n        /* \"#utility.yul\":17828:18097   */\n      pop\n        /* \"#utility.yul\":17777:18097   */\n      swap2\n      swap1\n      pop\n      jump\t// out\n        /* \"#utility.yul\":18103:18339   */\n    tag_172:\n        /* \"#utility.yul\":18243:18277   */\n      0x5175616e746964616465206d6178696d61206465206361726163746572657320\n        /* \"#utility.yul\":18239:18240   */\n      0x00\n        /* \"#utility.yul\":18231:18237   */\n      dup3\n        /* \"#utility.yul\":18227:18241   */\n      add\n        /* \"#utility.yul\":18220:18278   */\n      mstore\n        /* \"#utility.yul\":18312:18331   */\n      0x666f6920756c7472617061737361646121000000000000000000000000000000\n        /* \"#utility.yul\":18307:18309   */\n      0x20\n        /* \"#utility.yul\":18299:18305   */\n      dup3\n        /* \"#utility.yul\":18295:18310   */\n      add\n        /* \"#utility.yul\":18288:18332   */\n      mstore\n        /* \"#utility.yul\":18103:18339   */\n      pop\n      jump\t// out\n        /* \"#utility.yul\":18345:18711   */\n    tag_173:\n        /* \"#utility.yul\":18487:18490   */\n      0x00\n        /* \"#utility.yul\":18508:18575   */\n      tag_358\n        /* \"#utility.yul\":18572:18574   */\n      0x31\n        /* \"#utility.yul\":18567:18570   */\n      dup4\n        /* \"#utility.yul\":18508:18575   */\n      tag_139\n      jump\t// in\n    tag_358:\n        /* \"#utility.yul\":18501:18575   */\n      swap2\n      pop\n        /* \"#utility.yul\":18584:18677   */\n      tag_359\n        /* \"#utility.yul\":18673:18676   */\n      dup3\n        /* \"#utility.yul\":18584:18677   */\n      tag_172\n      jump\t// in\n    tag_359:\n        /* \"#utility.yul\":18702:18704   */\n      0x40\n        /* \"#utility.yul\":18697:18700   */\n      dup3\n        /* \"#utility.yul\":18693:18705   */\n      add\n        /* \"#utility.yul\":18686:18705   */\n      swap1\n      pop\n        /* \"#utility.yul\":18345:18711   */\n      swap2\n      swap1\n      pop\n      jump\t// out\n        /* \"#utility.yul\":18717:19136   */\n    tag_118:\n        /* \"#utility.yul\":18883:18887   */\n      0x00\n        /* \"#utility.yul\":18921:18923   */\n      0x20\n        /* \"#utility.yul\":18910:18919   */\n      dup3\n        /* \"#utility.yul\":18906:18924   */\n      add\n        /* \"#utility.yul\":18898:18924   */\n      swap1\n      pop\n        /* \"#utility.yul\":18970:18979   */\n      dup2\n        /* \"#utility.yul\":18964:18968   */\n      dup2\n        /* \"#utility.yul\":18960:18980   */\n      sub\n        /* \"#utility.yul\":18956:18957   */\n      0x00\n        /* \"#utility.yul\":18945:18954   */\n      dup4\n        /* \"#utility.yul\":18941:18958   */\n      add\n        /* \"#utility.yul\":18934:18981   */\n      mstore\n        /* \"#utility.yul\":18998:19129   */\n      tag_361\n        /* \"#utility.yul\":19124:19128   */\n      dup2\n        /* \"#utility.yul\":18998:19129   */\n      tag_173\n      jump\t// in\n    tag_361:\n        /* \"#utility.yul\":18990:19129   */\n      swap1\n      pop\n        /* \"#utility.yul\":18717:19136   */\n      swap2\n      swap1\n      pop\n      jump\t// out\n        /* \"#utility.yul\":19142:19283   */\n    tag_174:\n        /* \"#utility.yul\":19191:19195   */\n      0x00\n        /* \"#utility.yul\":19214:19217   */\n      dup2\n        /* \"#utility.yul\":19206:19217   */\n      swap1\n      pop\n        /* \"#utility.yul\":19237:19240   */\n      dup2\n        /* \"#utility.yul\":19234:19235   */\n      0x00\n        /* \"#utility.yul\":19227:19241   */\n      mstore\n        /* \"#utility.yul\":19271:19275   */\n      0x20\n        /* \"#utility.yul\":19268:19269   */\n      0x00\n        /* \"#utility.yul\":19258:19276   */\n      keccak256\n        /* \"#utility.yul\":19250:19276   */\n      swap1\n      pop\n        /* \"#utility.yul\":19142:19283   */\n      swap2\n      swap1\n      pop\n      jump\t// out\n        /* \"#utility.yul\":19289:19382   */\n    tag_175:\n        /* \"#utility.yul\":19326:19332   */\n      0x00\n        /* \"#utility.yul\":19373:19375   */\n      0x20\n        /* \"#utility.yul\":19368:19370   */\n      0x1f\n        /* \"#utility.yul\":19361:19366   */\n      dup4\n        /* \"#utility.yul\":19357:19371   */\n      add\n        /* \"#utility.yul\":19353:19376   */\n      div\n        /* \"#utility.yul\":19343:19376   */\n      swap1\n      pop\n        /* \"#utility.yul\":19289:19382   */\n      swap2\n      swap1\n      pop\n      jump\t// out\n        /* \"#utility.yul\":19388:19495   */\n    tag_176:\n        /* \"#utility.yul\":19432:19440   */\n      0x00\n        /* \"#utility.yul\":19482:19487   */\n      dup3\n        /* \"#utility.yul\":19476:19480   */\n      dup3\n        /* \"#utility.yul\":19472:19488   */\n      shl\n        /* \"#utility.yul\":19451:19488   */\n      swap1\n      pop\n        /* \"#utility.yul\":19388:19495   */\n      swap3\n      swap2\n      pop\n      pop\n      jump\t// out\n        /* \"#utility.yul\":19501:19894   */\n    tag_177:\n        /* \"#utility.yul\":19570:19576   */\n      0x00\n        /* \"#utility.yul\":19620:19621   */\n      0x08\n        /* \"#utility.yul\":19608:19618   */\n      dup4\n        /* \"#utility.yul\":19604:19622   */\n      mul\n        /* \"#utility.yul\":19643:19740   */\n      tag_366\n        /* \"#utility.yul\":19673:19739   */\n      0xffffffffffffffffffffffffffffffffffffffffffffffffffffffffffffffff\n        /* \"#utility.yul\":19662:19671   */\n      dup3\n        /* \"#utility.yul\":19643:19740   */\n      tag_176\n      jump\t// in\n    tag_366:\n        /* \"#utility.yul\":19761:19800   */\n      tag_367\n        /* \"#utility.yul\":19791:19799   */\n      dup7\n        /* \"#utility.yul\":19780:19789   */\n      dup4\n        /* \"#utility.yul\":19761:19800   */\n      tag_176\n      jump\t// in\n    tag_367:\n        /* \"#utility.yul\":19749:19800   */\n      swap6\n      pop\n        /* \"#utility.yul\":19833:19837   */\n      dup1\n        /* \"#utility.yul\":19829:19838   */\n      not\n        /* \"#utility.yul\":19822:19827   */\n      dup5\n        /* \"#utility.yul\":19818:19839   */\n      and\n        /* \"#utility.yul\":19809:19839   */\n      swap4\n      pop\n        /* \"#utility.yul\":19882:19886   */\n      dup1\n        /* \"#utility.yul\":19872:19880   */\n      dup7\n        /* \"#utility.yul\":19868:19887   */\n      and\n        /* \"#utility.yul\":19861:19866   */\n      dup5\n        /* \"#utility.yul\":19858:19888   */\n      or\n        /* \"#utility.yul\":19848:19888   */\n      swap3\n      pop\n        /* \"#utility.yul\":19577:19894   */\n      pop\n      pop\n        /* \"#utility.yul\":19501:19894   */\n      swap4\n      swap3\n      pop\n      pop\n      pop\n      jump\t// out\n        /* \"#utility.yul\":19900:19960   */\n    tag_178:\n        /* \"#utility.yul\":19928:19931   */\n      0x00\n        /* \"#utility.yul\":19949:19954   */\n      dup2\n        /* \"#utility.yul\":19942:19954   */\n      swap1\n      pop\n        /* \"#utility.yul\":19900:19960   */\n      swap2\n      swap1\n      pop\n      jump\t// out\n        /* \"#utility.yul\":19966:20108   */\n    tag_179:\n        /* \"#utility.yul\":20016:20025   */\n      0x00\n        /* \"#utility.yul\":20049:20102   */\n      tag_370\n        /* \"#utility.yul\":20067:20101   */\n      tag_371\n        /* \"#utility.yul\":20076:20100   */\n      tag_372\n        /* \"#utility.yul\":20094:20099   */\n      dup5\n        /* \"#utility.yul\":20076:20100   */\n      tag_129\n      jump\t// in\n    tag_372:\n        /* \"#utility.yul\":20067:20101   */\n      tag_178\n      jump\t// in\n    tag_371:\n        /* \"#utility.yul\":20049:20102   */\n      tag_129\n      jump\t// in\n    tag_370:\n        /* \"#utility.yul\":20036:20102   */\n      swap1\n      pop\n        /* \"#utility.yul\":19966:20108   */\n      swap2\n      swap1\n      pop\n      jump\t// out\n        /* \"#utility.yul\":20114:20189   */\n    tag_180:\n        /* \"#utility.yul\":20157:20160   */\n      0x00\n        /* \"#utility.yul\":20178:20183   */\n      dup2\n        /* \"#utility.yul\":20171:20183   */\n      swap1\n      pop\n        /* \"#utility.yul\":20114:20189   */\n      swap2\n      swap1\n      pop\n      jump\t// out\n        /* \"#utility.yul\":20195:20464   */\n    tag_181:\n        /* \"#utility.yul\":20305:20344   */\n      tag_375\n        /* \"#utility.yul\":20336:20343   */\n      dup4\n        /* \"#utility.yul\":20305:20344   */\n      tag_179\n      jump\t// in\n    tag_375:\n        /* \"#utility.yul\":20366:20457   */\n      tag_376\n        /* \"#utility.yul\":20415:20456   */\n      tag_377\n        /* \"#utility.yul\":20439:20455   */\n      dup3\n        /* \"#utility.yul\":20415:20456   */\n      tag_180\n      jump\t// in\n    tag_377:\n        /* \"#utility.yul\":20407:20413   */\n      dup5\n        /* \"#utility.yul\":20400:20404   */\n      dup5\n        /* \"#utility.yul\":20394:20405   */\n      sload\n        /* \"#utility.yul\":20366:20457   */\n      tag_177\n      jump\t// in\n    tag_376:\n        /* \"#utility.yul\":20360:20364   */\n      dup3\n        /* \"#utility.yul\":20353:20458   */\n      sstore\n        /* \"#utility.yul\":20271:20464   */\n      pop\n        /* \"#utility.yul\":20195:20464   */\n      pop\n      pop\n      pop\n      jump\t// out\n        /* \"#utility.yul\":20470:20543   */\n    tag_182:\n        /* \"#utility.yul\":20515:20518   */\n      0x00\n        /* \"#utility.yul\":20470:20543   */\n      swap1\n      jump\t// out\n        /* \"#utility.yul\":20549:20738   */\n    tag_183:\n        /* \"#utility.yul\":20626:20658   */\n      tag_380\n      tag_182\n      jump\t// in\n    tag_380:\n        /* \"#utility.yul\":20667:20732   */\n      tag_381\n        /* \"#utility.yul\":20725:20731   */\n      dup2\n        /* \"#utility.yul\":20717:20723   */\n      dup5\n        /* \"#utility.yul\":20711:20715   */\n      dup5\n        /* \"#utility.yul\":20667:20732   */\n      tag_181\n      jump\t// in\n    tag_381:\n        /* \"#utility.yul\":20602:20738   */\n      pop\n        /* \"#utility.yul\":20549:20738   */\n      pop\n      pop\n      jump\t// out\n        /* \"#utility.yul\":20744:20930   */\n    tag_184:\n        /* \"#utility.yul\":20804:20924   */\n    tag_383:\n        /* \"#utility.yul\":20821:20824   */\n      dup2\n        /* \"#utility.yul\":20814:20819   */\n      dup2\n        /* \"#utility.yul\":20811:20825   */\n      lt\n        /* \"#utility.yul\":20804:20924   */\n      iszero\n      tag_385\n      jumpi\n        /* \"#utility.yul\":20875:20914   */\n      tag_386\n        /* \"#utility.yul\":20912:20913   */\n      0x00\n        /* \"#utility.yul\":20905:20910   */\n      dup3\n        /* \"#utility.yul\":20875:20914   */\n      tag_183\n      jump\t// in\n    tag_386:\n        /* \"#utility.yul\":20848:20849   */\n      0x01\n        /* \"#utility.yul\":20841:20846   */\n      dup2\n        /* \"#utility.yul\":20837:20850   */\n      add\n        /* \"#utility.yul\":20828:20850   */\n      swap1\n      pop\n        /* \"#utility.yul\":20804:20924   */\n      jump(tag_383)\n    tag_385:\n        /* \"#utility.yul\":20744:20930   */\n      pop\n      pop\n      jump\t// out\n        /* \"#utility.yul\":20936:21479   */\n    tag_185:\n        /* \"#utility.yul\":21037:21039   */\n      0x1f\n        /* \"#utility.yul\":21032:21035   */\n      dup3\n        /* \"#utility.yul\":21029:21040   */\n      gt\n        /* \"#utility.yul\":21026:21472   */\n      iszero\n      tag_388\n      jumpi\n        /* \"#utility.yul\":21071:21109   */\n      tag_389\n        /* \"#utility.yul\":21103:21108   */\n      dup2\n        /* \"#utility.yul\":21071:21109   */\n      tag_174\n      jump\t// in\n    tag_389:\n        /* \"#utility.yul\":21155:21184   */\n      tag_390\n        /* \"#utility.yul\":21173:21183   */\n      dup5\n        /* \"#utility.yul\":21155:21184   */\n      tag_175\n      jump\t// in\n    tag_390:\n        /* \"#utility.yul\":21145:21153   */\n      dup2\n        /* \"#utility.yul\":21141:21185   */\n      add\n        /* \"#utility.yul\":21338:21340   */\n      0x20\n        /* \"#utility.yul\":21326:21336   */\n      dup6\n        /* \"#utility.yul\":21323:21341   */\n      lt\n        /* \"#utility.yul\":21320:21369   */\n      iszero\n      tag_391\n      jumpi\n        /* \"#utility.yul\":21359:21367   */\n      dup2\n        /* \"#utility.yul\":21344:21367   */\n      swap1\n      pop\n        /* \"#utility.yul\":21320:21369   */\n    tag_391:\n        /* \"#utility.yul\":21382:21462   */\n      tag_392\n        /* \"#utility.yul\":21438:21460   */\n      tag_393\n        /* \"#utility.yul\":21456:21459   */\n      dup6\n        /* \"#utility.yul\":21438:21460   */\n      tag_175\n      jump\t// in\n    tag_393:\n        /* \"#utility.yul\":21428:21436   */\n      dup4\n        /* \"#utility.yul\":21424:21461   */\n      add\n        /* \"#utility.yul\":21411:21422   */\n      dup3\n        /* \"#utility.yul\":21382:21462   */\n      tag_184\n      jump\t// in\n    tag_392:\n        /* \"#utility.yul\":21041:21472   */\n      pop\n      pop\n        /* \"#utility.yul\":21026:21472   */\n    tag_388:\n        /* \"#utility.yul\":20936:21479   */\n      pop\n      pop\n      pop\n      jump\t// out\n        /* \"#utility.yul\":21485:21602   */\n    tag_186:\n        /* \"#utility.yul\":21539:21547   */\n      0x00\n        /* \"#utility.yul\":21589:21594   */\n      dup3\n        /* \"#utility.yul\":21583:21587   */\n      dup3\n        /* \"#utility.yul\":21579:21595   */\n      shr\n        /* \"#utility.yul\":21558:21595   */\n      swap1\n      pop\n        /* \"#utility.yul\":21485:21602   */\n      swap3\n      swap2\n      pop\n      pop\n      jump\t// out\n        /* \"#utility.yul\":21608:21777   */\n    tag_187:\n        /* \"#utility.yul\":21652:21658   */\n      0x00\n        /* \"#utility.yul\":21685:21736   */\n      tag_396\n        /* \"#utility.yul\":21733:21734   */\n      0x00\n        /* \"#utility.yul\":21729:21735   */\n      not\n        /* \"#utility.yul\":21721:21726   */\n      dup5\n        /* \"#utility.yul\":21718:21719   */\n      0x08\n        /* \"#utility.yul\":21714:21727   */\n      mul\n        /* \"#utility.yul\":21685:21736   */\n      tag_186\n      jump\t// in\n    tag_396:\n        /* \"#utility.yul\":21681:21737   */\n      not\n        /* \"#utility.yul\":21766:21770   */\n      dup1\n        /* \"#utility.yul\":21760:21764   */\n      dup4\n        /* \"#utility.yul\":21756:21771   */\n      and\n        /* \"#utility.yul\":21746:21771   */\n      swap2\n      pop\n        /* \"#utility.yul\":21659:21777   */\n      pop\n        /* \"#utility.yul\":21608:21777   */\n      swap3\n      swap2\n      pop\n      pop\n      jump\t// out\n        /* \"#utility.yul\":21782:22077   */\n    tag_188:\n        /* \"#utility.yul\":21858:21862   */\n      0x00\n        /* \"#utility.yul\":22004:22033   */\n      tag_398\n        /* \"#utility.yul\":22029:22032   */\n      dup4\n        /* \"#utility.yul\":22023:22027   */\n      dup4\n        /* \"#utility.yul\":22004:22033   */\n      tag_187\n      jump\t// in\n    tag_398:\n        /* \"#utility.yul\":21996:22033   */\n      swap2\n      pop\n        /* \"#utility.yul\":22066:22069   */\n      dup3\n        /* \"#utility.yul\":22063:22064   */\n      0x02\n        /* \"#utility.yul\":22059:22070   */\n      mul\n        /* \"#utility.yul\":22053:22057   */\n      dup3\n        /* \"#utility.yul\":22050:22071   */\n      or\n        /* \"#utility.yul\":22042:22071   */\n      swap1\n      pop\n        /* \"#utility.yul\":21782:22077   */\n      swap3\n      swap2\n      pop\n      pop\n      jump\t// out\n        /* \"#utility.yul\":22082:23477   */\n    tag_121:\n        /* \"#utility.yul\":22199:22236   */\n      tag_400\n        /* \"#utility.yul\":22232:22235   */\n      dup3\n        /* \"#utility.yul\":22199:22236   */\n      tag_138\n      jump\t// in\n    tag_400:\n        /* \"#utility.yul\":22301:22319   */\n      0xffffffffffffffff\n        /* \"#utility.yul\":22293:22299   */\n      dup2\n        /* \"#utility.yul\":22290:22320   */\n      gt\n        /* \"#utility.yul\":22287:22343   */\n      iszero\n      tag_401\n      jumpi\n        /* \"#utility.yul\":22323:22341   */\n      tag_402\n      tag_157\n      jump\t// in\n    tag_402:\n        /* \"#utility.yul\":22287:22343   */\n    tag_401:\n        /* \"#utility.yul\":22367:22405   */\n      tag_403\n        /* \"#utility.yul\":22399:22403   */\n      dup3\n        /* \"#utility.yul\":22393:22404   */\n      sload\n        /* \"#utility.yul\":22367:22405   */\n      tag_90\n      jump\t// in\n    tag_403:\n        /* \"#utility.yul\":22452:22519   */\n      tag_404\n        /* \"#utility.yul\":22512:22518   */\n      dup3\n        /* \"#utility.yul\":22504:22510   */\n      dup3\n        /* \"#utility.yul\":22498:22502   */\n      dup6\n        /* \"#utility.yul\":22452:22519   */\n      tag_185\n      jump\t// in\n    tag_404:\n        /* \"#utility.yul\":22546:22547   */\n      0x00\n        /* \"#utility.yul\":22570:22574   */\n      0x20\n        /* \"#utility.yul\":22557:22574   */\n      swap1\n      pop\n        /* \"#utility.yul\":22602:22604   */\n      0x1f\n        /* \"#utility.yul\":22594:22600   */\n      dup4\n        /* \"#utility.yul\":22591:22605   */\n      gt\n        /* \"#utility.yul\":22619:22620   */\n      0x01\n        /* \"#utility.yul\":22614:23232   */\n      dup2\n      eq\n      tag_406\n      jumpi\n        /* \"#utility.yul\":23276:23277   */\n      0x00\n        /* \"#utility.yul\":23293:23299   */\n      dup5\n        /* \"#utility.yul\":23290:23367   */\n      iszero\n      tag_407\n      jumpi\n        /* \"#utility.yul\":23342:23351   */\n      dup3\n        /* \"#utility.yul\":23337:23340   */\n      dup8\n        /* \"#utility.yul\":23333:23352   */\n      add\n        /* \"#utility.yul\":23327:23353   */\n      mload\n        /* \"#utility.yul\":23318:23353   */\n      swap1\n      pop\n        /* \"#utility.yul\":23290:23367   */\n    tag_407:\n        /* \"#utility.yul\":23393:23460   */\n      tag_408\n        /* \"#utility.yul\":23453:23459   */\n      dup6\n        /* \"#utility.yul\":23446:23451   */\n      dup3\n        /* \"#utility.yul\":23393:23460   */\n      tag_188\n      jump\t// in\n    tag_408:\n        /* \"#utility.yul\":23387:23391   */\n      dup7\n        /* \"#utility.yul\":23380:23461   */\n      sstore\n        /* \"#utility.yul\":23249:23471   */\n      pop\n        /* \"#utility.yul\":22584:23471   */\n      jump(tag_405)\n        /* \"#utility.yul\":22614:23232   */\n    tag_406:\n        /* \"#utility.yul\":22666:22670   */\n      0x1f\n        /* \"#utility.yul\":22662:22671   */\n      not\n        /* \"#utility.yul\":22654:22660   */\n      dup5\n        /* \"#utility.yul\":22650:22672   */\n      and\n        /* \"#utility.yul\":22700:22737   */\n      tag_409\n        /* \"#utility.yul\":22732:22736   */\n      dup7\n        /* \"#utility.yul\":22700:22737   */\n      tag_174\n      jump\t// in\n    tag_409:\n        /* \"#utility.yul\":22759:22760   */\n      0x00\n        /* \"#utility.yul\":22773:22981   */\n    tag_410:\n        /* \"#utility.yul\":22787:22794   */\n      dup3\n        /* \"#utility.yul\":22784:22785   */\n      dup2\n        /* \"#utility.yul\":22781:22795   */\n      lt\n        /* \"#utility.yul\":22773:22981   */\n      iszero\n      tag_412\n      jumpi\n        /* \"#utility.yul\":22866:22875   */\n      dup5\n        /* \"#utility.yul\":22861:22864   */\n      dup10\n        /* \"#utility.yul\":22857:22876   */\n      add\n        /* \"#utility.yul\":22851:22877   */\n      mload\n        /* \"#utility.yul\":22843:22849   */\n      dup3\n        /* \"#utility.yul\":22836:22878   */\n      sstore\n        /* \"#utility.yul\":22917:22918   */\n      0x01\n        /* \"#utility.yul\":22909:22915   */\n      dup3\n        /* \"#utility.yul\":22905:22919   */\n      add\n        /* \"#utility.yul\":22895:22919   */\n      swap2\n      pop\n        /* \"#utility.yul\":22964:22966   */\n      0x20\n        /* \"#utility.yul\":22953:22962   */\n      dup6\n        /* \"#utility.yul\":22949:22967   */\n      add\n        /* \"#utility.yul\":22936:22967   */\n      swap5\n      pop\n        /* \"#utility.yul\":22810:22814   */\n      0x20\n        /* \"#utility.yul\":22807:22808   */\n      dup2\n        /* \"#utility.yul\":22803:22815   */\n      add\n        /* \"#utility.yul\":22798:22815   */\n      swap1\n      pop\n        /* \"#utility.yul\":22773:22981   */\n      jump(tag_410)\n    tag_412:\n        /* \"#utility.yul\":23009:23015   */\n      dup7\n        /* \"#utility.yul\":23000:23007   */\n      dup4\n        /* \"#utility.yul\":22997:23016   */\n      lt\n        /* \"#utility.yul\":22994:23173   */\n      iszero\n      tag_413\n      jumpi\n        /* \"#utility.yul\":23067:23076   */\n      dup5\n        /* \"#utility.yul\":23062:23065   */\n      dup10\n        /* \"#utility.yul\":23058:23077   */\n      add\n        /* \"#utility.yul\":23052:23078   */\n      mload\n        /* \"#utility.yul\":23110:23158   */\n      tag_414\n        /* \"#utility.yul\":23152:23156   */\n      0x1f\n        /* \"#utility.yul\":23144:23150   */\n      dup10\n        /* \"#utility.yul\":23140:23157   */\n      and\n        /* \"#utility.yul\":23129:23138   */\n      dup3\n        /* \"#utility.yul\":23110:23158   */\n      tag_187\n      jump\t// in\n    tag_414:\n        /* \"#utility.yul\":23102:23108   */\n      dup4\n        /* \"#utility.yul\":23095:23159   */\n      sstore\n        /* \"#utility.yul\":23017:23173   */\n      pop\n        /* \"#utility.yul\":22994:23173   */\n    tag_413:\n        /* \"#utility.yul\":23219:23220   */\n      0x01\n        /* \"#utility.yul\":23215:23216   */\n      0x02\n        /* \"#utility.yul\":23207:23213   */\n      dup9\n        /* \"#utility.yul\":23203:23217   */\n      mul\n        /* \"#utility.yul\":23199:23221   */\n      add\n        /* \"#utility.yul\":23193:23197   */\n      dup9\n        /* \"#utility.yul\":23186:23222   */\n      sstore\n        /* \"#utility.yul\":22621:23232   */\n      pop\n      pop\n      pop\n        /* \"#utility.yul\":22584:23471   */\n    tag_405:\n      pop\n        /* \"#utility.yul\":22174:23477   */\n      pop\n      pop\n      pop\n        /* \"#utility.yul\":22082:23477   */\n      pop\n      pop\n      jump\t// out\n\n    auxdata: 0xa2646970667358221220c53f37e4debfc07e724a9b38472f53cfc111144242fc811850c02308e90ac4d764736f6c634300081a0033\n}\n",
				"bytecode": {
					"linkReferences": {},
					"object": "60806040526101185f806101000a81548161ffff021916908361ffff160217905550348015602b575f80fd5b503360025f6101000a81548173ffffffffffffffffffffffffffffffffffffffff021916908373ffffffffffffffffffffffffffffffffffffffff16021790555061177d806100795f395ff3fe608060405234801561000f575f80fd5b5060043610610091575f3560e01c80635c538df3116100645780635c538df3146101075780636de69b241461013b57806394495c3c1461016b578063b36fe3f01461019b578063fe0ba9de146101b757610091565b80630ba824d3146100955780631250c45a146100b157806336013acd146100cd57806349a9839f146100eb575b5f80fd5b6100af60048036038101906100aa9190610c1e565b6101d5565b005b6100cb60048036038101906100c69190610c1e565b6102eb565b005b6100d56104a1565b6040516100e29190610c78565b60405180910390f35b61010560048036038101906101009190610cbb565b6104b2565b005b610121600480360381019061011c9190610c1e565b61055f565b604051610132959493929190610d74565b60405180910390f35b61015560048036038101906101509190610c1e565b610650565b6040516101629190610ea5565b60405180910390f35b61018560048036038101906101809190610ec5565b6107c8565b604051610192919061101e565b60405180910390f35b6101b560048036038101906101b0919061116a565b610963565b005b6101bf610b1a565b6040516101cc91906111b1565b60405180910390f35b8060015f8473ffffffffffffffffffffffffffffffffffffffff1673ffffffffffffffffffffffffffffffffffffffff1681526020019081526020015f208281548110610225576102246111ca565b5b905f5260205f2090600502015f015414610274576040517f08c379a000000000000000000000000000000000000000000000000000000000815260040161026b90611241565b60405180910390fd5b60015f8373ffffffffffffffffffffffffffffffffffffffff1673ffffffffffffffffffffffffffffffffffffffff1681526020019081526020015f2081815481106102c3576102c26111ca565b5b905f5260205f2090600502016004015f8154809291906102e29061128c565b91905055505050565b8060015f8473ffffffffffffffffffffffffffffffffffffffff1673ffffffffffffffffffffffffffffffffffffffff1681526020019081526020015f20828154811061033b5761033a6111ca565b5b905f5260205f2090600502015f01541461038a576040517f08c379a000000000000000000000000000000000000000000000000000000000815260040161038190611241565b60405180910390fd5b5f60015f8473ffffffffffffffffffffffffffffffffffffffff1673ffffffffffffffffffffffffffffffffffffffff1681526020019081526020015f2082815481106103da576103d96111ca565b5b905f5260205f209060050201600401541161042a576040517f08c379a00000000000000000000000000000000000000000000000000000000081526004016104219061131d565b60405180910390fd5b60015f8373ffffffffffffffffffffffffffffffffffffffff1673ffffffffffffffffffffffffffffffffffffffff1681526020019081526020015f208181548110610479576104786111ca565b5b905f5260205f2090600502016004015f8154809291906104989061133b565b91905055505050565b5f8054906101000a900461ffff1681565b60025f9054906101000a900473ffffffffffffffffffffffffffffffffffffffff1673ffffffffffffffffffffffffffffffffffffffff163373ffffffffffffffffffffffffffffffffffffffff1614610541576040517f08c379a0000000000000000000000000000000000000000000000000000000008152600401610538906113d2565b60405180910390fd5b805f806101000a81548161ffff021916908361ffff16021790555050565b6001602052815f5260405f208181548110610578575f80fd5b905f5260205f2090600502015f9150915050805f015490806001015f9054906101000a900473ffffffffffffffffffffffffffffffffffffffff16908060020180546105c39061141d565b80601f01602080910402602001604051908101604052809291908181526020018280546105ef9061141d565b801561063a5780601f106106115761010080835404028352916020019161063a565b820191905f5260205f20905b81548152906001019060200180831161061d57829003601f168201915b5050505050908060030154908060040154905085565b610658610b3f565b60015f8473ffffffffffffffffffffffffffffffffffffffff1673ffffffffffffffffffffffffffffffffffffffff1681526020019081526020015f2082815481106106a7576106a66111ca565b5b905f5260205f2090600502016040518060a00160405290815f8201548152602001600182015f9054906101000a900473ffffffffffffffffffffffffffffffffffffffff1673ffffffffffffffffffffffffffffffffffffffff1673ffffffffffffffffffffffffffffffffffffffff16815260200160028201805461072c9061141d565b80601f01602080910402602001604051908101604052809291908181526020018280546107589061141d565b80156107a35780601f1061077a576101008083540402835291602001916107a3565b820191905f5260205f20905b81548152906001019060200180831161078657829003601f168201915b5050505050815260200160038201548152602001600482015481525050905092915050565b606060015f8373ffffffffffffffffffffffffffffffffffffffff1673ffffffffffffffffffffffffffffffffffffffff1681526020019081526020015f20805480602002602001604051908101604052809291908181526020015f905b82821015610958578382905f5260205f2090600502016040518060a00160405290815f8201548152602001600182015f9054906101000a900473ffffffffffffffffffffffffffffffffffffffff1673ffffffffffffffffffffffffffffffffffffffff1673ffffffffffffffffffffffffffffffffffffffff1681526020016002820180546108b59061141d565b80601f01602080910402602001604051908101604052809291908181526020018280546108e19061141d565b801561092c5780601f106109035761010080835404028352916020019161092c565b820191905f5260205f20905b81548152906001019060200180831161090f57829003601f168201915b505050505081526020016003820154815260200160048201548152505081526020019060010190610826565b505050509050919050565b5f8054906101000a900461ffff1661ffff16815111156109b8576040517f08c379a00000000000000000000000000000000000000000000000000000000081526004016109af906114bd565b60405180910390fd5b5f6040518060a0016040528060015f3373ffffffffffffffffffffffffffffffffffffffff1673ffffffffffffffffffffffffffffffffffffffff1681526020019081526020015f208054905081526020013373ffffffffffffffffffffffffffffffffffffffff1681526020018381526020014281526020015f815250905060015f3373ffffffffffffffffffffffffffffffffffffffff1673ffffffffffffffffffffffffffffffffffffffff1681526020019081526020015f2081908060018154018082558091505060019003905f5260205f2090600502015f909190919091505f820151815f01556020820151816001015f6101000a81548173ffffffffffffffffffffffffffffffffffffffff021916908373ffffffffffffffffffffffffffffffffffffffff1602179055506040820151816002019081610aff9190611678565b50606082015181600301556080820151816004015550505050565b60025f9054906101000a900473ffffffffffffffffffffffffffffffffffffffff1681565b6040518060a001604052805f81526020015f73ffffffffffffffffffffffffffffffffffffffff168152602001606081526020015f81526020015f81525090565b5f604051905090565b5f80fd5b5f80fd5b5f73ffffffffffffffffffffffffffffffffffffffff82169050919050565b5f610bba82610b91565b9050919050565b610bca81610bb0565b8114610bd4575f80fd5b50565b5f81359050610be581610bc1565b92915050565b5f819050919050565b610bfd81610beb565b8114610c07575f80fd5b50565b5f81359050610c1881610bf4565b92915050565b5f8060408385031215610c3457610c33610b89565b5b5f610c4185828601610bd7565b9250506020610c5285828601610c0a565b9150509250929050565b5f61ffff82169050919050565b610c7281610c5c565b82525050565b5f602082019050610c8b5f830184610c69565b92915050565b610c9a81610c5c565b8114610ca4575f80fd5b50565b5f81359050610cb581610c91565b92915050565b5f60208284031215610cd057610ccf610b89565b5b5f610cdd84828501610ca7565b91505092915050565b610cef81610beb565b82525050565b610cfe81610bb0565b82525050565b5f81519050919050565b5f82825260208201905092915050565b8281835e5f83830152505050565b5f601f19601f8301169050919050565b5f610d4682610d04565b610d508185610d0e565b9350610d60818560208601610d1e565b610d6981610d2c565b840191505092915050565b5f60a082019050610d875f830188610ce6565b610d946020830187610cf5565b8181036040830152610da68186610d3c565b9050610db56060830185610ce6565b610dc26080830184610ce6565b9695505050505050565b610dd581610beb565b82525050565b610de481610bb0565b82525050565b5f82825260208201905092915050565b5f610e0482610d04565b610e0e8185610dea565b9350610e1e818560208601610d1e565b610e2781610d2c565b840191505092915050565b5f60a083015f830151610e475f860182610dcc565b506020830151610e5a6020860182610ddb565b5060408301518482036040860152610e728282610dfa565b9150506060830151610e876060860182610dcc565b506080830151610e9a6080860182610dcc565b508091505092915050565b5f6020820190508181035f830152610ebd8184610e32565b905092915050565b5f60208284031215610eda57610ed9610b89565b5b5f610ee784828501610bd7565b91505092915050565b5f81519050919050565b5f82825260208201905092915050565b5f819050602082019050919050565b5f60a083015f830151610f2e5f860182610dcc565b506020830151610f416020860182610ddb565b5060408301518482036040860152610f598282610dfa565b9150506060830151610f6e6060860182610dcc565b506080830151610f816080860182610dcc565b508091505092915050565b5f610f978383610f19565b905092915050565b5f602082019050919050565b5f610fb582610ef0565b610fbf8185610efa565b935083602082028501610fd185610f0a565b805f5b8581101561100c5784840389528151610fed8582610f8c565b9450610ff883610f9f565b925060208a01995050600181019050610fd4565b50829750879550505050505092915050565b5f6020820190508181035f8301526110368184610fab565b905092915050565b5f80fd5b5f80fd5b7f4e487b71000000000000000000000000000000000000000000000000000000005f52604160045260245ffd5b61107c82610d2c565b810181811067ffffffffffffffff8211171561109b5761109a611046565b5b80604052505050565b5f6110ad610b80565b90506110b98282611073565b919050565b5f67ffffffffffffffff8211156110d8576110d7611046565b5b6110e182610d2c565b9050602081019050919050565b828183375f83830152505050565b5f61110e611109846110be565b6110a4565b90508281526020810184848401111561112a57611129611042565b5b6111358482856110ee565b509392505050565b5f82601f8301126111515761115061103e565b5b81356111618482602086016110fc565b91505092915050565b5f6020828403121561117f5761117e610b89565b5b5f82013567ffffffffffffffff81111561119c5761119b610b8d565b5b6111a88482850161113d565b91505092915050565b5f6020820190506111c45f830184610cf5565b92915050565b7f4e487b71000000000000000000000000000000000000000000000000000000005f52603260045260245ffd5b7f4573746520706f7374206e616f206578697374652e00000000000000000000005f82015250565b5f61122b601583610d0e565b9150611236826111f7565b602082019050919050565b5f6020820190508181035f8301526112588161121f565b9050919050565b7f4e487b71000000000000000000000000000000000000000000000000000000005f52601160045260245ffd5b5f61129682610beb565b91507fffffffffffffffffffffffffffffffffffffffffffffffffffffffffffffffff82036112c8576112c761125f565b5b600182019050919050565b7f4f20706f7374206e616f20706f737375692063757274696461732e00000000005f82015250565b5f611307601b83610d0e565b9150611312826112d3565b602082019050919050565b5f6020820190508181035f830152611334816112fb565b9050919050565b5f61134582610beb565b91505f82036113575761135661125f565b5b600182039050919050565b7f4170656e6173206f20646f6e6f20646f20636f6e747261746f20706f646520655f8201527f7865637574617220657373612066756e63616f21000000000000000000000000602082015250565b5f6113bc603483610d0e565b91506113c782611362565b604082019050919050565b5f6020820190508181035f8301526113e9816113b0565b9050919050565b7f4e487b71000000000000000000000000000000000000000000000000000000005f52602260045260245ffd5b5f600282049050600182168061143457607f821691505b602082108103611447576114466113f0565b5b50919050565b7f5175616e746964616465206d6178696d612064652063617261637465726573205f8201527f666f6920756c7472617061737361646121000000000000000000000000000000602082015250565b5f6114a7603183610d0e565b91506114b28261144d565b604082019050919050565b5f6020820190508181035f8301526114d48161149b565b9050919050565b5f819050815f5260205f209050919050565b5f6020601f8301049050919050565b5f82821b905092915050565b5f600883026115377fffffffffffffffffffffffffffffffffffffffffffffffffffffffffffffffff826114fc565b61154186836114fc565b95508019841693508086168417925050509392505050565b5f819050919050565b5f61157c61157761157284610beb565b611559565b610beb565b9050919050565b5f819050919050565b61159583611562565b6115a96115a182611583565b848454611508565b825550505050565b5f90565b6115bd6115b1565b6115c881848461158c565b505050565b5b818110156115eb576115e05f826115b5565b6001810190506115ce565b5050565b601f82111561163057611601816114db565b61160a846114ed565b81016020851015611619578190505b61162d611625856114ed565b8301826115cd565b50505b505050565b5f82821c905092915050565b5f6116505f1984600802611635565b1980831691505092915050565b5f6116688383611641565b9150826002028217905092915050565b61168182610d04565b67ffffffffffffffff81111561169a57611699611046565b5b6116a4825461141d565b6116af8282856115ef565b5f60209050601f8311600181146116e0575f84156116ce578287015190505b6116d8858261165d565b86555061173f565b601f1984166116ee866114db565b5f5b82811015611715578489015182556001820191506020850194506020810190506116f0565b86831015611732578489015161172e601f891682611641565b8355505b6001600288020188555050505b50505050505056fea2646970667358221220c53f37e4debfc07e724a9b38472f53cfc111144242fc811850c02308e90ac4d764736f6c634300081a0033",
					"opcodes": "PUSH1 0x80 PUSH1 0x40 MSTORE PUSH2 0x118 PUSH0 DUP1 PUSH2 0x100 EXP DUP2 SLOAD DUP2 PUSH2 0xFFFF MUL NOT AND SWAP1 DUP4 PUSH2 0xFFFF AND MUL OR SWAP1 SSTORE POP CALLVALUE DUP1 ISZERO PUSH1 0x2B JUMPI PUSH0 DUP1 REVERT JUMPDEST POP CALLER PUSH1 0x2 PUSH0 PUSH2 0x100 EXP DUP2 SLOAD DUP2 PUSH20 0xFFFFFFFFFFFFFFFFFFFFFFFFFFFFFFFFFFFFFFFF MUL NOT AND SWAP1 DUP4 PUSH20 0xFFFFFFFFFFFFFFFFFFFFFFFFFFFFFFFFFFFFFFFF AND MUL OR SWAP1 SSTORE POP PUSH2 0x177D DUP1 PUSH2 0x79 PUSH0 CODECOPY PUSH0 RETURN INVALID PUSH1 0x80 PUSH1 0x40 MSTORE CALLVALUE DUP1 ISZERO PUSH2 0xF JUMPI PUSH0 DUP1 REVERT JUMPDEST POP PUSH1 0x4 CALLDATASIZE LT PUSH2 0x91 JUMPI PUSH0 CALLDATALOAD PUSH1 0xE0 SHR DUP1 PUSH4 0x5C538DF3 GT PUSH2 0x64 JUMPI DUP1 PUSH4 0x5C538DF3 EQ PUSH2 0x107 JUMPI DUP1 PUSH4 0x6DE69B24 EQ PUSH2 0x13B JUMPI DUP1 PUSH4 0x94495C3C EQ PUSH2 0x16B JUMPI DUP1 PUSH4 0xB36FE3F0 EQ PUSH2 0x19B JUMPI DUP1 PUSH4 0xFE0BA9DE EQ PUSH2 0x1B7 JUMPI PUSH2 0x91 JUMP JUMPDEST DUP1 PUSH4 0xBA824D3 EQ PUSH2 0x95 JUMPI DUP1 PUSH4 0x1250C45A EQ PUSH2 0xB1 JUMPI DUP1 PUSH4 0x36013ACD EQ PUSH2 0xCD JUMPI DUP1 PUSH4 0x49A9839F EQ PUSH2 0xEB JUMPI JUMPDEST PUSH0 DUP1 REVERT JUMPDEST PUSH2 0xAF PUSH1 0x4 DUP1 CALLDATASIZE SUB DUP2 ADD SWAP1 PUSH2 0xAA SWAP2 SWAP1 PUSH2 0xC1E JUMP JUMPDEST PUSH2 0x1D5 JUMP JUMPDEST STOP JUMPDEST PUSH2 0xCB PUSH1 0x4 DUP1 CALLDATASIZE SUB DUP2 ADD SWAP1 PUSH2 0xC6 SWAP2 SWAP1 PUSH2 0xC1E JUMP JUMPDEST PUSH2 0x2EB JUMP JUMPDEST STOP JUMPDEST PUSH2 0xD5 PUSH2 0x4A1 JUMP JUMPDEST PUSH1 0x40 MLOAD PUSH2 0xE2 SWAP2 SWAP1 PUSH2 0xC78 JUMP JUMPDEST PUSH1 0x40 MLOAD DUP1 SWAP2 SUB SWAP1 RETURN JUMPDEST PUSH2 0x105 PUSH1 0x4 DUP1 CALLDATASIZE SUB DUP2 ADD SWAP1 PUSH2 0x100 SWAP2 SWAP1 PUSH2 0xCBB JUMP JUMPDEST PUSH2 0x4B2 JUMP JUMPDEST STOP JUMPDEST PUSH2 0x121 PUSH1 0x4 DUP1 CALLDATASIZE SUB DUP2 ADD SWAP1 PUSH2 0x11C SWAP2 SWAP1 PUSH2 0xC1E JUMP JUMPDEST PUSH2 0x55F JUMP JUMPDEST PUSH1 0x40 MLOAD PUSH2 0x132 SWAP6 SWAP5 SWAP4 SWAP3 SWAP2 SWAP1 PUSH2 0xD74 JUMP JUMPDEST PUSH1 0x40 MLOAD DUP1 SWAP2 SUB SWAP1 RETURN JUMPDEST PUSH2 0x155 PUSH1 0x4 DUP1 CALLDATASIZE SUB DUP2 ADD SWAP1 PUSH2 0x150 SWAP2 SWAP1 PUSH2 0xC1E JUMP JUMPDEST PUSH2 0x650 JUMP JUMPDEST PUSH1 0x40 MLOAD PUSH2 0x162 SWAP2 SWAP1 PUSH2 0xEA5 JUMP JUMPDEST PUSH1 0x40 MLOAD DUP1 SWAP2 SUB SWAP1 RETURN JUMPDEST PUSH2 0x185 PUSH1 0x4 DUP1 CALLDATASIZE SUB DUP2 ADD SWAP1 PUSH2 0x180 SWAP2 SWAP1 PUSH2 0xEC5 JUMP JUMPDEST PUSH2 0x7C8 JUMP JUMPDEST PUSH1 0x40 MLOAD PUSH2 0x192 SWAP2 SWAP1 PUSH2 0x101E JUMP JUMPDEST PUSH1 0x40 MLOAD DUP1 SWAP2 SUB SWAP1 RETURN JUMPDEST PUSH2 0x1B5 PUSH1 0x4 DUP1 CALLDATASIZE SUB DUP2 ADD SWAP1 PUSH2 0x1B0 SWAP2 SWAP1 PUSH2 0x116A JUMP JUMPDEST PUSH2 0x963 JUMP JUMPDEST STOP JUMPDEST PUSH2 0x1BF PUSH2 0xB1A JUMP JUMPDEST PUSH1 0x40 MLOAD PUSH2 0x1CC SWAP2 SWAP1 PUSH2 0x11B1 JUMP JUMPDEST PUSH1 0x40 MLOAD DUP1 SWAP2 SUB SWAP1 RETURN JUMPDEST DUP1 PUSH1 0x1 PUSH0 DUP5 PUSH20 0xFFFFFFFFFFFFFFFFFFFFFFFFFFFFFFFFFFFFFFFF AND PUSH20 0xFFFFFFFFFFFFFFFFFFFFFFFFFFFFFFFFFFFFFFFF AND DUP2 MSTORE PUSH1 0x20 ADD SWAP1 DUP2 MSTORE PUSH1 0x20 ADD PUSH0 KECCAK256 DUP3 DUP2 SLOAD DUP2 LT PUSH2 0x225 JUMPI PUSH2 0x224 PUSH2 0x11CA JUMP JUMPDEST JUMPDEST SWAP1 PUSH0 MSTORE PUSH1 0x20 PUSH0 KECCAK256 SWAP1 PUSH1 0x5 MUL ADD PUSH0 ADD SLOAD EQ PUSH2 0x274 JUMPI PUSH1 0x40 MLOAD PUSH32 0x8C379A000000000000000000000000000000000000000000000000000000000 DUP2 MSTORE PUSH1 0x4 ADD PUSH2 0x26B SWAP1 PUSH2 0x1241 JUMP JUMPDEST PUSH1 0x40 MLOAD DUP1 SWAP2 SUB SWAP1 REVERT JUMPDEST PUSH1 0x1 PUSH0 DUP4 PUSH20 0xFFFFFFFFFFFFFFFFFFFFFFFFFFFFFFFFFFFFFFFF AND PUSH20 0xFFFFFFFFFFFFFFFFFFFFFFFFFFFFFFFFFFFFFFFF AND DUP2 MSTORE PUSH1 0x20 ADD SWAP1 DUP2 MSTORE PUSH1 0x20 ADD PUSH0 KECCAK256 DUP2 DUP2 SLOAD DUP2 LT PUSH2 0x2C3 JUMPI PUSH2 0x2C2 PUSH2 0x11CA JUMP JUMPDEST JUMPDEST SWAP1 PUSH0 MSTORE PUSH1 0x20 PUSH0 KECCAK256 SWAP1 PUSH1 0x5 MUL ADD PUSH1 0x4 ADD PUSH0 DUP2 SLOAD DUP1 SWAP3 SWAP2 SWAP1 PUSH2 0x2E2 SWAP1 PUSH2 0x128C JUMP JUMPDEST SWAP2 SWAP1 POP SSTORE POP POP POP JUMP JUMPDEST DUP1 PUSH1 0x1 PUSH0 DUP5 PUSH20 0xFFFFFFFFFFFFFFFFFFFFFFFFFFFFFFFFFFFFFFFF AND PUSH20 0xFFFFFFFFFFFFFFFFFFFFFFFFFFFFFFFFFFFFFFFF AND DUP2 MSTORE PUSH1 0x20 ADD SWAP1 DUP2 MSTORE PUSH1 0x20 ADD PUSH0 KECCAK256 DUP3 DUP2 SLOAD DUP2 LT PUSH2 0x33B JUMPI PUSH2 0x33A PUSH2 0x11CA JUMP JUMPDEST JUMPDEST SWAP1 PUSH0 MSTORE PUSH1 0x20 PUSH0 KECCAK256 SWAP1 PUSH1 0x5 MUL ADD PUSH0 ADD SLOAD EQ PUSH2 0x38A JUMPI PUSH1 0x40 MLOAD PUSH32 0x8C379A000000000000000000000000000000000000000000000000000000000 DUP2 MSTORE PUSH1 0x4 ADD PUSH2 0x381 SWAP1 PUSH2 0x1241 JUMP JUMPDEST PUSH1 0x40 MLOAD DUP1 SWAP2 SUB SWAP1 REVERT JUMPDEST PUSH0 PUSH1 0x1 PUSH0 DUP5 PUSH20 0xFFFFFFFFFFFFFFFFFFFFFFFFFFFFFFFFFFFFFFFF AND PUSH20 0xFFFFFFFFFFFFFFFFFFFFFFFFFFFFFFFFFFFFFFFF AND DUP2 MSTORE PUSH1 0x20 ADD SWAP1 DUP2 MSTORE PUSH1 0x20 ADD PUSH0 KECCAK256 DUP3 DUP2 SLOAD DUP2 LT PUSH2 0x3DA JUMPI PUSH2 0x3D9 PUSH2 0x11CA JUMP JUMPDEST JUMPDEST SWAP1 PUSH0 MSTORE PUSH1 0x20 PUSH0 KECCAK256 SWAP1 PUSH1 0x5 MUL ADD PUSH1 0x4 ADD SLOAD GT PUSH2 0x42A JUMPI PUSH1 0x40 MLOAD PUSH32 0x8C379A000000000000000000000000000000000000000000000000000000000 DUP2 MSTORE PUSH1 0x4 ADD PUSH2 0x421 SWAP1 PUSH2 0x131D JUMP JUMPDEST PUSH1 0x40 MLOAD DUP1 SWAP2 SUB SWAP1 REVERT JUMPDEST PUSH1 0x1 PUSH0 DUP4 PUSH20 0xFFFFFFFFFFFFFFFFFFFFFFFFFFFFFFFFFFFFFFFF AND PUSH20 0xFFFFFFFFFFFFFFFFFFFFFFFFFFFFFFFFFFFFFFFF AND DUP2 MSTORE PUSH1 0x20 ADD SWAP1 DUP2 MSTORE PUSH1 0x20 ADD PUSH0 KECCAK256 DUP2 DUP2 SLOAD DUP2 LT PUSH2 0x479 JUMPI PUSH2 0x478 PUSH2 0x11CA JUMP JUMPDEST JUMPDEST SWAP1 PUSH0 MSTORE PUSH1 0x20 PUSH0 KECCAK256 SWAP1 PUSH1 0x5 MUL ADD PUSH1 0x4 ADD PUSH0 DUP2 SLOAD DUP1 SWAP3 SWAP2 SWAP1 PUSH2 0x498 SWAP1 PUSH2 0x133B JUMP JUMPDEST SWAP2 SWAP1 POP SSTORE POP POP POP JUMP JUMPDEST PUSH0 DUP1 SLOAD SWAP1 PUSH2 0x100 EXP SWAP1 DIV PUSH2 0xFFFF AND DUP2 JUMP JUMPDEST PUSH1 0x2 PUSH0 SWAP1 SLOAD SWAP1 PUSH2 0x100 EXP SWAP1 DIV PUSH20 0xFFFFFFFFFFFFFFFFFFFFFFFFFFFFFFFFFFFFFFFF AND PUSH20 0xFFFFFFFFFFFFFFFFFFFFFFFFFFFFFFFFFFFFFFFF AND CALLER PUSH20 0xFFFFFFFFFFFFFFFFFFFFFFFFFFFFFFFFFFFFFFFF AND EQ PUSH2 0x541 JUMPI PUSH1 0x40 MLOAD PUSH32 0x8C379A000000000000000000000000000000000000000000000000000000000 DUP2 MSTORE PUSH1 0x4 ADD PUSH2 0x538 SWAP1 PUSH2 0x13D2 JUMP JUMPDEST PUSH1 0x40 MLOAD DUP1 SWAP2 SUB SWAP1 REVERT JUMPDEST DUP1 PUSH0 DUP1 PUSH2 0x100 EXP DUP2 SLOAD DUP2 PUSH2 0xFFFF MUL NOT AND SWAP1 DUP4 PUSH2 0xFFFF AND MUL OR SWAP1 SSTORE POP POP JUMP JUMPDEST PUSH1 0x1 PUSH1 0x20 MSTORE DUP2 PUSH0 MSTORE PUSH1 0x40 PUSH0 KECCAK256 DUP2 DUP2 SLOAD DUP2 LT PUSH2 0x578 JUMPI PUSH0 DUP1 REVERT JUMPDEST SWAP1 PUSH0 MSTORE PUSH1 0x20 PUSH0 KECCAK256 SWAP1 PUSH1 0x5 MUL ADD PUSH0 SWAP2 POP SWAP2 POP POP DUP1 PUSH0 ADD SLOAD SWAP1 DUP1 PUSH1 0x1 ADD PUSH0 SWAP1 SLOAD SWAP1 PUSH2 0x100 EXP SWAP1 DIV PUSH20 0xFFFFFFFFFFFFFFFFFFFFFFFFFFFFFFFFFFFFFFFF AND SWAP1 DUP1 PUSH1 0x2 ADD DUP1 SLOAD PUSH2 0x5C3 SWAP1 PUSH2 0x141D JUMP JUMPDEST DUP1 PUSH1 0x1F ADD PUSH1 0x20 DUP1 SWAP2 DIV MUL PUSH1 0x20 ADD PUSH1 0x40 MLOAD SWAP1 DUP2 ADD PUSH1 0x40 MSTORE DUP1 SWAP3 SWAP2 SWAP1 DUP2 DUP2 MSTORE PUSH1 0x20 ADD DUP3 DUP1 SLOAD PUSH2 0x5EF SWAP1 PUSH2 0x141D JUMP JUMPDEST DUP1 ISZERO PUSH2 0x63A JUMPI DUP1 PUSH1 0x1F LT PUSH2 0x611 JUMPI PUSH2 0x100 DUP1 DUP4 SLOAD DIV MUL DUP4 MSTORE SWAP2 PUSH1 0x20 ADD SWAP2 PUSH2 0x63A JUMP JUMPDEST DUP3 ADD SWAP2 SWAP1 PUSH0 MSTORE PUSH1 0x20 PUSH0 KECCAK256 SWAP1 JUMPDEST DUP2 SLOAD DUP2 MSTORE SWAP1 PUSH1 0x1 ADD SWAP1 PUSH1 0x20 ADD DUP1 DUP4 GT PUSH2 0x61D JUMPI DUP3 SWAP1 SUB PUSH1 0x1F AND DUP3 ADD SWAP2 JUMPDEST POP POP POP POP POP SWAP1 DUP1 PUSH1 0x3 ADD SLOAD SWAP1 DUP1 PUSH1 0x4 ADD SLOAD SWAP1 POP DUP6 JUMP JUMPDEST PUSH2 0x658 PUSH2 0xB3F JUMP JUMPDEST PUSH1 0x1 PUSH0 DUP5 PUSH20 0xFFFFFFFFFFFFFFFFFFFFFFFFFFFFFFFFFFFFFFFF AND PUSH20 0xFFFFFFFFFFFFFFFFFFFFFFFFFFFFFFFFFFFFFFFF AND DUP2 MSTORE PUSH1 0x20 ADD SWAP1 DUP2 MSTORE PUSH1 0x20 ADD PUSH0 KECCAK256 DUP3 DUP2 SLOAD DUP2 LT PUSH2 0x6A7 JUMPI PUSH2 0x6A6 PUSH2 0x11CA JUMP JUMPDEST JUMPDEST SWAP1 PUSH0 MSTORE PUSH1 0x20 PUSH0 KECCAK256 SWAP1 PUSH1 0x5 MUL ADD PUSH1 0x40 MLOAD DUP1 PUSH1 0xA0 ADD PUSH1 0x40 MSTORE SWAP1 DUP2 PUSH0 DUP3 ADD SLOAD DUP2 MSTORE PUSH1 0x20 ADD PUSH1 0x1 DUP3 ADD PUSH0 SWAP1 SLOAD SWAP1 PUSH2 0x100 EXP SWAP1 DIV PUSH20 0xFFFFFFFFFFFFFFFFFFFFFFFFFFFFFFFFFFFFFFFF AND PUSH20 0xFFFFFFFFFFFFFFFFFFFFFFFFFFFFFFFFFFFFFFFF AND PUSH20 0xFFFFFFFFFFFFFFFFFFFFFFFFFFFFFFFFFFFFFFFF AND DUP2 MSTORE PUSH1 0x20 ADD PUSH1 0x2 DUP3 ADD DUP1 SLOAD PUSH2 0x72C SWAP1 PUSH2 0x141D JUMP JUMPDEST DUP1 PUSH1 0x1F ADD PUSH1 0x20 DUP1 SWAP2 DIV MUL PUSH1 0x20 ADD PUSH1 0x40 MLOAD SWAP1 DUP2 ADD PUSH1 0x40 MSTORE DUP1 SWAP3 SWAP2 SWAP1 DUP2 DUP2 MSTORE PUSH1 0x20 ADD DUP3 DUP1 SLOAD PUSH2 0x758 SWAP1 PUSH2 0x141D JUMP JUMPDEST DUP1 ISZERO PUSH2 0x7A3 JUMPI DUP1 PUSH1 0x1F LT PUSH2 0x77A JUMPI PUSH2 0x100 DUP1 DUP4 SLOAD DIV MUL DUP4 MSTORE SWAP2 PUSH1 0x20 ADD SWAP2 PUSH2 0x7A3 JUMP JUMPDEST DUP3 ADD SWAP2 SWAP1 PUSH0 MSTORE PUSH1 0x20 PUSH0 KECCAK256 SWAP1 JUMPDEST DUP2 SLOAD DUP2 MSTORE SWAP1 PUSH1 0x1 ADD SWAP1 PUSH1 0x20 ADD DUP1 DUP4 GT PUSH2 0x786 JUMPI DUP3 SWAP1 SUB PUSH1 0x1F AND DUP3 ADD SWAP2 JUMPDEST POP POP POP POP POP DUP2 MSTORE PUSH1 0x20 ADD PUSH1 0x3 DUP3 ADD SLOAD DUP2 MSTORE PUSH1 0x20 ADD PUSH1 0x4 DUP3 ADD SLOAD DUP2 MSTORE POP POP SWAP1 POP SWAP3 SWAP2 POP POP JUMP JUMPDEST PUSH1 0x60 PUSH1 0x1 PUSH0 DUP4 PUSH20 0xFFFFFFFFFFFFFFFFFFFFFFFFFFFFFFFFFFFFFFFF AND PUSH20 0xFFFFFFFFFFFFFFFFFFFFFFFFFFFFFFFFFFFFFFFF AND DUP2 MSTORE PUSH1 0x20 ADD SWAP1 DUP2 MSTORE PUSH1 0x20 ADD PUSH0 KECCAK256 DUP1 SLOAD DUP1 PUSH1 0x20 MUL PUSH1 0x20 ADD PUSH1 0x40 MLOAD SWAP1 DUP2 ADD PUSH1 0x40 MSTORE DUP1 SWAP3 SWAP2 SWAP1 DUP2 DUP2 MSTORE PUSH1 0x20 ADD PUSH0 SWAP1 JUMPDEST DUP3 DUP3 LT ISZERO PUSH2 0x958 JUMPI DUP4 DUP3 SWAP1 PUSH0 MSTORE PUSH1 0x20 PUSH0 KECCAK256 SWAP1 PUSH1 0x5 MUL ADD PUSH1 0x40 MLOAD DUP1 PUSH1 0xA0 ADD PUSH1 0x40 MSTORE SWAP1 DUP2 PUSH0 DUP3 ADD SLOAD DUP2 MSTORE PUSH1 0x20 ADD PUSH1 0x1 DUP3 ADD PUSH0 SWAP1 SLOAD SWAP1 PUSH2 0x100 EXP SWAP1 DIV PUSH20 0xFFFFFFFFFFFFFFFFFFFFFFFFFFFFFFFFFFFFFFFF AND PUSH20 0xFFFFFFFFFFFFFFFFFFFFFFFFFFFFFFFFFFFFFFFF AND PUSH20 0xFFFFFFFFFFFFFFFFFFFFFFFFFFFFFFFFFFFFFFFF AND DUP2 MSTORE PUSH1 0x20 ADD PUSH1 0x2 DUP3 ADD DUP1 SLOAD PUSH2 0x8B5 SWAP1 PUSH2 0x141D JUMP JUMPDEST DUP1 PUSH1 0x1F ADD PUSH1 0x20 DUP1 SWAP2 DIV MUL PUSH1 0x20 ADD PUSH1 0x40 MLOAD SWAP1 DUP2 ADD PUSH1 0x40 MSTORE DUP1 SWAP3 SWAP2 SWAP1 DUP2 DUP2 MSTORE PUSH1 0x20 ADD DUP3 DUP1 SLOAD PUSH2 0x8E1 SWAP1 PUSH2 0x141D JUMP JUMPDEST DUP1 ISZERO PUSH2 0x92C JUMPI DUP1 PUSH1 0x1F LT PUSH2 0x903 JUMPI PUSH2 0x100 DUP1 DUP4 SLOAD DIV MUL DUP4 MSTORE SWAP2 PUSH1 0x20 ADD SWAP2 PUSH2 0x92C JUMP JUMPDEST DUP3 ADD SWAP2 SWAP1 PUSH0 MSTORE PUSH1 0x20 PUSH0 KECCAK256 SWAP1 JUMPDEST DUP2 SLOAD DUP2 MSTORE SWAP1 PUSH1 0x1 ADD SWAP1 PUSH1 0x20 ADD DUP1 DUP4 GT PUSH2 0x90F JUMPI DUP3 SWAP1 SUB PUSH1 0x1F AND DUP3 ADD SWAP2 JUMPDEST POP POP POP POP POP DUP2 MSTORE PUSH1 0x20 ADD PUSH1 0x3 DUP3 ADD SLOAD DUP2 MSTORE PUSH1 0x20 ADD PUSH1 0x4 DUP3 ADD SLOAD DUP2 MSTORE POP POP DUP2 MSTORE PUSH1 0x20 ADD SWAP1 PUSH1 0x1 ADD SWAP1 PUSH2 0x826 JUMP JUMPDEST POP POP POP POP SWAP1 POP SWAP2 SWAP1 POP JUMP JUMPDEST PUSH0 DUP1 SLOAD SWAP1 PUSH2 0x100 EXP SWAP1 DIV PUSH2 0xFFFF AND PUSH2 0xFFFF AND DUP2 MLOAD GT ISZERO PUSH2 0x9B8 JUMPI PUSH1 0x40 MLOAD PUSH32 0x8C379A000000000000000000000000000000000000000000000000000000000 DUP2 MSTORE PUSH1 0x4 ADD PUSH2 0x9AF SWAP1 PUSH2 0x14BD JUMP JUMPDEST PUSH1 0x40 MLOAD DUP1 SWAP2 SUB SWAP1 REVERT JUMPDEST PUSH0 PUSH1 0x40 MLOAD DUP1 PUSH1 0xA0 ADD PUSH1 0x40 MSTORE DUP1 PUSH1 0x1 PUSH0 CALLER PUSH20 0xFFFFFFFFFFFFFFFFFFFFFFFFFFFFFFFFFFFFFFFF AND PUSH20 0xFFFFFFFFFFFFFFFFFFFFFFFFFFFFFFFFFFFFFFFF AND DUP2 MSTORE PUSH1 0x20 ADD SWAP1 DUP2 MSTORE PUSH1 0x20 ADD PUSH0 KECCAK256 DUP1 SLOAD SWAP1 POP DUP2 MSTORE PUSH1 0x20 ADD CALLER PUSH20 0xFFFFFFFFFFFFFFFFFFFFFFFFFFFFFFFFFFFFFFFF AND DUP2 MSTORE PUSH1 0x20 ADD DUP4 DUP2 MSTORE PUSH1 0x20 ADD TIMESTAMP DUP2 MSTORE PUSH1 0x20 ADD PUSH0 DUP2 MSTORE POP SWAP1 POP PUSH1 0x1 PUSH0 CALLER PUSH20 0xFFFFFFFFFFFFFFFFFFFFFFFFFFFFFFFFFFFFFFFF AND PUSH20 0xFFFFFFFFFFFFFFFFFFFFFFFFFFFFFFFFFFFFFFFF AND DUP2 MSTORE PUSH1 0x20 ADD SWAP1 DUP2 MSTORE PUSH1 0x20 ADD PUSH0 KECCAK256 DUP2 SWAP1 DUP1 PUSH1 0x1 DUP2 SLOAD ADD DUP1 DUP3 SSTORE DUP1 SWAP2 POP POP PUSH1 0x1 SWAP1 SUB SWAP1 PUSH0 MSTORE PUSH1 0x20 PUSH0 KECCAK256 SWAP1 PUSH1 0x5 MUL ADD PUSH0 SWAP1 SWAP2 SWAP1 SWAP2 SWAP1 SWAP2 POP PUSH0 DUP3 ADD MLOAD DUP2 PUSH0 ADD SSTORE PUSH1 0x20 DUP3 ADD MLOAD DUP2 PUSH1 0x1 ADD PUSH0 PUSH2 0x100 EXP DUP2 SLOAD DUP2 PUSH20 0xFFFFFFFFFFFFFFFFFFFFFFFFFFFFFFFFFFFFFFFF MUL NOT AND SWAP1 DUP4 PUSH20 0xFFFFFFFFFFFFFFFFFFFFFFFFFFFFFFFFFFFFFFFF AND MUL OR SWAP1 SSTORE POP PUSH1 0x40 DUP3 ADD MLOAD DUP2 PUSH1 0x2 ADD SWAP1 DUP2 PUSH2 0xAFF SWAP2 SWAP1 PUSH2 0x1678 JUMP JUMPDEST POP PUSH1 0x60 DUP3 ADD MLOAD DUP2 PUSH1 0x3 ADD SSTORE PUSH1 0x80 DUP3 ADD MLOAD DUP2 PUSH1 0x4 ADD SSTORE POP POP POP POP JUMP JUMPDEST PUSH1 0x2 PUSH0 SWAP1 SLOAD SWAP1 PUSH2 0x100 EXP SWAP1 DIV PUSH20 0xFFFFFFFFFFFFFFFFFFFFFFFFFFFFFFFFFFFFFFFF AND DUP2 JUMP JUMPDEST PUSH1 0x40 MLOAD DUP1 PUSH1 0xA0 ADD PUSH1 0x40 MSTORE DUP1 PUSH0 DUP2 MSTORE PUSH1 0x20 ADD PUSH0 PUSH20 0xFFFFFFFFFFFFFFFFFFFFFFFFFFFFFFFFFFFFFFFF AND DUP2 MSTORE PUSH1 0x20 ADD PUSH1 0x60 DUP2 MSTORE PUSH1 0x20 ADD PUSH0 DUP2 MSTORE PUSH1 0x20 ADD PUSH0 DUP2 MSTORE POP SWAP1 JUMP JUMPDEST PUSH0 PUSH1 0x40 MLOAD SWAP1 POP SWAP1 JUMP JUMPDEST PUSH0 DUP1 REVERT JUMPDEST PUSH0 DUP1 REVERT JUMPDEST PUSH0 PUSH20 0xFFFFFFFFFFFFFFFFFFFFFFFFFFFFFFFFFFFFFFFF DUP3 AND SWAP1 POP SWAP2 SWAP1 POP JUMP JUMPDEST PUSH0 PUSH2 0xBBA DUP3 PUSH2 0xB91 JUMP JUMPDEST SWAP1 POP SWAP2 SWAP1 POP JUMP JUMPDEST PUSH2 0xBCA DUP2 PUSH2 0xBB0 JUMP JUMPDEST DUP2 EQ PUSH2 0xBD4 JUMPI PUSH0 DUP1 REVERT JUMPDEST POP JUMP JUMPDEST PUSH0 DUP2 CALLDATALOAD SWAP1 POP PUSH2 0xBE5 DUP2 PUSH2 0xBC1 JUMP JUMPDEST SWAP3 SWAP2 POP POP JUMP JUMPDEST PUSH0 DUP2 SWAP1 POP SWAP2 SWAP1 POP JUMP JUMPDEST PUSH2 0xBFD DUP2 PUSH2 0xBEB JUMP JUMPDEST DUP2 EQ PUSH2 0xC07 JUMPI PUSH0 DUP1 REVERT JUMPDEST POP JUMP JUMPDEST PUSH0 DUP2 CALLDATALOAD SWAP1 POP PUSH2 0xC18 DUP2 PUSH2 0xBF4 JUMP JUMPDEST SWAP3 SWAP2 POP POP JUMP JUMPDEST PUSH0 DUP1 PUSH1 0x40 DUP4 DUP6 SUB SLT ISZERO PUSH2 0xC34 JUMPI PUSH2 0xC33 PUSH2 0xB89 JUMP JUMPDEST JUMPDEST PUSH0 PUSH2 0xC41 DUP6 DUP3 DUP7 ADD PUSH2 0xBD7 JUMP JUMPDEST SWAP3 POP POP PUSH1 0x20 PUSH2 0xC52 DUP6 DUP3 DUP7 ADD PUSH2 0xC0A JUMP JUMPDEST SWAP2 POP POP SWAP3 POP SWAP3 SWAP1 POP JUMP JUMPDEST PUSH0 PUSH2 0xFFFF DUP3 AND SWAP1 POP SWAP2 SWAP1 POP JUMP JUMPDEST PUSH2 0xC72 DUP2 PUSH2 0xC5C JUMP JUMPDEST DUP3 MSTORE POP POP JUMP JUMPDEST PUSH0 PUSH1 0x20 DUP3 ADD SWAP1 POP PUSH2 0xC8B PUSH0 DUP4 ADD DUP5 PUSH2 0xC69 JUMP JUMPDEST SWAP3 SWAP2 POP POP JUMP JUMPDEST PUSH2 0xC9A DUP2 PUSH2 0xC5C JUMP JUMPDEST DUP2 EQ PUSH2 0xCA4 JUMPI PUSH0 DUP1 REVERT JUMPDEST POP JUMP JUMPDEST PUSH0 DUP2 CALLDATALOAD SWAP1 POP PUSH2 0xCB5 DUP2 PUSH2 0xC91 JUMP JUMPDEST SWAP3 SWAP2 POP POP JUMP JUMPDEST PUSH0 PUSH1 0x20 DUP3 DUP5 SUB SLT ISZERO PUSH2 0xCD0 JUMPI PUSH2 0xCCF PUSH2 0xB89 JUMP JUMPDEST JUMPDEST PUSH0 PUSH2 0xCDD DUP5 DUP3 DUP6 ADD PUSH2 0xCA7 JUMP JUMPDEST SWAP2 POP POP SWAP3 SWAP2 POP POP JUMP JUMPDEST PUSH2 0xCEF DUP2 PUSH2 0xBEB JUMP JUMPDEST DUP3 MSTORE POP POP JUMP JUMPDEST PUSH2 0xCFE DUP2 PUSH2 0xBB0 JUMP JUMPDEST DUP3 MSTORE POP POP JUMP JUMPDEST PUSH0 DUP2 MLOAD SWAP1 POP SWAP2 SWAP1 POP JUMP JUMPDEST PUSH0 DUP3 DUP3 MSTORE PUSH1 0x20 DUP3 ADD SWAP1 POP SWAP3 SWAP2 POP POP JUMP JUMPDEST DUP3 DUP2 DUP4 MCOPY PUSH0 DUP4 DUP4 ADD MSTORE POP POP POP JUMP JUMPDEST PUSH0 PUSH1 0x1F NOT PUSH1 0x1F DUP4 ADD AND SWAP1 POP SWAP2 SWAP1 POP JUMP JUMPDEST PUSH0 PUSH2 0xD46 DUP3 PUSH2 0xD04 JUMP JUMPDEST PUSH2 0xD50 DUP2 DUP6 PUSH2 0xD0E JUMP JUMPDEST SWAP4 POP PUSH2 0xD60 DUP2 DUP6 PUSH1 0x20 DUP7 ADD PUSH2 0xD1E JUMP JUMPDEST PUSH2 0xD69 DUP2 PUSH2 0xD2C JUMP JUMPDEST DUP5 ADD SWAP2 POP POP SWAP3 SWAP2 POP POP JUMP JUMPDEST PUSH0 PUSH1 0xA0 DUP3 ADD SWAP1 POP PUSH2 0xD87 PUSH0 DUP4 ADD DUP9 PUSH2 0xCE6 JUMP JUMPDEST PUSH2 0xD94 PUSH1 0x20 DUP4 ADD DUP8 PUSH2 0xCF5 JUMP JUMPDEST DUP2 DUP2 SUB PUSH1 0x40 DUP4 ADD MSTORE PUSH2 0xDA6 DUP2 DUP7 PUSH2 0xD3C JUMP JUMPDEST SWAP1 POP PUSH2 0xDB5 PUSH1 0x60 DUP4 ADD DUP6 PUSH2 0xCE6 JUMP JUMPDEST PUSH2 0xDC2 PUSH1 0x80 DUP4 ADD DUP5 PUSH2 0xCE6 JUMP JUMPDEST SWAP7 SWAP6 POP POP POP POP POP POP JUMP JUMPDEST PUSH2 0xDD5 DUP2 PUSH2 0xBEB JUMP JUMPDEST DUP3 MSTORE POP POP JUMP JUMPDEST PUSH2 0xDE4 DUP2 PUSH2 0xBB0 JUMP JUMPDEST DUP3 MSTORE POP POP JUMP JUMPDEST PUSH0 DUP3 DUP3 MSTORE PUSH1 0x20 DUP3 ADD SWAP1 POP SWAP3 SWAP2 POP POP JUMP JUMPDEST PUSH0 PUSH2 0xE04 DUP3 PUSH2 0xD04 JUMP JUMPDEST PUSH2 0xE0E DUP2 DUP6 PUSH2 0xDEA JUMP JUMPDEST SWAP4 POP PUSH2 0xE1E DUP2 DUP6 PUSH1 0x20 DUP7 ADD PUSH2 0xD1E JUMP JUMPDEST PUSH2 0xE27 DUP2 PUSH2 0xD2C JUMP JUMPDEST DUP5 ADD SWAP2 POP POP SWAP3 SWAP2 POP POP JUMP JUMPDEST PUSH0 PUSH1 0xA0 DUP4 ADD PUSH0 DUP4 ADD MLOAD PUSH2 0xE47 PUSH0 DUP7 ADD DUP3 PUSH2 0xDCC JUMP JUMPDEST POP PUSH1 0x20 DUP4 ADD MLOAD PUSH2 0xE5A PUSH1 0x20 DUP7 ADD DUP3 PUSH2 0xDDB JUMP JUMPDEST POP PUSH1 0x40 DUP4 ADD MLOAD DUP5 DUP3 SUB PUSH1 0x40 DUP7 ADD MSTORE PUSH2 0xE72 DUP3 DUP3 PUSH2 0xDFA JUMP JUMPDEST SWAP2 POP POP PUSH1 0x60 DUP4 ADD MLOAD PUSH2 0xE87 PUSH1 0x60 DUP7 ADD DUP3 PUSH2 0xDCC JUMP JUMPDEST POP PUSH1 0x80 DUP4 ADD MLOAD PUSH2 0xE9A PUSH1 0x80 DUP7 ADD DUP3 PUSH2 0xDCC JUMP JUMPDEST POP DUP1 SWAP2 POP POP SWAP3 SWAP2 POP POP JUMP JUMPDEST PUSH0 PUSH1 0x20 DUP3 ADD SWAP1 POP DUP2 DUP2 SUB PUSH0 DUP4 ADD MSTORE PUSH2 0xEBD DUP2 DUP5 PUSH2 0xE32 JUMP JUMPDEST SWAP1 POP SWAP3 SWAP2 POP POP JUMP JUMPDEST PUSH0 PUSH1 0x20 DUP3 DUP5 SUB SLT ISZERO PUSH2 0xEDA JUMPI PUSH2 0xED9 PUSH2 0xB89 JUMP JUMPDEST JUMPDEST PUSH0 PUSH2 0xEE7 DUP5 DUP3 DUP6 ADD PUSH2 0xBD7 JUMP JUMPDEST SWAP2 POP POP SWAP3 SWAP2 POP POP JUMP JUMPDEST PUSH0 DUP2 MLOAD SWAP1 POP SWAP2 SWAP1 POP JUMP JUMPDEST PUSH0 DUP3 DUP3 MSTORE PUSH1 0x20 DUP3 ADD SWAP1 POP SWAP3 SWAP2 POP POP JUMP JUMPDEST PUSH0 DUP2 SWAP1 POP PUSH1 0x20 DUP3 ADD SWAP1 POP SWAP2 SWAP1 POP JUMP JUMPDEST PUSH0 PUSH1 0xA0 DUP4 ADD PUSH0 DUP4 ADD MLOAD PUSH2 0xF2E PUSH0 DUP7 ADD DUP3 PUSH2 0xDCC JUMP JUMPDEST POP PUSH1 0x20 DUP4 ADD MLOAD PUSH2 0xF41 PUSH1 0x20 DUP7 ADD DUP3 PUSH2 0xDDB JUMP JUMPDEST POP PUSH1 0x40 DUP4 ADD MLOAD DUP5 DUP3 SUB PUSH1 0x40 DUP7 ADD MSTORE PUSH2 0xF59 DUP3 DUP3 PUSH2 0xDFA JUMP JUMPDEST SWAP2 POP POP PUSH1 0x60 DUP4 ADD MLOAD PUSH2 0xF6E PUSH1 0x60 DUP7 ADD DUP3 PUSH2 0xDCC JUMP JUMPDEST POP PUSH1 0x80 DUP4 ADD MLOAD PUSH2 0xF81 PUSH1 0x80 DUP7 ADD DUP3 PUSH2 0xDCC JUMP JUMPDEST POP DUP1 SWAP2 POP POP SWAP3 SWAP2 POP POP JUMP JUMPDEST PUSH0 PUSH2 0xF97 DUP4 DUP4 PUSH2 0xF19 JUMP JUMPDEST SWAP1 POP SWAP3 SWAP2 POP POP JUMP JUMPDEST PUSH0 PUSH1 0x20 DUP3 ADD SWAP1 POP SWAP2 SWAP1 POP JUMP JUMPDEST PUSH0 PUSH2 0xFB5 DUP3 PUSH2 0xEF0 JUMP JUMPDEST PUSH2 0xFBF DUP2 DUP6 PUSH2 0xEFA JUMP JUMPDEST SWAP4 POP DUP4 PUSH1 0x20 DUP3 MUL DUP6 ADD PUSH2 0xFD1 DUP6 PUSH2 0xF0A JUMP JUMPDEST DUP1 PUSH0 JUMPDEST DUP6 DUP2 LT ISZERO PUSH2 0x100C JUMPI DUP5 DUP5 SUB DUP10 MSTORE DUP2 MLOAD PUSH2 0xFED DUP6 DUP3 PUSH2 0xF8C JUMP JUMPDEST SWAP5 POP PUSH2 0xFF8 DUP4 PUSH2 0xF9F JUMP JUMPDEST SWAP3 POP PUSH1 0x20 DUP11 ADD SWAP10 POP POP PUSH1 0x1 DUP2 ADD SWAP1 POP PUSH2 0xFD4 JUMP JUMPDEST POP DUP3 SWAP8 POP DUP8 SWAP6 POP POP POP POP POP POP SWAP3 SWAP2 POP POP JUMP JUMPDEST PUSH0 PUSH1 0x20 DUP3 ADD SWAP1 POP DUP2 DUP2 SUB PUSH0 DUP4 ADD MSTORE PUSH2 0x1036 DUP2 DUP5 PUSH2 0xFAB JUMP JUMPDEST SWAP1 POP SWAP3 SWAP2 POP POP JUMP JUMPDEST PUSH0 DUP1 REVERT JUMPDEST PUSH0 DUP1 REVERT JUMPDEST PUSH32 0x4E487B7100000000000000000000000000000000000000000000000000000000 PUSH0 MSTORE PUSH1 0x41 PUSH1 0x4 MSTORE PUSH1 0x24 PUSH0 REVERT JUMPDEST PUSH2 0x107C DUP3 PUSH2 0xD2C JUMP JUMPDEST DUP2 ADD DUP2 DUP2 LT PUSH8 0xFFFFFFFFFFFFFFFF DUP3 GT OR ISZERO PUSH2 0x109B JUMPI PUSH2 0x109A PUSH2 0x1046 JUMP JUMPDEST JUMPDEST DUP1 PUSH1 0x40 MSTORE POP POP POP JUMP JUMPDEST PUSH0 PUSH2 0x10AD PUSH2 0xB80 JUMP JUMPDEST SWAP1 POP PUSH2 0x10B9 DUP3 DUP3 PUSH2 0x1073 JUMP JUMPDEST SWAP2 SWAP1 POP JUMP JUMPDEST PUSH0 PUSH8 0xFFFFFFFFFFFFFFFF DUP3 GT ISZERO PUSH2 0x10D8 JUMPI PUSH2 0x10D7 PUSH2 0x1046 JUMP JUMPDEST JUMPDEST PUSH2 0x10E1 DUP3 PUSH2 0xD2C JUMP JUMPDEST SWAP1 POP PUSH1 0x20 DUP2 ADD SWAP1 POP SWAP2 SWAP1 POP JUMP JUMPDEST DUP3 DUP2 DUP4 CALLDATACOPY PUSH0 DUP4 DUP4 ADD MSTORE POP POP POP JUMP JUMPDEST PUSH0 PUSH2 0x110E PUSH2 0x1109 DUP5 PUSH2 0x10BE JUMP JUMPDEST PUSH2 0x10A4 JUMP JUMPDEST SWAP1 POP DUP3 DUP2 MSTORE PUSH1 0x20 DUP2 ADD DUP5 DUP5 DUP5 ADD GT ISZERO PUSH2 0x112A JUMPI PUSH2 0x1129 PUSH2 0x1042 JUMP JUMPDEST JUMPDEST PUSH2 0x1135 DUP5 DUP3 DUP6 PUSH2 0x10EE JUMP JUMPDEST POP SWAP4 SWAP3 POP POP POP JUMP JUMPDEST PUSH0 DUP3 PUSH1 0x1F DUP4 ADD SLT PUSH2 0x1151 JUMPI PUSH2 0x1150 PUSH2 0x103E JUMP JUMPDEST JUMPDEST DUP2 CALLDATALOAD PUSH2 0x1161 DUP5 DUP3 PUSH1 0x20 DUP7 ADD PUSH2 0x10FC JUMP JUMPDEST SWAP2 POP POP SWAP3 SWAP2 POP POP JUMP JUMPDEST PUSH0 PUSH1 0x20 DUP3 DUP5 SUB SLT ISZERO PUSH2 0x117F JUMPI PUSH2 0x117E PUSH2 0xB89 JUMP JUMPDEST JUMPDEST PUSH0 DUP3 ADD CALLDATALOAD PUSH8 0xFFFFFFFFFFFFFFFF DUP2 GT ISZERO PUSH2 0x119C JUMPI PUSH2 0x119B PUSH2 0xB8D JUMP JUMPDEST JUMPDEST PUSH2 0x11A8 DUP5 DUP3 DUP6 ADD PUSH2 0x113D JUMP JUMPDEST SWAP2 POP POP SWAP3 SWAP2 POP POP JUMP JUMPDEST PUSH0 PUSH1 0x20 DUP3 ADD SWAP1 POP PUSH2 0x11C4 PUSH0 DUP4 ADD DUP5 PUSH2 0xCF5 JUMP JUMPDEST SWAP3 SWAP2 POP POP JUMP JUMPDEST PUSH32 0x4E487B7100000000000000000000000000000000000000000000000000000000 PUSH0 MSTORE PUSH1 0x32 PUSH1 0x4 MSTORE PUSH1 0x24 PUSH0 REVERT JUMPDEST PUSH32 0x4573746520706F7374206E616F206578697374652E0000000000000000000000 PUSH0 DUP3 ADD MSTORE POP JUMP JUMPDEST PUSH0 PUSH2 0x122B PUSH1 0x15 DUP4 PUSH2 0xD0E JUMP JUMPDEST SWAP2 POP PUSH2 0x1236 DUP3 PUSH2 0x11F7 JUMP JUMPDEST PUSH1 0x20 DUP3 ADD SWAP1 POP SWAP2 SWAP1 POP JUMP JUMPDEST PUSH0 PUSH1 0x20 DUP3 ADD SWAP1 POP DUP2 DUP2 SUB PUSH0 DUP4 ADD MSTORE PUSH2 0x1258 DUP2 PUSH2 0x121F JUMP JUMPDEST SWAP1 POP SWAP2 SWAP1 POP JUMP JUMPDEST PUSH32 0x4E487B7100000000000000000000000000000000000000000000000000000000 PUSH0 MSTORE PUSH1 0x11 PUSH1 0x4 MSTORE PUSH1 0x24 PUSH0 REVERT JUMPDEST PUSH0 PUSH2 0x1296 DUP3 PUSH2 0xBEB JUMP JUMPDEST SWAP2 POP PUSH32 0xFFFFFFFFFFFFFFFFFFFFFFFFFFFFFFFFFFFFFFFFFFFFFFFFFFFFFFFFFFFFFFFF DUP3 SUB PUSH2 0x12C8 JUMPI PUSH2 0x12C7 PUSH2 0x125F JUMP JUMPDEST JUMPDEST PUSH1 0x1 DUP3 ADD SWAP1 POP SWAP2 SWAP1 POP JUMP JUMPDEST PUSH32 0x4F20706F7374206E616F20706F737375692063757274696461732E0000000000 PUSH0 DUP3 ADD MSTORE POP JUMP JUMPDEST PUSH0 PUSH2 0x1307 PUSH1 0x1B DUP4 PUSH2 0xD0E JUMP JUMPDEST SWAP2 POP PUSH2 0x1312 DUP3 PUSH2 0x12D3 JUMP JUMPDEST PUSH1 0x20 DUP3 ADD SWAP1 POP SWAP2 SWAP1 POP JUMP JUMPDEST PUSH0 PUSH1 0x20 DUP3 ADD SWAP1 POP DUP2 DUP2 SUB PUSH0 DUP4 ADD MSTORE PUSH2 0x1334 DUP2 PUSH2 0x12FB JUMP JUMPDEST SWAP1 POP SWAP2 SWAP1 POP JUMP JUMPDEST PUSH0 PUSH2 0x1345 DUP3 PUSH2 0xBEB JUMP JUMPDEST SWAP2 POP PUSH0 DUP3 SUB PUSH2 0x1357 JUMPI PUSH2 0x1356 PUSH2 0x125F JUMP JUMPDEST JUMPDEST PUSH1 0x1 DUP3 SUB SWAP1 POP SWAP2 SWAP1 POP JUMP JUMPDEST PUSH32 0x4170656E6173206F20646F6E6F20646F20636F6E747261746F20706F64652065 PUSH0 DUP3 ADD MSTORE PUSH32 0x7865637574617220657373612066756E63616F21000000000000000000000000 PUSH1 0x20 DUP3 ADD MSTORE POP JUMP JUMPDEST PUSH0 PUSH2 0x13BC PUSH1 0x34 DUP4 PUSH2 0xD0E JUMP JUMPDEST SWAP2 POP PUSH2 0x13C7 DUP3 PUSH2 0x1362 JUMP JUMPDEST PUSH1 0x40 DUP3 ADD SWAP1 POP SWAP2 SWAP1 POP JUMP JUMPDEST PUSH0 PUSH1 0x20 DUP3 ADD SWAP1 POP DUP2 DUP2 SUB PUSH0 DUP4 ADD MSTORE PUSH2 0x13E9 DUP2 PUSH2 0x13B0 JUMP JUMPDEST SWAP1 POP SWAP2 SWAP1 POP JUMP JUMPDEST PUSH32 0x4E487B7100000000000000000000000000000000000000000000000000000000 PUSH0 MSTORE PUSH1 0x22 PUSH1 0x4 MSTORE PUSH1 0x24 PUSH0 REVERT JUMPDEST PUSH0 PUSH1 0x2 DUP3 DIV SWAP1 POP PUSH1 0x1 DUP3 AND DUP1 PUSH2 0x1434 JUMPI PUSH1 0x7F DUP3 AND SWAP2 POP JUMPDEST PUSH1 0x20 DUP3 LT DUP2 SUB PUSH2 0x1447 JUMPI PUSH2 0x1446 PUSH2 0x13F0 JUMP JUMPDEST JUMPDEST POP SWAP2 SWAP1 POP JUMP JUMPDEST PUSH32 0x5175616E746964616465206D6178696D61206465206361726163746572657320 PUSH0 DUP3 ADD MSTORE PUSH32 0x666F6920756C7472617061737361646121000000000000000000000000000000 PUSH1 0x20 DUP3 ADD MSTORE POP JUMP JUMPDEST PUSH0 PUSH2 0x14A7 PUSH1 0x31 DUP4 PUSH2 0xD0E JUMP JUMPDEST SWAP2 POP PUSH2 0x14B2 DUP3 PUSH2 0x144D JUMP JUMPDEST PUSH1 0x40 DUP3 ADD SWAP1 POP SWAP2 SWAP1 POP JUMP JUMPDEST PUSH0 PUSH1 0x20 DUP3 ADD SWAP1 POP DUP2 DUP2 SUB PUSH0 DUP4 ADD MSTORE PUSH2 0x14D4 DUP2 PUSH2 0x149B JUMP JUMPDEST SWAP1 POP SWAP2 SWAP1 POP JUMP JUMPDEST PUSH0 DUP2 SWAP1 POP DUP2 PUSH0 MSTORE PUSH1 0x20 PUSH0 KECCAK256 SWAP1 POP SWAP2 SWAP1 POP JUMP JUMPDEST PUSH0 PUSH1 0x20 PUSH1 0x1F DUP4 ADD DIV SWAP1 POP SWAP2 SWAP1 POP JUMP JUMPDEST PUSH0 DUP3 DUP3 SHL SWAP1 POP SWAP3 SWAP2 POP POP JUMP JUMPDEST PUSH0 PUSH1 0x8 DUP4 MUL PUSH2 0x1537 PUSH32 0xFFFFFFFFFFFFFFFFFFFFFFFFFFFFFFFFFFFFFFFFFFFFFFFFFFFFFFFFFFFFFFFF DUP3 PUSH2 0x14FC JUMP JUMPDEST PUSH2 0x1541 DUP7 DUP4 PUSH2 0x14FC JUMP JUMPDEST SWAP6 POP DUP1 NOT DUP5 AND SWAP4 POP DUP1 DUP7 AND DUP5 OR SWAP3 POP POP POP SWAP4 SWAP3 POP POP POP JUMP JUMPDEST PUSH0 DUP2 SWAP1 POP SWAP2 SWAP1 POP JUMP JUMPDEST PUSH0 PUSH2 0x157C PUSH2 0x1577 PUSH2 0x1572 DUP5 PUSH2 0xBEB JUMP JUMPDEST PUSH2 0x1559 JUMP JUMPDEST PUSH2 0xBEB JUMP JUMPDEST SWAP1 POP SWAP2 SWAP1 POP JUMP JUMPDEST PUSH0 DUP2 SWAP1 POP SWAP2 SWAP1 POP JUMP JUMPDEST PUSH2 0x1595 DUP4 PUSH2 0x1562 JUMP JUMPDEST PUSH2 0x15A9 PUSH2 0x15A1 DUP3 PUSH2 0x1583 JUMP JUMPDEST DUP5 DUP5 SLOAD PUSH2 0x1508 JUMP JUMPDEST DUP3 SSTORE POP POP POP POP JUMP JUMPDEST PUSH0 SWAP1 JUMP JUMPDEST PUSH2 0x15BD PUSH2 0x15B1 JUMP JUMPDEST PUSH2 0x15C8 DUP2 DUP5 DUP5 PUSH2 0x158C JUMP JUMPDEST POP POP POP JUMP JUMPDEST JUMPDEST DUP2 DUP2 LT ISZERO PUSH2 0x15EB JUMPI PUSH2 0x15E0 PUSH0 DUP3 PUSH2 0x15B5 JUMP JUMPDEST PUSH1 0x1 DUP2 ADD SWAP1 POP PUSH2 0x15CE JUMP JUMPDEST POP POP JUMP JUMPDEST PUSH1 0x1F DUP3 GT ISZERO PUSH2 0x1630 JUMPI PUSH2 0x1601 DUP2 PUSH2 0x14DB JUMP JUMPDEST PUSH2 0x160A DUP5 PUSH2 0x14ED JUMP JUMPDEST DUP2 ADD PUSH1 0x20 DUP6 LT ISZERO PUSH2 0x1619 JUMPI DUP2 SWAP1 POP JUMPDEST PUSH2 0x162D PUSH2 0x1625 DUP6 PUSH2 0x14ED JUMP JUMPDEST DUP4 ADD DUP3 PUSH2 0x15CD JUMP JUMPDEST POP POP JUMPDEST POP POP POP JUMP JUMPDEST PUSH0 DUP3 DUP3 SHR SWAP1 POP SWAP3 SWAP2 POP POP JUMP JUMPDEST PUSH0 PUSH2 0x1650 PUSH0 NOT DUP5 PUSH1 0x8 MUL PUSH2 0x1635 JUMP JUMPDEST NOT DUP1 DUP4 AND SWAP2 POP POP SWAP3 SWAP2 POP POP JUMP JUMPDEST PUSH0 PUSH2 0x1668 DUP4 DUP4 PUSH2 0x1641 JUMP JUMPDEST SWAP2 POP DUP3 PUSH1 0x2 MUL DUP3 OR SWAP1 POP SWAP3 SWAP2 POP POP JUMP JUMPDEST PUSH2 0x1681 DUP3 PUSH2 0xD04 JUMP JUMPDEST PUSH8 0xFFFFFFFFFFFFFFFF DUP2 GT ISZERO PUSH2 0x169A JUMPI PUSH2 0x1699 PUSH2 0x1046 JUMP JUMPDEST JUMPDEST PUSH2 0x16A4 DUP3 SLOAD PUSH2 0x141D JUMP JUMPDEST PUSH2 0x16AF DUP3 DUP3 DUP6 PUSH2 0x15EF JUMP JUMPDEST PUSH0 PUSH1 0x20 SWAP1 POP PUSH1 0x1F DUP4 GT PUSH1 0x1 DUP2 EQ PUSH2 0x16E0 JUMPI PUSH0 DUP5 ISZERO PUSH2 0x16CE JUMPI DUP3 DUP8 ADD MLOAD SWAP1 POP JUMPDEST PUSH2 0x16D8 DUP6 DUP3 PUSH2 0x165D JUMP JUMPDEST DUP7 SSTORE POP PUSH2 0x173F JUMP JUMPDEST PUSH1 0x1F NOT DUP5 AND PUSH2 0x16EE DUP7 PUSH2 0x14DB JUMP JUMPDEST PUSH0 JUMPDEST DUP3 DUP2 LT ISZERO PUSH2 0x1715 JUMPI DUP5 DUP10 ADD MLOAD DUP3 SSTORE PUSH1 0x1 DUP3 ADD SWAP2 POP PUSH1 0x20 DUP6 ADD SWAP5 POP PUSH1 0x20 DUP2 ADD SWAP1 POP PUSH2 0x16F0 JUMP JUMPDEST DUP7 DUP4 LT ISZERO PUSH2 0x1732 JUMPI DUP5 DUP10 ADD MLOAD PUSH2 0x172E PUSH1 0x1F DUP10 AND DUP3 PUSH2 0x1641 JUMP JUMPDEST DUP4 SSTORE POP JUMPDEST PUSH1 0x1 PUSH1 0x2 DUP9 MUL ADD DUP9 SSTORE POP POP POP JUMPDEST POP POP POP POP POP POP JUMP INVALID LOG2 PUSH5 0x6970667358 0x22 SLT KECCAK256 0xC5 EXTCODEHASH CALLDATACOPY 0xE4 0xDE 0xBF 0xC0 PUSH31 0x724A9B38472F53CFC111144242FC811850C02308E90AC4D764736F6C634300 ADDMOD BYTE STOP CALLER "
				},
				"gasEstimates": {
					"creation": {
						"codeDepositCost": "1202600",
						"executionCost": "49777",
						"totalCost": "1252377"
					},
					"external": {
						"MAXIMO_DE_CARACTERES()": "2508",
						"alterarMaximoDeCaracteres(uint16)": "26909",
						"criarPost(string)": "infinite",
						"curtirPost(address,uint256)": "infinite",
						"descurtirPost(address,uint256)": "infinite",
						"donoDoContrato()": "2596",
						"posts(address,uint256)": "infinite",
						"visualizarPost(address,uint256)": "infinite",
						"visualizarTodosOsPosts(address)": "infinite"
					}
				},
				"methodIdentifiers": {
					"MAXIMO_DE_CARACTERES()": "36013acd",
					"alterarMaximoDeCaracteres(uint16)": "49a9839f",
					"criarPost(string)": "b36fe3f0",
					"curtirPost(address,uint256)": "0ba824d3",
					"descurtirPost(address,uint256)": "1250c45a",
					"donoDoContrato()": "fe0ba9de",
					"posts(address,uint256)": "5c538df3",
					"visualizarPost(address,uint256)": "6de69b24",
					"visualizarTodosOsPosts(address)": "94495c3c"
				}
			},
			"storageLayout": {
				"storage": [
					{
						"astId": 4,
						"contract": "contracts/freeSocial.sol:freeSocial",
						"label": "MAXIMO_DE_CARACTERES",
						"offset": 0,
						"slot": "0",
						"type": "t_uint16"
					},
					{
						"astId": 21,
						"contract": "contracts/freeSocial.sol:freeSocial",
						"label": "posts",
						"offset": 0,
						"slot": "1",
						"type": "t_mapping(t_address,t_array(t_struct(Post)15_storage)dyn_storage)"
					},
					{
						"astId": 23,
						"contract": "contracts/freeSocial.sol:freeSocial",
						"label": "donoDoContrato",
						"offset": 0,
						"slot": "2",
						"type": "t_address"
					}
				],
				"types": {
					"t_address": {
						"encoding": "inplace",
						"label": "address",
						"numberOfBytes": "20"
					},
					"t_array(t_struct(Post)15_storage)dyn_storage": {
						"base": "t_struct(Post)15_storage",
						"encoding": "dynamic_array",
						"label": "struct freeSocial.Post[]",
						"numberOfBytes": "32"
					},
					"t_mapping(t_address,t_array(t_struct(Post)15_storage)dyn_storage)": {
						"encoding": "mapping",
						"key": "t_address",
						"label": "mapping(address => struct freeSocial.Post[])",
						"numberOfBytes": "32",
						"value": "t_array(t_struct(Post)15_storage)dyn_storage"
					},
					"t_string_storage": {
						"encoding": "bytes",
						"label": "string",
						"numberOfBytes": "32"
					},
					"t_struct(Post)15_storage": {
						"encoding": "inplace",
						"label": "struct freeSocial.Post",
						"members": [
							{
								"astId": 6,
								"contract": "contracts/freeSocial.sol:freeSocial",
								"label": "id",
								"offset": 0,
								"slot": "0",
								"type": "t_uint256"
							},
							{
								"astId": 8,
								"contract": "contracts/freeSocial.sol:freeSocial",
								"label": "autor",
								"offset": 0,
								"slot": "1",
								"type": "t_address"
							},
							{
								"astId": 10,
								"contract": "contracts/freeSocial.sol:freeSocial",
								"label": "conteudo",
								"offset": 0,
								"slot": "2",
								"type": "t_string_storage"
							},
							{
								"astId": 12,
								"contract": "contracts/freeSocial.sol:freeSocial",
								"label": "dataHora",
								"offset": 0,
								"slot": "3",
								"type": "t_uint256"
							},
							{
								"astId": 14,
								"contract": "contracts/freeSocial.sol:freeSocial",
								"label": "curtidas",
								"offset": 0,
								"slot": "4",
								"type": "t_uint256"
							}
						],
						"numberOfBytes": "160"
					},
					"t_uint16": {
						"encoding": "inplace",
						"label": "uint16",
						"numberOfBytes": "2"
					},
					"t_uint256": {
						"encoding": "inplace",
						"label": "uint256",
						"numberOfBytes": "32"
					}
				}
			},
			"userdoc": {
				"kind": "user",
				"methods": {},
				"version": 1
			}
		}
	}
}