{
	"contracts/freeSocial.sol": {
		"freeSocial": {
			"abi": [
				{
					"inputs": [
						{
							"internalType": "string",
							"name": "_texto",
							"type": "string"
						}
					],
					"name": "criarPost",
					"outputs": [],
					"stateMutability": "nonpayable",
					"type": "function"
				},
				{
					"inputs": [
						{
							"internalType": "address",
							"name": "",
							"type": "address"
						},
						{
							"internalType": "uint256",
							"name": "",
							"type": "uint256"
						}
					],
					"name": "posts",
					"outputs": [
						{
							"internalType": "address",
							"name": "autor",
							"type": "address"
						},
						{
							"internalType": "string",
							"name": "conteudo",
							"type": "string"
						},
						{
							"internalType": "uint256",
							"name": "dataHora",
							"type": "uint256"
						},
						{
							"internalType": "uint256",
							"name": "curtidas",
							"type": "uint256"
						}
					],
					"stateMutability": "view",
					"type": "function"
				},
				{
					"inputs": [
						{
							"internalType": "address",
							"name": "_criadorDoPost",
							"type": "address"
						},
						{
							"internalType": "uint256",
							"name": "_index",
							"type": "uint256"
						}
					],
					"name": "visualizarPost",
					"outputs": [
						{
							"components": [
								{
									"internalType": "address",
									"name": "autor",
									"type": "address"
								},
								{
									"internalType": "string",
									"name": "conteudo",
									"type": "string"
								},
								{
									"internalType": "uint256",
									"name": "dataHora",
									"type": "uint256"
								},
								{
									"internalType": "uint256",
									"name": "curtidas",
									"type": "uint256"
								}
							],
							"internalType": "struct freeSocial.Post",
							"name": "",
							"type": "tuple"
						}
					],
					"stateMutability": "view",
					"type": "function"
				},
				{
					"inputs": [
						{
							"internalType": "address",
							"name": "_criadorDoPost",
							"type": "address"
						}
					],
					"name": "visualizarTodosOsPosts",
					"outputs": [
						{
							"components": [
								{
									"internalType": "address",
									"name": "autor",
									"type": "address"
								},
								{
									"internalType": "string",
									"name": "conteudo",
									"type": "string"
								},
								{
									"internalType": "uint256",
									"name": "dataHora",
									"type": "uint256"
								},
								{
									"internalType": "uint256",
									"name": "curtidas",
									"type": "uint256"
								}
							],
							"internalType": "struct freeSocial.Post[]",
							"name": "",
							"type": "tuple[]"
						}
					],
					"stateMutability": "view",
					"type": "function"
				}
			],
			"devdoc": {
				"kind": "dev",
				"methods": {},
				"version": 1
			},
			"evm": {
				"assembly": "    /* \"contracts/freeSocial.sol\":62:856  contract freeSocial {... */\n  mstore(0x40, 0x80)\n  callvalue\n  dup1\n  iszero\n  tag_1\n  jumpi\n  0x00\n  dup1\n  revert\ntag_1:\n  pop\n  dataSize(sub_0)\n  dup1\n  dataOffset(sub_0)\n  0x00\n  codecopy\n  0x00\n  return\nstop\n\nsub_0: assembly {\n        /* \"contracts/freeSocial.sol\":62:856  contract freeSocial {... */\n      mstore(0x40, 0x80)\n      callvalue\n      dup1\n      iszero\n      tag_1\n      jumpi\n      0x00\n      dup1\n      revert\n    tag_1:\n      pop\n      jumpi(tag_2, lt(calldatasize, 0x04))\n      shr(0xe0, calldataload(0x00))\n      dup1\n      0x5c538df3\n      eq\n      tag_3\n      jumpi\n      dup1\n      0x6de69b24\n      eq\n      tag_4\n      jumpi\n      dup1\n      0x94495c3c\n      eq\n      tag_5\n      jumpi\n      dup1\n      0xb36fe3f0\n      eq\n      tag_6\n      jumpi\n    tag_2:\n      0x00\n      dup1\n      revert\n        /* \"contracts/freeSocial.sol\":221:260  mapping(address => Post[]) public posts */\n    tag_3:\n      tag_7\n      0x04\n      dup1\n      calldatasize\n      sub\n      dup2\n      add\n      swap1\n      tag_8\n      swap2\n      swap1\n      tag_9\n      jump\t// in\n    tag_8:\n      tag_10\n      jump\t// in\n    tag_7:\n      mload(0x40)\n      tag_11\n      swap5\n      swap4\n      swap3\n      swap2\n      swap1\n      tag_12\n      jump\t// in\n    tag_11:\n      mload(0x40)\n      dup1\n      swap2\n      sub\n      swap1\n      return\n        /* \"contracts/freeSocial.sol\":556:706  function visualizarPost(address _criadorDoPost, uint _index) public view returns (Post memory) {... */\n    tag_4:\n      tag_13\n      0x04\n      dup1\n      calldatasize\n      sub\n      dup2\n      add\n      swap1\n      tag_14\n      swap2\n      swap1\n      tag_9\n      jump\t// in\n    tag_14:\n      tag_15\n      jump\t// in\n    tag_13:\n      mload(0x40)\n      tag_16\n      swap2\n      swap1\n      tag_17\n      jump\t// in\n    tag_16:\n      mload(0x40)\n      dup1\n      swap2\n      sub\n      swap1\n      return\n        /* \"contracts/freeSocial.sol\":714:853  function visualizarTodosOsPosts(address _criadorDoPost) public view returns (Post[] memory) {... */\n    tag_5:\n      tag_18\n      0x04\n      dup1\n      calldatasize\n      sub\n      dup2\n      add\n      swap1\n      tag_19\n      swap2\n      swap1\n      tag_20\n      jump\t// in\n    tag_19:\n      tag_21\n      jump\t// in\n    tag_18:\n      mload(0x40)\n      tag_22\n      swap2\n      swap1\n      tag_23\n      jump\t// in\n    tag_22:\n      mload(0x40)\n      dup1\n      swap2\n      sub\n      swap1\n      return\n        /* \"contracts/freeSocial.sol\":269:548  function criarPost(string memory _texto) public {... */\n    tag_6:\n      tag_24\n      0x04\n      dup1\n      calldatasize\n      sub\n      dup2\n      add\n      swap1\n      tag_25\n      swap2\n      swap1\n      tag_26\n      jump\t// in\n    tag_25:\n      tag_27\n      jump\t// in\n    tag_24:\n      stop\n        /* \"contracts/freeSocial.sol\":221:260  mapping(address => Post[]) public posts */\n    tag_10:\n      mstore(0x20, 0x00)\n      dup2\n      0x00\n      mstore\n      keccak256(0x00, 0x40)\n      dup2\n      dup2\n      sload\n      dup2\n      lt\n      tag_28\n      jumpi\n      0x00\n      dup1\n      revert\n    tag_28:\n      swap1\n      0x00\n      mstore\n      keccak256(0x00, 0x20)\n      swap1\n      0x04\n      mul\n      add\n      0x00\n      swap2\n      pop\n      swap2\n      pop\n      pop\n      dup1\n      0x00\n      add\n      0x00\n      swap1\n      sload\n      swap1\n      0x0100\n      exp\n      swap1\n      div\n      0xffffffffffffffffffffffffffffffffffffffff\n      and\n      swap1\n      dup1\n      0x01\n      add\n      dup1\n      sload\n      tag_30\n      swap1\n      tag_31\n      jump\t// in\n    tag_30:\n      dup1\n      0x1f\n      add\n      0x20\n      dup1\n      swap2\n      div\n      mul\n      0x20\n      add\n      mload(0x40)\n      swap1\n      dup2\n      add\n      0x40\n      mstore\n      dup1\n      swap3\n      swap2\n      swap1\n      dup2\n      dup2\n      mstore\n      0x20\n      add\n      dup3\n      dup1\n      sload\n      tag_32\n      swap1\n      tag_31\n      jump\t// in\n    tag_32:\n      dup1\n      iszero\n      tag_33\n      jumpi\n      dup1\n      0x1f\n      lt\n      tag_34\n      jumpi\n      0x0100\n      dup1\n      dup4\n      sload\n      div\n      mul\n      dup4\n      mstore\n      swap2\n      0x20\n      add\n      swap2\n      jump(tag_33)\n    tag_34:\n      dup3\n      add\n      swap2\n      swap1\n      0x00\n      mstore\n      keccak256(0x00, 0x20)\n      swap1\n    tag_35:\n      dup2\n      sload\n      dup2\n      mstore\n      swap1\n      0x01\n      add\n      swap1\n      0x20\n      add\n      dup1\n      dup4\n      gt\n      tag_35\n      jumpi\n      dup3\n      swap1\n      sub\n      0x1f\n      and\n      dup3\n      add\n      swap2\n    tag_33:\n      pop\n      pop\n      pop\n      pop\n      pop\n      swap1\n      dup1\n      0x02\n      add\n      sload\n      swap1\n      dup1\n      0x03\n      add\n      sload\n      swap1\n      pop\n      dup5\n      jump\t// out\n        /* \"contracts/freeSocial.sol\":556:706  function visualizarPost(address _criadorDoPost, uint _index) public view returns (Post memory) {... */\n    tag_15:\n        /* \"contracts/freeSocial.sol\":638:649  Post memory */\n      tag_36\n      tag_37\n      jump\t// in\n    tag_36:\n        /* \"contracts/freeSocial.sol\":669:674  posts */\n      0x00\n        /* \"contracts/freeSocial.sol\":669:690  posts[_criadorDoPost] */\n      dup1\n        /* \"contracts/freeSocial.sol\":675:689  _criadorDoPost */\n      dup5\n        /* \"contracts/freeSocial.sol\":669:690  posts[_criadorDoPost] */\n      0xffffffffffffffffffffffffffffffffffffffff\n      and\n      0xffffffffffffffffffffffffffffffffffffffff\n      and\n      dup2\n      mstore\n      0x20\n      add\n      swap1\n      dup2\n      mstore\n      0x20\n      add\n      0x00\n      keccak256\n        /* \"contracts/freeSocial.sol\":691:697  _index */\n      dup3\n        /* \"contracts/freeSocial.sol\":669:698  posts[_criadorDoPost][_index] */\n      dup2\n      sload\n      dup2\n      lt\n      tag_39\n      jumpi\n      tag_40\n      tag_41\n      jump\t// in\n    tag_40:\n    tag_39:\n      swap1\n      0x00\n      mstore\n      keccak256(0x00, 0x20)\n      swap1\n      0x04\n      mul\n      add\n        /* \"contracts/freeSocial.sol\":662:698  return posts[_criadorDoPost][_index] */\n      mload(0x40)\n      dup1\n      0x80\n      add\n      0x40\n      mstore\n      swap1\n      dup2\n      0x00\n      dup3\n      add\n      0x00\n      swap1\n      sload\n      swap1\n      0x0100\n      exp\n      swap1\n      div\n      0xffffffffffffffffffffffffffffffffffffffff\n      and\n      0xffffffffffffffffffffffffffffffffffffffff\n      and\n      0xffffffffffffffffffffffffffffffffffffffff\n      and\n      dup2\n      mstore\n      0x20\n      add\n      0x01\n      dup3\n      add\n      dup1\n      sload\n      tag_43\n      swap1\n      tag_31\n      jump\t// in\n    tag_43:\n      dup1\n      0x1f\n      add\n      0x20\n      dup1\n      swap2\n      div\n      mul\n      0x20\n      add\n      mload(0x40)\n      swap1\n      dup2\n      add\n      0x40\n      mstore\n      dup1\n      swap3\n      swap2\n      swap1\n      dup2\n      dup2\n      mstore\n      0x20\n      add\n      dup3\n      dup1\n      sload\n      tag_44\n      swap1\n      tag_31\n      jump\t// in\n    tag_44:\n      dup1\n      iszero\n      tag_45\n      jumpi\n      dup1\n      0x1f\n      lt\n      tag_46\n      jumpi\n      0x0100\n      dup1\n      dup4\n      sload\n      div\n      mul\n      dup4\n      mstore\n      swap2\n      0x20\n      add\n      swap2\n      jump(tag_45)\n    tag_46:\n      dup3\n      add\n      swap2\n      swap1\n      0x00\n      mstore\n      keccak256(0x00, 0x20)\n      swap1\n    tag_47:\n      dup2\n      sload\n      dup2\n      mstore\n      swap1\n      0x01\n      add\n      swap1\n      0x20\n      add\n      dup1\n      dup4\n      gt\n      tag_47\n      jumpi\n      dup3\n      swap1\n      sub\n      0x1f\n      and\n      dup3\n      add\n      swap2\n    tag_45:\n      pop\n      pop\n      pop\n      pop\n      pop\n      dup2\n      mstore\n      0x20\n      add\n      0x02\n      dup3\n      add\n      sload\n      dup2\n      mstore\n      0x20\n      add\n      0x03\n      dup3\n      add\n      sload\n      dup2\n      mstore\n      pop\n      pop\n      swap1\n      pop\n        /* \"contracts/freeSocial.sol\":556:706  function visualizarPost(address _criadorDoPost, uint _index) public view returns (Post memory) {... */\n      swap3\n      swap2\n      pop\n      pop\n      jump\t// out\n        /* \"contracts/freeSocial.sol\":714:853  function visualizarTodosOsPosts(address _criadorDoPost) public view returns (Post[] memory) {... */\n    tag_21:\n        /* \"contracts/freeSocial.sol\":791:804  Post[] memory */\n      0x60\n        /* \"contracts/freeSocial.sol\":824:829  posts */\n      0x00\n        /* \"contracts/freeSocial.sol\":824:845  posts[_criadorDoPost] */\n      dup1\n        /* \"contracts/freeSocial.sol\":830:844  _criadorDoPost */\n      dup4\n        /* \"contracts/freeSocial.sol\":824:845  posts[_criadorDoPost] */\n      0xffffffffffffffffffffffffffffffffffffffff\n      and\n      0xffffffffffffffffffffffffffffffffffffffff\n      and\n      dup2\n      mstore\n      0x20\n      add\n      swap1\n      dup2\n      mstore\n      0x20\n      add\n      0x00\n      keccak256\n        /* \"contracts/freeSocial.sol\":817:845  return posts[_criadorDoPost] */\n      dup1\n      sload\n      dup1\n      0x20\n      mul\n      0x20\n      add\n      mload(0x40)\n      swap1\n      dup2\n      add\n      0x40\n      mstore\n      dup1\n      swap3\n      swap2\n      swap1\n      dup2\n      dup2\n      mstore\n      0x20\n      add\n      0x00\n      swap1\n    tag_49:\n      dup3\n      dup3\n      lt\n      iszero\n      tag_50\n      jumpi\n      dup4\n      dup3\n      swap1\n      0x00\n      mstore\n      keccak256(0x00, 0x20)\n      swap1\n      0x04\n      mul\n      add\n      mload(0x40)\n      dup1\n      0x80\n      add\n      0x40\n      mstore\n      swap1\n      dup2\n      0x00\n      dup3\n      add\n      0x00\n      swap1\n      sload\n      swap1\n      0x0100\n      exp\n      swap1\n      div\n      0xffffffffffffffffffffffffffffffffffffffff\n      and\n      0xffffffffffffffffffffffffffffffffffffffff\n      and\n      0xffffffffffffffffffffffffffffffffffffffff\n      and\n      dup2\n      mstore\n      0x20\n      add\n      0x01\n      dup3\n      add\n      dup1\n      sload\n      tag_52\n      swap1\n      tag_31\n      jump\t// in\n    tag_52:\n      dup1\n      0x1f\n      add\n      0x20\n      dup1\n      swap2\n      div\n      mul\n      0x20\n      add\n      mload(0x40)\n      swap1\n      dup2\n      add\n      0x40\n      mstore\n      dup1\n      swap3\n      swap2\n      swap1\n      dup2\n      dup2\n      mstore\n      0x20\n      add\n      dup3\n      dup1\n      sload\n      tag_53\n      swap1\n      tag_31\n      jump\t// in\n    tag_53:\n      dup1\n      iszero\n      tag_54\n      jumpi\n      dup1\n      0x1f\n      lt\n      tag_55\n      jumpi\n      0x0100\n      dup1\n      dup4\n      sload\n      div\n      mul\n      dup4\n      mstore\n      swap2\n      0x20\n      add\n      swap2\n      jump(tag_54)\n    tag_55:\n      dup3\n      add\n      swap2\n      swap1\n      0x00\n      mstore\n      keccak256(0x00, 0x20)\n      swap1\n    tag_56:\n      dup2\n      sload\n      dup2\n      mstore\n      swap1\n      0x01\n      add\n      swap1\n      0x20\n      add\n      dup1\n      dup4\n      gt\n      tag_56\n      jumpi\n      dup3\n      swap1\n      sub\n      0x1f\n      and\n      dup3\n      add\n      swap2\n    tag_54:\n      pop\n      pop\n      pop\n      pop\n      pop\n      dup2\n      mstore\n      0x20\n      add\n      0x02\n      dup3\n      add\n      sload\n      dup2\n      mstore\n      0x20\n      add\n      0x03\n      dup3\n      add\n      sload\n      dup2\n      mstore\n      pop\n      pop\n      dup2\n      mstore\n      0x20\n      add\n      swap1\n      0x01\n      add\n      swap1\n      jump(tag_49)\n    tag_50:\n      pop\n      pop\n      pop\n      pop\n      swap1\n      pop\n        /* \"contracts/freeSocial.sol\":714:853  function visualizarTodosOsPosts(address _criadorDoPost) public view returns (Post[] memory) {... */\n      swap2\n      swap1\n      pop\n      jump\t// out\n        /* \"contracts/freeSocial.sol\":269:548  function criarPost(string memory _texto) public {... */\n    tag_27:\n        /* \"contracts/freeSocial.sol\":328:347  Post memory newPost */\n      0x00\n        /* \"contracts/freeSocial.sol\":350:496  Post({... */\n      mload(0x40)\n      dup1\n      0x80\n      add\n      0x40\n      mstore\n      dup1\n        /* \"contracts/freeSocial.sol\":377:387  msg.sender */\n      caller\n        /* \"contracts/freeSocial.sol\":350:496  Post({... */\n      0xffffffffffffffffffffffffffffffffffffffff\n      and\n      dup2\n      mstore\n      0x20\n      add\n        /* \"contracts/freeSocial.sol\":412:418  _texto */\n      dup4\n        /* \"contracts/freeSocial.sol\":350:496  Post({... */\n      dup2\n      mstore\n      0x20\n      add\n        /* \"contracts/freeSocial.sol\":443:458  block.timestamp */\n      timestamp\n        /* \"contracts/freeSocial.sol\":350:496  Post({... */\n      dup2\n      mstore\n      0x20\n      add\n        /* \"contracts/freeSocial.sol\":483:484  0 */\n      0x00\n        /* \"contracts/freeSocial.sol\":350:496  Post({... */\n      dup2\n      mstore\n      pop\n        /* \"contracts/freeSocial.sol\":328:496  Post memory newPost = Post({... */\n      swap1\n      pop\n        /* \"contracts/freeSocial.sol\":509:514  posts */\n      0x00\n        /* \"contracts/freeSocial.sol\":509:526  posts[msg.sender] */\n      dup1\n        /* \"contracts/freeSocial.sol\":515:525  msg.sender */\n      caller\n        /* \"contracts/freeSocial.sol\":509:526  posts[msg.sender] */\n      0xffffffffffffffffffffffffffffffffffffffff\n      and\n      0xffffffffffffffffffffffffffffffffffffffff\n      and\n      dup2\n      mstore\n      0x20\n      add\n      swap1\n      dup2\n      mstore\n      0x20\n      add\n      0x00\n      keccak256\n        /* \"contracts/freeSocial.sol\":532:539  newPost */\n      dup2\n        /* \"contracts/freeSocial.sol\":509:540  posts[msg.sender].push(newPost) */\n      swap1\n      dup1\n      0x01\n      dup2\n      sload\n      add\n      dup1\n      dup3\n      sstore\n      dup1\n      swap2\n      pop\n      pop\n      0x01\n      swap1\n      sub\n      swap1\n      0x00\n      mstore\n      keccak256(0x00, 0x20)\n      swap1\n      0x04\n      mul\n      add\n      0x00\n      swap1\n      swap2\n      swap1\n      swap2\n      swap1\n      swap2\n      pop\n      0x00\n      dup3\n      add\n      mload\n      dup2\n      0x00\n      add\n      exp(0x0100, 0x00)\n      dup2\n      sload\n      dup2\n      0xffffffffffffffffffffffffffffffffffffffff\n      mul\n      not\n      and\n      swap1\n      dup4\n      0xffffffffffffffffffffffffffffffffffffffff\n      and\n      mul\n      or\n      swap1\n      sstore\n      pop\n      0x20\n      dup3\n      add\n      mload\n      dup2\n      0x01\n      add\n      swap1\n      dup2\n      tag_59\n      swap2\n      swap1\n      tag_60\n      jump\t// in\n    tag_59:\n      pop\n      0x40\n      dup3\n      add\n      mload\n      dup2\n      0x02\n      add\n      sstore\n      0x60\n      dup3\n      add\n      mload\n      dup2\n      0x03\n      add\n      sstore\n      pop\n      pop\n        /* \"contracts/freeSocial.sol\":317:548  {... */\n      pop\n        /* \"contracts/freeSocial.sol\":269:548  function criarPost(string memory _texto) public {... */\n      pop\n      jump\t// out\n    tag_37:\n      mload(0x40)\n      dup1\n      0x80\n      add\n      0x40\n      mstore\n      dup1\n      and(0xffffffffffffffffffffffffffffffffffffffff, 0x00)\n      dup2\n      mstore\n      0x20\n      add\n      0x60\n      dup2\n      mstore\n      0x20\n      add\n      0x00\n      dup2\n      mstore\n      0x20\n      add\n      0x00\n      dup2\n      mstore\n      pop\n      swap1\n      jump\t// out\n        /* \"#utility.yul\":7:82   */\n    tag_61:\n        /* \"#utility.yul\":40:46   */\n      0x00\n        /* \"#utility.yul\":73:75   */\n      0x40\n        /* \"#utility.yul\":67:76   */\n      mload\n        /* \"#utility.yul\":57:76   */\n      swap1\n      pop\n        /* \"#utility.yul\":7:82   */\n      swap1\n      jump\t// out\n        /* \"#utility.yul\":88:205   */\n    tag_62:\n        /* \"#utility.yul\":197:198   */\n      0x00\n        /* \"#utility.yul\":194:195   */\n      dup1\n        /* \"#utility.yul\":187:199   */\n      revert\n        /* \"#utility.yul\":211:328   */\n    tag_63:\n        /* \"#utility.yul\":320:321   */\n      0x00\n        /* \"#utility.yul\":317:318   */\n      dup1\n        /* \"#utility.yul\":310:322   */\n      revert\n        /* \"#utility.yul\":334:460   */\n    tag_64:\n        /* \"#utility.yul\":371:378   */\n      0x00\n        /* \"#utility.yul\":411:453   */\n      0xffffffffffffffffffffffffffffffffffffffff\n        /* \"#utility.yul\":404:409   */\n      dup3\n        /* \"#utility.yul\":400:454   */\n      and\n        /* \"#utility.yul\":389:454   */\n      swap1\n      pop\n        /* \"#utility.yul\":334:460   */\n      swap2\n      swap1\n      pop\n      jump\t// out\n        /* \"#utility.yul\":466:562   */\n    tag_65:\n        /* \"#utility.yul\":503:510   */\n      0x00\n        /* \"#utility.yul\":532:556   */\n      tag_121\n        /* \"#utility.yul\":550:555   */\n      dup3\n        /* \"#utility.yul\":532:556   */\n      tag_64\n      jump\t// in\n    tag_121:\n        /* \"#utility.yul\":521:556   */\n      swap1\n      pop\n        /* \"#utility.yul\":466:562   */\n      swap2\n      swap1\n      pop\n      jump\t// out\n        /* \"#utility.yul\":568:690   */\n    tag_66:\n        /* \"#utility.yul\":641:665   */\n      tag_123\n        /* \"#utility.yul\":659:664   */\n      dup2\n        /* \"#utility.yul\":641:665   */\n      tag_65\n      jump\t// in\n    tag_123:\n        /* \"#utility.yul\":634:639   */\n      dup2\n        /* \"#utility.yul\":631:666   */\n      eq\n        /* \"#utility.yul\":621:684   */\n      tag_124\n      jumpi\n        /* \"#utility.yul\":680:681   */\n      0x00\n        /* \"#utility.yul\":677:678   */\n      dup1\n        /* \"#utility.yul\":670:682   */\n      revert\n        /* \"#utility.yul\":621:684   */\n    tag_124:\n        /* \"#utility.yul\":568:690   */\n      pop\n      jump\t// out\n        /* \"#utility.yul\":696:835   */\n    tag_67:\n        /* \"#utility.yul\":742:747   */\n      0x00\n        /* \"#utility.yul\":780:786   */\n      dup2\n        /* \"#utility.yul\":767:787   */\n      calldataload\n        /* \"#utility.yul\":758:787   */\n      swap1\n      pop\n        /* \"#utility.yul\":796:829   */\n      tag_126\n        /* \"#utility.yul\":823:828   */\n      dup2\n        /* \"#utility.yul\":796:829   */\n      tag_66\n      jump\t// in\n    tag_126:\n        /* \"#utility.yul\":696:835   */\n      swap3\n      swap2\n      pop\n      pop\n      jump\t// out\n        /* \"#utility.yul\":841:918   */\n    tag_68:\n        /* \"#utility.yul\":878:885   */\n      0x00\n        /* \"#utility.yul\":907:912   */\n      dup2\n        /* \"#utility.yul\":896:912   */\n      swap1\n      pop\n        /* \"#utility.yul\":841:918   */\n      swap2\n      swap1\n      pop\n      jump\t// out\n        /* \"#utility.yul\":924:1046   */\n    tag_69:\n        /* \"#utility.yul\":997:1021   */\n      tag_129\n        /* \"#utility.yul\":1015:1020   */\n      dup2\n        /* \"#utility.yul\":997:1021   */\n      tag_68\n      jump\t// in\n    tag_129:\n        /* \"#utility.yul\":990:995   */\n      dup2\n        /* \"#utility.yul\":987:1022   */\n      eq\n        /* \"#utility.yul\":977:1040   */\n      tag_130\n      jumpi\n        /* \"#utility.yul\":1036:1037   */\n      0x00\n        /* \"#utility.yul\":1033:1034   */\n      dup1\n        /* \"#utility.yul\":1026:1038   */\n      revert\n        /* \"#utility.yul\":977:1040   */\n    tag_130:\n        /* \"#utility.yul\":924:1046   */\n      pop\n      jump\t// out\n        /* \"#utility.yul\":1052:1191   */\n    tag_70:\n        /* \"#utility.yul\":1098:1103   */\n      0x00\n        /* \"#utility.yul\":1136:1142   */\n      dup2\n        /* \"#utility.yul\":1123:1143   */\n      calldataload\n        /* \"#utility.yul\":1114:1143   */\n      swap1\n      pop\n        /* \"#utility.yul\":1152:1185   */\n      tag_132\n        /* \"#utility.yul\":1179:1184   */\n      dup2\n        /* \"#utility.yul\":1152:1185   */\n      tag_69\n      jump\t// in\n    tag_132:\n        /* \"#utility.yul\":1052:1191   */\n      swap3\n      swap2\n      pop\n      pop\n      jump\t// out\n        /* \"#utility.yul\":1197:1671   */\n    tag_9:\n        /* \"#utility.yul\":1265:1271   */\n      0x00\n        /* \"#utility.yul\":1273:1279   */\n      dup1\n        /* \"#utility.yul\":1322:1324   */\n      0x40\n        /* \"#utility.yul\":1310:1319   */\n      dup4\n        /* \"#utility.yul\":1301:1308   */\n      dup6\n        /* \"#utility.yul\":1297:1320   */\n      sub\n        /* \"#utility.yul\":1293:1325   */\n      slt\n        /* \"#utility.yul\":1290:1409   */\n      iszero\n      tag_134\n      jumpi\n        /* \"#utility.yul\":1328:1407   */\n      tag_135\n      tag_62\n      jump\t// in\n    tag_135:\n        /* \"#utility.yul\":1290:1409   */\n    tag_134:\n        /* \"#utility.yul\":1448:1449   */\n      0x00\n        /* \"#utility.yul\":1473:1526   */\n      tag_136\n        /* \"#utility.yul\":1518:1525   */\n      dup6\n        /* \"#utility.yul\":1509:1515   */\n      dup3\n        /* \"#utility.yul\":1498:1507   */\n      dup7\n        /* \"#utility.yul\":1494:1516   */\n      add\n        /* \"#utility.yul\":1473:1526   */\n      tag_67\n      jump\t// in\n    tag_136:\n        /* \"#utility.yul\":1463:1526   */\n      swap3\n      pop\n        /* \"#utility.yul\":1419:1536   */\n      pop\n        /* \"#utility.yul\":1575:1577   */\n      0x20\n        /* \"#utility.yul\":1601:1654   */\n      tag_137\n        /* \"#utility.yul\":1646:1653   */\n      dup6\n        /* \"#utility.yul\":1637:1643   */\n      dup3\n        /* \"#utility.yul\":1626:1635   */\n      dup7\n        /* \"#utility.yul\":1622:1644   */\n      add\n        /* \"#utility.yul\":1601:1654   */\n      tag_70\n      jump\t// in\n    tag_137:\n        /* \"#utility.yul\":1591:1654   */\n      swap2\n      pop\n        /* \"#utility.yul\":1546:1664   */\n      pop\n        /* \"#utility.yul\":1197:1671   */\n      swap3\n      pop\n      swap3\n      swap1\n      pop\n      jump\t// out\n        /* \"#utility.yul\":1677:1795   */\n    tag_71:\n        /* \"#utility.yul\":1764:1788   */\n      tag_139\n        /* \"#utility.yul\":1782:1787   */\n      dup2\n        /* \"#utility.yul\":1764:1788   */\n      tag_65\n      jump\t// in\n    tag_139:\n        /* \"#utility.yul\":1759:1762   */\n      dup3\n        /* \"#utility.yul\":1752:1789   */\n      mstore\n        /* \"#utility.yul\":1677:1795   */\n      pop\n      pop\n      jump\t// out\n        /* \"#utility.yul\":1801:1900   */\n    tag_72:\n        /* \"#utility.yul\":1853:1859   */\n      0x00\n        /* \"#utility.yul\":1887:1892   */\n      dup2\n        /* \"#utility.yul\":1881:1893   */\n      mload\n        /* \"#utility.yul\":1871:1893   */\n      swap1\n      pop\n        /* \"#utility.yul\":1801:1900   */\n      swap2\n      swap1\n      pop\n      jump\t// out\n        /* \"#utility.yul\":1906:2075   */\n    tag_73:\n        /* \"#utility.yul\":1990:2001   */\n      0x00\n        /* \"#utility.yul\":2024:2030   */\n      dup3\n        /* \"#utility.yul\":2019:2022   */\n      dup3\n        /* \"#utility.yul\":2012:2031   */\n      mstore\n        /* \"#utility.yul\":2064:2068   */\n      0x20\n        /* \"#utility.yul\":2059:2062   */\n      dup3\n        /* \"#utility.yul\":2055:2069   */\n      add\n        /* \"#utility.yul\":2040:2069   */\n      swap1\n      pop\n        /* \"#utility.yul\":1906:2075   */\n      swap3\n      swap2\n      pop\n      pop\n      jump\t// out\n        /* \"#utility.yul\":2081:2220   */\n    tag_74:\n        /* \"#utility.yul\":2170:2176   */\n      dup3\n        /* \"#utility.yul\":2165:2168   */\n      dup2\n        /* \"#utility.yul\":2160:2163   */\n      dup4\n        /* \"#utility.yul\":2154:2177   */\n      mcopy\n        /* \"#utility.yul\":2211:2212   */\n      0x00\n        /* \"#utility.yul\":2202:2208   */\n      dup4\n        /* \"#utility.yul\":2197:2200   */\n      dup4\n        /* \"#utility.yul\":2193:2209   */\n      add\n        /* \"#utility.yul\":2186:2213   */\n      mstore\n        /* \"#utility.yul\":2081:2220   */\n      pop\n      pop\n      pop\n      jump\t// out\n        /* \"#utility.yul\":2226:2328   */\n    tag_75:\n        /* \"#utility.yul\":2267:2273   */\n      0x00\n        /* \"#utility.yul\":2318:2320   */\n      0x1f\n        /* \"#utility.yul\":2314:2321   */\n      not\n        /* \"#utility.yul\":2309:2311   */\n      0x1f\n        /* \"#utility.yul\":2302:2307   */\n      dup4\n        /* \"#utility.yul\":2298:2312   */\n      add\n        /* \"#utility.yul\":2294:2322   */\n      and\n        /* \"#utility.yul\":2284:2322   */\n      swap1\n      pop\n        /* \"#utility.yul\":2226:2328   */\n      swap2\n      swap1\n      pop\n      jump\t// out\n        /* \"#utility.yul\":2334:2711   */\n    tag_76:\n        /* \"#utility.yul\":2422:2425   */\n      0x00\n        /* \"#utility.yul\":2450:2489   */\n      tag_145\n        /* \"#utility.yul\":2483:2488   */\n      dup3\n        /* \"#utility.yul\":2450:2489   */\n      tag_72\n      jump\t// in\n    tag_145:\n        /* \"#utility.yul\":2505:2576   */\n      tag_146\n        /* \"#utility.yul\":2569:2575   */\n      dup2\n        /* \"#utility.yul\":2564:2567   */\n      dup6\n        /* \"#utility.yul\":2505:2576   */\n      tag_73\n      jump\t// in\n    tag_146:\n        /* \"#utility.yul\":2498:2576   */\n      swap4\n      pop\n        /* \"#utility.yul\":2585:2650   */\n      tag_147\n        /* \"#utility.yul\":2643:2649   */\n      dup2\n        /* \"#utility.yul\":2638:2641   */\n      dup6\n        /* \"#utility.yul\":2631:2635   */\n      0x20\n        /* \"#utility.yul\":2624:2629   */\n      dup7\n        /* \"#utility.yul\":2620:2636   */\n      add\n        /* \"#utility.yul\":2585:2650   */\n      tag_74\n      jump\t// in\n    tag_147:\n        /* \"#utility.yul\":2675:2704   */\n      tag_148\n        /* \"#utility.yul\":2697:2703   */\n      dup2\n        /* \"#utility.yul\":2675:2704   */\n      tag_75\n      jump\t// in\n    tag_148:\n        /* \"#utility.yul\":2670:2673   */\n      dup5\n        /* \"#utility.yul\":2666:2705   */\n      add\n        /* \"#utility.yul\":2659:2705   */\n      swap2\n      pop\n        /* \"#utility.yul\":2426:2711   */\n      pop\n        /* \"#utility.yul\":2334:2711   */\n      swap3\n      swap2\n      pop\n      pop\n      jump\t// out\n        /* \"#utility.yul\":2717:2835   */\n    tag_77:\n        /* \"#utility.yul\":2804:2828   */\n      tag_150\n        /* \"#utility.yul\":2822:2827   */\n      dup2\n        /* \"#utility.yul\":2804:2828   */\n      tag_68\n      jump\t// in\n    tag_150:\n        /* \"#utility.yul\":2799:2802   */\n      dup3\n        /* \"#utility.yul\":2792:2829   */\n      mstore\n        /* \"#utility.yul\":2717:2835   */\n      pop\n      pop\n      jump\t// out\n        /* \"#utility.yul\":2841:3485   */\n    tag_12:\n        /* \"#utility.yul\":3038:3042   */\n      0x00\n        /* \"#utility.yul\":3076:3079   */\n      0x80\n        /* \"#utility.yul\":3065:3074   */\n      dup3\n        /* \"#utility.yul\":3061:3080   */\n      add\n        /* \"#utility.yul\":3053:3080   */\n      swap1\n      pop\n        /* \"#utility.yul\":3090:3161   */\n      tag_152\n        /* \"#utility.yul\":3158:3159   */\n      0x00\n        /* \"#utility.yul\":3147:3156   */\n      dup4\n        /* \"#utility.yul\":3143:3160   */\n      add\n        /* \"#utility.yul\":3134:3140   */\n      dup8\n        /* \"#utility.yul\":3090:3161   */\n      tag_71\n      jump\t// in\n    tag_152:\n        /* \"#utility.yul\":3208:3217   */\n      dup2\n        /* \"#utility.yul\":3202:3206   */\n      dup2\n        /* \"#utility.yul\":3198:3218   */\n      sub\n        /* \"#utility.yul\":3193:3195   */\n      0x20\n        /* \"#utility.yul\":3182:3191   */\n      dup4\n        /* \"#utility.yul\":3178:3196   */\n      add\n        /* \"#utility.yul\":3171:3219   */\n      mstore\n        /* \"#utility.yul\":3236:3314   */\n      tag_153\n        /* \"#utility.yul\":3309:3313   */\n      dup2\n        /* \"#utility.yul\":3300:3306   */\n      dup7\n        /* \"#utility.yul\":3236:3314   */\n      tag_76\n      jump\t// in\n    tag_153:\n        /* \"#utility.yul\":3228:3314   */\n      swap1\n      pop\n        /* \"#utility.yul\":3324:3396   */\n      tag_154\n        /* \"#utility.yul\":3392:3394   */\n      0x40\n        /* \"#utility.yul\":3381:3390   */\n      dup4\n        /* \"#utility.yul\":3377:3395   */\n      add\n        /* \"#utility.yul\":3368:3374   */\n      dup6\n        /* \"#utility.yul\":3324:3396   */\n      tag_77\n      jump\t// in\n    tag_154:\n        /* \"#utility.yul\":3406:3478   */\n      tag_155\n        /* \"#utility.yul\":3474:3476   */\n      0x60\n        /* \"#utility.yul\":3463:3472   */\n      dup4\n        /* \"#utility.yul\":3459:3477   */\n      add\n        /* \"#utility.yul\":3450:3456   */\n      dup5\n        /* \"#utility.yul\":3406:3478   */\n      tag_77\n      jump\t// in\n    tag_155:\n        /* \"#utility.yul\":2841:3485   */\n      swap6\n      swap5\n      pop\n      pop\n      pop\n      pop\n      pop\n      jump\t// out\n        /* \"#utility.yul\":3491:3599   */\n    tag_78:\n        /* \"#utility.yul\":3568:3592   */\n      tag_157\n        /* \"#utility.yul\":3586:3591   */\n      dup2\n        /* \"#utility.yul\":3568:3592   */\n      tag_65\n      jump\t// in\n    tag_157:\n        /* \"#utility.yul\":3563:3566   */\n      dup3\n        /* \"#utility.yul\":3556:3593   */\n      mstore\n        /* \"#utility.yul\":3491:3599   */\n      pop\n      pop\n      jump\t// out\n        /* \"#utility.yul\":3605:3764   */\n    tag_79:\n        /* \"#utility.yul\":3679:3690   */\n      0x00\n        /* \"#utility.yul\":3713:3719   */\n      dup3\n        /* \"#utility.yul\":3708:3711   */\n      dup3\n        /* \"#utility.yul\":3701:3720   */\n      mstore\n        /* \"#utility.yul\":3753:3757   */\n      0x20\n        /* \"#utility.yul\":3748:3751   */\n      dup3\n        /* \"#utility.yul\":3744:3758   */\n      add\n        /* \"#utility.yul\":3729:3758   */\n      swap1\n      pop\n        /* \"#utility.yul\":3605:3764   */\n      swap3\n      swap2\n      pop\n      pop\n      jump\t// out\n        /* \"#utility.yul\":3770:4127   */\n    tag_80:\n        /* \"#utility.yul\":3848:3851   */\n      0x00\n        /* \"#utility.yul\":3876:3915   */\n      tag_160\n        /* \"#utility.yul\":3909:3914   */\n      dup3\n        /* \"#utility.yul\":3876:3915   */\n      tag_72\n      jump\t// in\n    tag_160:\n        /* \"#utility.yul\":3931:3992   */\n      tag_161\n        /* \"#utility.yul\":3985:3991   */\n      dup2\n        /* \"#utility.yul\":3980:3983   */\n      dup6\n        /* \"#utility.yul\":3931:3992   */\n      tag_79\n      jump\t// in\n    tag_161:\n        /* \"#utility.yul\":3924:3992   */\n      swap4\n      pop\n        /* \"#utility.yul\":4001:4066   */\n      tag_162\n        /* \"#utility.yul\":4059:4065   */\n      dup2\n        /* \"#utility.yul\":4054:4057   */\n      dup6\n        /* \"#utility.yul\":4047:4051   */\n      0x20\n        /* \"#utility.yul\":4040:4045   */\n      dup7\n        /* \"#utility.yul\":4036:4052   */\n      add\n        /* \"#utility.yul\":4001:4066   */\n      tag_74\n      jump\t// in\n    tag_162:\n        /* \"#utility.yul\":4091:4120   */\n      tag_163\n        /* \"#utility.yul\":4113:4119   */\n      dup2\n        /* \"#utility.yul\":4091:4120   */\n      tag_75\n      jump\t// in\n    tag_163:\n        /* \"#utility.yul\":4086:4089   */\n      dup5\n        /* \"#utility.yul\":4082:4121   */\n      add\n        /* \"#utility.yul\":4075:4121   */\n      swap2\n      pop\n        /* \"#utility.yul\":3852:4127   */\n      pop\n        /* \"#utility.yul\":3770:4127   */\n      swap3\n      swap2\n      pop\n      pop\n      jump\t// out\n        /* \"#utility.yul\":4133:4241   */\n    tag_81:\n        /* \"#utility.yul\":4210:4234   */\n      tag_165\n        /* \"#utility.yul\":4228:4233   */\n      dup2\n        /* \"#utility.yul\":4210:4234   */\n      tag_68\n      jump\t// in\n    tag_165:\n        /* \"#utility.yul\":4205:4208   */\n      dup3\n        /* \"#utility.yul\":4198:4235   */\n      mstore\n        /* \"#utility.yul\":4133:4241   */\n      pop\n      pop\n      jump\t// out\n        /* \"#utility.yul\":4303:5260   */\n    tag_82:\n        /* \"#utility.yul\":4412:4415   */\n      0x00\n        /* \"#utility.yul\":4448:4452   */\n      0x80\n        /* \"#utility.yul\":4443:4446   */\n      dup4\n        /* \"#utility.yul\":4439:4453   */\n      add\n        /* \"#utility.yul\":4536:4540   */\n      0x00\n        /* \"#utility.yul\":4529:4534   */\n      dup4\n        /* \"#utility.yul\":4525:4541   */\n      add\n        /* \"#utility.yul\":4519:4542   */\n      mload\n        /* \"#utility.yul\":4555:4618   */\n      tag_167\n        /* \"#utility.yul\":4612:4616   */\n      0x00\n        /* \"#utility.yul\":4607:4610   */\n      dup7\n        /* \"#utility.yul\":4603:4617   */\n      add\n        /* \"#utility.yul\":4589:4601   */\n      dup3\n        /* \"#utility.yul\":4555:4618   */\n      tag_78\n      jump\t// in\n    tag_167:\n        /* \"#utility.yul\":4463:4628   */\n      pop\n        /* \"#utility.yul\":4714:4718   */\n      0x20\n        /* \"#utility.yul\":4707:4712   */\n      dup4\n        /* \"#utility.yul\":4703:4719   */\n      add\n        /* \"#utility.yul\":4697:4720   */\n      mload\n        /* \"#utility.yul\":4767:4770   */\n      dup5\n        /* \"#utility.yul\":4761:4765   */\n      dup3\n        /* \"#utility.yul\":4757:4771   */\n      sub\n        /* \"#utility.yul\":4750:4754   */\n      0x20\n        /* \"#utility.yul\":4745:4748   */\n      dup7\n        /* \"#utility.yul\":4741:4755   */\n      add\n        /* \"#utility.yul\":4734:4772   */\n      mstore\n        /* \"#utility.yul\":4793:4866   */\n      tag_168\n        /* \"#utility.yul\":4861:4865   */\n      dup3\n        /* \"#utility.yul\":4847:4859   */\n      dup3\n        /* \"#utility.yul\":4793:4866   */\n      tag_80\n      jump\t// in\n    tag_168:\n        /* \"#utility.yul\":4785:4866   */\n      swap2\n      pop\n        /* \"#utility.yul\":4638:4877   */\n      pop\n        /* \"#utility.yul\":4963:4967   */\n      0x40\n        /* \"#utility.yul\":4956:4961   */\n      dup4\n        /* \"#utility.yul\":4952:4968   */\n      add\n        /* \"#utility.yul\":4946:4969   */\n      mload\n        /* \"#utility.yul\":4982:5045   */\n      tag_169\n        /* \"#utility.yul\":5039:5043   */\n      0x40\n        /* \"#utility.yul\":5034:5037   */\n      dup7\n        /* \"#utility.yul\":5030:5044   */\n      add\n        /* \"#utility.yul\":5016:5028   */\n      dup3\n        /* \"#utility.yul\":4982:5045   */\n      tag_81\n      jump\t// in\n    tag_169:\n        /* \"#utility.yul\":4887:5055   */\n      pop\n        /* \"#utility.yul\":5141:5145   */\n      0x60\n        /* \"#utility.yul\":5134:5139   */\n      dup4\n        /* \"#utility.yul\":5130:5146   */\n      add\n        /* \"#utility.yul\":5124:5147   */\n      mload\n        /* \"#utility.yul\":5160:5223   */\n      tag_170\n        /* \"#utility.yul\":5217:5221   */\n      0x60\n        /* \"#utility.yul\":5212:5215   */\n      dup7\n        /* \"#utility.yul\":5208:5222   */\n      add\n        /* \"#utility.yul\":5194:5206   */\n      dup3\n        /* \"#utility.yul\":5160:5223   */\n      tag_81\n      jump\t// in\n    tag_170:\n        /* \"#utility.yul\":5065:5233   */\n      pop\n        /* \"#utility.yul\":5250:5254   */\n      dup1\n        /* \"#utility.yul\":5243:5254   */\n      swap2\n      pop\n        /* \"#utility.yul\":4417:5260   */\n      pop\n        /* \"#utility.yul\":4303:5260   */\n      swap3\n      swap2\n      pop\n      pop\n      jump\t// out\n        /* \"#utility.yul\":5266:5619   */\n    tag_17:\n        /* \"#utility.yul\":5399:5403   */\n      0x00\n        /* \"#utility.yul\":5437:5439   */\n      0x20\n        /* \"#utility.yul\":5426:5435   */\n      dup3\n        /* \"#utility.yul\":5422:5440   */\n      add\n        /* \"#utility.yul\":5414:5440   */\n      swap1\n      pop\n        /* \"#utility.yul\":5486:5495   */\n      dup2\n        /* \"#utility.yul\":5480:5484   */\n      dup2\n        /* \"#utility.yul\":5476:5496   */\n      sub\n        /* \"#utility.yul\":5472:5473   */\n      0x00\n        /* \"#utility.yul\":5461:5470   */\n      dup4\n        /* \"#utility.yul\":5457:5474   */\n      add\n        /* \"#utility.yul\":5450:5497   */\n      mstore\n        /* \"#utility.yul\":5514:5612   */\n      tag_172\n        /* \"#utility.yul\":5607:5611   */\n      dup2\n        /* \"#utility.yul\":5598:5604   */\n      dup5\n        /* \"#utility.yul\":5514:5612   */\n      tag_82\n      jump\t// in\n    tag_172:\n        /* \"#utility.yul\":5506:5612   */\n      swap1\n      pop\n        /* \"#utility.yul\":5266:5619   */\n      swap3\n      swap2\n      pop\n      pop\n      jump\t// out\n        /* \"#utility.yul\":5625:5954   */\n    tag_20:\n        /* \"#utility.yul\":5684:5690   */\n      0x00\n        /* \"#utility.yul\":5733:5735   */\n      0x20\n        /* \"#utility.yul\":5721:5730   */\n      dup3\n        /* \"#utility.yul\":5712:5719   */\n      dup5\n        /* \"#utility.yul\":5708:5731   */\n      sub\n        /* \"#utility.yul\":5704:5736   */\n      slt\n        /* \"#utility.yul\":5701:5820   */\n      iszero\n      tag_174\n      jumpi\n        /* \"#utility.yul\":5739:5818   */\n      tag_175\n      tag_62\n      jump\t// in\n    tag_175:\n        /* \"#utility.yul\":5701:5820   */\n    tag_174:\n        /* \"#utility.yul\":5859:5860   */\n      0x00\n        /* \"#utility.yul\":5884:5937   */\n      tag_176\n        /* \"#utility.yul\":5929:5936   */\n      dup5\n        /* \"#utility.yul\":5920:5926   */\n      dup3\n        /* \"#utility.yul\":5909:5918   */\n      dup6\n        /* \"#utility.yul\":5905:5927   */\n      add\n        /* \"#utility.yul\":5884:5937   */\n      tag_67\n      jump\t// in\n    tag_176:\n        /* \"#utility.yul\":5874:5937   */\n      swap2\n      pop\n        /* \"#utility.yul\":5830:5947   */\n      pop\n        /* \"#utility.yul\":5625:5954   */\n      swap3\n      swap2\n      pop\n      pop\n      jump\t// out\n        /* \"#utility.yul\":5960:6094   */\n    tag_83:\n        /* \"#utility.yul\":6047:6053   */\n      0x00\n        /* \"#utility.yul\":6081:6086   */\n      dup2\n        /* \"#utility.yul\":6075:6087   */\n      mload\n        /* \"#utility.yul\":6065:6087   */\n      swap1\n      pop\n        /* \"#utility.yul\":5960:6094   */\n      swap2\n      swap1\n      pop\n      jump\t// out\n        /* \"#utility.yul\":6100:6304   */\n    tag_84:\n        /* \"#utility.yul\":6219:6230   */\n      0x00\n        /* \"#utility.yul\":6253:6259   */\n      dup3\n        /* \"#utility.yul\":6248:6251   */\n      dup3\n        /* \"#utility.yul\":6241:6260   */\n      mstore\n        /* \"#utility.yul\":6293:6297   */\n      0x20\n        /* \"#utility.yul\":6288:6291   */\n      dup3\n        /* \"#utility.yul\":6284:6298   */\n      add\n        /* \"#utility.yul\":6269:6298   */\n      swap1\n      pop\n        /* \"#utility.yul\":6100:6304   */\n      swap3\n      swap2\n      pop\n      pop\n      jump\t// out\n        /* \"#utility.yul\":6310:6462   */\n    tag_85:\n        /* \"#utility.yul\":6397:6401   */\n      0x00\n        /* \"#utility.yul\":6420:6423   */\n      dup2\n        /* \"#utility.yul\":6412:6423   */\n      swap1\n      pop\n        /* \"#utility.yul\":6450:6454   */\n      0x20\n        /* \"#utility.yul\":6445:6448   */\n      dup3\n        /* \"#utility.yul\":6441:6455   */\n      add\n        /* \"#utility.yul\":6433:6455   */\n      swap1\n      pop\n        /* \"#utility.yul\":6310:6462   */\n      swap2\n      swap1\n      pop\n      jump\t// out\n        /* \"#utility.yul\":6524:7471   */\n    tag_86:\n        /* \"#utility.yul\":6623:6626   */\n      0x00\n        /* \"#utility.yul\":6659:6663   */\n      0x80\n        /* \"#utility.yul\":6654:6657   */\n      dup4\n        /* \"#utility.yul\":6650:6664   */\n      add\n        /* \"#utility.yul\":6747:6751   */\n      0x00\n        /* \"#utility.yul\":6740:6745   */\n      dup4\n        /* \"#utility.yul\":6736:6752   */\n      add\n        /* \"#utility.yul\":6730:6753   */\n      mload\n        /* \"#utility.yul\":6766:6829   */\n      tag_181\n        /* \"#utility.yul\":6823:6827   */\n      0x00\n        /* \"#utility.yul\":6818:6821   */\n      dup7\n        /* \"#utility.yul\":6814:6828   */\n      add\n        /* \"#utility.yul\":6800:6812   */\n      dup3\n        /* \"#utility.yul\":6766:6829   */\n      tag_78\n      jump\t// in\n    tag_181:\n        /* \"#utility.yul\":6674:6839   */\n      pop\n        /* \"#utility.yul\":6925:6929   */\n      0x20\n        /* \"#utility.yul\":6918:6923   */\n      dup4\n        /* \"#utility.yul\":6914:6930   */\n      add\n        /* \"#utility.yul\":6908:6931   */\n      mload\n        /* \"#utility.yul\":6978:6981   */\n      dup5\n        /* \"#utility.yul\":6972:6976   */\n      dup3\n        /* \"#utility.yul\":6968:6982   */\n      sub\n        /* \"#utility.yul\":6961:6965   */\n      0x20\n        /* \"#utility.yul\":6956:6959   */\n      dup7\n        /* \"#utility.yul\":6952:6966   */\n      add\n        /* \"#utility.yul\":6945:6983   */\n      mstore\n        /* \"#utility.yul\":7004:7077   */\n      tag_182\n        /* \"#utility.yul\":7072:7076   */\n      dup3\n        /* \"#utility.yul\":7058:7070   */\n      dup3\n        /* \"#utility.yul\":7004:7077   */\n      tag_80\n      jump\t// in\n    tag_182:\n        /* \"#utility.yul\":6996:7077   */\n      swap2\n      pop\n        /* \"#utility.yul\":6849:7088   */\n      pop\n        /* \"#utility.yul\":7174:7178   */\n      0x40\n        /* \"#utility.yul\":7167:7172   */\n      dup4\n        /* \"#utility.yul\":7163:7179   */\n      add\n        /* \"#utility.yul\":7157:7180   */\n      mload\n        /* \"#utility.yul\":7193:7256   */\n      tag_183\n        /* \"#utility.yul\":7250:7254   */\n      0x40\n        /* \"#utility.yul\":7245:7248   */\n      dup7\n        /* \"#utility.yul\":7241:7255   */\n      add\n        /* \"#utility.yul\":7227:7239   */\n      dup3\n        /* \"#utility.yul\":7193:7256   */\n      tag_81\n      jump\t// in\n    tag_183:\n        /* \"#utility.yul\":7098:7266   */\n      pop\n        /* \"#utility.yul\":7352:7356   */\n      0x60\n        /* \"#utility.yul\":7345:7350   */\n      dup4\n        /* \"#utility.yul\":7341:7357   */\n      add\n        /* \"#utility.yul\":7335:7358   */\n      mload\n        /* \"#utility.yul\":7371:7434   */\n      tag_184\n        /* \"#utility.yul\":7428:7432   */\n      0x60\n        /* \"#utility.yul\":7423:7426   */\n      dup7\n        /* \"#utility.yul\":7419:7433   */\n      add\n        /* \"#utility.yul\":7405:7417   */\n      dup3\n        /* \"#utility.yul\":7371:7434   */\n      tag_81\n      jump\t// in\n    tag_184:\n        /* \"#utility.yul\":7276:7444   */\n      pop\n        /* \"#utility.yul\":7461:7465   */\n      dup1\n        /* \"#utility.yul\":7454:7465   */\n      swap2\n      pop\n        /* \"#utility.yul\":6628:7471   */\n      pop\n        /* \"#utility.yul\":6524:7471   */\n      swap3\n      swap2\n      pop\n      pop\n      jump\t// out\n        /* \"#utility.yul\":7477:7713   */\n    tag_87:\n        /* \"#utility.yul\":7586:7596   */\n      0x00\n        /* \"#utility.yul\":7621:7707   */\n      tag_186\n        /* \"#utility.yul\":7703:7706   */\n      dup4\n        /* \"#utility.yul\":7695:7701   */\n      dup4\n        /* \"#utility.yul\":7621:7707   */\n      tag_86\n      jump\t// in\n    tag_186:\n        /* \"#utility.yul\":7607:7707   */\n      swap1\n      pop\n        /* \"#utility.yul\":7477:7713   */\n      swap3\n      swap2\n      pop\n      pop\n      jump\t// out\n        /* \"#utility.yul\":7719:7852   */\n    tag_88:\n        /* \"#utility.yul\":7809:7813   */\n      0x00\n        /* \"#utility.yul\":7841:7845   */\n      0x20\n        /* \"#utility.yul\":7836:7839   */\n      dup3\n        /* \"#utility.yul\":7832:7846   */\n      add\n        /* \"#utility.yul\":7824:7846   */\n      swap1\n      pop\n        /* \"#utility.yul\":7719:7852   */\n      swap2\n      swap1\n      pop\n      jump\t// out\n        /* \"#utility.yul\":7918:8989   */\n    tag_89:\n        /* \"#utility.yul\":8077:8080   */\n      0x00\n        /* \"#utility.yul\":8106:8180   */\n      tag_189\n        /* \"#utility.yul\":8174:8179   */\n      dup3\n        /* \"#utility.yul\":8106:8180   */\n      tag_83\n      jump\t// in\n    tag_189:\n        /* \"#utility.yul\":8196:8302   */\n      tag_190\n        /* \"#utility.yul\":8295:8301   */\n      dup2\n        /* \"#utility.yul\":8290:8293   */\n      dup6\n        /* \"#utility.yul\":8196:8302   */\n      tag_84\n      jump\t// in\n    tag_190:\n        /* \"#utility.yul\":8189:8302   */\n      swap4\n      pop\n        /* \"#utility.yul\":8328:8331   */\n      dup4\n        /* \"#utility.yul\":8373:8377   */\n      0x20\n        /* \"#utility.yul\":8365:8371   */\n      dup3\n        /* \"#utility.yul\":8361:8378   */\n      mul\n        /* \"#utility.yul\":8356:8359   */\n      dup6\n        /* \"#utility.yul\":8352:8379   */\n      add\n        /* \"#utility.yul\":8403:8479   */\n      tag_191\n        /* \"#utility.yul\":8473:8478   */\n      dup6\n        /* \"#utility.yul\":8403:8479   */\n      tag_85\n      jump\t// in\n    tag_191:\n        /* \"#utility.yul\":8502:8509   */\n      dup1\n        /* \"#utility.yul\":8533:8534   */\n      0x00\n        /* \"#utility.yul\":8518:8944   */\n    tag_192:\n        /* \"#utility.yul\":8543:8549   */\n      dup6\n        /* \"#utility.yul\":8540:8541   */\n      dup2\n        /* \"#utility.yul\":8537:8550   */\n      lt\n        /* \"#utility.yul\":8518:8944   */\n      iszero\n      tag_194\n      jumpi\n        /* \"#utility.yul\":8614:8623   */\n      dup5\n        /* \"#utility.yul\":8608:8612   */\n      dup5\n        /* \"#utility.yul\":8604:8624   */\n      sub\n        /* \"#utility.yul\":8599:8602   */\n      dup10\n        /* \"#utility.yul\":8592:8625   */\n      mstore\n        /* \"#utility.yul\":8665:8671   */\n      dup2\n        /* \"#utility.yul\":8659:8672   */\n      mload\n        /* \"#utility.yul\":8693:8797   */\n      tag_195\n        /* \"#utility.yul\":8792:8796   */\n      dup6\n        /* \"#utility.yul\":8777:8790   */\n      dup3\n        /* \"#utility.yul\":8693:8797   */\n      tag_87\n      jump\t// in\n    tag_195:\n        /* \"#utility.yul\":8685:8797   */\n      swap5\n      pop\n        /* \"#utility.yul\":8820:8900   */\n      tag_196\n        /* \"#utility.yul\":8893:8899   */\n      dup4\n        /* \"#utility.yul\":8820:8900   */\n      tag_88\n      jump\t// in\n    tag_196:\n        /* \"#utility.yul\":8810:8900   */\n      swap3\n      pop\n        /* \"#utility.yul\":8929:8933   */\n      0x20\n        /* \"#utility.yul\":8924:8927   */\n      dup11\n        /* \"#utility.yul\":8920:8934   */\n      add\n        /* \"#utility.yul\":8913:8934   */\n      swap10\n      pop\n        /* \"#utility.yul\":8578:8944   */\n      pop\n        /* \"#utility.yul\":8565:8566   */\n      0x01\n        /* \"#utility.yul\":8562:8563   */\n      dup2\n        /* \"#utility.yul\":8558:8567   */\n      add\n        /* \"#utility.yul\":8553:8567   */\n      swap1\n      pop\n        /* \"#utility.yul\":8518:8944   */\n      jump(tag_192)\n    tag_194:\n        /* \"#utility.yul\":8522:8536   */\n      pop\n        /* \"#utility.yul\":8960:8964   */\n      dup3\n        /* \"#utility.yul\":8953:8964   */\n      swap8\n      pop\n        /* \"#utility.yul\":8980:8983   */\n      dup8\n        /* \"#utility.yul\":8973:8983   */\n      swap6\n      pop\n        /* \"#utility.yul\":8082:8989   */\n      pop\n      pop\n      pop\n      pop\n      pop\n        /* \"#utility.yul\":7918:8989   */\n      swap3\n      swap2\n      pop\n      pop\n      jump\t// out\n        /* \"#utility.yul\":8995:9448   */\n    tag_23:\n        /* \"#utility.yul\":9178:9182   */\n      0x00\n        /* \"#utility.yul\":9216:9218   */\n      0x20\n        /* \"#utility.yul\":9205:9214   */\n      dup3\n        /* \"#utility.yul\":9201:9219   */\n      add\n        /* \"#utility.yul\":9193:9219   */\n      swap1\n      pop\n        /* \"#utility.yul\":9265:9274   */\n      dup2\n        /* \"#utility.yul\":9259:9263   */\n      dup2\n        /* \"#utility.yul\":9255:9275   */\n      sub\n        /* \"#utility.yul\":9251:9252   */\n      0x00\n        /* \"#utility.yul\":9240:9249   */\n      dup4\n        /* \"#utility.yul\":9236:9253   */\n      add\n        /* \"#utility.yul\":9229:9276   */\n      mstore\n        /* \"#utility.yul\":9293:9441   */\n      tag_198\n        /* \"#utility.yul\":9436:9440   */\n      dup2\n        /* \"#utility.yul\":9427:9433   */\n      dup5\n        /* \"#utility.yul\":9293:9441   */\n      tag_89\n      jump\t// in\n    tag_198:\n        /* \"#utility.yul\":9285:9441   */\n      swap1\n      pop\n        /* \"#utility.yul\":8995:9448   */\n      swap3\n      swap2\n      pop\n      pop\n      jump\t// out\n        /* \"#utility.yul\":9454:9571   */\n    tag_90:\n        /* \"#utility.yul\":9563:9564   */\n      0x00\n        /* \"#utility.yul\":9560:9561   */\n      dup1\n        /* \"#utility.yul\":9553:9565   */\n      revert\n        /* \"#utility.yul\":9577:9694   */\n    tag_91:\n        /* \"#utility.yul\":9686:9687   */\n      0x00\n        /* \"#utility.yul\":9683:9684   */\n      dup1\n        /* \"#utility.yul\":9676:9688   */\n      revert\n        /* \"#utility.yul\":9700:9880   */\n    tag_92:\n        /* \"#utility.yul\":9748:9825   */\n      0x4e487b7100000000000000000000000000000000000000000000000000000000\n        /* \"#utility.yul\":9745:9746   */\n      0x00\n        /* \"#utility.yul\":9738:9826   */\n      mstore\n        /* \"#utility.yul\":9845:9849   */\n      0x41\n        /* \"#utility.yul\":9842:9843   */\n      0x04\n        /* \"#utility.yul\":9835:9850   */\n      mstore\n        /* \"#utility.yul\":9869:9873   */\n      0x24\n        /* \"#utility.yul\":9866:9867   */\n      0x00\n        /* \"#utility.yul\":9859:9874   */\n      revert\n        /* \"#utility.yul\":9886:10167   */\n    tag_93:\n        /* \"#utility.yul\":9969:9996   */\n      tag_203\n        /* \"#utility.yul\":9991:9995   */\n      dup3\n        /* \"#utility.yul\":9969:9996   */\n      tag_75\n      jump\t// in\n    tag_203:\n        /* \"#utility.yul\":9961:9967   */\n      dup2\n        /* \"#utility.yul\":9957:9997   */\n      add\n        /* \"#utility.yul\":10099:10105   */\n      dup2\n        /* \"#utility.yul\":10087:10097   */\n      dup2\n        /* \"#utility.yul\":10084:10106   */\n      lt\n        /* \"#utility.yul\":10063:10081   */\n      0xffffffffffffffff\n        /* \"#utility.yul\":10051:10061   */\n      dup3\n        /* \"#utility.yul\":10048:10082   */\n      gt\n        /* \"#utility.yul\":10045:10107   */\n      or\n        /* \"#utility.yul\":10042:10130   */\n      iszero\n      tag_204\n      jumpi\n        /* \"#utility.yul\":10110:10128   */\n      tag_205\n      tag_92\n      jump\t// in\n    tag_205:\n        /* \"#utility.yul\":10042:10130   */\n    tag_204:\n        /* \"#utility.yul\":10150:10160   */\n      dup1\n        /* \"#utility.yul\":10146:10148   */\n      0x40\n        /* \"#utility.yul\":10139:10161   */\n      mstore\n        /* \"#utility.yul\":9929:10167   */\n      pop\n        /* \"#utility.yul\":9886:10167   */\n      pop\n      pop\n      jump\t// out\n        /* \"#utility.yul\":10173:10302   */\n    tag_94:\n        /* \"#utility.yul\":10207:10213   */\n      0x00\n        /* \"#utility.yul\":10234:10254   */\n      tag_207\n      tag_61\n      jump\t// in\n    tag_207:\n        /* \"#utility.yul\":10224:10254   */\n      swap1\n      pop\n        /* \"#utility.yul\":10263:10296   */\n      tag_208\n        /* \"#utility.yul\":10291:10295   */\n      dup3\n        /* \"#utility.yul\":10283:10289   */\n      dup3\n        /* \"#utility.yul\":10263:10296   */\n      tag_93\n      jump\t// in\n    tag_208:\n        /* \"#utility.yul\":10173:10302   */\n      swap2\n      swap1\n      pop\n      jump\t// out\n        /* \"#utility.yul\":10308:10616   */\n    tag_95:\n        /* \"#utility.yul\":10370:10374   */\n      0x00\n        /* \"#utility.yul\":10460:10478   */\n      0xffffffffffffffff\n        /* \"#utility.yul\":10452:10458   */\n      dup3\n        /* \"#utility.yul\":10449:10479   */\n      gt\n        /* \"#utility.yul\":10446:10502   */\n      iszero\n      tag_210\n      jumpi\n        /* \"#utility.yul\":10482:10500   */\n      tag_211\n      tag_92\n      jump\t// in\n    tag_211:\n        /* \"#utility.yul\":10446:10502   */\n    tag_210:\n        /* \"#utility.yul\":10520:10549   */\n      tag_212\n        /* \"#utility.yul\":10542:10548   */\n      dup3\n        /* \"#utility.yul\":10520:10549   */\n      tag_75\n      jump\t// in\n    tag_212:\n        /* \"#utility.yul\":10512:10549   */\n      swap1\n      pop\n        /* \"#utility.yul\":10604:10608   */\n      0x20\n        /* \"#utility.yul\":10598:10602   */\n      dup2\n        /* \"#utility.yul\":10594:10609   */\n      add\n        /* \"#utility.yul\":10586:10609   */\n      swap1\n      pop\n        /* \"#utility.yul\":10308:10616   */\n      swap2\n      swap1\n      pop\n      jump\t// out\n        /* \"#utility.yul\":10622:10770   */\n    tag_96:\n        /* \"#utility.yul\":10720:10726   */\n      dup3\n        /* \"#utility.yul\":10715:10718   */\n      dup2\n        /* \"#utility.yul\":10710:10713   */\n      dup4\n        /* \"#utility.yul\":10697:10727   */\n      calldatacopy\n        /* \"#utility.yul\":10761:10762   */\n      0x00\n        /* \"#utility.yul\":10752:10758   */\n      dup4\n        /* \"#utility.yul\":10747:10750   */\n      dup4\n        /* \"#utility.yul\":10743:10759   */\n      add\n        /* \"#utility.yul\":10736:10763   */\n      mstore\n        /* \"#utility.yul\":10622:10770   */\n      pop\n      pop\n      pop\n      jump\t// out\n        /* \"#utility.yul\":10776:11201   */\n    tag_97:\n        /* \"#utility.yul\":10854:10859   */\n      0x00\n        /* \"#utility.yul\":10879:10945   */\n      tag_215\n        /* \"#utility.yul\":10895:10944   */\n      tag_216\n        /* \"#utility.yul\":10937:10943   */\n      dup5\n        /* \"#utility.yul\":10895:10944   */\n      tag_95\n      jump\t// in\n    tag_216:\n        /* \"#utility.yul\":10879:10945   */\n      tag_94\n      jump\t// in\n    tag_215:\n        /* \"#utility.yul\":10870:10945   */\n      swap1\n      pop\n        /* \"#utility.yul\":10968:10974   */\n      dup3\n        /* \"#utility.yul\":10961:10966   */\n      dup2\n        /* \"#utility.yul\":10954:10975   */\n      mstore\n        /* \"#utility.yul\":11006:11010   */\n      0x20\n        /* \"#utility.yul\":10999:11004   */\n      dup2\n        /* \"#utility.yul\":10995:11011   */\n      add\n        /* \"#utility.yul\":11044:11047   */\n      dup5\n        /* \"#utility.yul\":11035:11041   */\n      dup5\n        /* \"#utility.yul\":11030:11033   */\n      dup5\n        /* \"#utility.yul\":11026:11042   */\n      add\n        /* \"#utility.yul\":11023:11048   */\n      gt\n        /* \"#utility.yul\":11020:11132   */\n      iszero\n      tag_217\n      jumpi\n        /* \"#utility.yul\":11051:11130   */\n      tag_218\n      tag_91\n      jump\t// in\n    tag_218:\n        /* \"#utility.yul\":11020:11132   */\n    tag_217:\n        /* \"#utility.yul\":11141:11195   */\n      tag_219\n        /* \"#utility.yul\":11188:11194   */\n      dup5\n        /* \"#utility.yul\":11183:11186   */\n      dup3\n        /* \"#utility.yul\":11178:11181   */\n      dup6\n        /* \"#utility.yul\":11141:11195   */\n      tag_96\n      jump\t// in\n    tag_219:\n        /* \"#utility.yul\":10860:11201   */\n      pop\n        /* \"#utility.yul\":10776:11201   */\n      swap4\n      swap3\n      pop\n      pop\n      pop\n      jump\t// out\n        /* \"#utility.yul\":11221:11561   */\n    tag_98:\n        /* \"#utility.yul\":11277:11282   */\n      0x00\n        /* \"#utility.yul\":11326:11329   */\n      dup3\n        /* \"#utility.yul\":11319:11323   */\n      0x1f\n        /* \"#utility.yul\":11311:11317   */\n      dup4\n        /* \"#utility.yul\":11307:11324   */\n      add\n        /* \"#utility.yul\":11303:11330   */\n      slt\n        /* \"#utility.yul\":11293:11415   */\n      tag_221\n      jumpi\n        /* \"#utility.yul\":11334:11413   */\n      tag_222\n      tag_90\n      jump\t// in\n    tag_222:\n        /* \"#utility.yul\":11293:11415   */\n    tag_221:\n        /* \"#utility.yul\":11451:11457   */\n      dup2\n        /* \"#utility.yul\":11438:11458   */\n      calldataload\n        /* \"#utility.yul\":11476:11555   */\n      tag_223\n        /* \"#utility.yul\":11551:11554   */\n      dup5\n        /* \"#utility.yul\":11543:11549   */\n      dup3\n        /* \"#utility.yul\":11536:11540   */\n      0x20\n        /* \"#utility.yul\":11528:11534   */\n      dup7\n        /* \"#utility.yul\":11524:11541   */\n      add\n        /* \"#utility.yul\":11476:11555   */\n      tag_97\n      jump\t// in\n    tag_223:\n        /* \"#utility.yul\":11467:11555   */\n      swap2\n      pop\n        /* \"#utility.yul\":11283:11561   */\n      pop\n        /* \"#utility.yul\":11221:11561   */\n      swap3\n      swap2\n      pop\n      pop\n      jump\t// out\n        /* \"#utility.yul\":11567:12076   */\n    tag_26:\n        /* \"#utility.yul\":11636:11642   */\n      0x00\n        /* \"#utility.yul\":11685:11687   */\n      0x20\n        /* \"#utility.yul\":11673:11682   */\n      dup3\n        /* \"#utility.yul\":11664:11671   */\n      dup5\n        /* \"#utility.yul\":11660:11683   */\n      sub\n        /* \"#utility.yul\":11656:11688   */\n      slt\n        /* \"#utility.yul\":11653:11772   */\n      iszero\n      tag_225\n      jumpi\n        /* \"#utility.yul\":11691:11770   */\n      tag_226\n      tag_62\n      jump\t// in\n    tag_226:\n        /* \"#utility.yul\":11653:11772   */\n    tag_225:\n        /* \"#utility.yul\":11839:11840   */\n      0x00\n        /* \"#utility.yul\":11828:11837   */\n      dup3\n        /* \"#utility.yul\":11824:11841   */\n      add\n        /* \"#utility.yul\":11811:11842   */\n      calldataload\n        /* \"#utility.yul\":11869:11887   */\n      0xffffffffffffffff\n        /* \"#utility.yul\":11861:11867   */\n      dup2\n        /* \"#utility.yul\":11858:11888   */\n      gt\n        /* \"#utility.yul\":11855:11972   */\n      iszero\n      tag_227\n      jumpi\n        /* \"#utility.yul\":11891:11970   */\n      tag_228\n      tag_63\n      jump\t// in\n    tag_228:\n        /* \"#utility.yul\":11855:11972   */\n    tag_227:\n        /* \"#utility.yul\":11996:12059   */\n      tag_229\n        /* \"#utility.yul\":12051:12058   */\n      dup5\n        /* \"#utility.yul\":12042:12048   */\n      dup3\n        /* \"#utility.yul\":12031:12040   */\n      dup6\n        /* \"#utility.yul\":12027:12049   */\n      add\n        /* \"#utility.yul\":11996:12059   */\n      tag_98\n      jump\t// in\n    tag_229:\n        /* \"#utility.yul\":11986:12059   */\n      swap2\n      pop\n        /* \"#utility.yul\":11782:12069   */\n      pop\n        /* \"#utility.yul\":11567:12076   */\n      swap3\n      swap2\n      pop\n      pop\n      jump\t// out\n        /* \"#utility.yul\":12082:12262   */\n    tag_99:\n        /* \"#utility.yul\":12130:12207   */\n      0x4e487b7100000000000000000000000000000000000000000000000000000000\n        /* \"#utility.yul\":12127:12128   */\n      0x00\n        /* \"#utility.yul\":12120:12208   */\n      mstore\n        /* \"#utility.yul\":12227:12231   */\n      0x22\n        /* \"#utility.yul\":12224:12225   */\n      0x04\n        /* \"#utility.yul\":12217:12232   */\n      mstore\n        /* \"#utility.yul\":12251:12255   */\n      0x24\n        /* \"#utility.yul\":12248:12249   */\n      0x00\n        /* \"#utility.yul\":12241:12256   */\n      revert\n        /* \"#utility.yul\":12268:12588   */\n    tag_31:\n        /* \"#utility.yul\":12312:12318   */\n      0x00\n        /* \"#utility.yul\":12349:12350   */\n      0x02\n        /* \"#utility.yul\":12343:12347   */\n      dup3\n        /* \"#utility.yul\":12339:12351   */\n      div\n        /* \"#utility.yul\":12329:12351   */\n      swap1\n      pop\n        /* \"#utility.yul\":12396:12397   */\n      0x01\n        /* \"#utility.yul\":12390:12394   */\n      dup3\n        /* \"#utility.yul\":12386:12398   */\n      and\n        /* \"#utility.yul\":12417:12435   */\n      dup1\n        /* \"#utility.yul\":12407:12488   */\n      tag_232\n      jumpi\n        /* \"#utility.yul\":12473:12477   */\n      0x7f\n        /* \"#utility.yul\":12465:12471   */\n      dup3\n        /* \"#utility.yul\":12461:12478   */\n      and\n        /* \"#utility.yul\":12451:12478   */\n      swap2\n      pop\n        /* \"#utility.yul\":12407:12488   */\n    tag_232:\n        /* \"#utility.yul\":12535:12537   */\n      0x20\n        /* \"#utility.yul\":12527:12533   */\n      dup3\n        /* \"#utility.yul\":12524:12538   */\n      lt\n        /* \"#utility.yul\":12504:12522   */\n      dup2\n        /* \"#utility.yul\":12501:12539   */\n      sub\n        /* \"#utility.yul\":12498:12582   */\n      tag_233\n      jumpi\n        /* \"#utility.yul\":12554:12572   */\n      tag_234\n      tag_99\n      jump\t// in\n    tag_234:\n        /* \"#utility.yul\":12498:12582   */\n    tag_233:\n        /* \"#utility.yul\":12319:12588   */\n      pop\n        /* \"#utility.yul\":12268:12588   */\n      swap2\n      swap1\n      pop\n      jump\t// out\n        /* \"#utility.yul\":12594:12774   */\n    tag_41:\n        /* \"#utility.yul\":12642:12719   */\n      0x4e487b7100000000000000000000000000000000000000000000000000000000\n        /* \"#utility.yul\":12639:12640   */\n      0x00\n        /* \"#utility.yul\":12632:12720   */\n      mstore\n        /* \"#utility.yul\":12739:12743   */\n      0x32\n        /* \"#utility.yul\":12736:12737   */\n      0x04\n        /* \"#utility.yul\":12729:12744   */\n      mstore\n        /* \"#utility.yul\":12763:12767   */\n      0x24\n        /* \"#utility.yul\":12760:12761   */\n      0x00\n        /* \"#utility.yul\":12753:12768   */\n      revert\n        /* \"#utility.yul\":12780:12921   */\n    tag_100:\n        /* \"#utility.yul\":12829:12833   */\n      0x00\n        /* \"#utility.yul\":12852:12855   */\n      dup2\n        /* \"#utility.yul\":12844:12855   */\n      swap1\n      pop\n        /* \"#utility.yul\":12875:12878   */\n      dup2\n        /* \"#utility.yul\":12872:12873   */\n      0x00\n        /* \"#utility.yul\":12865:12879   */\n      mstore\n        /* \"#utility.yul\":12909:12913   */\n      0x20\n        /* \"#utility.yul\":12906:12907   */\n      0x00\n        /* \"#utility.yul\":12896:12914   */\n      keccak256\n        /* \"#utility.yul\":12888:12914   */\n      swap1\n      pop\n        /* \"#utility.yul\":12780:12921   */\n      swap2\n      swap1\n      pop\n      jump\t// out\n        /* \"#utility.yul\":12927:13020   */\n    tag_101:\n        /* \"#utility.yul\":12964:12970   */\n      0x00\n        /* \"#utility.yul\":13011:13013   */\n      0x20\n        /* \"#utility.yul\":13006:13008   */\n      0x1f\n        /* \"#utility.yul\":12999:13004   */\n      dup4\n        /* \"#utility.yul\":12995:13009   */\n      add\n        /* \"#utility.yul\":12991:13014   */\n      div\n        /* \"#utility.yul\":12981:13014   */\n      swap1\n      pop\n        /* \"#utility.yul\":12927:13020   */\n      swap2\n      swap1\n      pop\n      jump\t// out\n        /* \"#utility.yul\":13026:13133   */\n    tag_102:\n        /* \"#utility.yul\":13070:13078   */\n      0x00\n        /* \"#utility.yul\":13120:13125   */\n      dup3\n        /* \"#utility.yul\":13114:13118   */\n      dup3\n        /* \"#utility.yul\":13110:13126   */\n      shl\n        /* \"#utility.yul\":13089:13126   */\n      swap1\n      pop\n        /* \"#utility.yul\":13026:13133   */\n      swap3\n      swap2\n      pop\n      pop\n      jump\t// out\n        /* \"#utility.yul\":13139:13532   */\n    tag_103:\n        /* \"#utility.yul\":13208:13214   */\n      0x00\n        /* \"#utility.yul\":13258:13259   */\n      0x08\n        /* \"#utility.yul\":13246:13256   */\n      dup4\n        /* \"#utility.yul\":13242:13260   */\n      mul\n        /* \"#utility.yul\":13281:13378   */\n      tag_240\n        /* \"#utility.yul\":13311:13377   */\n      0xffffffffffffffffffffffffffffffffffffffffffffffffffffffffffffffff\n        /* \"#utility.yul\":13300:13309   */\n      dup3\n        /* \"#utility.yul\":13281:13378   */\n      tag_102\n      jump\t// in\n    tag_240:\n        /* \"#utility.yul\":13399:13438   */\n      tag_241\n        /* \"#utility.yul\":13429:13437   */\n      dup7\n        /* \"#utility.yul\":13418:13427   */\n      dup4\n        /* \"#utility.yul\":13399:13438   */\n      tag_102\n      jump\t// in\n    tag_241:\n        /* \"#utility.yul\":13387:13438   */\n      swap6\n      pop\n        /* \"#utility.yul\":13471:13475   */\n      dup1\n        /* \"#utility.yul\":13467:13476   */\n      not\n        /* \"#utility.yul\":13460:13465   */\n      dup5\n        /* \"#utility.yul\":13456:13477   */\n      and\n        /* \"#utility.yul\":13447:13477   */\n      swap4\n      pop\n        /* \"#utility.yul\":13520:13524   */\n      dup1\n        /* \"#utility.yul\":13510:13518   */\n      dup7\n        /* \"#utility.yul\":13506:13525   */\n      and\n        /* \"#utility.yul\":13499:13504   */\n      dup5\n        /* \"#utility.yul\":13496:13526   */\n      or\n        /* \"#utility.yul\":13486:13526   */\n      swap3\n      pop\n        /* \"#utility.yul\":13215:13532   */\n      pop\n      pop\n        /* \"#utility.yul\":13139:13532   */\n      swap4\n      swap3\n      pop\n      pop\n      pop\n      jump\t// out\n        /* \"#utility.yul\":13538:13598   */\n    tag_104:\n        /* \"#utility.yul\":13566:13569   */\n      0x00\n        /* \"#utility.yul\":13587:13592   */\n      dup2\n        /* \"#utility.yul\":13580:13592   */\n      swap1\n      pop\n        /* \"#utility.yul\":13538:13598   */\n      swap2\n      swap1\n      pop\n      jump\t// out\n        /* \"#utility.yul\":13604:13746   */\n    tag_105:\n        /* \"#utility.yul\":13654:13663   */\n      0x00\n        /* \"#utility.yul\":13687:13740   */\n      tag_244\n        /* \"#utility.yul\":13705:13739   */\n      tag_245\n        /* \"#utility.yul\":13714:13738   */\n      tag_246\n        /* \"#utility.yul\":13732:13737   */\n      dup5\n        /* \"#utility.yul\":13714:13738   */\n      tag_68\n      jump\t// in\n    tag_246:\n        /* \"#utility.yul\":13705:13739   */\n      tag_104\n      jump\t// in\n    tag_245:\n        /* \"#utility.yul\":13687:13740   */\n      tag_68\n      jump\t// in\n    tag_244:\n        /* \"#utility.yul\":13674:13740   */\n      swap1\n      pop\n        /* \"#utility.yul\":13604:13746   */\n      swap2\n      swap1\n      pop\n      jump\t// out\n        /* \"#utility.yul\":13752:13827   */\n    tag_106:\n        /* \"#utility.yul\":13795:13798   */\n      0x00\n        /* \"#utility.yul\":13816:13821   */\n      dup2\n        /* \"#utility.yul\":13809:13821   */\n      swap1\n      pop\n        /* \"#utility.yul\":13752:13827   */\n      swap2\n      swap1\n      pop\n      jump\t// out\n        /* \"#utility.yul\":13833:14102   */\n    tag_107:\n        /* \"#utility.yul\":13943:13982   */\n      tag_249\n        /* \"#utility.yul\":13974:13981   */\n      dup4\n        /* \"#utility.yul\":13943:13982   */\n      tag_105\n      jump\t// in\n    tag_249:\n        /* \"#utility.yul\":14004:14095   */\n      tag_250\n        /* \"#utility.yul\":14053:14094   */\n      tag_251\n        /* \"#utility.yul\":14077:14093   */\n      dup3\n        /* \"#utility.yul\":14053:14094   */\n      tag_106\n      jump\t// in\n    tag_251:\n        /* \"#utility.yul\":14045:14051   */\n      dup5\n        /* \"#utility.yul\":14038:14042   */\n      dup5\n        /* \"#utility.yul\":14032:14043   */\n      sload\n        /* \"#utility.yul\":14004:14095   */\n      tag_103\n      jump\t// in\n    tag_250:\n        /* \"#utility.yul\":13998:14002   */\n      dup3\n        /* \"#utility.yul\":13991:14096   */\n      sstore\n        /* \"#utility.yul\":13909:14102   */\n      pop\n        /* \"#utility.yul\":13833:14102   */\n      pop\n      pop\n      pop\n      jump\t// out\n        /* \"#utility.yul\":14108:14181   */\n    tag_108:\n        /* \"#utility.yul\":14153:14156   */\n      0x00\n        /* \"#utility.yul\":14108:14181   */\n      swap1\n      jump\t// out\n        /* \"#utility.yul\":14187:14376   */\n    tag_109:\n        /* \"#utility.yul\":14264:14296   */\n      tag_254\n      tag_108\n      jump\t// in\n    tag_254:\n        /* \"#utility.yul\":14305:14370   */\n      tag_255\n        /* \"#utility.yul\":14363:14369   */\n      dup2\n        /* \"#utility.yul\":14355:14361   */\n      dup5\n        /* \"#utility.yul\":14349:14353   */\n      dup5\n        /* \"#utility.yul\":14305:14370   */\n      tag_107\n      jump\t// in\n    tag_255:\n        /* \"#utility.yul\":14240:14376   */\n      pop\n        /* \"#utility.yul\":14187:14376   */\n      pop\n      pop\n      jump\t// out\n        /* \"#utility.yul\":14382:14568   */\n    tag_110:\n        /* \"#utility.yul\":14442:14562   */\n    tag_257:\n        /* \"#utility.yul\":14459:14462   */\n      dup2\n        /* \"#utility.yul\":14452:14457   */\n      dup2\n        /* \"#utility.yul\":14449:14463   */\n      lt\n        /* \"#utility.yul\":14442:14562   */\n      iszero\n      tag_259\n      jumpi\n        /* \"#utility.yul\":14513:14552   */\n      tag_260\n        /* \"#utility.yul\":14550:14551   */\n      0x00\n        /* \"#utility.yul\":14543:14548   */\n      dup3\n        /* \"#utility.yul\":14513:14552   */\n      tag_109\n      jump\t// in\n    tag_260:\n        /* \"#utility.yul\":14486:14487   */\n      0x01\n        /* \"#utility.yul\":14479:14484   */\n      dup2\n        /* \"#utility.yul\":14475:14488   */\n      add\n        /* \"#utility.yul\":14466:14488   */\n      swap1\n      pop\n        /* \"#utility.yul\":14442:14562   */\n      jump(tag_257)\n    tag_259:\n        /* \"#utility.yul\":14382:14568   */\n      pop\n      pop\n      jump\t// out\n        /* \"#utility.yul\":14574:15117   */\n    tag_111:\n        /* \"#utility.yul\":14675:14677   */\n      0x1f\n        /* \"#utility.yul\":14670:14673   */\n      dup3\n        /* \"#utility.yul\":14667:14678   */\n      gt\n        /* \"#utility.yul\":14664:15110   */\n      iszero\n      tag_262\n      jumpi\n        /* \"#utility.yul\":14709:14747   */\n      tag_263\n        /* \"#utility.yul\":14741:14746   */\n      dup2\n        /* \"#utility.yul\":14709:14747   */\n      tag_100\n      jump\t// in\n    tag_263:\n        /* \"#utility.yul\":14793:14822   */\n      tag_264\n        /* \"#utility.yul\":14811:14821   */\n      dup5\n        /* \"#utility.yul\":14793:14822   */\n      tag_101\n      jump\t// in\n    tag_264:\n        /* \"#utility.yul\":14783:14791   */\n      dup2\n        /* \"#utility.yul\":14779:14823   */\n      add\n        /* \"#utility.yul\":14976:14978   */\n      0x20\n        /* \"#utility.yul\":14964:14974   */\n      dup6\n        /* \"#utility.yul\":14961:14979   */\n      lt\n        /* \"#utility.yul\":14958:15007   */\n      iszero\n      tag_265\n      jumpi\n        /* \"#utility.yul\":14997:15005   */\n      dup2\n        /* \"#utility.yul\":14982:15005   */\n      swap1\n      pop\n        /* \"#utility.yul\":14958:15007   */\n    tag_265:\n        /* \"#utility.yul\":15020:15100   */\n      tag_266\n        /* \"#utility.yul\":15076:15098   */\n      tag_267\n        /* \"#utility.yul\":15094:15097   */\n      dup6\n        /* \"#utility.yul\":15076:15098   */\n      tag_101\n      jump\t// in\n    tag_267:\n        /* \"#utility.yul\":15066:15074   */\n      dup4\n        /* \"#utility.yul\":15062:15099   */\n      add\n        /* \"#utility.yul\":15049:15060   */\n      dup3\n        /* \"#utility.yul\":15020:15100   */\n      tag_110\n      jump\t// in\n    tag_266:\n        /* \"#utility.yul\":14679:15110   */\n      pop\n      pop\n        /* \"#utility.yul\":14664:15110   */\n    tag_262:\n        /* \"#utility.yul\":14574:15117   */\n      pop\n      pop\n      pop\n      jump\t// out\n        /* \"#utility.yul\":15123:15240   */\n    tag_112:\n        /* \"#utility.yul\":15177:15185   */\n      0x00\n        /* \"#utility.yul\":15227:15232   */\n      dup3\n        /* \"#utility.yul\":15221:15225   */\n      dup3\n        /* \"#utility.yul\":15217:15233   */\n      shr\n        /* \"#utility.yul\":15196:15233   */\n      swap1\n      pop\n        /* \"#utility.yul\":15123:15240   */\n      swap3\n      swap2\n      pop\n      pop\n      jump\t// out\n        /* \"#utility.yul\":15246:15415   */\n    tag_113:\n        /* \"#utility.yul\":15290:15296   */\n      0x00\n        /* \"#utility.yul\":15323:15374   */\n      tag_270\n        /* \"#utility.yul\":15371:15372   */\n      0x00\n        /* \"#utility.yul\":15367:15373   */\n      not\n        /* \"#utility.yul\":15359:15364   */\n      dup5\n        /* \"#utility.yul\":15356:15357   */\n      0x08\n        /* \"#utility.yul\":15352:15365   */\n      mul\n        /* \"#utility.yul\":15323:15374   */\n      tag_112\n      jump\t// in\n    tag_270:\n        /* \"#utility.yul\":15319:15375   */\n      not\n        /* \"#utility.yul\":15404:15408   */\n      dup1\n        /* \"#utility.yul\":15398:15402   */\n      dup4\n        /* \"#utility.yul\":15394:15409   */\n      and\n        /* \"#utility.yul\":15384:15409   */\n      swap2\n      pop\n        /* \"#utility.yul\":15297:15415   */\n      pop\n        /* \"#utility.yul\":15246:15415   */\n      swap3\n      swap2\n      pop\n      pop\n      jump\t// out\n        /* \"#utility.yul\":15420:15715   */\n    tag_114:\n        /* \"#utility.yul\":15496:15500   */\n      0x00\n        /* \"#utility.yul\":15642:15671   */\n      tag_272\n        /* \"#utility.yul\":15667:15670   */\n      dup4\n        /* \"#utility.yul\":15661:15665   */\n      dup4\n        /* \"#utility.yul\":15642:15671   */\n      tag_113\n      jump\t// in\n    tag_272:\n        /* \"#utility.yul\":15634:15671   */\n      swap2\n      pop\n        /* \"#utility.yul\":15704:15707   */\n      dup3\n        /* \"#utility.yul\":15701:15702   */\n      0x02\n        /* \"#utility.yul\":15697:15708   */\n      mul\n        /* \"#utility.yul\":15691:15695   */\n      dup3\n        /* \"#utility.yul\":15688:15709   */\n      or\n        /* \"#utility.yul\":15680:15709   */\n      swap1\n      pop\n        /* \"#utility.yul\":15420:15715   */\n      swap3\n      swap2\n      pop\n      pop\n      jump\t// out\n        /* \"#utility.yul\":15720:17115   */\n    tag_60:\n        /* \"#utility.yul\":15837:15874   */\n      tag_274\n        /* \"#utility.yul\":15870:15873   */\n      dup3\n        /* \"#utility.yul\":15837:15874   */\n      tag_72\n      jump\t// in\n    tag_274:\n        /* \"#utility.yul\":15939:15957   */\n      0xffffffffffffffff\n        /* \"#utility.yul\":15931:15937   */\n      dup2\n        /* \"#utility.yul\":15928:15958   */\n      gt\n        /* \"#utility.yul\":15925:15981   */\n      iszero\n      tag_275\n      jumpi\n        /* \"#utility.yul\":15961:15979   */\n      tag_276\n      tag_92\n      jump\t// in\n    tag_276:\n        /* \"#utility.yul\":15925:15981   */\n    tag_275:\n        /* \"#utility.yul\":16005:16043   */\n      tag_277\n        /* \"#utility.yul\":16037:16041   */\n      dup3\n        /* \"#utility.yul\":16031:16042   */\n      sload\n        /* \"#utility.yul\":16005:16043   */\n      tag_31\n      jump\t// in\n    tag_277:\n        /* \"#utility.yul\":16090:16157   */\n      tag_278\n        /* \"#utility.yul\":16150:16156   */\n      dup3\n        /* \"#utility.yul\":16142:16148   */\n      dup3\n        /* \"#utility.yul\":16136:16140   */\n      dup6\n        /* \"#utility.yul\":16090:16157   */\n      tag_111\n      jump\t// in\n    tag_278:\n        /* \"#utility.yul\":16184:16185   */\n      0x00\n        /* \"#utility.yul\":16208:16212   */\n      0x20\n        /* \"#utility.yul\":16195:16212   */\n      swap1\n      pop\n        /* \"#utility.yul\":16240:16242   */\n      0x1f\n        /* \"#utility.yul\":16232:16238   */\n      dup4\n        /* \"#utility.yul\":16229:16243   */\n      gt\n        /* \"#utility.yul\":16257:16258   */\n      0x01\n        /* \"#utility.yul\":16252:16870   */\n      dup2\n      eq\n      tag_280\n      jumpi\n        /* \"#utility.yul\":16914:16915   */\n      0x00\n        /* \"#utility.yul\":16931:16937   */\n      dup5\n        /* \"#utility.yul\":16928:17005   */\n      iszero\n      tag_281\n      jumpi\n        /* \"#utility.yul\":16980:16989   */\n      dup3\n        /* \"#utility.yul\":16975:16978   */\n      dup8\n        /* \"#utility.yul\":16971:16990   */\n      add\n        /* \"#utility.yul\":16965:16991   */\n      mload\n        /* \"#utility.yul\":16956:16991   */\n      swap1\n      pop\n        /* \"#utility.yul\":16928:17005   */\n    tag_281:\n        /* \"#utility.yul\":17031:17098   */\n      tag_282\n        /* \"#utility.yul\":17091:17097   */\n      dup6\n        /* \"#utility.yul\":17084:17089   */\n      dup3\n        /* \"#utility.yul\":17031:17098   */\n      tag_114\n      jump\t// in\n    tag_282:\n        /* \"#utility.yul\":17025:17029   */\n      dup7\n        /* \"#utility.yul\":17018:17099   */\n      sstore\n        /* \"#utility.yul\":16887:17109   */\n      pop\n        /* \"#utility.yul\":16222:17109   */\n      jump(tag_279)\n        /* \"#utility.yul\":16252:16870   */\n    tag_280:\n        /* \"#utility.yul\":16304:16308   */\n      0x1f\n        /* \"#utility.yul\":16300:16309   */\n      not\n        /* \"#utility.yul\":16292:16298   */\n      dup5\n        /* \"#utility.yul\":16288:16310   */\n      and\n        /* \"#utility.yul\":16338:16375   */\n      tag_283\n        /* \"#utility.yul\":16370:16374   */\n      dup7\n        /* \"#utility.yul\":16338:16375   */\n      tag_100\n      jump\t// in\n    tag_283:\n        /* \"#utility.yul\":16397:16398   */\n      0x00\n        /* \"#utility.yul\":16411:16619   */\n    tag_284:\n        /* \"#utility.yul\":16425:16432   */\n      dup3\n        /* \"#utility.yul\":16422:16423   */\n      dup2\n        /* \"#utility.yul\":16419:16433   */\n      lt\n        /* \"#utility.yul\":16411:16619   */\n      iszero\n      tag_286\n      jumpi\n        /* \"#utility.yul\":16504:16513   */\n      dup5\n        /* \"#utility.yul\":16499:16502   */\n      dup10\n        /* \"#utility.yul\":16495:16514   */\n      add\n        /* \"#utility.yul\":16489:16515   */\n      mload\n        /* \"#utility.yul\":16481:16487   */\n      dup3\n        /* \"#utility.yul\":16474:16516   */\n      sstore\n        /* \"#utility.yul\":16555:16556   */\n      0x01\n        /* \"#utility.yul\":16547:16553   */\n      dup3\n        /* \"#utility.yul\":16543:16557   */\n      add\n        /* \"#utility.yul\":16533:16557   */\n      swap2\n      pop\n        /* \"#utility.yul\":16602:16604   */\n      0x20\n        /* \"#utility.yul\":16591:16600   */\n      dup6\n        /* \"#utility.yul\":16587:16605   */\n      add\n        /* \"#utility.yul\":16574:16605   */\n      swap5\n      pop\n        /* \"#utility.yul\":16448:16452   */\n      0x20\n        /* \"#utility.yul\":16445:16446   */\n      dup2\n        /* \"#utility.yul\":16441:16453   */\n      add\n        /* \"#utility.yul\":16436:16453   */\n      swap1\n      pop\n        /* \"#utility.yul\":16411:16619   */\n      jump(tag_284)\n    tag_286:\n        /* \"#utility.yul\":16647:16653   */\n      dup7\n        /* \"#utility.yul\":16638:16645   */\n      dup4\n        /* \"#utility.yul\":16635:16654   */\n      lt\n        /* \"#utility.yul\":16632:16811   */\n      iszero\n      tag_287\n      jumpi\n        /* \"#utility.yul\":16705:16714   */\n      dup5\n        /* \"#utility.yul\":16700:16703   */\n      dup10\n        /* \"#utility.yul\":16696:16715   */\n      add\n        /* \"#utility.yul\":16690:16716   */\n      mload\n        /* \"#utility.yul\":16748:16796   */\n      tag_288\n        /* \"#utility.yul\":16790:16794   */\n      0x1f\n        /* \"#utility.yul\":16782:16788   */\n      dup10\n        /* \"#utility.yul\":16778:16795   */\n      and\n        /* \"#utility.yul\":16767:16776   */\n      dup3\n        /* \"#utility.yul\":16748:16796   */\n      tag_113\n      jump\t// in\n    tag_288:\n        /* \"#utility.yul\":16740:16746   */\n      dup4\n        /* \"#utility.yul\":16733:16797   */\n      sstore\n        /* \"#utility.yul\":16655:16811   */\n      pop\n        /* \"#utility.yul\":16632:16811   */\n    tag_287:\n        /* \"#utility.yul\":16857:16858   */\n      0x01\n        /* \"#utility.yul\":16853:16854   */\n      0x02\n        /* \"#utility.yul\":16845:16851   */\n      dup9\n        /* \"#utility.yul\":16841:16855   */\n      mul\n        /* \"#utility.yul\":16837:16859   */\n      add\n        /* \"#utility.yul\":16831:16835   */\n      dup9\n        /* \"#utility.yul\":16824:16860   */\n      sstore\n        /* \"#utility.yul\":16259:16870   */\n      pop\n      pop\n      pop\n        /* \"#utility.yul\":16222:17109   */\n    tag_279:\n      pop\n        /* \"#utility.yul\":15812:17115   */\n      pop\n      pop\n      pop\n        /* \"#utility.yul\":15720:17115   */\n      pop\n      pop\n      jump\t// out\n\n    auxdata: 0xa26469706673582212205ecebb894014e80392bf7d3e87c04c85b78fd0377adb4ec40965cf41790f03df64736f6c634300081a0033\n}\n",
				"bytecode": {
					"linkReferences": {},
					"object": "6080604052348015600e575f80fd5b50610ecf8061001c5f395ff3fe608060405234801561000f575f80fd5b506004361061004a575f3560e01c80635c538df31461004e5780636de69b241461008157806394495c3c146100b1578063b36fe3f0146100e1575b5f80fd5b610068600480360381019061006391906106ce565b6100fd565b604051610078949392919061079a565b60405180910390f35b61009b600480360381019061009691906106ce565b6101e7565b6040516100a891906108aa565b60405180910390f35b6100cb60048036038101906100c691906108ca565b610354565b6040516100d89190610a10565b60405180910390f35b6100fb60048036038101906100f69190610b5c565b6104e4565b005b5f602052815f5260405f208181548110610115575f80fd5b905f5260205f2090600402015f9150915050805f015f9054906101000a900473ffffffffffffffffffffffffffffffffffffffff169080600101805461015a90610bd0565b80601f016020809104026020016040519081016040528092919081815260200182805461018690610bd0565b80156101d15780601f106101a8576101008083540402835291602001916101d1565b820191905f5260205f20905b8154815290600101906020018083116101b457829003601f168201915b5050505050908060020154908060030154905084565b6101ef6105f5565b5f808473ffffffffffffffffffffffffffffffffffffffff1673ffffffffffffffffffffffffffffffffffffffff1681526020019081526020015f20828154811061023d5761023c610c00565b5b905f5260205f2090600402016040518060800160405290815f82015f9054906101000a900473ffffffffffffffffffffffffffffffffffffffff1673ffffffffffffffffffffffffffffffffffffffff1673ffffffffffffffffffffffffffffffffffffffff1681526020016001820180546102b890610bd0565b80601f01602080910402602001604051908101604052809291908181526020018280546102e490610bd0565b801561032f5780601f106103065761010080835404028352916020019161032f565b820191905f5260205f20905b81548152906001019060200180831161031257829003601f168201915b5050505050815260200160028201548152602001600382015481525050905092915050565b60605f808373ffffffffffffffffffffffffffffffffffffffff1673ffffffffffffffffffffffffffffffffffffffff1681526020019081526020015f20805480602002602001604051908101604052809291908181526020015f905b828210156104d9578382905f5260205f2090600402016040518060800160405290815f82015f9054906101000a900473ffffffffffffffffffffffffffffffffffffffff1673ffffffffffffffffffffffffffffffffffffffff1673ffffffffffffffffffffffffffffffffffffffff16815260200160018201805461043690610bd0565b80601f016020809104026020016040519081016040528092919081815260200182805461046290610bd0565b80156104ad5780601f10610484576101008083540402835291602001916104ad565b820191905f5260205f20905b81548152906001019060200180831161049057829003601f168201915b5050505050815260200160028201548152602001600382015481525050815260200190600101906103b1565b505050509050919050565b5f60405180608001604052803373ffffffffffffffffffffffffffffffffffffffff1681526020018381526020014281526020015f81525090505f803373ffffffffffffffffffffffffffffffffffffffff1673ffffffffffffffffffffffffffffffffffffffff1681526020019081526020015f2081908060018154018082558091505060019003905f5260205f2090600402015f909190919091505f820151815f015f6101000a81548173ffffffffffffffffffffffffffffffffffffffff021916908373ffffffffffffffffffffffffffffffffffffffff16021790555060208201518160010190816105da9190610dca565b50604082015181600201556060820151816003015550505050565b60405180608001604052805f73ffffffffffffffffffffffffffffffffffffffff168152602001606081526020015f81526020015f81525090565b5f604051905090565b5f80fd5b5f80fd5b5f73ffffffffffffffffffffffffffffffffffffffff82169050919050565b5f61066a82610641565b9050919050565b61067a81610660565b8114610684575f80fd5b50565b5f8135905061069581610671565b92915050565b5f819050919050565b6106ad8161069b565b81146106b7575f80fd5b50565b5f813590506106c8816106a4565b92915050565b5f80604083850312156106e4576106e3610639565b5b5f6106f185828601610687565b9250506020610702858286016106ba565b9150509250929050565b61071581610660565b82525050565b5f81519050919050565b5f82825260208201905092915050565b8281835e5f83830152505050565b5f601f19601f8301169050919050565b5f61075d8261071b565b6107678185610725565b9350610777818560208601610735565b61078081610743565b840191505092915050565b6107948161069b565b82525050565b5f6080820190506107ad5f83018761070c565b81810360208301526107bf8186610753565b90506107ce604083018561078b565b6107db606083018461078b565b95945050505050565b6107ed81610660565b82525050565b5f82825260208201905092915050565b5f61080d8261071b565b61081781856107f3565b9350610827818560208601610735565b61083081610743565b840191505092915050565b6108448161069b565b82525050565b5f608083015f83015161085f5f8601826107e4565b50602083015184820360208601526108778282610803565b915050604083015161088c604086018261083b565b50606083015161089f606086018261083b565b508091505092915050565b5f6020820190508181035f8301526108c2818461084a565b905092915050565b5f602082840312156108df576108de610639565b5b5f6108ec84828501610687565b91505092915050565b5f81519050919050565b5f82825260208201905092915050565b5f819050602082019050919050565b5f608083015f8301516109335f8601826107e4565b506020830151848203602086015261094b8282610803565b9150506040830151610960604086018261083b565b506060830151610973606086018261083b565b508091505092915050565b5f610989838361091e565b905092915050565b5f602082019050919050565b5f6109a7826108f5565b6109b181856108ff565b9350836020820285016109c38561090f565b805f5b858110156109fe57848403895281516109df858261097e565b94506109ea83610991565b925060208a019950506001810190506109c6565b50829750879550505050505092915050565b5f6020820190508181035f830152610a28818461099d565b905092915050565b5f80fd5b5f80fd5b7f4e487b71000000000000000000000000000000000000000000000000000000005f52604160045260245ffd5b610a6e82610743565b810181811067ffffffffffffffff82111715610a8d57610a8c610a38565b5b80604052505050565b5f610a9f610630565b9050610aab8282610a65565b919050565b5f67ffffffffffffffff821115610aca57610ac9610a38565b5b610ad382610743565b9050602081019050919050565b828183375f83830152505050565b5f610b00610afb84610ab0565b610a96565b905082815260208101848484011115610b1c57610b1b610a34565b5b610b27848285610ae0565b509392505050565b5f82601f830112610b4357610b42610a30565b5b8135610b53848260208601610aee565b91505092915050565b5f60208284031215610b7157610b70610639565b5b5f82013567ffffffffffffffff811115610b8e57610b8d61063d565b5b610b9a84828501610b2f565b91505092915050565b7f4e487b71000000000000000000000000000000000000000000000000000000005f52602260045260245ffd5b5f6002820490506001821680610be757607f821691505b602082108103610bfa57610bf9610ba3565b5b50919050565b7f4e487b71000000000000000000000000000000000000000000000000000000005f52603260045260245ffd5b5f819050815f5260205f209050919050565b5f6020601f8301049050919050565b5f82821b905092915050565b5f60088302610c897fffffffffffffffffffffffffffffffffffffffffffffffffffffffffffffffff82610c4e565b610c938683610c4e565b95508019841693508086168417925050509392505050565b5f819050919050565b5f610cce610cc9610cc48461069b565b610cab565b61069b565b9050919050565b5f819050919050565b610ce783610cb4565b610cfb610cf382610cd5565b848454610c5a565b825550505050565b5f90565b610d0f610d03565b610d1a818484610cde565b505050565b5b81811015610d3d57610d325f82610d07565b600181019050610d20565b5050565b601f821115610d8257610d5381610c2d565b610d5c84610c3f565b81016020851015610d6b578190505b610d7f610d7785610c3f565b830182610d1f565b50505b505050565b5f82821c905092915050565b5f610da25f1984600802610d87565b1980831691505092915050565b5f610dba8383610d93565b9150826002028217905092915050565b610dd38261071b565b67ffffffffffffffff811115610dec57610deb610a38565b5b610df68254610bd0565b610e01828285610d41565b5f60209050601f831160018114610e32575f8415610e20578287015190505b610e2a8582610daf565b865550610e91565b601f198416610e4086610c2d565b5f5b82811015610e6757848901518255600182019150602085019450602081019050610e42565b86831015610e845784890151610e80601f891682610d93565b8355505b6001600288020188555050505b50505050505056fea26469706673582212205ecebb894014e80392bf7d3e87c04c85b78fd0377adb4ec40965cf41790f03df64736f6c634300081a0033",
					"opcodes": "PUSH1 0x80 PUSH1 0x40 MSTORE CALLVALUE DUP1 ISZERO PUSH1 0xE JUMPI PUSH0 DUP1 REVERT JUMPDEST POP PUSH2 0xECF DUP1 PUSH2 0x1C PUSH0 CODECOPY PUSH0 RETURN INVALID PUSH1 0x80 PUSH1 0x40 MSTORE CALLVALUE DUP1 ISZERO PUSH2 0xF JUMPI PUSH0 DUP1 REVERT JUMPDEST POP PUSH1 0x4 CALLDATASIZE LT PUSH2 0x4A JUMPI PUSH0 CALLDATALOAD PUSH1 0xE0 SHR DUP1 PUSH4 0x5C538DF3 EQ PUSH2 0x4E JUMPI DUP1 PUSH4 0x6DE69B24 EQ PUSH2 0x81 JUMPI DUP1 PUSH4 0x94495C3C EQ PUSH2 0xB1 JUMPI DUP1 PUSH4 0xB36FE3F0 EQ PUSH2 0xE1 JUMPI JUMPDEST PUSH0 DUP1 REVERT JUMPDEST PUSH2 0x68 PUSH1 0x4 DUP1 CALLDATASIZE SUB DUP2 ADD SWAP1 PUSH2 0x63 SWAP2 SWAP1 PUSH2 0x6CE JUMP JUMPDEST PUSH2 0xFD JUMP JUMPDEST PUSH1 0x40 MLOAD PUSH2 0x78 SWAP5 SWAP4 SWAP3 SWAP2 SWAP1 PUSH2 0x79A JUMP JUMPDEST PUSH1 0x40 MLOAD DUP1 SWAP2 SUB SWAP1 RETURN JUMPDEST PUSH2 0x9B PUSH1 0x4 DUP1 CALLDATASIZE SUB DUP2 ADD SWAP1 PUSH2 0x96 SWAP2 SWAP1 PUSH2 0x6CE JUMP JUMPDEST PUSH2 0x1E7 JUMP JUMPDEST PUSH1 0x40 MLOAD PUSH2 0xA8 SWAP2 SWAP1 PUSH2 0x8AA JUMP JUMPDEST PUSH1 0x40 MLOAD DUP1 SWAP2 SUB SWAP1 RETURN JUMPDEST PUSH2 0xCB PUSH1 0x4 DUP1 CALLDATASIZE SUB DUP2 ADD SWAP1 PUSH2 0xC6 SWAP2 SWAP1 PUSH2 0x8CA JUMP JUMPDEST PUSH2 0x354 JUMP JUMPDEST PUSH1 0x40 MLOAD PUSH2 0xD8 SWAP2 SWAP1 PUSH2 0xA10 JUMP JUMPDEST PUSH1 0x40 MLOAD DUP1 SWAP2 SUB SWAP1 RETURN JUMPDEST PUSH2 0xFB PUSH1 0x4 DUP1 CALLDATASIZE SUB DUP2 ADD SWAP1 PUSH2 0xF6 SWAP2 SWAP1 PUSH2 0xB5C JUMP JUMPDEST PUSH2 0x4E4 JUMP JUMPDEST STOP JUMPDEST PUSH0 PUSH1 0x20 MSTORE DUP2 PUSH0 MSTORE PUSH1 0x40 PUSH0 KECCAK256 DUP2 DUP2 SLOAD DUP2 LT PUSH2 0x115 JUMPI PUSH0 DUP1 REVERT JUMPDEST SWAP1 PUSH0 MSTORE PUSH1 0x20 PUSH0 KECCAK256 SWAP1 PUSH1 0x4 MUL ADD PUSH0 SWAP2 POP SWAP2 POP POP DUP1 PUSH0 ADD PUSH0 SWAP1 SLOAD SWAP1 PUSH2 0x100 EXP SWAP1 DIV PUSH20 0xFFFFFFFFFFFFFFFFFFFFFFFFFFFFFFFFFFFFFFFF AND SWAP1 DUP1 PUSH1 0x1 ADD DUP1 SLOAD PUSH2 0x15A SWAP1 PUSH2 0xBD0 JUMP JUMPDEST DUP1 PUSH1 0x1F ADD PUSH1 0x20 DUP1 SWAP2 DIV MUL PUSH1 0x20 ADD PUSH1 0x40 MLOAD SWAP1 DUP2 ADD PUSH1 0x40 MSTORE DUP1 SWAP3 SWAP2 SWAP1 DUP2 DUP2 MSTORE PUSH1 0x20 ADD DUP3 DUP1 SLOAD PUSH2 0x186 SWAP1 PUSH2 0xBD0 JUMP JUMPDEST DUP1 ISZERO PUSH2 0x1D1 JUMPI DUP1 PUSH1 0x1F LT PUSH2 0x1A8 JUMPI PUSH2 0x100 DUP1 DUP4 SLOAD DIV MUL DUP4 MSTORE SWAP2 PUSH1 0x20 ADD SWAP2 PUSH2 0x1D1 JUMP JUMPDEST DUP3 ADD SWAP2 SWAP1 PUSH0 MSTORE PUSH1 0x20 PUSH0 KECCAK256 SWAP1 JUMPDEST DUP2 SLOAD DUP2 MSTORE SWAP1 PUSH1 0x1 ADD SWAP1 PUSH1 0x20 ADD DUP1 DUP4 GT PUSH2 0x1B4 JUMPI DUP3 SWAP1 SUB PUSH1 0x1F AND DUP3 ADD SWAP2 JUMPDEST POP POP POP POP POP SWAP1 DUP1 PUSH1 0x2 ADD SLOAD SWAP1 DUP1 PUSH1 0x3 ADD SLOAD SWAP1 POP DUP5 JUMP JUMPDEST PUSH2 0x1EF PUSH2 0x5F5 JUMP JUMPDEST PUSH0 DUP1 DUP5 PUSH20 0xFFFFFFFFFFFFFFFFFFFFFFFFFFFFFFFFFFFFFFFF AND PUSH20 0xFFFFFFFFFFFFFFFFFFFFFFFFFFFFFFFFFFFFFFFF AND DUP2 MSTORE PUSH1 0x20 ADD SWAP1 DUP2 MSTORE PUSH1 0x20 ADD PUSH0 KECCAK256 DUP3 DUP2 SLOAD DUP2 LT PUSH2 0x23D JUMPI PUSH2 0x23C PUSH2 0xC00 JUMP JUMPDEST JUMPDEST SWAP1 PUSH0 MSTORE PUSH1 0x20 PUSH0 KECCAK256 SWAP1 PUSH1 0x4 MUL ADD PUSH1 0x40 MLOAD DUP1 PUSH1 0x80 ADD PUSH1 0x40 MSTORE SWAP1 DUP2 PUSH0 DUP3 ADD PUSH0 SWAP1 SLOAD SWAP1 PUSH2 0x100 EXP SWAP1 DIV PUSH20 0xFFFFFFFFFFFFFFFFFFFFFFFFFFFFFFFFFFFFFFFF AND PUSH20 0xFFFFFFFFFFFFFFFFFFFFFFFFFFFFFFFFFFFFFFFF AND PUSH20 0xFFFFFFFFFFFFFFFFFFFFFFFFFFFFFFFFFFFFFFFF AND DUP2 MSTORE PUSH1 0x20 ADD PUSH1 0x1 DUP3 ADD DUP1 SLOAD PUSH2 0x2B8 SWAP1 PUSH2 0xBD0 JUMP JUMPDEST DUP1 PUSH1 0x1F ADD PUSH1 0x20 DUP1 SWAP2 DIV MUL PUSH1 0x20 ADD PUSH1 0x40 MLOAD SWAP1 DUP2 ADD PUSH1 0x40 MSTORE DUP1 SWAP3 SWAP2 SWAP1 DUP2 DUP2 MSTORE PUSH1 0x20 ADD DUP3 DUP1 SLOAD PUSH2 0x2E4 SWAP1 PUSH2 0xBD0 JUMP JUMPDEST DUP1 ISZERO PUSH2 0x32F JUMPI DUP1 PUSH1 0x1F LT PUSH2 0x306 JUMPI PUSH2 0x100 DUP1 DUP4 SLOAD DIV MUL DUP4 MSTORE SWAP2 PUSH1 0x20 ADD SWAP2 PUSH2 0x32F JUMP JUMPDEST DUP3 ADD SWAP2 SWAP1 PUSH0 MSTORE PUSH1 0x20 PUSH0 KECCAK256 SWAP1 JUMPDEST DUP2 SLOAD DUP2 MSTORE SWAP1 PUSH1 0x1 ADD SWAP1 PUSH1 0x20 ADD DUP1 DUP4 GT PUSH2 0x312 JUMPI DUP3 SWAP1 SUB PUSH1 0x1F AND DUP3 ADD SWAP2 JUMPDEST POP POP POP POP POP DUP2 MSTORE PUSH1 0x20 ADD PUSH1 0x2 DUP3 ADD SLOAD DUP2 MSTORE PUSH1 0x20 ADD PUSH1 0x3 DUP3 ADD SLOAD DUP2 MSTORE POP POP SWAP1 POP SWAP3 SWAP2 POP POP JUMP JUMPDEST PUSH1 0x60 PUSH0 DUP1 DUP4 PUSH20 0xFFFFFFFFFFFFFFFFFFFFFFFFFFFFFFFFFFFFFFFF AND PUSH20 0xFFFFFFFFFFFFFFFFFFFFFFFFFFFFFFFFFFFFFFFF AND DUP2 MSTORE PUSH1 0x20 ADD SWAP1 DUP2 MSTORE PUSH1 0x20 ADD PUSH0 KECCAK256 DUP1 SLOAD DUP1 PUSH1 0x20 MUL PUSH1 0x20 ADD PUSH1 0x40 MLOAD SWAP1 DUP2 ADD PUSH1 0x40 MSTORE DUP1 SWAP3 SWAP2 SWAP1 DUP2 DUP2 MSTORE PUSH1 0x20 ADD PUSH0 SWAP1 JUMPDEST DUP3 DUP3 LT ISZERO PUSH2 0x4D9 JUMPI DUP4 DUP3 SWAP1 PUSH0 MSTORE PUSH1 0x20 PUSH0 KECCAK256 SWAP1 PUSH1 0x4 MUL ADD PUSH1 0x40 MLOAD DUP1 PUSH1 0x80 ADD PUSH1 0x40 MSTORE SWAP1 DUP2 PUSH0 DUP3 ADD PUSH0 SWAP1 SLOAD SWAP1 PUSH2 0x100 EXP SWAP1 DIV PUSH20 0xFFFFFFFFFFFFFFFFFFFFFFFFFFFFFFFFFFFFFFFF AND PUSH20 0xFFFFFFFFFFFFFFFFFFFFFFFFFFFFFFFFFFFFFFFF AND PUSH20 0xFFFFFFFFFFFFFFFFFFFFFFFFFFFFFFFFFFFFFFFF AND DUP2 MSTORE PUSH1 0x20 ADD PUSH1 0x1 DUP3 ADD DUP1 SLOAD PUSH2 0x436 SWAP1 PUSH2 0xBD0 JUMP JUMPDEST DUP1 PUSH1 0x1F ADD PUSH1 0x20 DUP1 SWAP2 DIV MUL PUSH1 0x20 ADD PUSH1 0x40 MLOAD SWAP1 DUP2 ADD PUSH1 0x40 MSTORE DUP1 SWAP3 SWAP2 SWAP1 DUP2 DUP2 MSTORE PUSH1 0x20 ADD DUP3 DUP1 SLOAD PUSH2 0x462 SWAP1 PUSH2 0xBD0 JUMP JUMPDEST DUP1 ISZERO PUSH2 0x4AD JUMPI DUP1 PUSH1 0x1F LT PUSH2 0x484 JUMPI PUSH2 0x100 DUP1 DUP4 SLOAD DIV MUL DUP4 MSTORE SWAP2 PUSH1 0x20 ADD SWAP2 PUSH2 0x4AD JUMP JUMPDEST DUP3 ADD SWAP2 SWAP1 PUSH0 MSTORE PUSH1 0x20 PUSH0 KECCAK256 SWAP1 JUMPDEST DUP2 SLOAD DUP2 MSTORE SWAP1 PUSH1 0x1 ADD SWAP1 PUSH1 0x20 ADD DUP1 DUP4 GT PUSH2 0x490 JUMPI DUP3 SWAP1 SUB PUSH1 0x1F AND DUP3 ADD SWAP2 JUMPDEST POP POP POP POP POP DUP2 MSTORE PUSH1 0x20 ADD PUSH1 0x2 DUP3 ADD SLOAD DUP2 MSTORE PUSH1 0x20 ADD PUSH1 0x3 DUP3 ADD SLOAD DUP2 MSTORE POP POP DUP2 MSTORE PUSH1 0x20 ADD SWAP1 PUSH1 0x1 ADD SWAP1 PUSH2 0x3B1 JUMP JUMPDEST POP POP POP POP SWAP1 POP SWAP2 SWAP1 POP JUMP JUMPDEST PUSH0 PUSH1 0x40 MLOAD DUP1 PUSH1 0x80 ADD PUSH1 0x40 MSTORE DUP1 CALLER PUSH20 0xFFFFFFFFFFFFFFFFFFFFFFFFFFFFFFFFFFFFFFFF AND DUP2 MSTORE PUSH1 0x20 ADD DUP4 DUP2 MSTORE PUSH1 0x20 ADD TIMESTAMP DUP2 MSTORE PUSH1 0x20 ADD PUSH0 DUP2 MSTORE POP SWAP1 POP PUSH0 DUP1 CALLER PUSH20 0xFFFFFFFFFFFFFFFFFFFFFFFFFFFFFFFFFFFFFFFF AND PUSH20 0xFFFFFFFFFFFFFFFFFFFFFFFFFFFFFFFFFFFFFFFF AND DUP2 MSTORE PUSH1 0x20 ADD SWAP1 DUP2 MSTORE PUSH1 0x20 ADD PUSH0 KECCAK256 DUP2 SWAP1 DUP1 PUSH1 0x1 DUP2 SLOAD ADD DUP1 DUP3 SSTORE DUP1 SWAP2 POP POP PUSH1 0x1 SWAP1 SUB SWAP1 PUSH0 MSTORE PUSH1 0x20 PUSH0 KECCAK256 SWAP1 PUSH1 0x4 MUL ADD PUSH0 SWAP1 SWAP2 SWAP1 SWAP2 SWAP1 SWAP2 POP PUSH0 DUP3 ADD MLOAD DUP2 PUSH0 ADD PUSH0 PUSH2 0x100 EXP DUP2 SLOAD DUP2 PUSH20 0xFFFFFFFFFFFFFFFFFFFFFFFFFFFFFFFFFFFFFFFF MUL NOT AND SWAP1 DUP4 PUSH20 0xFFFFFFFFFFFFFFFFFFFFFFFFFFFFFFFFFFFFFFFF AND MUL OR SWAP1 SSTORE POP PUSH1 0x20 DUP3 ADD MLOAD DUP2 PUSH1 0x1 ADD SWAP1 DUP2 PUSH2 0x5DA SWAP2 SWAP1 PUSH2 0xDCA JUMP JUMPDEST POP PUSH1 0x40 DUP3 ADD MLOAD DUP2 PUSH1 0x2 ADD SSTORE PUSH1 0x60 DUP3 ADD MLOAD DUP2 PUSH1 0x3 ADD SSTORE POP POP POP POP JUMP JUMPDEST PUSH1 0x40 MLOAD DUP1 PUSH1 0x80 ADD PUSH1 0x40 MSTORE DUP1 PUSH0 PUSH20 0xFFFFFFFFFFFFFFFFFFFFFFFFFFFFFFFFFFFFFFFF AND DUP2 MSTORE PUSH1 0x20 ADD PUSH1 0x60 DUP2 MSTORE PUSH1 0x20 ADD PUSH0 DUP2 MSTORE PUSH1 0x20 ADD PUSH0 DUP2 MSTORE POP SWAP1 JUMP JUMPDEST PUSH0 PUSH1 0x40 MLOAD SWAP1 POP SWAP1 JUMP JUMPDEST PUSH0 DUP1 REVERT JUMPDEST PUSH0 DUP1 REVERT JUMPDEST PUSH0 PUSH20 0xFFFFFFFFFFFFFFFFFFFFFFFFFFFFFFFFFFFFFFFF DUP3 AND SWAP1 POP SWAP2 SWAP1 POP JUMP JUMPDEST PUSH0 PUSH2 0x66A DUP3 PUSH2 0x641 JUMP JUMPDEST SWAP1 POP SWAP2 SWAP1 POP JUMP JUMPDEST PUSH2 0x67A DUP2 PUSH2 0x660 JUMP JUMPDEST DUP2 EQ PUSH2 0x684 JUMPI PUSH0 DUP1 REVERT JUMPDEST POP JUMP JUMPDEST PUSH0 DUP2 CALLDATALOAD SWAP1 POP PUSH2 0x695 DUP2 PUSH2 0x671 JUMP JUMPDEST SWAP3 SWAP2 POP POP JUMP JUMPDEST PUSH0 DUP2 SWAP1 POP SWAP2 SWAP1 POP JUMP JUMPDEST PUSH2 0x6AD DUP2 PUSH2 0x69B JUMP JUMPDEST DUP2 EQ PUSH2 0x6B7 JUMPI PUSH0 DUP1 REVERT JUMPDEST POP JUMP JUMPDEST PUSH0 DUP2 CALLDATALOAD SWAP1 POP PUSH2 0x6C8 DUP2 PUSH2 0x6A4 JUMP JUMPDEST SWAP3 SWAP2 POP POP JUMP JUMPDEST PUSH0 DUP1 PUSH1 0x40 DUP4 DUP6 SUB SLT ISZERO PUSH2 0x6E4 JUMPI PUSH2 0x6E3 PUSH2 0x639 JUMP JUMPDEST JUMPDEST PUSH0 PUSH2 0x6F1 DUP6 DUP3 DUP7 ADD PUSH2 0x687 JUMP JUMPDEST SWAP3 POP POP PUSH1 0x20 PUSH2 0x702 DUP6 DUP3 DUP7 ADD PUSH2 0x6BA JUMP JUMPDEST SWAP2 POP POP SWAP3 POP SWAP3 SWAP1 POP JUMP JUMPDEST PUSH2 0x715 DUP2 PUSH2 0x660 JUMP JUMPDEST DUP3 MSTORE POP POP JUMP JUMPDEST PUSH0 DUP2 MLOAD SWAP1 POP SWAP2 SWAP1 POP JUMP JUMPDEST PUSH0 DUP3 DUP3 MSTORE PUSH1 0x20 DUP3 ADD SWAP1 POP SWAP3 SWAP2 POP POP JUMP JUMPDEST DUP3 DUP2 DUP4 MCOPY PUSH0 DUP4 DUP4 ADD MSTORE POP POP POP JUMP JUMPDEST PUSH0 PUSH1 0x1F NOT PUSH1 0x1F DUP4 ADD AND SWAP1 POP SWAP2 SWAP1 POP JUMP JUMPDEST PUSH0 PUSH2 0x75D DUP3 PUSH2 0x71B JUMP JUMPDEST PUSH2 0x767 DUP2 DUP6 PUSH2 0x725 JUMP JUMPDEST SWAP4 POP PUSH2 0x777 DUP2 DUP6 PUSH1 0x20 DUP7 ADD PUSH2 0x735 JUMP JUMPDEST PUSH2 0x780 DUP2 PUSH2 0x743 JUMP JUMPDEST DUP5 ADD SWAP2 POP POP SWAP3 SWAP2 POP POP JUMP JUMPDEST PUSH2 0x794 DUP2 PUSH2 0x69B JUMP JUMPDEST DUP3 MSTORE POP POP JUMP JUMPDEST PUSH0 PUSH1 0x80 DUP3 ADD SWAP1 POP PUSH2 0x7AD PUSH0 DUP4 ADD DUP8 PUSH2 0x70C JUMP JUMPDEST DUP2 DUP2 SUB PUSH1 0x20 DUP4 ADD MSTORE PUSH2 0x7BF DUP2 DUP7 PUSH2 0x753 JUMP JUMPDEST SWAP1 POP PUSH2 0x7CE PUSH1 0x40 DUP4 ADD DUP6 PUSH2 0x78B JUMP JUMPDEST PUSH2 0x7DB PUSH1 0x60 DUP4 ADD DUP5 PUSH2 0x78B JUMP JUMPDEST SWAP6 SWAP5 POP POP POP POP POP JUMP JUMPDEST PUSH2 0x7ED DUP2 PUSH2 0x660 JUMP JUMPDEST DUP3 MSTORE POP POP JUMP JUMPDEST PUSH0 DUP3 DUP3 MSTORE PUSH1 0x20 DUP3 ADD SWAP1 POP SWAP3 SWAP2 POP POP JUMP JUMPDEST PUSH0 PUSH2 0x80D DUP3 PUSH2 0x71B JUMP JUMPDEST PUSH2 0x817 DUP2 DUP6 PUSH2 0x7F3 JUMP JUMPDEST SWAP4 POP PUSH2 0x827 DUP2 DUP6 PUSH1 0x20 DUP7 ADD PUSH2 0x735 JUMP JUMPDEST PUSH2 0x830 DUP2 PUSH2 0x743 JUMP JUMPDEST DUP5 ADD SWAP2 POP POP SWAP3 SWAP2 POP POP JUMP JUMPDEST PUSH2 0x844 DUP2 PUSH2 0x69B JUMP JUMPDEST DUP3 MSTORE POP POP JUMP JUMPDEST PUSH0 PUSH1 0x80 DUP4 ADD PUSH0 DUP4 ADD MLOAD PUSH2 0x85F PUSH0 DUP7 ADD DUP3 PUSH2 0x7E4 JUMP JUMPDEST POP PUSH1 0x20 DUP4 ADD MLOAD DUP5 DUP3 SUB PUSH1 0x20 DUP7 ADD MSTORE PUSH2 0x877 DUP3 DUP3 PUSH2 0x803 JUMP JUMPDEST SWAP2 POP POP PUSH1 0x40 DUP4 ADD MLOAD PUSH2 0x88C PUSH1 0x40 DUP7 ADD DUP3 PUSH2 0x83B JUMP JUMPDEST POP PUSH1 0x60 DUP4 ADD MLOAD PUSH2 0x89F PUSH1 0x60 DUP7 ADD DUP3 PUSH2 0x83B JUMP JUMPDEST POP DUP1 SWAP2 POP POP SWAP3 SWAP2 POP POP JUMP JUMPDEST PUSH0 PUSH1 0x20 DUP3 ADD SWAP1 POP DUP2 DUP2 SUB PUSH0 DUP4 ADD MSTORE PUSH2 0x8C2 DUP2 DUP5 PUSH2 0x84A JUMP JUMPDEST SWAP1 POP SWAP3 SWAP2 POP POP JUMP JUMPDEST PUSH0 PUSH1 0x20 DUP3 DUP5 SUB SLT ISZERO PUSH2 0x8DF JUMPI PUSH2 0x8DE PUSH2 0x639 JUMP JUMPDEST JUMPDEST PUSH0 PUSH2 0x8EC DUP5 DUP3 DUP6 ADD PUSH2 0x687 JUMP JUMPDEST SWAP2 POP POP SWAP3 SWAP2 POP POP JUMP JUMPDEST PUSH0 DUP2 MLOAD SWAP1 POP SWAP2 SWAP1 POP JUMP JUMPDEST PUSH0 DUP3 DUP3 MSTORE PUSH1 0x20 DUP3 ADD SWAP1 POP SWAP3 SWAP2 POP POP JUMP JUMPDEST PUSH0 DUP2 SWAP1 POP PUSH1 0x20 DUP3 ADD SWAP1 POP SWAP2 SWAP1 POP JUMP JUMPDEST PUSH0 PUSH1 0x80 DUP4 ADD PUSH0 DUP4 ADD MLOAD PUSH2 0x933 PUSH0 DUP7 ADD DUP3 PUSH2 0x7E4 JUMP JUMPDEST POP PUSH1 0x20 DUP4 ADD MLOAD DUP5 DUP3 SUB PUSH1 0x20 DUP7 ADD MSTORE PUSH2 0x94B DUP3 DUP3 PUSH2 0x803 JUMP JUMPDEST SWAP2 POP POP PUSH1 0x40 DUP4 ADD MLOAD PUSH2 0x960 PUSH1 0x40 DUP7 ADD DUP3 PUSH2 0x83B JUMP JUMPDEST POP PUSH1 0x60 DUP4 ADD MLOAD PUSH2 0x973 PUSH1 0x60 DUP7 ADD DUP3 PUSH2 0x83B JUMP JUMPDEST POP DUP1 SWAP2 POP POP SWAP3 SWAP2 POP POP JUMP JUMPDEST PUSH0 PUSH2 0x989 DUP4 DUP4 PUSH2 0x91E JUMP JUMPDEST SWAP1 POP SWAP3 SWAP2 POP POP JUMP JUMPDEST PUSH0 PUSH1 0x20 DUP3 ADD SWAP1 POP SWAP2 SWAP1 POP JUMP JUMPDEST PUSH0 PUSH2 0x9A7 DUP3 PUSH2 0x8F5 JUMP JUMPDEST PUSH2 0x9B1 DUP2 DUP6 PUSH2 0x8FF JUMP JUMPDEST SWAP4 POP DUP4 PUSH1 0x20 DUP3 MUL DUP6 ADD PUSH2 0x9C3 DUP6 PUSH2 0x90F JUMP JUMPDEST DUP1 PUSH0 JUMPDEST DUP6 DUP2 LT ISZERO PUSH2 0x9FE JUMPI DUP5 DUP5 SUB DUP10 MSTORE DUP2 MLOAD PUSH2 0x9DF DUP6 DUP3 PUSH2 0x97E JUMP JUMPDEST SWAP5 POP PUSH2 0x9EA DUP4 PUSH2 0x991 JUMP JUMPDEST SWAP3 POP PUSH1 0x20 DUP11 ADD SWAP10 POP POP PUSH1 0x1 DUP2 ADD SWAP1 POP PUSH2 0x9C6 JUMP JUMPDEST POP DUP3 SWAP8 POP DUP8 SWAP6 POP POP POP POP POP POP SWAP3 SWAP2 POP POP JUMP JUMPDEST PUSH0 PUSH1 0x20 DUP3 ADD SWAP1 POP DUP2 DUP2 SUB PUSH0 DUP4 ADD MSTORE PUSH2 0xA28 DUP2 DUP5 PUSH2 0x99D JUMP JUMPDEST SWAP1 POP SWAP3 SWAP2 POP POP JUMP JUMPDEST PUSH0 DUP1 REVERT JUMPDEST PUSH0 DUP1 REVERT JUMPDEST PUSH32 0x4E487B7100000000000000000000000000000000000000000000000000000000 PUSH0 MSTORE PUSH1 0x41 PUSH1 0x4 MSTORE PUSH1 0x24 PUSH0 REVERT JUMPDEST PUSH2 0xA6E DUP3 PUSH2 0x743 JUMP JUMPDEST DUP2 ADD DUP2 DUP2 LT PUSH8 0xFFFFFFFFFFFFFFFF DUP3 GT OR ISZERO PUSH2 0xA8D JUMPI PUSH2 0xA8C PUSH2 0xA38 JUMP JUMPDEST JUMPDEST DUP1 PUSH1 0x40 MSTORE POP POP POP JUMP JUMPDEST PUSH0 PUSH2 0xA9F PUSH2 0x630 JUMP JUMPDEST SWAP1 POP PUSH2 0xAAB DUP3 DUP3 PUSH2 0xA65 JUMP JUMPDEST SWAP2 SWAP1 POP JUMP JUMPDEST PUSH0 PUSH8 0xFFFFFFFFFFFFFFFF DUP3 GT ISZERO PUSH2 0xACA JUMPI PUSH2 0xAC9 PUSH2 0xA38 JUMP JUMPDEST JUMPDEST PUSH2 0xAD3 DUP3 PUSH2 0x743 JUMP JUMPDEST SWAP1 POP PUSH1 0x20 DUP2 ADD SWAP1 POP SWAP2 SWAP1 POP JUMP JUMPDEST DUP3 DUP2 DUP4 CALLDATACOPY PUSH0 DUP4 DUP4 ADD MSTORE POP POP POP JUMP JUMPDEST PUSH0 PUSH2 0xB00 PUSH2 0xAFB DUP5 PUSH2 0xAB0 JUMP JUMPDEST PUSH2 0xA96 JUMP JUMPDEST SWAP1 POP DUP3 DUP2 MSTORE PUSH1 0x20 DUP2 ADD DUP5 DUP5 DUP5 ADD GT ISZERO PUSH2 0xB1C JUMPI PUSH2 0xB1B PUSH2 0xA34 JUMP JUMPDEST JUMPDEST PUSH2 0xB27 DUP5 DUP3 DUP6 PUSH2 0xAE0 JUMP JUMPDEST POP SWAP4 SWAP3 POP POP POP JUMP JUMPDEST PUSH0 DUP3 PUSH1 0x1F DUP4 ADD SLT PUSH2 0xB43 JUMPI PUSH2 0xB42 PUSH2 0xA30 JUMP JUMPDEST JUMPDEST DUP2 CALLDATALOAD PUSH2 0xB53 DUP5 DUP3 PUSH1 0x20 DUP7 ADD PUSH2 0xAEE JUMP JUMPDEST SWAP2 POP POP SWAP3 SWAP2 POP POP JUMP JUMPDEST PUSH0 PUSH1 0x20 DUP3 DUP5 SUB SLT ISZERO PUSH2 0xB71 JUMPI PUSH2 0xB70 PUSH2 0x639 JUMP JUMPDEST JUMPDEST PUSH0 DUP3 ADD CALLDATALOAD PUSH8 0xFFFFFFFFFFFFFFFF DUP2 GT ISZERO PUSH2 0xB8E JUMPI PUSH2 0xB8D PUSH2 0x63D JUMP JUMPDEST JUMPDEST PUSH2 0xB9A DUP5 DUP3 DUP6 ADD PUSH2 0xB2F JUMP JUMPDEST SWAP2 POP POP SWAP3 SWAP2 POP POP JUMP JUMPDEST PUSH32 0x4E487B7100000000000000000000000000000000000000000000000000000000 PUSH0 MSTORE PUSH1 0x22 PUSH1 0x4 MSTORE PUSH1 0x24 PUSH0 REVERT JUMPDEST PUSH0 PUSH1 0x2 DUP3 DIV SWAP1 POP PUSH1 0x1 DUP3 AND DUP1 PUSH2 0xBE7 JUMPI PUSH1 0x7F DUP3 AND SWAP2 POP JUMPDEST PUSH1 0x20 DUP3 LT DUP2 SUB PUSH2 0xBFA JUMPI PUSH2 0xBF9 PUSH2 0xBA3 JUMP JUMPDEST JUMPDEST POP SWAP2 SWAP1 POP JUMP JUMPDEST PUSH32 0x4E487B7100000000000000000000000000000000000000000000000000000000 PUSH0 MSTORE PUSH1 0x32 PUSH1 0x4 MSTORE PUSH1 0x24 PUSH0 REVERT JUMPDEST PUSH0 DUP2 SWAP1 POP DUP2 PUSH0 MSTORE PUSH1 0x20 PUSH0 KECCAK256 SWAP1 POP SWAP2 SWAP1 POP JUMP JUMPDEST PUSH0 PUSH1 0x20 PUSH1 0x1F DUP4 ADD DIV SWAP1 POP SWAP2 SWAP1 POP JUMP JUMPDEST PUSH0 DUP3 DUP3 SHL SWAP1 POP SWAP3 SWAP2 POP POP JUMP JUMPDEST PUSH0 PUSH1 0x8 DUP4 MUL PUSH2 0xC89 PUSH32 0xFFFFFFFFFFFFFFFFFFFFFFFFFFFFFFFFFFFFFFFFFFFFFFFFFFFFFFFFFFFFFFFF DUP3 PUSH2 0xC4E JUMP JUMPDEST PUSH2 0xC93 DUP7 DUP4 PUSH2 0xC4E JUMP JUMPDEST SWAP6 POP DUP1 NOT DUP5 AND SWAP4 POP DUP1 DUP7 AND DUP5 OR SWAP3 POP POP POP SWAP4 SWAP3 POP POP POP JUMP JUMPDEST PUSH0 DUP2 SWAP1 POP SWAP2 SWAP1 POP JUMP JUMPDEST PUSH0 PUSH2 0xCCE PUSH2 0xCC9 PUSH2 0xCC4 DUP5 PUSH2 0x69B JUMP JUMPDEST PUSH2 0xCAB JUMP JUMPDEST PUSH2 0x69B JUMP JUMPDEST SWAP1 POP SWAP2 SWAP1 POP JUMP JUMPDEST PUSH0 DUP2 SWAP1 POP SWAP2 SWAP1 POP JUMP JUMPDEST PUSH2 0xCE7 DUP4 PUSH2 0xCB4 JUMP JUMPDEST PUSH2 0xCFB PUSH2 0xCF3 DUP3 PUSH2 0xCD5 JUMP JUMPDEST DUP5 DUP5 SLOAD PUSH2 0xC5A JUMP JUMPDEST DUP3 SSTORE POP POP POP POP JUMP JUMPDEST PUSH0 SWAP1 JUMP JUMPDEST PUSH2 0xD0F PUSH2 0xD03 JUMP JUMPDEST PUSH2 0xD1A DUP2 DUP5 DUP5 PUSH2 0xCDE JUMP JUMPDEST POP POP POP JUMP JUMPDEST JUMPDEST DUP2 DUP2 LT ISZERO PUSH2 0xD3D JUMPI PUSH2 0xD32 PUSH0 DUP3 PUSH2 0xD07 JUMP JUMPDEST PUSH1 0x1 DUP2 ADD SWAP1 POP PUSH2 0xD20 JUMP JUMPDEST POP POP JUMP JUMPDEST PUSH1 0x1F DUP3 GT ISZERO PUSH2 0xD82 JUMPI PUSH2 0xD53 DUP2 PUSH2 0xC2D JUMP JUMPDEST PUSH2 0xD5C DUP5 PUSH2 0xC3F JUMP JUMPDEST DUP2 ADD PUSH1 0x20 DUP6 LT ISZERO PUSH2 0xD6B JUMPI DUP2 SWAP1 POP JUMPDEST PUSH2 0xD7F PUSH2 0xD77 DUP6 PUSH2 0xC3F JUMP JUMPDEST DUP4 ADD DUP3 PUSH2 0xD1F JUMP JUMPDEST POP POP JUMPDEST POP POP POP JUMP JUMPDEST PUSH0 DUP3 DUP3 SHR SWAP1 POP SWAP3 SWAP2 POP POP JUMP JUMPDEST PUSH0 PUSH2 0xDA2 PUSH0 NOT DUP5 PUSH1 0x8 MUL PUSH2 0xD87 JUMP JUMPDEST NOT DUP1 DUP4 AND SWAP2 POP POP SWAP3 SWAP2 POP POP JUMP JUMPDEST PUSH0 PUSH2 0xDBA DUP4 DUP4 PUSH2 0xD93 JUMP JUMPDEST SWAP2 POP DUP3 PUSH1 0x2 MUL DUP3 OR SWAP1 POP SWAP3 SWAP2 POP POP JUMP JUMPDEST PUSH2 0xDD3 DUP3 PUSH2 0x71B JUMP JUMPDEST PUSH8 0xFFFFFFFFFFFFFFFF DUP2 GT ISZERO PUSH2 0xDEC JUMPI PUSH2 0xDEB PUSH2 0xA38 JUMP JUMPDEST JUMPDEST PUSH2 0xDF6 DUP3 SLOAD PUSH2 0xBD0 JUMP JUMPDEST PUSH2 0xE01 DUP3 DUP3 DUP6 PUSH2 0xD41 JUMP JUMPDEST PUSH0 PUSH1 0x20 SWAP1 POP PUSH1 0x1F DUP4 GT PUSH1 0x1 DUP2 EQ PUSH2 0xE32 JUMPI PUSH0 DUP5 ISZERO PUSH2 0xE20 JUMPI DUP3 DUP8 ADD MLOAD SWAP1 POP JUMPDEST PUSH2 0xE2A DUP6 DUP3 PUSH2 0xDAF JUMP JUMPDEST DUP7 SSTORE POP PUSH2 0xE91 JUMP JUMPDEST PUSH1 0x1F NOT DUP5 AND PUSH2 0xE40 DUP7 PUSH2 0xC2D JUMP JUMPDEST PUSH0 JUMPDEST DUP3 DUP2 LT ISZERO PUSH2 0xE67 JUMPI DUP5 DUP10 ADD MLOAD DUP3 SSTORE PUSH1 0x1 DUP3 ADD SWAP2 POP PUSH1 0x20 DUP6 ADD SWAP5 POP PUSH1 0x20 DUP2 ADD SWAP1 POP PUSH2 0xE42 JUMP JUMPDEST DUP7 DUP4 LT ISZERO PUSH2 0xE84 JUMPI DUP5 DUP10 ADD MLOAD PUSH2 0xE80 PUSH1 0x1F DUP10 AND DUP3 PUSH2 0xD93 JUMP JUMPDEST DUP4 SSTORE POP JUMPDEST PUSH1 0x1 PUSH1 0x2 DUP9 MUL ADD DUP9 SSTORE POP POP POP JUMPDEST POP POP POP POP POP POP JUMP INVALID LOG2 PUSH5 0x6970667358 0x22 SLT KECCAK256 MCOPY 0xCE 0xBB DUP10 BLOCKHASH EQ 0xE8 SUB SWAP3 0xBF PUSH30 0x3E87C04C85B78FD0377ADB4EC40965CF41790F03DF64736F6C634300081A STOP CALLER "
				},
				"gasEstimates": {
					"creation": {
						"codeDepositCost": "758200",
						"executionCost": "790",
						"totalCost": "758990"
					},
					"external": {
						"criarPost(string)": "infinite",
						"posts(address,uint256)": "infinite",
						"visualizarPost(address,uint256)": "infinite",
						"visualizarTodosOsPosts(address)": "infinite"
					}
				},
				"methodIdentifiers": {
					"criarPost(string)": "b36fe3f0",
					"posts(address,uint256)": "5c538df3",
					"visualizarPost(address,uint256)": "6de69b24",
					"visualizarTodosOsPosts(address)": "94495c3c"
				}
			},
			"storageLayout": {
				"storage": [
					{
						"astId": 16,
						"contract": "contracts/freeSocial.sol:freeSocial",
						"label": "posts",
						"offset": 0,
						"slot": "0",
						"type": "t_mapping(t_address,t_array(t_struct(Post)10_storage)dyn_storage)"
					}
				],
				"types": {
					"t_address": {
						"encoding": "inplace",
						"label": "address",
						"numberOfBytes": "20"
					},
					"t_array(t_struct(Post)10_storage)dyn_storage": {
						"base": "t_struct(Post)10_storage",
						"encoding": "dynamic_array",
						"label": "struct freeSocial.Post[]",
						"numberOfBytes": "32"
					},
					"t_mapping(t_address,t_array(t_struct(Post)10_storage)dyn_storage)": {
						"encoding": "mapping",
						"key": "t_address",
						"label": "mapping(address => struct freeSocial.Post[])",
						"numberOfBytes": "32",
						"value": "t_array(t_struct(Post)10_storage)dyn_storage"
					},
					"t_string_storage": {
						"encoding": "bytes",
						"label": "string",
						"numberOfBytes": "32"
					},
					"t_struct(Post)10_storage": {
						"encoding": "inplace",
						"label": "struct freeSocial.Post",
						"members": [
							{
								"astId": 3,
								"contract": "contracts/freeSocial.sol:freeSocial",
								"label": "autor",
								"offset": 0,
								"slot": "0",
								"type": "t_address"
							},
							{
								"astId": 5,
								"contract": "contracts/freeSocial.sol:freeSocial",
								"label": "conteudo",
								"offset": 0,
								"slot": "1",
								"type": "t_string_storage"
							},
							{
								"astId": 7,
								"contract": "contracts/freeSocial.sol:freeSocial",
								"label": "dataHora",
								"offset": 0,
								"slot": "2",
								"type": "t_uint256"
							},
							{
								"astId": 9,
								"contract": "contracts/freeSocial.sol:freeSocial",
								"label": "curtidas",
								"offset": 0,
								"slot": "3",
								"type": "t_uint256"
							}
						],
						"numberOfBytes": "128"
					},
					"t_uint256": {
						"encoding": "inplace",
						"label": "uint256",
						"numberOfBytes": "32"
					}
				}
			},
			"userdoc": {
				"kind": "user",
				"methods": {},
				"version": 1
			}
		}
	}
}