{
	"contracts/freeSocial.sol": {
		"freeSocial": {
			"abi": [
				{
					"inputs": [],
					"stateMutability": "nonpayable",
					"type": "constructor"
				},
				{
					"inputs": [],
					"name": "MAXIMO_DE_CARACTERES",
					"outputs": [
						{
							"internalType": "uint16",
							"name": "",
							"type": "uint16"
						}
					],
					"stateMutability": "view",
					"type": "function"
				},
				{
					"inputs": [
						{
							"internalType": "uint16",
							"name": "_novoMaximoDeCaracteres",
							"type": "uint16"
						}
					],
					"name": "alterarMaximoDeCaracteres",
					"outputs": [],
					"stateMutability": "nonpayable",
					"type": "function"
				},
				{
					"inputs": [
						{
							"internalType": "string",
							"name": "_texto",
							"type": "string"
						}
					],
					"name": "criarPost",
					"outputs": [],
					"stateMutability": "nonpayable",
					"type": "function"
				},
				{
					"inputs": [],
					"name": "donoDoContrato",
					"outputs": [
						{
							"internalType": "address",
							"name": "",
							"type": "address"
						}
					],
					"stateMutability": "view",
					"type": "function"
				},
				{
					"inputs": [
						{
							"internalType": "address",
							"name": "",
							"type": "address"
						},
						{
							"internalType": "uint256",
							"name": "",
							"type": "uint256"
						}
					],
					"name": "posts",
					"outputs": [
						{
							"internalType": "address",
							"name": "autor",
							"type": "address"
						},
						{
							"internalType": "string",
							"name": "conteudo",
							"type": "string"
						},
						{
							"internalType": "uint256",
							"name": "dataHora",
							"type": "uint256"
						},
						{
							"internalType": "uint256",
							"name": "curtidas",
							"type": "uint256"
						}
					],
					"stateMutability": "view",
					"type": "function"
				},
				{
					"inputs": [
						{
							"internalType": "address",
							"name": "_criadorDoPost",
							"type": "address"
						},
						{
							"internalType": "uint256",
							"name": "_index",
							"type": "uint256"
						}
					],
					"name": "visualizarPost",
					"outputs": [
						{
							"components": [
								{
									"internalType": "address",
									"name": "autor",
									"type": "address"
								},
								{
									"internalType": "string",
									"name": "conteudo",
									"type": "string"
								},
								{
									"internalType": "uint256",
									"name": "dataHora",
									"type": "uint256"
								},
								{
									"internalType": "uint256",
									"name": "curtidas",
									"type": "uint256"
								}
							],
							"internalType": "struct freeSocial.Post",
							"name": "",
							"type": "tuple"
						}
					],
					"stateMutability": "view",
					"type": "function"
				},
				{
					"inputs": [
						{
							"internalType": "address",
							"name": "_criadorDoPost",
							"type": "address"
						}
					],
					"name": "visualizarTodosOsPosts",
					"outputs": [
						{
							"components": [
								{
									"internalType": "address",
									"name": "autor",
									"type": "address"
								},
								{
									"internalType": "string",
									"name": "conteudo",
									"type": "string"
								},
								{
									"internalType": "uint256",
									"name": "dataHora",
									"type": "uint256"
								},
								{
									"internalType": "uint256",
									"name": "curtidas",
									"type": "uint256"
								}
							],
							"internalType": "struct freeSocial.Post[]",
							"name": "",
							"type": "tuple[]"
						}
					],
					"stateMutability": "view",
					"type": "function"
				}
			],
			"devdoc": {
				"kind": "dev",
				"methods": {},
				"version": 1
			},
			"evm": {
				"assembly": "    /* \"contracts/freeSocial.sol\":62:1460  contract freeSocial {... */\n  mstore(0x40, 0x80)\n    /* \"contracts/freeSocial.sol\":126:129  280 */\n  0x0118\n    /* \"contracts/freeSocial.sol\":89:129  uint16 public MAXIMO_DE_CARACTERES = 280 */\n  0x00\n  dup1\n  0x0100\n  exp\n  dup2\n  sload\n  dup2\n  0xffff\n  mul\n  not\n  and\n  swap1\n  dup4\n  0xffff\n  and\n  mul\n  or\n  swap1\n  sstore\n  pop\n    /* \"contracts/freeSocial.sol\":356:416  constructor() {... */\n  callvalue\n  dup1\n  iszero\n  tag_1\n  jumpi\n  0x00\n  dup1\n  revert\ntag_1:\n  pop\n    /* \"contracts/freeSocial.sol\":398:408  msg.sender */\n  caller\n    /* \"contracts/freeSocial.sol\":381:395  donoDoContrato */\n  0x02\n  0x00\n    /* \"contracts/freeSocial.sol\":381:408  donoDoContrato = msg.sender */\n  0x0100\n  exp\n  dup2\n  sload\n  dup2\n  0xffffffffffffffffffffffffffffffffffffffff\n  mul\n  not\n  and\n  swap1\n  dup4\n  0xffffffffffffffffffffffffffffffffffffffff\n  and\n  mul\n  or\n  swap1\n  sstore\n  pop\n    /* \"contracts/freeSocial.sol\":62:1460  contract freeSocial {... */\n  dataSize(sub_0)\n  dup1\n  dataOffset(sub_0)\n  0x00\n  codecopy\n  0x00\n  return\nstop\n\nsub_0: assembly {\n        /* \"contracts/freeSocial.sol\":62:1460  contract freeSocial {... */\n      mstore(0x40, 0x80)\n      callvalue\n      dup1\n      iszero\n      tag_1\n      jumpi\n      0x00\n      dup1\n      revert\n    tag_1:\n      pop\n      jumpi(tag_2, lt(calldatasize, 0x04))\n      shr(0xe0, calldataload(0x00))\n      dup1\n      0x6de69b24\n      gt\n      tag_10\n      jumpi\n      dup1\n      0x6de69b24\n      eq\n      tag_6\n      jumpi\n      dup1\n      0x94495c3c\n      eq\n      tag_7\n      jumpi\n      dup1\n      0xb36fe3f0\n      eq\n      tag_8\n      jumpi\n      dup1\n      0xfe0ba9de\n      eq\n      tag_9\n      jumpi\n      jump(tag_2)\n    tag_10:\n      dup1\n      0x36013acd\n      eq\n      tag_3\n      jumpi\n      dup1\n      0x49a9839f\n      eq\n      tag_4\n      jumpi\n      dup1\n      0x5c538df3\n      eq\n      tag_5\n      jumpi\n    tag_2:\n      0x00\n      dup1\n      revert\n        /* \"contracts/freeSocial.sol\":89:129  uint16 public MAXIMO_DE_CARACTERES = 280 */\n    tag_3:\n      tag_11\n      tag_12\n      jump\t// in\n    tag_11:\n      mload(0x40)\n      tag_13\n      swap2\n      swap1\n      tag_14\n      jump\t// in\n    tag_13:\n      mload(0x40)\n      dup1\n      swap2\n      sub\n      swap1\n      return\n        /* \"contracts/freeSocial.sol\":992:1152  function alterarMaximoDeCaracteres(uint16 _novoMaximoDeCaracteres) public apenasDonoDoContrato {... */\n    tag_4:\n      tag_15\n      0x04\n      dup1\n      calldatasize\n      sub\n      dup2\n      add\n      swap1\n      tag_16\n      swap2\n      swap1\n      tag_17\n      jump\t// in\n    tag_16:\n      tag_18\n      jump\t// in\n    tag_15:\n      stop\n        /* \"contracts/freeSocial.sol\":270:309  mapping(address => Post[]) public posts */\n    tag_5:\n      tag_19\n      0x04\n      dup1\n      calldatasize\n      sub\n      dup2\n      add\n      swap1\n      tag_20\n      swap2\n      swap1\n      tag_21\n      jump\t// in\n    tag_20:\n      tag_22\n      jump\t// in\n    tag_19:\n      mload(0x40)\n      tag_23\n      swap5\n      swap4\n      swap3\n      swap2\n      swap1\n      tag_24\n      jump\t// in\n    tag_23:\n      mload(0x40)\n      dup1\n      swap2\n      sub\n      swap1\n      return\n        /* \"contracts/freeSocial.sol\":1160:1310  function visualizarPost(address _criadorDoPost, uint _index) public view returns (Post memory) {... */\n    tag_6:\n      tag_25\n      0x04\n      dup1\n      calldatasize\n      sub\n      dup2\n      add\n      swap1\n      tag_26\n      swap2\n      swap1\n      tag_21\n      jump\t// in\n    tag_26:\n      tag_27\n      jump\t// in\n    tag_25:\n      mload(0x40)\n      tag_28\n      swap2\n      swap1\n      tag_29\n      jump\t// in\n    tag_28:\n      mload(0x40)\n      dup1\n      swap2\n      sub\n      swap1\n      return\n        /* \"contracts/freeSocial.sol\":1318:1457  function visualizarTodosOsPosts(address _criadorDoPost) public view returns (Post[] memory) {... */\n    tag_7:\n      tag_30\n      0x04\n      dup1\n      calldatasize\n      sub\n      dup2\n      add\n      swap1\n      tag_31\n      swap2\n      swap1\n      tag_32\n      jump\t// in\n    tag_31:\n      tag_33\n      jump\t// in\n    tag_30:\n      mload(0x40)\n      tag_34\n      swap2\n      swap1\n      tag_35\n      jump\t// in\n    tag_34:\n      mload(0x40)\n      dup1\n      swap2\n      sub\n      swap1\n      return\n        /* \"contracts/freeSocial.sol\":586:984  function criarPost(string memory _texto) public {... */\n    tag_8:\n      tag_36\n      0x04\n      dup1\n      calldatasize\n      sub\n      dup2\n      add\n      swap1\n      tag_37\n      swap2\n      swap1\n      tag_38\n      jump\t// in\n    tag_37:\n      tag_39\n      jump\t// in\n    tag_36:\n      stop\n        /* \"contracts/freeSocial.sol\":318:347  address public donoDoContrato */\n    tag_9:\n      tag_40\n      tag_41\n      jump\t// in\n    tag_40:\n      mload(0x40)\n      tag_42\n      swap2\n      swap1\n      tag_43\n      jump\t// in\n    tag_42:\n      mload(0x40)\n      dup1\n      swap2\n      sub\n      swap1\n      return\n        /* \"contracts/freeSocial.sol\":89:129  uint16 public MAXIMO_DE_CARACTERES = 280 */\n    tag_12:\n      0x00\n      dup1\n      sload\n      swap1\n      0x0100\n      exp\n      swap1\n      div\n      0xffff\n      and\n      dup2\n      jump\t// out\n        /* \"contracts/freeSocial.sol\":992:1152  function alterarMaximoDeCaracteres(uint16 _novoMaximoDeCaracteres) public apenasDonoDoContrato {... */\n    tag_18:\n        /* \"contracts/freeSocial.sol\":487:501  donoDoContrato */\n      0x02\n      0x00\n      swap1\n      sload\n      swap1\n      0x0100\n      exp\n      swap1\n      div\n      0xffffffffffffffffffffffffffffffffffffffff\n      and\n        /* \"contracts/freeSocial.sol\":473:501  msg.sender == donoDoContrato */\n      0xffffffffffffffffffffffffffffffffffffffff\n      and\n        /* \"contracts/freeSocial.sol\":473:483  msg.sender */\n      caller\n        /* \"contracts/freeSocial.sol\":473:501  msg.sender == donoDoContrato */\n      0xffffffffffffffffffffffffffffffffffffffff\n      and\n      eq\n        /* \"contracts/freeSocial.sol\":465:558  require(msg.sender == donoDoContrato, \"Apenas o dono do contrato pode executar essa funcao!\") */\n      tag_45\n      jumpi\n      mload(0x40)\n      0x08c379a000000000000000000000000000000000000000000000000000000000\n      dup2\n      mstore\n      0x04\n      add\n      tag_46\n      swap1\n      tag_47\n      jump\t// in\n    tag_46:\n      mload(0x40)\n      dup1\n      swap2\n      sub\n      swap1\n      revert\n    tag_45:\n        /* \"contracts/freeSocial.sol\":1121:1144  _novoMaximoDeCaracteres */\n      dup1\n        /* \"contracts/freeSocial.sol\":1098:1118  MAXIMO_DE_CARACTERES */\n      0x00\n      dup1\n        /* \"contracts/freeSocial.sol\":1098:1144  MAXIMO_DE_CARACTERES = _novoMaximoDeCaracteres */\n      0x0100\n      exp\n      dup2\n      sload\n      dup2\n      0xffff\n      mul\n      not\n      and\n      swap1\n      dup4\n      0xffff\n      and\n      mul\n      or\n      swap1\n      sstore\n      pop\n        /* \"contracts/freeSocial.sol\":992:1152  function alterarMaximoDeCaracteres(uint16 _novoMaximoDeCaracteres) public apenasDonoDoContrato {... */\n      pop\n      jump\t// out\n        /* \"contracts/freeSocial.sol\":270:309  mapping(address => Post[]) public posts */\n    tag_22:\n      mstore(0x20, 0x01)\n      dup2\n      0x00\n      mstore\n      keccak256(0x00, 0x40)\n      dup2\n      dup2\n      sload\n      dup2\n      lt\n      tag_49\n      jumpi\n      0x00\n      dup1\n      revert\n    tag_49:\n      swap1\n      0x00\n      mstore\n      keccak256(0x00, 0x20)\n      swap1\n      0x04\n      mul\n      add\n      0x00\n      swap2\n      pop\n      swap2\n      pop\n      pop\n      dup1\n      0x00\n      add\n      0x00\n      swap1\n      sload\n      swap1\n      0x0100\n      exp\n      swap1\n      div\n      0xffffffffffffffffffffffffffffffffffffffff\n      and\n      swap1\n      dup1\n      0x01\n      add\n      dup1\n      sload\n      tag_51\n      swap1\n      tag_52\n      jump\t// in\n    tag_51:\n      dup1\n      0x1f\n      add\n      0x20\n      dup1\n      swap2\n      div\n      mul\n      0x20\n      add\n      mload(0x40)\n      swap1\n      dup2\n      add\n      0x40\n      mstore\n      dup1\n      swap3\n      swap2\n      swap1\n      dup2\n      dup2\n      mstore\n      0x20\n      add\n      dup3\n      dup1\n      sload\n      tag_53\n      swap1\n      tag_52\n      jump\t// in\n    tag_53:\n      dup1\n      iszero\n      tag_54\n      jumpi\n      dup1\n      0x1f\n      lt\n      tag_55\n      jumpi\n      0x0100\n      dup1\n      dup4\n      sload\n      div\n      mul\n      dup4\n      mstore\n      swap2\n      0x20\n      add\n      swap2\n      jump(tag_54)\n    tag_55:\n      dup3\n      add\n      swap2\n      swap1\n      0x00\n      mstore\n      keccak256(0x00, 0x20)\n      swap1\n    tag_56:\n      dup2\n      sload\n      dup2\n      mstore\n      swap1\n      0x01\n      add\n      swap1\n      0x20\n      add\n      dup1\n      dup4\n      gt\n      tag_56\n      jumpi\n      dup3\n      swap1\n      sub\n      0x1f\n      and\n      dup3\n      add\n      swap2\n    tag_54:\n      pop\n      pop\n      pop\n      pop\n      pop\n      swap1\n      dup1\n      0x02\n      add\n      sload\n      swap1\n      dup1\n      0x03\n      add\n      sload\n      swap1\n      pop\n      dup5\n      jump\t// out\n        /* \"contracts/freeSocial.sol\":1160:1310  function visualizarPost(address _criadorDoPost, uint _index) public view returns (Post memory) {... */\n    tag_27:\n        /* \"contracts/freeSocial.sol\":1242:1253  Post memory */\n      tag_57\n      tag_58\n      jump\t// in\n    tag_57:\n        /* \"contracts/freeSocial.sol\":1273:1278  posts */\n      0x01\n        /* \"contracts/freeSocial.sol\":1273:1294  posts[_criadorDoPost] */\n      0x00\n        /* \"contracts/freeSocial.sol\":1279:1293  _criadorDoPost */\n      dup5\n        /* \"contracts/freeSocial.sol\":1273:1294  posts[_criadorDoPost] */\n      0xffffffffffffffffffffffffffffffffffffffff\n      and\n      0xffffffffffffffffffffffffffffffffffffffff\n      and\n      dup2\n      mstore\n      0x20\n      add\n      swap1\n      dup2\n      mstore\n      0x20\n      add\n      0x00\n      keccak256\n        /* \"contracts/freeSocial.sol\":1295:1301  _index */\n      dup3\n        /* \"contracts/freeSocial.sol\":1273:1302  posts[_criadorDoPost][_index] */\n      dup2\n      sload\n      dup2\n      lt\n      tag_60\n      jumpi\n      tag_61\n      tag_62\n      jump\t// in\n    tag_61:\n    tag_60:\n      swap1\n      0x00\n      mstore\n      keccak256(0x00, 0x20)\n      swap1\n      0x04\n      mul\n      add\n        /* \"contracts/freeSocial.sol\":1266:1302  return posts[_criadorDoPost][_index] */\n      mload(0x40)\n      dup1\n      0x80\n      add\n      0x40\n      mstore\n      swap1\n      dup2\n      0x00\n      dup3\n      add\n      0x00\n      swap1\n      sload\n      swap1\n      0x0100\n      exp\n      swap1\n      div\n      0xffffffffffffffffffffffffffffffffffffffff\n      and\n      0xffffffffffffffffffffffffffffffffffffffff\n      and\n      0xffffffffffffffffffffffffffffffffffffffff\n      and\n      dup2\n      mstore\n      0x20\n      add\n      0x01\n      dup3\n      add\n      dup1\n      sload\n      tag_64\n      swap1\n      tag_52\n      jump\t// in\n    tag_64:\n      dup1\n      0x1f\n      add\n      0x20\n      dup1\n      swap2\n      div\n      mul\n      0x20\n      add\n      mload(0x40)\n      swap1\n      dup2\n      add\n      0x40\n      mstore\n      dup1\n      swap3\n      swap2\n      swap1\n      dup2\n      dup2\n      mstore\n      0x20\n      add\n      dup3\n      dup1\n      sload\n      tag_65\n      swap1\n      tag_52\n      jump\t// in\n    tag_65:\n      dup1\n      iszero\n      tag_66\n      jumpi\n      dup1\n      0x1f\n      lt\n      tag_67\n      jumpi\n      0x0100\n      dup1\n      dup4\n      sload\n      div\n      mul\n      dup4\n      mstore\n      swap2\n      0x20\n      add\n      swap2\n      jump(tag_66)\n    tag_67:\n      dup3\n      add\n      swap2\n      swap1\n      0x00\n      mstore\n      keccak256(0x00, 0x20)\n      swap1\n    tag_68:\n      dup2\n      sload\n      dup2\n      mstore\n      swap1\n      0x01\n      add\n      swap1\n      0x20\n      add\n      dup1\n      dup4\n      gt\n      tag_68\n      jumpi\n      dup3\n      swap1\n      sub\n      0x1f\n      and\n      dup3\n      add\n      swap2\n    tag_66:\n      pop\n      pop\n      pop\n      pop\n      pop\n      dup2\n      mstore\n      0x20\n      add\n      0x02\n      dup3\n      add\n      sload\n      dup2\n      mstore\n      0x20\n      add\n      0x03\n      dup3\n      add\n      sload\n      dup2\n      mstore\n      pop\n      pop\n      swap1\n      pop\n        /* \"contracts/freeSocial.sol\":1160:1310  function visualizarPost(address _criadorDoPost, uint _index) public view returns (Post memory) {... */\n      swap3\n      swap2\n      pop\n      pop\n      jump\t// out\n        /* \"contracts/freeSocial.sol\":1318:1457  function visualizarTodosOsPosts(address _criadorDoPost) public view returns (Post[] memory) {... */\n    tag_33:\n        /* \"contracts/freeSocial.sol\":1395:1408  Post[] memory */\n      0x60\n        /* \"contracts/freeSocial.sol\":1428:1433  posts */\n      0x01\n        /* \"contracts/freeSocial.sol\":1428:1449  posts[_criadorDoPost] */\n      0x00\n        /* \"contracts/freeSocial.sol\":1434:1448  _criadorDoPost */\n      dup4\n        /* \"contracts/freeSocial.sol\":1428:1449  posts[_criadorDoPost] */\n      0xffffffffffffffffffffffffffffffffffffffff\n      and\n      0xffffffffffffffffffffffffffffffffffffffff\n      and\n      dup2\n      mstore\n      0x20\n      add\n      swap1\n      dup2\n      mstore\n      0x20\n      add\n      0x00\n      keccak256\n        /* \"contracts/freeSocial.sol\":1421:1449  return posts[_criadorDoPost] */\n      dup1\n      sload\n      dup1\n      0x20\n      mul\n      0x20\n      add\n      mload(0x40)\n      swap1\n      dup2\n      add\n      0x40\n      mstore\n      dup1\n      swap3\n      swap2\n      swap1\n      dup2\n      dup2\n      mstore\n      0x20\n      add\n      0x00\n      swap1\n    tag_70:\n      dup3\n      dup3\n      lt\n      iszero\n      tag_71\n      jumpi\n      dup4\n      dup3\n      swap1\n      0x00\n      mstore\n      keccak256(0x00, 0x20)\n      swap1\n      0x04\n      mul\n      add\n      mload(0x40)\n      dup1\n      0x80\n      add\n      0x40\n      mstore\n      swap1\n      dup2\n      0x00\n      dup3\n      add\n      0x00\n      swap1\n      sload\n      swap1\n      0x0100\n      exp\n      swap1\n      div\n      0xffffffffffffffffffffffffffffffffffffffff\n      and\n      0xffffffffffffffffffffffffffffffffffffffff\n      and\n      0xffffffffffffffffffffffffffffffffffffffff\n      and\n      dup2\n      mstore\n      0x20\n      add\n      0x01\n      dup3\n      add\n      dup1\n      sload\n      tag_73\n      swap1\n      tag_52\n      jump\t// in\n    tag_73:\n      dup1\n      0x1f\n      add\n      0x20\n      dup1\n      swap2\n      div\n      mul\n      0x20\n      add\n      mload(0x40)\n      swap1\n      dup2\n      add\n      0x40\n      mstore\n      dup1\n      swap3\n      swap2\n      swap1\n      dup2\n      dup2\n      mstore\n      0x20\n      add\n      dup3\n      dup1\n      sload\n      tag_74\n      swap1\n      tag_52\n      jump\t// in\n    tag_74:\n      dup1\n      iszero\n      tag_75\n      jumpi\n      dup1\n      0x1f\n      lt\n      tag_76\n      jumpi\n      0x0100\n      dup1\n      dup4\n      sload\n      div\n      mul\n      dup4\n      mstore\n      swap2\n      0x20\n      add\n      swap2\n      jump(tag_75)\n    tag_76:\n      dup3\n      add\n      swap2\n      swap1\n      0x00\n      mstore\n      keccak256(0x00, 0x20)\n      swap1\n    tag_77:\n      dup2\n      sload\n      dup2\n      mstore\n      swap1\n      0x01\n      add\n      swap1\n      0x20\n      add\n      dup1\n      dup4\n      gt\n      tag_77\n      jumpi\n      dup3\n      swap1\n      sub\n      0x1f\n      and\n      dup3\n      add\n      swap2\n    tag_75:\n      pop\n      pop\n      pop\n      pop\n      pop\n      dup2\n      mstore\n      0x20\n      add\n      0x02\n      dup3\n      add\n      sload\n      dup2\n      mstore\n      0x20\n      add\n      0x03\n      dup3\n      add\n      sload\n      dup2\n      mstore\n      pop\n      pop\n      dup2\n      mstore\n      0x20\n      add\n      swap1\n      0x01\n      add\n      swap1\n      jump(tag_70)\n    tag_71:\n      pop\n      pop\n      pop\n      pop\n      swap1\n      pop\n        /* \"contracts/freeSocial.sol\":1318:1457  function visualizarTodosOsPosts(address _criadorDoPost) public view returns (Post[] memory) {... */\n      swap2\n      swap1\n      pop\n      jump\t// out\n        /* \"contracts/freeSocial.sol\":586:984  function criarPost(string memory _texto) public {... */\n    tag_39:\n        /* \"contracts/freeSocial.sol\":677:697  MAXIMO_DE_CARACTERES */\n      0x00\n      dup1\n      sload\n      swap1\n      0x0100\n      exp\n      swap1\n      div\n      0xffff\n      and\n        /* \"contracts/freeSocial.sol\":653:697  bytes(_texto).length <= MAXIMO_DE_CARACTERES */\n      0xffff\n      and\n        /* \"contracts/freeSocial.sol\":659:665  _texto */\n      dup2\n        /* \"contracts/freeSocial.sol\":653:673  bytes(_texto).length */\n      mload\n        /* \"contracts/freeSocial.sol\":653:697  bytes(_texto).length <= MAXIMO_DE_CARACTERES */\n      gt\n      iszero\n        /* \"contracts/freeSocial.sol\":645:751  require(bytes(_texto).length <= MAXIMO_DE_CARACTERES, \"Quantidade maxima de caracteres foi ultrapassada!\") */\n      tag_79\n      jumpi\n      mload(0x40)\n      0x08c379a000000000000000000000000000000000000000000000000000000000\n      dup2\n      mstore\n      0x04\n      add\n      tag_80\n      swap1\n      tag_81\n      jump\t// in\n    tag_80:\n      mload(0x40)\n      dup1\n      swap2\n      sub\n      swap1\n      revert\n    tag_79:\n        /* \"contracts/freeSocial.sol\":764:783  Post memory newPost */\n      0x00\n        /* \"contracts/freeSocial.sol\":786:932  Post({... */\n      mload(0x40)\n      dup1\n      0x80\n      add\n      0x40\n      mstore\n      dup1\n        /* \"contracts/freeSocial.sol\":813:823  msg.sender */\n      caller\n        /* \"contracts/freeSocial.sol\":786:932  Post({... */\n      0xffffffffffffffffffffffffffffffffffffffff\n      and\n      dup2\n      mstore\n      0x20\n      add\n        /* \"contracts/freeSocial.sol\":848:854  _texto */\n      dup4\n        /* \"contracts/freeSocial.sol\":786:932  Post({... */\n      dup2\n      mstore\n      0x20\n      add\n        /* \"contracts/freeSocial.sol\":879:894  block.timestamp */\n      timestamp\n        /* \"contracts/freeSocial.sol\":786:932  Post({... */\n      dup2\n      mstore\n      0x20\n      add\n        /* \"contracts/freeSocial.sol\":919:920  0 */\n      0x00\n        /* \"contracts/freeSocial.sol\":786:932  Post({... */\n      dup2\n      mstore\n      pop\n        /* \"contracts/freeSocial.sol\":764:932  Post memory newPost = Post({... */\n      swap1\n      pop\n        /* \"contracts/freeSocial.sol\":945:950  posts */\n      0x01\n        /* \"contracts/freeSocial.sol\":945:962  posts[msg.sender] */\n      0x00\n        /* \"contracts/freeSocial.sol\":951:961  msg.sender */\n      caller\n        /* \"contracts/freeSocial.sol\":945:962  posts[msg.sender] */\n      0xffffffffffffffffffffffffffffffffffffffff\n      and\n      0xffffffffffffffffffffffffffffffffffffffff\n      and\n      dup2\n      mstore\n      0x20\n      add\n      swap1\n      dup2\n      mstore\n      0x20\n      add\n      0x00\n      keccak256\n        /* \"contracts/freeSocial.sol\":968:975  newPost */\n      dup2\n        /* \"contracts/freeSocial.sol\":945:976  posts[msg.sender].push(newPost) */\n      swap1\n      dup1\n      0x01\n      dup2\n      sload\n      add\n      dup1\n      dup3\n      sstore\n      dup1\n      swap2\n      pop\n      pop\n      0x01\n      swap1\n      sub\n      swap1\n      0x00\n      mstore\n      keccak256(0x00, 0x20)\n      swap1\n      0x04\n      mul\n      add\n      0x00\n      swap1\n      swap2\n      swap1\n      swap2\n      swap1\n      swap2\n      pop\n      0x00\n      dup3\n      add\n      mload\n      dup2\n      0x00\n      add\n      exp(0x0100, 0x00)\n      dup2\n      sload\n      dup2\n      0xffffffffffffffffffffffffffffffffffffffff\n      mul\n      not\n      and\n      swap1\n      dup4\n      0xffffffffffffffffffffffffffffffffffffffff\n      and\n      mul\n      or\n      swap1\n      sstore\n      pop\n      0x20\n      dup3\n      add\n      mload\n      dup2\n      0x01\n      add\n      swap1\n      dup2\n      tag_83\n      swap2\n      swap1\n      tag_84\n      jump\t// in\n    tag_83:\n      pop\n      0x40\n      dup3\n      add\n      mload\n      dup2\n      0x02\n      add\n      sstore\n      0x60\n      dup3\n      add\n      mload\n      dup2\n      0x03\n      add\n      sstore\n      pop\n      pop\n        /* \"contracts/freeSocial.sol\":634:984  {... */\n      pop\n        /* \"contracts/freeSocial.sol\":586:984  function criarPost(string memory _texto) public {... */\n      pop\n      jump\t// out\n        /* \"contracts/freeSocial.sol\":318:347  address public donoDoContrato */\n    tag_41:\n      0x02\n      0x00\n      swap1\n      sload\n      swap1\n      0x0100\n      exp\n      swap1\n      div\n      0xffffffffffffffffffffffffffffffffffffffff\n      and\n      dup2\n      jump\t// out\n    tag_58:\n      mload(0x40)\n      dup1\n      0x80\n      add\n      0x40\n      mstore\n      dup1\n      and(0xffffffffffffffffffffffffffffffffffffffff, 0x00)\n      dup2\n      mstore\n      0x20\n      add\n      0x60\n      dup2\n      mstore\n      0x20\n      add\n      0x00\n      dup2\n      mstore\n      0x20\n      add\n      0x00\n      dup2\n      mstore\n      pop\n      swap1\n      jump\t// out\n        /* \"#utility.yul\":7:96   */\n    tag_85:\n        /* \"#utility.yul\":43:50   */\n      0x00\n        /* \"#utility.yul\":83:89   */\n      0xffff\n        /* \"#utility.yul\":76:81   */\n      dup3\n        /* \"#utility.yul\":72:90   */\n      and\n        /* \"#utility.yul\":61:90   */\n      swap1\n      pop\n        /* \"#utility.yul\":7:96   */\n      swap2\n      swap1\n      pop\n      jump\t// out\n        /* \"#utility.yul\":102:217   */\n    tag_86:\n        /* \"#utility.yul\":187:210   */\n      tag_150\n        /* \"#utility.yul\":204:209   */\n      dup2\n        /* \"#utility.yul\":187:210   */\n      tag_85\n      jump\t// in\n    tag_150:\n        /* \"#utility.yul\":182:185   */\n      dup3\n        /* \"#utility.yul\":175:211   */\n      mstore\n        /* \"#utility.yul\":102:217   */\n      pop\n      pop\n      jump\t// out\n        /* \"#utility.yul\":223:441   */\n    tag_14:\n        /* \"#utility.yul\":314:318   */\n      0x00\n        /* \"#utility.yul\":352:354   */\n      0x20\n        /* \"#utility.yul\":341:350   */\n      dup3\n        /* \"#utility.yul\":337:355   */\n      add\n        /* \"#utility.yul\":329:355   */\n      swap1\n      pop\n        /* \"#utility.yul\":365:434   */\n      tag_152\n        /* \"#utility.yul\":431:432   */\n      0x00\n        /* \"#utility.yul\":420:429   */\n      dup4\n        /* \"#utility.yul\":416:433   */\n      add\n        /* \"#utility.yul\":407:413   */\n      dup5\n        /* \"#utility.yul\":365:434   */\n      tag_86\n      jump\t// in\n    tag_152:\n        /* \"#utility.yul\":223:441   */\n      swap3\n      swap2\n      pop\n      pop\n      jump\t// out\n        /* \"#utility.yul\":447:522   */\n    tag_87:\n        /* \"#utility.yul\":480:486   */\n      0x00\n        /* \"#utility.yul\":513:515   */\n      0x40\n        /* \"#utility.yul\":507:516   */\n      mload\n        /* \"#utility.yul\":497:516   */\n      swap1\n      pop\n        /* \"#utility.yul\":447:522   */\n      swap1\n      jump\t// out\n        /* \"#utility.yul\":528:645   */\n    tag_88:\n        /* \"#utility.yul\":637:638   */\n      0x00\n        /* \"#utility.yul\":634:635   */\n      dup1\n        /* \"#utility.yul\":627:639   */\n      revert\n        /* \"#utility.yul\":651:768   */\n    tag_89:\n        /* \"#utility.yul\":760:761   */\n      0x00\n        /* \"#utility.yul\":757:758   */\n      dup1\n        /* \"#utility.yul\":750:762   */\n      revert\n        /* \"#utility.yul\":774:894   */\n    tag_90:\n        /* \"#utility.yul\":846:869   */\n      tag_157\n        /* \"#utility.yul\":863:868   */\n      dup2\n        /* \"#utility.yul\":846:869   */\n      tag_85\n      jump\t// in\n    tag_157:\n        /* \"#utility.yul\":839:844   */\n      dup2\n        /* \"#utility.yul\":836:870   */\n      eq\n        /* \"#utility.yul\":826:888   */\n      tag_158\n      jumpi\n        /* \"#utility.yul\":884:885   */\n      0x00\n        /* \"#utility.yul\":881:882   */\n      dup1\n        /* \"#utility.yul\":874:886   */\n      revert\n        /* \"#utility.yul\":826:888   */\n    tag_158:\n        /* \"#utility.yul\":774:894   */\n      pop\n      jump\t// out\n        /* \"#utility.yul\":900:1037   */\n    tag_91:\n        /* \"#utility.yul\":945:950   */\n      0x00\n        /* \"#utility.yul\":983:989   */\n      dup2\n        /* \"#utility.yul\":970:990   */\n      calldataload\n        /* \"#utility.yul\":961:990   */\n      swap1\n      pop\n        /* \"#utility.yul\":999:1031   */\n      tag_160\n        /* \"#utility.yul\":1025:1030   */\n      dup2\n        /* \"#utility.yul\":999:1031   */\n      tag_90\n      jump\t// in\n    tag_160:\n        /* \"#utility.yul\":900:1037   */\n      swap3\n      swap2\n      pop\n      pop\n      jump\t// out\n        /* \"#utility.yul\":1043:1370   */\n    tag_17:\n        /* \"#utility.yul\":1101:1107   */\n      0x00\n        /* \"#utility.yul\":1150:1152   */\n      0x20\n        /* \"#utility.yul\":1138:1147   */\n      dup3\n        /* \"#utility.yul\":1129:1136   */\n      dup5\n        /* \"#utility.yul\":1125:1148   */\n      sub\n        /* \"#utility.yul\":1121:1153   */\n      slt\n        /* \"#utility.yul\":1118:1237   */\n      iszero\n      tag_162\n      jumpi\n        /* \"#utility.yul\":1156:1235   */\n      tag_163\n      tag_88\n      jump\t// in\n    tag_163:\n        /* \"#utility.yul\":1118:1237   */\n    tag_162:\n        /* \"#utility.yul\":1276:1277   */\n      0x00\n        /* \"#utility.yul\":1301:1353   */\n      tag_164\n        /* \"#utility.yul\":1345:1352   */\n      dup5\n        /* \"#utility.yul\":1336:1342   */\n      dup3\n        /* \"#utility.yul\":1325:1334   */\n      dup6\n        /* \"#utility.yul\":1321:1343   */\n      add\n        /* \"#utility.yul\":1301:1353   */\n      tag_91\n      jump\t// in\n    tag_164:\n        /* \"#utility.yul\":1291:1353   */\n      swap2\n      pop\n        /* \"#utility.yul\":1247:1363   */\n      pop\n        /* \"#utility.yul\":1043:1370   */\n      swap3\n      swap2\n      pop\n      pop\n      jump\t// out\n        /* \"#utility.yul\":1376:1502   */\n    tag_92:\n        /* \"#utility.yul\":1413:1420   */\n      0x00\n        /* \"#utility.yul\":1453:1495   */\n      0xffffffffffffffffffffffffffffffffffffffff\n        /* \"#utility.yul\":1446:1451   */\n      dup3\n        /* \"#utility.yul\":1442:1496   */\n      and\n        /* \"#utility.yul\":1431:1496   */\n      swap1\n      pop\n        /* \"#utility.yul\":1376:1502   */\n      swap2\n      swap1\n      pop\n      jump\t// out\n        /* \"#utility.yul\":1508:1604   */\n    tag_93:\n        /* \"#utility.yul\":1545:1552   */\n      0x00\n        /* \"#utility.yul\":1574:1598   */\n      tag_167\n        /* \"#utility.yul\":1592:1597   */\n      dup3\n        /* \"#utility.yul\":1574:1598   */\n      tag_92\n      jump\t// in\n    tag_167:\n        /* \"#utility.yul\":1563:1598   */\n      swap1\n      pop\n        /* \"#utility.yul\":1508:1604   */\n      swap2\n      swap1\n      pop\n      jump\t// out\n        /* \"#utility.yul\":1610:1732   */\n    tag_94:\n        /* \"#utility.yul\":1683:1707   */\n      tag_169\n        /* \"#utility.yul\":1701:1706   */\n      dup2\n        /* \"#utility.yul\":1683:1707   */\n      tag_93\n      jump\t// in\n    tag_169:\n        /* \"#utility.yul\":1676:1681   */\n      dup2\n        /* \"#utility.yul\":1673:1708   */\n      eq\n        /* \"#utility.yul\":1663:1726   */\n      tag_170\n      jumpi\n        /* \"#utility.yul\":1722:1723   */\n      0x00\n        /* \"#utility.yul\":1719:1720   */\n      dup1\n        /* \"#utility.yul\":1712:1724   */\n      revert\n        /* \"#utility.yul\":1663:1726   */\n    tag_170:\n        /* \"#utility.yul\":1610:1732   */\n      pop\n      jump\t// out\n        /* \"#utility.yul\":1738:1877   */\n    tag_95:\n        /* \"#utility.yul\":1784:1789   */\n      0x00\n        /* \"#utility.yul\":1822:1828   */\n      dup2\n        /* \"#utility.yul\":1809:1829   */\n      calldataload\n        /* \"#utility.yul\":1800:1829   */\n      swap1\n      pop\n        /* \"#utility.yul\":1838:1871   */\n      tag_172\n        /* \"#utility.yul\":1865:1870   */\n      dup2\n        /* \"#utility.yul\":1838:1871   */\n      tag_94\n      jump\t// in\n    tag_172:\n        /* \"#utility.yul\":1738:1877   */\n      swap3\n      swap2\n      pop\n      pop\n      jump\t// out\n        /* \"#utility.yul\":1883:1960   */\n    tag_96:\n        /* \"#utility.yul\":1920:1927   */\n      0x00\n        /* \"#utility.yul\":1949:1954   */\n      dup2\n        /* \"#utility.yul\":1938:1954   */\n      swap1\n      pop\n        /* \"#utility.yul\":1883:1960   */\n      swap2\n      swap1\n      pop\n      jump\t// out\n        /* \"#utility.yul\":1966:2088   */\n    tag_97:\n        /* \"#utility.yul\":2039:2063   */\n      tag_175\n        /* \"#utility.yul\":2057:2062   */\n      dup2\n        /* \"#utility.yul\":2039:2063   */\n      tag_96\n      jump\t// in\n    tag_175:\n        /* \"#utility.yul\":2032:2037   */\n      dup2\n        /* \"#utility.yul\":2029:2064   */\n      eq\n        /* \"#utility.yul\":2019:2082   */\n      tag_176\n      jumpi\n        /* \"#utility.yul\":2078:2079   */\n      0x00\n        /* \"#utility.yul\":2075:2076   */\n      dup1\n        /* \"#utility.yul\":2068:2080   */\n      revert\n        /* \"#utility.yul\":2019:2082   */\n    tag_176:\n        /* \"#utility.yul\":1966:2088   */\n      pop\n      jump\t// out\n        /* \"#utility.yul\":2094:2233   */\n    tag_98:\n        /* \"#utility.yul\":2140:2145   */\n      0x00\n        /* \"#utility.yul\":2178:2184   */\n      dup2\n        /* \"#utility.yul\":2165:2185   */\n      calldataload\n        /* \"#utility.yul\":2156:2185   */\n      swap1\n      pop\n        /* \"#utility.yul\":2194:2227   */\n      tag_178\n        /* \"#utility.yul\":2221:2226   */\n      dup2\n        /* \"#utility.yul\":2194:2227   */\n      tag_97\n      jump\t// in\n    tag_178:\n        /* \"#utility.yul\":2094:2233   */\n      swap3\n      swap2\n      pop\n      pop\n      jump\t// out\n        /* \"#utility.yul\":2239:2713   */\n    tag_21:\n        /* \"#utility.yul\":2307:2313   */\n      0x00\n        /* \"#utility.yul\":2315:2321   */\n      dup1\n        /* \"#utility.yul\":2364:2366   */\n      0x40\n        /* \"#utility.yul\":2352:2361   */\n      dup4\n        /* \"#utility.yul\":2343:2350   */\n      dup6\n        /* \"#utility.yul\":2339:2362   */\n      sub\n        /* \"#utility.yul\":2335:2367   */\n      slt\n        /* \"#utility.yul\":2332:2451   */\n      iszero\n      tag_180\n      jumpi\n        /* \"#utility.yul\":2370:2449   */\n      tag_181\n      tag_88\n      jump\t// in\n    tag_181:\n        /* \"#utility.yul\":2332:2451   */\n    tag_180:\n        /* \"#utility.yul\":2490:2491   */\n      0x00\n        /* \"#utility.yul\":2515:2568   */\n      tag_182\n        /* \"#utility.yul\":2560:2567   */\n      dup6\n        /* \"#utility.yul\":2551:2557   */\n      dup3\n        /* \"#utility.yul\":2540:2549   */\n      dup7\n        /* \"#utility.yul\":2536:2558   */\n      add\n        /* \"#utility.yul\":2515:2568   */\n      tag_95\n      jump\t// in\n    tag_182:\n        /* \"#utility.yul\":2505:2568   */\n      swap3\n      pop\n        /* \"#utility.yul\":2461:2578   */\n      pop\n        /* \"#utility.yul\":2617:2619   */\n      0x20\n        /* \"#utility.yul\":2643:2696   */\n      tag_183\n        /* \"#utility.yul\":2688:2695   */\n      dup6\n        /* \"#utility.yul\":2679:2685   */\n      dup3\n        /* \"#utility.yul\":2668:2677   */\n      dup7\n        /* \"#utility.yul\":2664:2686   */\n      add\n        /* \"#utility.yul\":2643:2696   */\n      tag_98\n      jump\t// in\n    tag_183:\n        /* \"#utility.yul\":2633:2696   */\n      swap2\n      pop\n        /* \"#utility.yul\":2588:2706   */\n      pop\n        /* \"#utility.yul\":2239:2713   */\n      swap3\n      pop\n      swap3\n      swap1\n      pop\n      jump\t// out\n        /* \"#utility.yul\":2719:2837   */\n    tag_99:\n        /* \"#utility.yul\":2806:2830   */\n      tag_185\n        /* \"#utility.yul\":2824:2829   */\n      dup2\n        /* \"#utility.yul\":2806:2830   */\n      tag_93\n      jump\t// in\n    tag_185:\n        /* \"#utility.yul\":2801:2804   */\n      dup3\n        /* \"#utility.yul\":2794:2831   */\n      mstore\n        /* \"#utility.yul\":2719:2837   */\n      pop\n      pop\n      jump\t// out\n        /* \"#utility.yul\":2843:2942   */\n    tag_100:\n        /* \"#utility.yul\":2895:2901   */\n      0x00\n        /* \"#utility.yul\":2929:2934   */\n      dup2\n        /* \"#utility.yul\":2923:2935   */\n      mload\n        /* \"#utility.yul\":2913:2935   */\n      swap1\n      pop\n        /* \"#utility.yul\":2843:2942   */\n      swap2\n      swap1\n      pop\n      jump\t// out\n        /* \"#utility.yul\":2948:3117   */\n    tag_101:\n        /* \"#utility.yul\":3032:3043   */\n      0x00\n        /* \"#utility.yul\":3066:3072   */\n      dup3\n        /* \"#utility.yul\":3061:3064   */\n      dup3\n        /* \"#utility.yul\":3054:3073   */\n      mstore\n        /* \"#utility.yul\":3106:3110   */\n      0x20\n        /* \"#utility.yul\":3101:3104   */\n      dup3\n        /* \"#utility.yul\":3097:3111   */\n      add\n        /* \"#utility.yul\":3082:3111   */\n      swap1\n      pop\n        /* \"#utility.yul\":2948:3117   */\n      swap3\n      swap2\n      pop\n      pop\n      jump\t// out\n        /* \"#utility.yul\":3123:3262   */\n    tag_102:\n        /* \"#utility.yul\":3212:3218   */\n      dup3\n        /* \"#utility.yul\":3207:3210   */\n      dup2\n        /* \"#utility.yul\":3202:3205   */\n      dup4\n        /* \"#utility.yul\":3196:3219   */\n      mcopy\n        /* \"#utility.yul\":3253:3254   */\n      0x00\n        /* \"#utility.yul\":3244:3250   */\n      dup4\n        /* \"#utility.yul\":3239:3242   */\n      dup4\n        /* \"#utility.yul\":3235:3251   */\n      add\n        /* \"#utility.yul\":3228:3255   */\n      mstore\n        /* \"#utility.yul\":3123:3262   */\n      pop\n      pop\n      pop\n      jump\t// out\n        /* \"#utility.yul\":3268:3370   */\n    tag_103:\n        /* \"#utility.yul\":3309:3315   */\n      0x00\n        /* \"#utility.yul\":3360:3362   */\n      0x1f\n        /* \"#utility.yul\":3356:3363   */\n      not\n        /* \"#utility.yul\":3351:3353   */\n      0x1f\n        /* \"#utility.yul\":3344:3349   */\n      dup4\n        /* \"#utility.yul\":3340:3354   */\n      add\n        /* \"#utility.yul\":3336:3364   */\n      and\n        /* \"#utility.yul\":3326:3364   */\n      swap1\n      pop\n        /* \"#utility.yul\":3268:3370   */\n      swap2\n      swap1\n      pop\n      jump\t// out\n        /* \"#utility.yul\":3376:3753   */\n    tag_104:\n        /* \"#utility.yul\":3464:3467   */\n      0x00\n        /* \"#utility.yul\":3492:3531   */\n      tag_191\n        /* \"#utility.yul\":3525:3530   */\n      dup3\n        /* \"#utility.yul\":3492:3531   */\n      tag_100\n      jump\t// in\n    tag_191:\n        /* \"#utility.yul\":3547:3618   */\n      tag_192\n        /* \"#utility.yul\":3611:3617   */\n      dup2\n        /* \"#utility.yul\":3606:3609   */\n      dup6\n        /* \"#utility.yul\":3547:3618   */\n      tag_101\n      jump\t// in\n    tag_192:\n        /* \"#utility.yul\":3540:3618   */\n      swap4\n      pop\n        /* \"#utility.yul\":3627:3692   */\n      tag_193\n        /* \"#utility.yul\":3685:3691   */\n      dup2\n        /* \"#utility.yul\":3680:3683   */\n      dup6\n        /* \"#utility.yul\":3673:3677   */\n      0x20\n        /* \"#utility.yul\":3666:3671   */\n      dup7\n        /* \"#utility.yul\":3662:3678   */\n      add\n        /* \"#utility.yul\":3627:3692   */\n      tag_102\n      jump\t// in\n    tag_193:\n        /* \"#utility.yul\":3717:3746   */\n      tag_194\n        /* \"#utility.yul\":3739:3745   */\n      dup2\n        /* \"#utility.yul\":3717:3746   */\n      tag_103\n      jump\t// in\n    tag_194:\n        /* \"#utility.yul\":3712:3715   */\n      dup5\n        /* \"#utility.yul\":3708:3747   */\n      add\n        /* \"#utility.yul\":3701:3747   */\n      swap2\n      pop\n        /* \"#utility.yul\":3468:3753   */\n      pop\n        /* \"#utility.yul\":3376:3753   */\n      swap3\n      swap2\n      pop\n      pop\n      jump\t// out\n        /* \"#utility.yul\":3759:3877   */\n    tag_105:\n        /* \"#utility.yul\":3846:3870   */\n      tag_196\n        /* \"#utility.yul\":3864:3869   */\n      dup2\n        /* \"#utility.yul\":3846:3870   */\n      tag_96\n      jump\t// in\n    tag_196:\n        /* \"#utility.yul\":3841:3844   */\n      dup3\n        /* \"#utility.yul\":3834:3871   */\n      mstore\n        /* \"#utility.yul\":3759:3877   */\n      pop\n      pop\n      jump\t// out\n        /* \"#utility.yul\":3883:4527   */\n    tag_24:\n        /* \"#utility.yul\":4080:4084   */\n      0x00\n        /* \"#utility.yul\":4118:4121   */\n      0x80\n        /* \"#utility.yul\":4107:4116   */\n      dup3\n        /* \"#utility.yul\":4103:4122   */\n      add\n        /* \"#utility.yul\":4095:4122   */\n      swap1\n      pop\n        /* \"#utility.yul\":4132:4203   */\n      tag_198\n        /* \"#utility.yul\":4200:4201   */\n      0x00\n        /* \"#utility.yul\":4189:4198   */\n      dup4\n        /* \"#utility.yul\":4185:4202   */\n      add\n        /* \"#utility.yul\":4176:4182   */\n      dup8\n        /* \"#utility.yul\":4132:4203   */\n      tag_99\n      jump\t// in\n    tag_198:\n        /* \"#utility.yul\":4250:4259   */\n      dup2\n        /* \"#utility.yul\":4244:4248   */\n      dup2\n        /* \"#utility.yul\":4240:4260   */\n      sub\n        /* \"#utility.yul\":4235:4237   */\n      0x20\n        /* \"#utility.yul\":4224:4233   */\n      dup4\n        /* \"#utility.yul\":4220:4238   */\n      add\n        /* \"#utility.yul\":4213:4261   */\n      mstore\n        /* \"#utility.yul\":4278:4356   */\n      tag_199\n        /* \"#utility.yul\":4351:4355   */\n      dup2\n        /* \"#utility.yul\":4342:4348   */\n      dup7\n        /* \"#utility.yul\":4278:4356   */\n      tag_104\n      jump\t// in\n    tag_199:\n        /* \"#utility.yul\":4270:4356   */\n      swap1\n      pop\n        /* \"#utility.yul\":4366:4438   */\n      tag_200\n        /* \"#utility.yul\":4434:4436   */\n      0x40\n        /* \"#utility.yul\":4423:4432   */\n      dup4\n        /* \"#utility.yul\":4419:4437   */\n      add\n        /* \"#utility.yul\":4410:4416   */\n      dup6\n        /* \"#utility.yul\":4366:4438   */\n      tag_105\n      jump\t// in\n    tag_200:\n        /* \"#utility.yul\":4448:4520   */\n      tag_201\n        /* \"#utility.yul\":4516:4518   */\n      0x60\n        /* \"#utility.yul\":4505:4514   */\n      dup4\n        /* \"#utility.yul\":4501:4519   */\n      add\n        /* \"#utility.yul\":4492:4498   */\n      dup5\n        /* \"#utility.yul\":4448:4520   */\n      tag_105\n      jump\t// in\n    tag_201:\n        /* \"#utility.yul\":3883:4527   */\n      swap6\n      swap5\n      pop\n      pop\n      pop\n      pop\n      pop\n      jump\t// out\n        /* \"#utility.yul\":4533:4641   */\n    tag_106:\n        /* \"#utility.yul\":4610:4634   */\n      tag_203\n        /* \"#utility.yul\":4628:4633   */\n      dup2\n        /* \"#utility.yul\":4610:4634   */\n      tag_93\n      jump\t// in\n    tag_203:\n        /* \"#utility.yul\":4605:4608   */\n      dup3\n        /* \"#utility.yul\":4598:4635   */\n      mstore\n        /* \"#utility.yul\":4533:4641   */\n      pop\n      pop\n      jump\t// out\n        /* \"#utility.yul\":4647:4806   */\n    tag_107:\n        /* \"#utility.yul\":4721:4732   */\n      0x00\n        /* \"#utility.yul\":4755:4761   */\n      dup3\n        /* \"#utility.yul\":4750:4753   */\n      dup3\n        /* \"#utility.yul\":4743:4762   */\n      mstore\n        /* \"#utility.yul\":4795:4799   */\n      0x20\n        /* \"#utility.yul\":4790:4793   */\n      dup3\n        /* \"#utility.yul\":4786:4800   */\n      add\n        /* \"#utility.yul\":4771:4800   */\n      swap1\n      pop\n        /* \"#utility.yul\":4647:4806   */\n      swap3\n      swap2\n      pop\n      pop\n      jump\t// out\n        /* \"#utility.yul\":4812:5169   */\n    tag_108:\n        /* \"#utility.yul\":4890:4893   */\n      0x00\n        /* \"#utility.yul\":4918:4957   */\n      tag_206\n        /* \"#utility.yul\":4951:4956   */\n      dup3\n        /* \"#utility.yul\":4918:4957   */\n      tag_100\n      jump\t// in\n    tag_206:\n        /* \"#utility.yul\":4973:5034   */\n      tag_207\n        /* \"#utility.yul\":5027:5033   */\n      dup2\n        /* \"#utility.yul\":5022:5025   */\n      dup6\n        /* \"#utility.yul\":4973:5034   */\n      tag_107\n      jump\t// in\n    tag_207:\n        /* \"#utility.yul\":4966:5034   */\n      swap4\n      pop\n        /* \"#utility.yul\":5043:5108   */\n      tag_208\n        /* \"#utility.yul\":5101:5107   */\n      dup2\n        /* \"#utility.yul\":5096:5099   */\n      dup6\n        /* \"#utility.yul\":5089:5093   */\n      0x20\n        /* \"#utility.yul\":5082:5087   */\n      dup7\n        /* \"#utility.yul\":5078:5094   */\n      add\n        /* \"#utility.yul\":5043:5108   */\n      tag_102\n      jump\t// in\n    tag_208:\n        /* \"#utility.yul\":5133:5162   */\n      tag_209\n        /* \"#utility.yul\":5155:5161   */\n      dup2\n        /* \"#utility.yul\":5133:5162   */\n      tag_103\n      jump\t// in\n    tag_209:\n        /* \"#utility.yul\":5128:5131   */\n      dup5\n        /* \"#utility.yul\":5124:5163   */\n      add\n        /* \"#utility.yul\":5117:5163   */\n      swap2\n      pop\n        /* \"#utility.yul\":4894:5169   */\n      pop\n        /* \"#utility.yul\":4812:5169   */\n      swap3\n      swap2\n      pop\n      pop\n      jump\t// out\n        /* \"#utility.yul\":5175:5283   */\n    tag_109:\n        /* \"#utility.yul\":5252:5276   */\n      tag_211\n        /* \"#utility.yul\":5270:5275   */\n      dup2\n        /* \"#utility.yul\":5252:5276   */\n      tag_96\n      jump\t// in\n    tag_211:\n        /* \"#utility.yul\":5247:5250   */\n      dup3\n        /* \"#utility.yul\":5240:5277   */\n      mstore\n        /* \"#utility.yul\":5175:5283   */\n      pop\n      pop\n      jump\t// out\n        /* \"#utility.yul\":5345:6302   */\n    tag_110:\n        /* \"#utility.yul\":5454:5457   */\n      0x00\n        /* \"#utility.yul\":5490:5494   */\n      0x80\n        /* \"#utility.yul\":5485:5488   */\n      dup4\n        /* \"#utility.yul\":5481:5495   */\n      add\n        /* \"#utility.yul\":5578:5582   */\n      0x00\n        /* \"#utility.yul\":5571:5576   */\n      dup4\n        /* \"#utility.yul\":5567:5583   */\n      add\n        /* \"#utility.yul\":5561:5584   */\n      mload\n        /* \"#utility.yul\":5597:5660   */\n      tag_213\n        /* \"#utility.yul\":5654:5658   */\n      0x00\n        /* \"#utility.yul\":5649:5652   */\n      dup7\n        /* \"#utility.yul\":5645:5659   */\n      add\n        /* \"#utility.yul\":5631:5643   */\n      dup3\n        /* \"#utility.yul\":5597:5660   */\n      tag_106\n      jump\t// in\n    tag_213:\n        /* \"#utility.yul\":5505:5670   */\n      pop\n        /* \"#utility.yul\":5756:5760   */\n      0x20\n        /* \"#utility.yul\":5749:5754   */\n      dup4\n        /* \"#utility.yul\":5745:5761   */\n      add\n        /* \"#utility.yul\":5739:5762   */\n      mload\n        /* \"#utility.yul\":5809:5812   */\n      dup5\n        /* \"#utility.yul\":5803:5807   */\n      dup3\n        /* \"#utility.yul\":5799:5813   */\n      sub\n        /* \"#utility.yul\":5792:5796   */\n      0x20\n        /* \"#utility.yul\":5787:5790   */\n      dup7\n        /* \"#utility.yul\":5783:5797   */\n      add\n        /* \"#utility.yul\":5776:5814   */\n      mstore\n        /* \"#utility.yul\":5835:5908   */\n      tag_214\n        /* \"#utility.yul\":5903:5907   */\n      dup3\n        /* \"#utility.yul\":5889:5901   */\n      dup3\n        /* \"#utility.yul\":5835:5908   */\n      tag_108\n      jump\t// in\n    tag_214:\n        /* \"#utility.yul\":5827:5908   */\n      swap2\n      pop\n        /* \"#utility.yul\":5680:5919   */\n      pop\n        /* \"#utility.yul\":6005:6009   */\n      0x40\n        /* \"#utility.yul\":5998:6003   */\n      dup4\n        /* \"#utility.yul\":5994:6010   */\n      add\n        /* \"#utility.yul\":5988:6011   */\n      mload\n        /* \"#utility.yul\":6024:6087   */\n      tag_215\n        /* \"#utility.yul\":6081:6085   */\n      0x40\n        /* \"#utility.yul\":6076:6079   */\n      dup7\n        /* \"#utility.yul\":6072:6086   */\n      add\n        /* \"#utility.yul\":6058:6070   */\n      dup3\n        /* \"#utility.yul\":6024:6087   */\n      tag_109\n      jump\t// in\n    tag_215:\n        /* \"#utility.yul\":5929:6097   */\n      pop\n        /* \"#utility.yul\":6183:6187   */\n      0x60\n        /* \"#utility.yul\":6176:6181   */\n      dup4\n        /* \"#utility.yul\":6172:6188   */\n      add\n        /* \"#utility.yul\":6166:6189   */\n      mload\n        /* \"#utility.yul\":6202:6265   */\n      tag_216\n        /* \"#utility.yul\":6259:6263   */\n      0x60\n        /* \"#utility.yul\":6254:6257   */\n      dup7\n        /* \"#utility.yul\":6250:6264   */\n      add\n        /* \"#utility.yul\":6236:6248   */\n      dup3\n        /* \"#utility.yul\":6202:6265   */\n      tag_109\n      jump\t// in\n    tag_216:\n        /* \"#utility.yul\":6107:6275   */\n      pop\n        /* \"#utility.yul\":6292:6296   */\n      dup1\n        /* \"#utility.yul\":6285:6296   */\n      swap2\n      pop\n        /* \"#utility.yul\":5459:6302   */\n      pop\n        /* \"#utility.yul\":5345:6302   */\n      swap3\n      swap2\n      pop\n      pop\n      jump\t// out\n        /* \"#utility.yul\":6308:6661   */\n    tag_29:\n        /* \"#utility.yul\":6441:6445   */\n      0x00\n        /* \"#utility.yul\":6479:6481   */\n      0x20\n        /* \"#utility.yul\":6468:6477   */\n      dup3\n        /* \"#utility.yul\":6464:6482   */\n      add\n        /* \"#utility.yul\":6456:6482   */\n      swap1\n      pop\n        /* \"#utility.yul\":6528:6537   */\n      dup2\n        /* \"#utility.yul\":6522:6526   */\n      dup2\n        /* \"#utility.yul\":6518:6538   */\n      sub\n        /* \"#utility.yul\":6514:6515   */\n      0x00\n        /* \"#utility.yul\":6503:6512   */\n      dup4\n        /* \"#utility.yul\":6499:6516   */\n      add\n        /* \"#utility.yul\":6492:6539   */\n      mstore\n        /* \"#utility.yul\":6556:6654   */\n      tag_218\n        /* \"#utility.yul\":6649:6653   */\n      dup2\n        /* \"#utility.yul\":6640:6646   */\n      dup5\n        /* \"#utility.yul\":6556:6654   */\n      tag_110\n      jump\t// in\n    tag_218:\n        /* \"#utility.yul\":6548:6654   */\n      swap1\n      pop\n        /* \"#utility.yul\":6308:6661   */\n      swap3\n      swap2\n      pop\n      pop\n      jump\t// out\n        /* \"#utility.yul\":6667:6996   */\n    tag_32:\n        /* \"#utility.yul\":6726:6732   */\n      0x00\n        /* \"#utility.yul\":6775:6777   */\n      0x20\n        /* \"#utility.yul\":6763:6772   */\n      dup3\n        /* \"#utility.yul\":6754:6761   */\n      dup5\n        /* \"#utility.yul\":6750:6773   */\n      sub\n        /* \"#utility.yul\":6746:6778   */\n      slt\n        /* \"#utility.yul\":6743:6862   */\n      iszero\n      tag_220\n      jumpi\n        /* \"#utility.yul\":6781:6860   */\n      tag_221\n      tag_88\n      jump\t// in\n    tag_221:\n        /* \"#utility.yul\":6743:6862   */\n    tag_220:\n        /* \"#utility.yul\":6901:6902   */\n      0x00\n        /* \"#utility.yul\":6926:6979   */\n      tag_222\n        /* \"#utility.yul\":6971:6978   */\n      dup5\n        /* \"#utility.yul\":6962:6968   */\n      dup3\n        /* \"#utility.yul\":6951:6960   */\n      dup6\n        /* \"#utility.yul\":6947:6969   */\n      add\n        /* \"#utility.yul\":6926:6979   */\n      tag_95\n      jump\t// in\n    tag_222:\n        /* \"#utility.yul\":6916:6979   */\n      swap2\n      pop\n        /* \"#utility.yul\":6872:6989   */\n      pop\n        /* \"#utility.yul\":6667:6996   */\n      swap3\n      swap2\n      pop\n      pop\n      jump\t// out\n        /* \"#utility.yul\":7002:7136   */\n    tag_111:\n        /* \"#utility.yul\":7089:7095   */\n      0x00\n        /* \"#utility.yul\":7123:7128   */\n      dup2\n        /* \"#utility.yul\":7117:7129   */\n      mload\n        /* \"#utility.yul\":7107:7129   */\n      swap1\n      pop\n        /* \"#utility.yul\":7002:7136   */\n      swap2\n      swap1\n      pop\n      jump\t// out\n        /* \"#utility.yul\":7142:7346   */\n    tag_112:\n        /* \"#utility.yul\":7261:7272   */\n      0x00\n        /* \"#utility.yul\":7295:7301   */\n      dup3\n        /* \"#utility.yul\":7290:7293   */\n      dup3\n        /* \"#utility.yul\":7283:7302   */\n      mstore\n        /* \"#utility.yul\":7335:7339   */\n      0x20\n        /* \"#utility.yul\":7330:7333   */\n      dup3\n        /* \"#utility.yul\":7326:7340   */\n      add\n        /* \"#utility.yul\":7311:7340   */\n      swap1\n      pop\n        /* \"#utility.yul\":7142:7346   */\n      swap3\n      swap2\n      pop\n      pop\n      jump\t// out\n        /* \"#utility.yul\":7352:7504   */\n    tag_113:\n        /* \"#utility.yul\":7439:7443   */\n      0x00\n        /* \"#utility.yul\":7462:7465   */\n      dup2\n        /* \"#utility.yul\":7454:7465   */\n      swap1\n      pop\n        /* \"#utility.yul\":7492:7496   */\n      0x20\n        /* \"#utility.yul\":7487:7490   */\n      dup3\n        /* \"#utility.yul\":7483:7497   */\n      add\n        /* \"#utility.yul\":7475:7497   */\n      swap1\n      pop\n        /* \"#utility.yul\":7352:7504   */\n      swap2\n      swap1\n      pop\n      jump\t// out\n        /* \"#utility.yul\":7566:8513   */\n    tag_114:\n        /* \"#utility.yul\":7665:7668   */\n      0x00\n        /* \"#utility.yul\":7701:7705   */\n      0x80\n        /* \"#utility.yul\":7696:7699   */\n      dup4\n        /* \"#utility.yul\":7692:7706   */\n      add\n        /* \"#utility.yul\":7789:7793   */\n      0x00\n        /* \"#utility.yul\":7782:7787   */\n      dup4\n        /* \"#utility.yul\":7778:7794   */\n      add\n        /* \"#utility.yul\":7772:7795   */\n      mload\n        /* \"#utility.yul\":7808:7871   */\n      tag_227\n        /* \"#utility.yul\":7865:7869   */\n      0x00\n        /* \"#utility.yul\":7860:7863   */\n      dup7\n        /* \"#utility.yul\":7856:7870   */\n      add\n        /* \"#utility.yul\":7842:7854   */\n      dup3\n        /* \"#utility.yul\":7808:7871   */\n      tag_106\n      jump\t// in\n    tag_227:\n        /* \"#utility.yul\":7716:7881   */\n      pop\n        /* \"#utility.yul\":7967:7971   */\n      0x20\n        /* \"#utility.yul\":7960:7965   */\n      dup4\n        /* \"#utility.yul\":7956:7972   */\n      add\n        /* \"#utility.yul\":7950:7973   */\n      mload\n        /* \"#utility.yul\":8020:8023   */\n      dup5\n        /* \"#utility.yul\":8014:8018   */\n      dup3\n        /* \"#utility.yul\":8010:8024   */\n      sub\n        /* \"#utility.yul\":8003:8007   */\n      0x20\n        /* \"#utility.yul\":7998:8001   */\n      dup7\n        /* \"#utility.yul\":7994:8008   */\n      add\n        /* \"#utility.yul\":7987:8025   */\n      mstore\n        /* \"#utility.yul\":8046:8119   */\n      tag_228\n        /* \"#utility.yul\":8114:8118   */\n      dup3\n        /* \"#utility.yul\":8100:8112   */\n      dup3\n        /* \"#utility.yul\":8046:8119   */\n      tag_108\n      jump\t// in\n    tag_228:\n        /* \"#utility.yul\":8038:8119   */\n      swap2\n      pop\n        /* \"#utility.yul\":7891:8130   */\n      pop\n        /* \"#utility.yul\":8216:8220   */\n      0x40\n        /* \"#utility.yul\":8209:8214   */\n      dup4\n        /* \"#utility.yul\":8205:8221   */\n      add\n        /* \"#utility.yul\":8199:8222   */\n      mload\n        /* \"#utility.yul\":8235:8298   */\n      tag_229\n        /* \"#utility.yul\":8292:8296   */\n      0x40\n        /* \"#utility.yul\":8287:8290   */\n      dup7\n        /* \"#utility.yul\":8283:8297   */\n      add\n        /* \"#utility.yul\":8269:8281   */\n      dup3\n        /* \"#utility.yul\":8235:8298   */\n      tag_109\n      jump\t// in\n    tag_229:\n        /* \"#utility.yul\":8140:8308   */\n      pop\n        /* \"#utility.yul\":8394:8398   */\n      0x60\n        /* \"#utility.yul\":8387:8392   */\n      dup4\n        /* \"#utility.yul\":8383:8399   */\n      add\n        /* \"#utility.yul\":8377:8400   */\n      mload\n        /* \"#utility.yul\":8413:8476   */\n      tag_230\n        /* \"#utility.yul\":8470:8474   */\n      0x60\n        /* \"#utility.yul\":8465:8468   */\n      dup7\n        /* \"#utility.yul\":8461:8475   */\n      add\n        /* \"#utility.yul\":8447:8459   */\n      dup3\n        /* \"#utility.yul\":8413:8476   */\n      tag_109\n      jump\t// in\n    tag_230:\n        /* \"#utility.yul\":8318:8486   */\n      pop\n        /* \"#utility.yul\":8503:8507   */\n      dup1\n        /* \"#utility.yul\":8496:8507   */\n      swap2\n      pop\n        /* \"#utility.yul\":7670:8513   */\n      pop\n        /* \"#utility.yul\":7566:8513   */\n      swap3\n      swap2\n      pop\n      pop\n      jump\t// out\n        /* \"#utility.yul\":8519:8755   */\n    tag_115:\n        /* \"#utility.yul\":8628:8638   */\n      0x00\n        /* \"#utility.yul\":8663:8749   */\n      tag_232\n        /* \"#utility.yul\":8745:8748   */\n      dup4\n        /* \"#utility.yul\":8737:8743   */\n      dup4\n        /* \"#utility.yul\":8663:8749   */\n      tag_114\n      jump\t// in\n    tag_232:\n        /* \"#utility.yul\":8649:8749   */\n      swap1\n      pop\n        /* \"#utility.yul\":8519:8755   */\n      swap3\n      swap2\n      pop\n      pop\n      jump\t// out\n        /* \"#utility.yul\":8761:8894   */\n    tag_116:\n        /* \"#utility.yul\":8851:8855   */\n      0x00\n        /* \"#utility.yul\":8883:8887   */\n      0x20\n        /* \"#utility.yul\":8878:8881   */\n      dup3\n        /* \"#utility.yul\":8874:8888   */\n      add\n        /* \"#utility.yul\":8866:8888   */\n      swap1\n      pop\n        /* \"#utility.yul\":8761:8894   */\n      swap2\n      swap1\n      pop\n      jump\t// out\n        /* \"#utility.yul\":8960:10031   */\n    tag_117:\n        /* \"#utility.yul\":9119:9122   */\n      0x00\n        /* \"#utility.yul\":9148:9222   */\n      tag_235\n        /* \"#utility.yul\":9216:9221   */\n      dup3\n        /* \"#utility.yul\":9148:9222   */\n      tag_111\n      jump\t// in\n    tag_235:\n        /* \"#utility.yul\":9238:9344   */\n      tag_236\n        /* \"#utility.yul\":9337:9343   */\n      dup2\n        /* \"#utility.yul\":9332:9335   */\n      dup6\n        /* \"#utility.yul\":9238:9344   */\n      tag_112\n      jump\t// in\n    tag_236:\n        /* \"#utility.yul\":9231:9344   */\n      swap4\n      pop\n        /* \"#utility.yul\":9370:9373   */\n      dup4\n        /* \"#utility.yul\":9415:9419   */\n      0x20\n        /* \"#utility.yul\":9407:9413   */\n      dup3\n        /* \"#utility.yul\":9403:9420   */\n      mul\n        /* \"#utility.yul\":9398:9401   */\n      dup6\n        /* \"#utility.yul\":9394:9421   */\n      add\n        /* \"#utility.yul\":9445:9521   */\n      tag_237\n        /* \"#utility.yul\":9515:9520   */\n      dup6\n        /* \"#utility.yul\":9445:9521   */\n      tag_113\n      jump\t// in\n    tag_237:\n        /* \"#utility.yul\":9544:9551   */\n      dup1\n        /* \"#utility.yul\":9575:9576   */\n      0x00\n        /* \"#utility.yul\":9560:9986   */\n    tag_238:\n        /* \"#utility.yul\":9585:9591   */\n      dup6\n        /* \"#utility.yul\":9582:9583   */\n      dup2\n        /* \"#utility.yul\":9579:9592   */\n      lt\n        /* \"#utility.yul\":9560:9986   */\n      iszero\n      tag_240\n      jumpi\n        /* \"#utility.yul\":9656:9665   */\n      dup5\n        /* \"#utility.yul\":9650:9654   */\n      dup5\n        /* \"#utility.yul\":9646:9666   */\n      sub\n        /* \"#utility.yul\":9641:9644   */\n      dup10\n        /* \"#utility.yul\":9634:9667   */\n      mstore\n        /* \"#utility.yul\":9707:9713   */\n      dup2\n        /* \"#utility.yul\":9701:9714   */\n      mload\n        /* \"#utility.yul\":9735:9839   */\n      tag_241\n        /* \"#utility.yul\":9834:9838   */\n      dup6\n        /* \"#utility.yul\":9819:9832   */\n      dup3\n        /* \"#utility.yul\":9735:9839   */\n      tag_115\n      jump\t// in\n    tag_241:\n        /* \"#utility.yul\":9727:9839   */\n      swap5\n      pop\n        /* \"#utility.yul\":9862:9942   */\n      tag_242\n        /* \"#utility.yul\":9935:9941   */\n      dup4\n        /* \"#utility.yul\":9862:9942   */\n      tag_116\n      jump\t// in\n    tag_242:\n        /* \"#utility.yul\":9852:9942   */\n      swap3\n      pop\n        /* \"#utility.yul\":9971:9975   */\n      0x20\n        /* \"#utility.yul\":9966:9969   */\n      dup11\n        /* \"#utility.yul\":9962:9976   */\n      add\n        /* \"#utility.yul\":9955:9976   */\n      swap10\n      pop\n        /* \"#utility.yul\":9620:9986   */\n      pop\n        /* \"#utility.yul\":9607:9608   */\n      0x01\n        /* \"#utility.yul\":9604:9605   */\n      dup2\n        /* \"#utility.yul\":9600:9609   */\n      add\n        /* \"#utility.yul\":9595:9609   */\n      swap1\n      pop\n        /* \"#utility.yul\":9560:9986   */\n      jump(tag_238)\n    tag_240:\n        /* \"#utility.yul\":9564:9578   */\n      pop\n        /* \"#utility.yul\":10002:10006   */\n      dup3\n        /* \"#utility.yul\":9995:10006   */\n      swap8\n      pop\n        /* \"#utility.yul\":10022:10025   */\n      dup8\n        /* \"#utility.yul\":10015:10025   */\n      swap6\n      pop\n        /* \"#utility.yul\":9124:10031   */\n      pop\n      pop\n      pop\n      pop\n      pop\n        /* \"#utility.yul\":8960:10031   */\n      swap3\n      swap2\n      pop\n      pop\n      jump\t// out\n        /* \"#utility.yul\":10037:10490   */\n    tag_35:\n        /* \"#utility.yul\":10220:10224   */\n      0x00\n        /* \"#utility.yul\":10258:10260   */\n      0x20\n        /* \"#utility.yul\":10247:10256   */\n      dup3\n        /* \"#utility.yul\":10243:10261   */\n      add\n        /* \"#utility.yul\":10235:10261   */\n      swap1\n      pop\n        /* \"#utility.yul\":10307:10316   */\n      dup2\n        /* \"#utility.yul\":10301:10305   */\n      dup2\n        /* \"#utility.yul\":10297:10317   */\n      sub\n        /* \"#utility.yul\":10293:10294   */\n      0x00\n        /* \"#utility.yul\":10282:10291   */\n      dup4\n        /* \"#utility.yul\":10278:10295   */\n      add\n        /* \"#utility.yul\":10271:10318   */\n      mstore\n        /* \"#utility.yul\":10335:10483   */\n      tag_244\n        /* \"#utility.yul\":10478:10482   */\n      dup2\n        /* \"#utility.yul\":10469:10475   */\n      dup5\n        /* \"#utility.yul\":10335:10483   */\n      tag_117\n      jump\t// in\n    tag_244:\n        /* \"#utility.yul\":10327:10483   */\n      swap1\n      pop\n        /* \"#utility.yul\":10037:10490   */\n      swap3\n      swap2\n      pop\n      pop\n      jump\t// out\n        /* \"#utility.yul\":10496:10613   */\n    tag_118:\n        /* \"#utility.yul\":10605:10606   */\n      0x00\n        /* \"#utility.yul\":10602:10603   */\n      dup1\n        /* \"#utility.yul\":10595:10607   */\n      revert\n        /* \"#utility.yul\":10619:10736   */\n    tag_119:\n        /* \"#utility.yul\":10728:10729   */\n      0x00\n        /* \"#utility.yul\":10725:10726   */\n      dup1\n        /* \"#utility.yul\":10718:10730   */\n      revert\n        /* \"#utility.yul\":10742:10922   */\n    tag_120:\n        /* \"#utility.yul\":10790:10867   */\n      0x4e487b7100000000000000000000000000000000000000000000000000000000\n        /* \"#utility.yul\":10787:10788   */\n      0x00\n        /* \"#utility.yul\":10780:10868   */\n      mstore\n        /* \"#utility.yul\":10887:10891   */\n      0x41\n        /* \"#utility.yul\":10884:10885   */\n      0x04\n        /* \"#utility.yul\":10877:10892   */\n      mstore\n        /* \"#utility.yul\":10911:10915   */\n      0x24\n        /* \"#utility.yul\":10908:10909   */\n      0x00\n        /* \"#utility.yul\":10901:10916   */\n      revert\n        /* \"#utility.yul\":10928:11209   */\n    tag_121:\n        /* \"#utility.yul\":11011:11038   */\n      tag_249\n        /* \"#utility.yul\":11033:11037   */\n      dup3\n        /* \"#utility.yul\":11011:11038   */\n      tag_103\n      jump\t// in\n    tag_249:\n        /* \"#utility.yul\":11003:11009   */\n      dup2\n        /* \"#utility.yul\":10999:11039   */\n      add\n        /* \"#utility.yul\":11141:11147   */\n      dup2\n        /* \"#utility.yul\":11129:11139   */\n      dup2\n        /* \"#utility.yul\":11126:11148   */\n      lt\n        /* \"#utility.yul\":11105:11123   */\n      0xffffffffffffffff\n        /* \"#utility.yul\":11093:11103   */\n      dup3\n        /* \"#utility.yul\":11090:11124   */\n      gt\n        /* \"#utility.yul\":11087:11149   */\n      or\n        /* \"#utility.yul\":11084:11172   */\n      iszero\n      tag_250\n      jumpi\n        /* \"#utility.yul\":11152:11170   */\n      tag_251\n      tag_120\n      jump\t// in\n    tag_251:\n        /* \"#utility.yul\":11084:11172   */\n    tag_250:\n        /* \"#utility.yul\":11192:11202   */\n      dup1\n        /* \"#utility.yul\":11188:11190   */\n      0x40\n        /* \"#utility.yul\":11181:11203   */\n      mstore\n        /* \"#utility.yul\":10971:11209   */\n      pop\n        /* \"#utility.yul\":10928:11209   */\n      pop\n      pop\n      jump\t// out\n        /* \"#utility.yul\":11215:11344   */\n    tag_122:\n        /* \"#utility.yul\":11249:11255   */\n      0x00\n        /* \"#utility.yul\":11276:11296   */\n      tag_253\n      tag_87\n      jump\t// in\n    tag_253:\n        /* \"#utility.yul\":11266:11296   */\n      swap1\n      pop\n        /* \"#utility.yul\":11305:11338   */\n      tag_254\n        /* \"#utility.yul\":11333:11337   */\n      dup3\n        /* \"#utility.yul\":11325:11331   */\n      dup3\n        /* \"#utility.yul\":11305:11338   */\n      tag_121\n      jump\t// in\n    tag_254:\n        /* \"#utility.yul\":11215:11344   */\n      swap2\n      swap1\n      pop\n      jump\t// out\n        /* \"#utility.yul\":11350:11658   */\n    tag_123:\n        /* \"#utility.yul\":11412:11416   */\n      0x00\n        /* \"#utility.yul\":11502:11520   */\n      0xffffffffffffffff\n        /* \"#utility.yul\":11494:11500   */\n      dup3\n        /* \"#utility.yul\":11491:11521   */\n      gt\n        /* \"#utility.yul\":11488:11544   */\n      iszero\n      tag_256\n      jumpi\n        /* \"#utility.yul\":11524:11542   */\n      tag_257\n      tag_120\n      jump\t// in\n    tag_257:\n        /* \"#utility.yul\":11488:11544   */\n    tag_256:\n        /* \"#utility.yul\":11562:11591   */\n      tag_258\n        /* \"#utility.yul\":11584:11590   */\n      dup3\n        /* \"#utility.yul\":11562:11591   */\n      tag_103\n      jump\t// in\n    tag_258:\n        /* \"#utility.yul\":11554:11591   */\n      swap1\n      pop\n        /* \"#utility.yul\":11646:11650   */\n      0x20\n        /* \"#utility.yul\":11640:11644   */\n      dup2\n        /* \"#utility.yul\":11636:11651   */\n      add\n        /* \"#utility.yul\":11628:11651   */\n      swap1\n      pop\n        /* \"#utility.yul\":11350:11658   */\n      swap2\n      swap1\n      pop\n      jump\t// out\n        /* \"#utility.yul\":11664:11812   */\n    tag_124:\n        /* \"#utility.yul\":11762:11768   */\n      dup3\n        /* \"#utility.yul\":11757:11760   */\n      dup2\n        /* \"#utility.yul\":11752:11755   */\n      dup4\n        /* \"#utility.yul\":11739:11769   */\n      calldatacopy\n        /* \"#utility.yul\":11803:11804   */\n      0x00\n        /* \"#utility.yul\":11794:11800   */\n      dup4\n        /* \"#utility.yul\":11789:11792   */\n      dup4\n        /* \"#utility.yul\":11785:11801   */\n      add\n        /* \"#utility.yul\":11778:11805   */\n      mstore\n        /* \"#utility.yul\":11664:11812   */\n      pop\n      pop\n      pop\n      jump\t// out\n        /* \"#utility.yul\":11818:12243   */\n    tag_125:\n        /* \"#utility.yul\":11896:11901   */\n      0x00\n        /* \"#utility.yul\":11921:11987   */\n      tag_261\n        /* \"#utility.yul\":11937:11986   */\n      tag_262\n        /* \"#utility.yul\":11979:11985   */\n      dup5\n        /* \"#utility.yul\":11937:11986   */\n      tag_123\n      jump\t// in\n    tag_262:\n        /* \"#utility.yul\":11921:11987   */\n      tag_122\n      jump\t// in\n    tag_261:\n        /* \"#utility.yul\":11912:11987   */\n      swap1\n      pop\n        /* \"#utility.yul\":12010:12016   */\n      dup3\n        /* \"#utility.yul\":12003:12008   */\n      dup2\n        /* \"#utility.yul\":11996:12017   */\n      mstore\n        /* \"#utility.yul\":12048:12052   */\n      0x20\n        /* \"#utility.yul\":12041:12046   */\n      dup2\n        /* \"#utility.yul\":12037:12053   */\n      add\n        /* \"#utility.yul\":12086:12089   */\n      dup5\n        /* \"#utility.yul\":12077:12083   */\n      dup5\n        /* \"#utility.yul\":12072:12075   */\n      dup5\n        /* \"#utility.yul\":12068:12084   */\n      add\n        /* \"#utility.yul\":12065:12090   */\n      gt\n        /* \"#utility.yul\":12062:12174   */\n      iszero\n      tag_263\n      jumpi\n        /* \"#utility.yul\":12093:12172   */\n      tag_264\n      tag_119\n      jump\t// in\n    tag_264:\n        /* \"#utility.yul\":12062:12174   */\n    tag_263:\n        /* \"#utility.yul\":12183:12237   */\n      tag_265\n        /* \"#utility.yul\":12230:12236   */\n      dup5\n        /* \"#utility.yul\":12225:12228   */\n      dup3\n        /* \"#utility.yul\":12220:12223   */\n      dup6\n        /* \"#utility.yul\":12183:12237   */\n      tag_124\n      jump\t// in\n    tag_265:\n        /* \"#utility.yul\":11902:12243   */\n      pop\n        /* \"#utility.yul\":11818:12243   */\n      swap4\n      swap3\n      pop\n      pop\n      pop\n      jump\t// out\n        /* \"#utility.yul\":12263:12603   */\n    tag_126:\n        /* \"#utility.yul\":12319:12324   */\n      0x00\n        /* \"#utility.yul\":12368:12371   */\n      dup3\n        /* \"#utility.yul\":12361:12365   */\n      0x1f\n        /* \"#utility.yul\":12353:12359   */\n      dup4\n        /* \"#utility.yul\":12349:12366   */\n      add\n        /* \"#utility.yul\":12345:12372   */\n      slt\n        /* \"#utility.yul\":12335:12457   */\n      tag_267\n      jumpi\n        /* \"#utility.yul\":12376:12455   */\n      tag_268\n      tag_118\n      jump\t// in\n    tag_268:\n        /* \"#utility.yul\":12335:12457   */\n    tag_267:\n        /* \"#utility.yul\":12493:12499   */\n      dup2\n        /* \"#utility.yul\":12480:12500   */\n      calldataload\n        /* \"#utility.yul\":12518:12597   */\n      tag_269\n        /* \"#utility.yul\":12593:12596   */\n      dup5\n        /* \"#utility.yul\":12585:12591   */\n      dup3\n        /* \"#utility.yul\":12578:12582   */\n      0x20\n        /* \"#utility.yul\":12570:12576   */\n      dup7\n        /* \"#utility.yul\":12566:12583   */\n      add\n        /* \"#utility.yul\":12518:12597   */\n      tag_125\n      jump\t// in\n    tag_269:\n        /* \"#utility.yul\":12509:12597   */\n      swap2\n      pop\n        /* \"#utility.yul\":12325:12603   */\n      pop\n        /* \"#utility.yul\":12263:12603   */\n      swap3\n      swap2\n      pop\n      pop\n      jump\t// out\n        /* \"#utility.yul\":12609:13118   */\n    tag_38:\n        /* \"#utility.yul\":12678:12684   */\n      0x00\n        /* \"#utility.yul\":12727:12729   */\n      0x20\n        /* \"#utility.yul\":12715:12724   */\n      dup3\n        /* \"#utility.yul\":12706:12713   */\n      dup5\n        /* \"#utility.yul\":12702:12725   */\n      sub\n        /* \"#utility.yul\":12698:12730   */\n      slt\n        /* \"#utility.yul\":12695:12814   */\n      iszero\n      tag_271\n      jumpi\n        /* \"#utility.yul\":12733:12812   */\n      tag_272\n      tag_88\n      jump\t// in\n    tag_272:\n        /* \"#utility.yul\":12695:12814   */\n    tag_271:\n        /* \"#utility.yul\":12881:12882   */\n      0x00\n        /* \"#utility.yul\":12870:12879   */\n      dup3\n        /* \"#utility.yul\":12866:12883   */\n      add\n        /* \"#utility.yul\":12853:12884   */\n      calldataload\n        /* \"#utility.yul\":12911:12929   */\n      0xffffffffffffffff\n        /* \"#utility.yul\":12903:12909   */\n      dup2\n        /* \"#utility.yul\":12900:12930   */\n      gt\n        /* \"#utility.yul\":12897:13014   */\n      iszero\n      tag_273\n      jumpi\n        /* \"#utility.yul\":12933:13012   */\n      tag_274\n      tag_89\n      jump\t// in\n    tag_274:\n        /* \"#utility.yul\":12897:13014   */\n    tag_273:\n        /* \"#utility.yul\":13038:13101   */\n      tag_275\n        /* \"#utility.yul\":13093:13100   */\n      dup5\n        /* \"#utility.yul\":13084:13090   */\n      dup3\n        /* \"#utility.yul\":13073:13082   */\n      dup6\n        /* \"#utility.yul\":13069:13091   */\n      add\n        /* \"#utility.yul\":13038:13101   */\n      tag_126\n      jump\t// in\n    tag_275:\n        /* \"#utility.yul\":13028:13101   */\n      swap2\n      pop\n        /* \"#utility.yul\":12824:13111   */\n      pop\n        /* \"#utility.yul\":12609:13118   */\n      swap3\n      swap2\n      pop\n      pop\n      jump\t// out\n        /* \"#utility.yul\":13124:13346   */\n    tag_43:\n        /* \"#utility.yul\":13217:13221   */\n      0x00\n        /* \"#utility.yul\":13255:13257   */\n      0x20\n        /* \"#utility.yul\":13244:13253   */\n      dup3\n        /* \"#utility.yul\":13240:13258   */\n      add\n        /* \"#utility.yul\":13232:13258   */\n      swap1\n      pop\n        /* \"#utility.yul\":13268:13339   */\n      tag_277\n        /* \"#utility.yul\":13336:13337   */\n      0x00\n        /* \"#utility.yul\":13325:13334   */\n      dup4\n        /* \"#utility.yul\":13321:13338   */\n      add\n        /* \"#utility.yul\":13312:13318   */\n      dup5\n        /* \"#utility.yul\":13268:13339   */\n      tag_99\n      jump\t// in\n    tag_277:\n        /* \"#utility.yul\":13124:13346   */\n      swap3\n      swap2\n      pop\n      pop\n      jump\t// out\n        /* \"#utility.yul\":13352:13591   */\n    tag_127:\n        /* \"#utility.yul\":13492:13526   */\n      0x4170656e6173206f20646f6e6f20646f20636f6e747261746f20706f64652065\n        /* \"#utility.yul\":13488:13489   */\n      0x00\n        /* \"#utility.yul\":13480:13486   */\n      dup3\n        /* \"#utility.yul\":13476:13490   */\n      add\n        /* \"#utility.yul\":13469:13527   */\n      mstore\n        /* \"#utility.yul\":13561:13583   */\n      0x7865637574617220657373612066756e63616f21000000000000000000000000\n        /* \"#utility.yul\":13556:13558   */\n      0x20\n        /* \"#utility.yul\":13548:13554   */\n      dup3\n        /* \"#utility.yul\":13544:13559   */\n      add\n        /* \"#utility.yul\":13537:13584   */\n      mstore\n        /* \"#utility.yul\":13352:13591   */\n      pop\n      jump\t// out\n        /* \"#utility.yul\":13597:13963   */\n    tag_128:\n        /* \"#utility.yul\":13739:13742   */\n      0x00\n        /* \"#utility.yul\":13760:13827   */\n      tag_280\n        /* \"#utility.yul\":13824:13826   */\n      0x34\n        /* \"#utility.yul\":13819:13822   */\n      dup4\n        /* \"#utility.yul\":13760:13827   */\n      tag_101\n      jump\t// in\n    tag_280:\n        /* \"#utility.yul\":13753:13827   */\n      swap2\n      pop\n        /* \"#utility.yul\":13836:13929   */\n      tag_281\n        /* \"#utility.yul\":13925:13928   */\n      dup3\n        /* \"#utility.yul\":13836:13929   */\n      tag_127\n      jump\t// in\n    tag_281:\n        /* \"#utility.yul\":13954:13956   */\n      0x40\n        /* \"#utility.yul\":13949:13952   */\n      dup3\n        /* \"#utility.yul\":13945:13957   */\n      add\n        /* \"#utility.yul\":13938:13957   */\n      swap1\n      pop\n        /* \"#utility.yul\":13597:13963   */\n      swap2\n      swap1\n      pop\n      jump\t// out\n        /* \"#utility.yul\":13969:14388   */\n    tag_47:\n        /* \"#utility.yul\":14135:14139   */\n      0x00\n        /* \"#utility.yul\":14173:14175   */\n      0x20\n        /* \"#utility.yul\":14162:14171   */\n      dup3\n        /* \"#utility.yul\":14158:14176   */\n      add\n        /* \"#utility.yul\":14150:14176   */\n      swap1\n      pop\n        /* \"#utility.yul\":14222:14231   */\n      dup2\n        /* \"#utility.yul\":14216:14220   */\n      dup2\n        /* \"#utility.yul\":14212:14232   */\n      sub\n        /* \"#utility.yul\":14208:14209   */\n      0x00\n        /* \"#utility.yul\":14197:14206   */\n      dup4\n        /* \"#utility.yul\":14193:14210   */\n      add\n        /* \"#utility.yul\":14186:14233   */\n      mstore\n        /* \"#utility.yul\":14250:14381   */\n      tag_283\n        /* \"#utility.yul\":14376:14380   */\n      dup2\n        /* \"#utility.yul\":14250:14381   */\n      tag_128\n      jump\t// in\n    tag_283:\n        /* \"#utility.yul\":14242:14381   */\n      swap1\n      pop\n        /* \"#utility.yul\":13969:14388   */\n      swap2\n      swap1\n      pop\n      jump\t// out\n        /* \"#utility.yul\":14394:14574   */\n    tag_129:\n        /* \"#utility.yul\":14442:14519   */\n      0x4e487b7100000000000000000000000000000000000000000000000000000000\n        /* \"#utility.yul\":14439:14440   */\n      0x00\n        /* \"#utility.yul\":14432:14520   */\n      mstore\n        /* \"#utility.yul\":14539:14543   */\n      0x22\n        /* \"#utility.yul\":14536:14537   */\n      0x04\n        /* \"#utility.yul\":14529:14544   */\n      mstore\n        /* \"#utility.yul\":14563:14567   */\n      0x24\n        /* \"#utility.yul\":14560:14561   */\n      0x00\n        /* \"#utility.yul\":14553:14568   */\n      revert\n        /* \"#utility.yul\":14580:14900   */\n    tag_52:\n        /* \"#utility.yul\":14624:14630   */\n      0x00\n        /* \"#utility.yul\":14661:14662   */\n      0x02\n        /* \"#utility.yul\":14655:14659   */\n      dup3\n        /* \"#utility.yul\":14651:14663   */\n      div\n        /* \"#utility.yul\":14641:14663   */\n      swap1\n      pop\n        /* \"#utility.yul\":14708:14709   */\n      0x01\n        /* \"#utility.yul\":14702:14706   */\n      dup3\n        /* \"#utility.yul\":14698:14710   */\n      and\n        /* \"#utility.yul\":14729:14747   */\n      dup1\n        /* \"#utility.yul\":14719:14800   */\n      tag_286\n      jumpi\n        /* \"#utility.yul\":14785:14789   */\n      0x7f\n        /* \"#utility.yul\":14777:14783   */\n      dup3\n        /* \"#utility.yul\":14773:14790   */\n      and\n        /* \"#utility.yul\":14763:14790   */\n      swap2\n      pop\n        /* \"#utility.yul\":14719:14800   */\n    tag_286:\n        /* \"#utility.yul\":14847:14849   */\n      0x20\n        /* \"#utility.yul\":14839:14845   */\n      dup3\n        /* \"#utility.yul\":14836:14850   */\n      lt\n        /* \"#utility.yul\":14816:14834   */\n      dup2\n        /* \"#utility.yul\":14813:14851   */\n      sub\n        /* \"#utility.yul\":14810:14894   */\n      tag_287\n      jumpi\n        /* \"#utility.yul\":14866:14884   */\n      tag_288\n      tag_129\n      jump\t// in\n    tag_288:\n        /* \"#utility.yul\":14810:14894   */\n    tag_287:\n        /* \"#utility.yul\":14631:14900   */\n      pop\n        /* \"#utility.yul\":14580:14900   */\n      swap2\n      swap1\n      pop\n      jump\t// out\n        /* \"#utility.yul\":14906:15086   */\n    tag_62:\n        /* \"#utility.yul\":14954:15031   */\n      0x4e487b7100000000000000000000000000000000000000000000000000000000\n        /* \"#utility.yul\":14951:14952   */\n      0x00\n        /* \"#utility.yul\":14944:15032   */\n      mstore\n        /* \"#utility.yul\":15051:15055   */\n      0x32\n        /* \"#utility.yul\":15048:15049   */\n      0x04\n        /* \"#utility.yul\":15041:15056   */\n      mstore\n        /* \"#utility.yul\":15075:15079   */\n      0x24\n        /* \"#utility.yul\":15072:15073   */\n      0x00\n        /* \"#utility.yul\":15065:15080   */\n      revert\n        /* \"#utility.yul\":15092:15328   */\n    tag_130:\n        /* \"#utility.yul\":15232:15266   */\n      0x5175616e746964616465206d6178696d61206465206361726163746572657320\n        /* \"#utility.yul\":15228:15229   */\n      0x00\n        /* \"#utility.yul\":15220:15226   */\n      dup3\n        /* \"#utility.yul\":15216:15230   */\n      add\n        /* \"#utility.yul\":15209:15267   */\n      mstore\n        /* \"#utility.yul\":15301:15320   */\n      0x666f6920756c7472617061737361646121000000000000000000000000000000\n        /* \"#utility.yul\":15296:15298   */\n      0x20\n        /* \"#utility.yul\":15288:15294   */\n      dup3\n        /* \"#utility.yul\":15284:15299   */\n      add\n        /* \"#utility.yul\":15277:15321   */\n      mstore\n        /* \"#utility.yul\":15092:15328   */\n      pop\n      jump\t// out\n        /* \"#utility.yul\":15334:15700   */\n    tag_131:\n        /* \"#utility.yul\":15476:15479   */\n      0x00\n        /* \"#utility.yul\":15497:15564   */\n      tag_292\n        /* \"#utility.yul\":15561:15563   */\n      0x31\n        /* \"#utility.yul\":15556:15559   */\n      dup4\n        /* \"#utility.yul\":15497:15564   */\n      tag_101\n      jump\t// in\n    tag_292:\n        /* \"#utility.yul\":15490:15564   */\n      swap2\n      pop\n        /* \"#utility.yul\":15573:15666   */\n      tag_293\n        /* \"#utility.yul\":15662:15665   */\n      dup3\n        /* \"#utility.yul\":15573:15666   */\n      tag_130\n      jump\t// in\n    tag_293:\n        /* \"#utility.yul\":15691:15693   */\n      0x40\n        /* \"#utility.yul\":15686:15689   */\n      dup3\n        /* \"#utility.yul\":15682:15694   */\n      add\n        /* \"#utility.yul\":15675:15694   */\n      swap1\n      pop\n        /* \"#utility.yul\":15334:15700   */\n      swap2\n      swap1\n      pop\n      jump\t// out\n        /* \"#utility.yul\":15706:16125   */\n    tag_81:\n        /* \"#utility.yul\":15872:15876   */\n      0x00\n        /* \"#utility.yul\":15910:15912   */\n      0x20\n        /* \"#utility.yul\":15899:15908   */\n      dup3\n        /* \"#utility.yul\":15895:15913   */\n      add\n        /* \"#utility.yul\":15887:15913   */\n      swap1\n      pop\n        /* \"#utility.yul\":15959:15968   */\n      dup2\n        /* \"#utility.yul\":15953:15957   */\n      dup2\n        /* \"#utility.yul\":15949:15969   */\n      sub\n        /* \"#utility.yul\":15945:15946   */\n      0x00\n        /* \"#utility.yul\":15934:15943   */\n      dup4\n        /* \"#utility.yul\":15930:15947   */\n      add\n        /* \"#utility.yul\":15923:15970   */\n      mstore\n        /* \"#utility.yul\":15987:16118   */\n      tag_295\n        /* \"#utility.yul\":16113:16117   */\n      dup2\n        /* \"#utility.yul\":15987:16118   */\n      tag_131\n      jump\t// in\n    tag_295:\n        /* \"#utility.yul\":15979:16118   */\n      swap1\n      pop\n        /* \"#utility.yul\":15706:16125   */\n      swap2\n      swap1\n      pop\n      jump\t// out\n        /* \"#utility.yul\":16131:16272   */\n    tag_132:\n        /* \"#utility.yul\":16180:16184   */\n      0x00\n        /* \"#utility.yul\":16203:16206   */\n      dup2\n        /* \"#utility.yul\":16195:16206   */\n      swap1\n      pop\n        /* \"#utility.yul\":16226:16229   */\n      dup2\n        /* \"#utility.yul\":16223:16224   */\n      0x00\n        /* \"#utility.yul\":16216:16230   */\n      mstore\n        /* \"#utility.yul\":16260:16264   */\n      0x20\n        /* \"#utility.yul\":16257:16258   */\n      0x00\n        /* \"#utility.yul\":16247:16265   */\n      keccak256\n        /* \"#utility.yul\":16239:16265   */\n      swap1\n      pop\n        /* \"#utility.yul\":16131:16272   */\n      swap2\n      swap1\n      pop\n      jump\t// out\n        /* \"#utility.yul\":16278:16371   */\n    tag_133:\n        /* \"#utility.yul\":16315:16321   */\n      0x00\n        /* \"#utility.yul\":16362:16364   */\n      0x20\n        /* \"#utility.yul\":16357:16359   */\n      0x1f\n        /* \"#utility.yul\":16350:16355   */\n      dup4\n        /* \"#utility.yul\":16346:16360   */\n      add\n        /* \"#utility.yul\":16342:16365   */\n      div\n        /* \"#utility.yul\":16332:16365   */\n      swap1\n      pop\n        /* \"#utility.yul\":16278:16371   */\n      swap2\n      swap1\n      pop\n      jump\t// out\n        /* \"#utility.yul\":16377:16484   */\n    tag_134:\n        /* \"#utility.yul\":16421:16429   */\n      0x00\n        /* \"#utility.yul\":16471:16476   */\n      dup3\n        /* \"#utility.yul\":16465:16469   */\n      dup3\n        /* \"#utility.yul\":16461:16477   */\n      shl\n        /* \"#utility.yul\":16440:16477   */\n      swap1\n      pop\n        /* \"#utility.yul\":16377:16484   */\n      swap3\n      swap2\n      pop\n      pop\n      jump\t// out\n        /* \"#utility.yul\":16490:16883   */\n    tag_135:\n        /* \"#utility.yul\":16559:16565   */\n      0x00\n        /* \"#utility.yul\":16609:16610   */\n      0x08\n        /* \"#utility.yul\":16597:16607   */\n      dup4\n        /* \"#utility.yul\":16593:16611   */\n      mul\n        /* \"#utility.yul\":16632:16729   */\n      tag_300\n        /* \"#utility.yul\":16662:16728   */\n      0xffffffffffffffffffffffffffffffffffffffffffffffffffffffffffffffff\n        /* \"#utility.yul\":16651:16660   */\n      dup3\n        /* \"#utility.yul\":16632:16729   */\n      tag_134\n      jump\t// in\n    tag_300:\n        /* \"#utility.yul\":16750:16789   */\n      tag_301\n        /* \"#utility.yul\":16780:16788   */\n      dup7\n        /* \"#utility.yul\":16769:16778   */\n      dup4\n        /* \"#utility.yul\":16750:16789   */\n      tag_134\n      jump\t// in\n    tag_301:\n        /* \"#utility.yul\":16738:16789   */\n      swap6\n      pop\n        /* \"#utility.yul\":16822:16826   */\n      dup1\n        /* \"#utility.yul\":16818:16827   */\n      not\n        /* \"#utility.yul\":16811:16816   */\n      dup5\n        /* \"#utility.yul\":16807:16828   */\n      and\n        /* \"#utility.yul\":16798:16828   */\n      swap4\n      pop\n        /* \"#utility.yul\":16871:16875   */\n      dup1\n        /* \"#utility.yul\":16861:16869   */\n      dup7\n        /* \"#utility.yul\":16857:16876   */\n      and\n        /* \"#utility.yul\":16850:16855   */\n      dup5\n        /* \"#utility.yul\":16847:16877   */\n      or\n        /* \"#utility.yul\":16837:16877   */\n      swap3\n      pop\n        /* \"#utility.yul\":16566:16883   */\n      pop\n      pop\n        /* \"#utility.yul\":16490:16883   */\n      swap4\n      swap3\n      pop\n      pop\n      pop\n      jump\t// out\n        /* \"#utility.yul\":16889:16949   */\n    tag_136:\n        /* \"#utility.yul\":16917:16920   */\n      0x00\n        /* \"#utility.yul\":16938:16943   */\n      dup2\n        /* \"#utility.yul\":16931:16943   */\n      swap1\n      pop\n        /* \"#utility.yul\":16889:16949   */\n      swap2\n      swap1\n      pop\n      jump\t// out\n        /* \"#utility.yul\":16955:17097   */\n    tag_137:\n        /* \"#utility.yul\":17005:17014   */\n      0x00\n        /* \"#utility.yul\":17038:17091   */\n      tag_304\n        /* \"#utility.yul\":17056:17090   */\n      tag_305\n        /* \"#utility.yul\":17065:17089   */\n      tag_306\n        /* \"#utility.yul\":17083:17088   */\n      dup5\n        /* \"#utility.yul\":17065:17089   */\n      tag_96\n      jump\t// in\n    tag_306:\n        /* \"#utility.yul\":17056:17090   */\n      tag_136\n      jump\t// in\n    tag_305:\n        /* \"#utility.yul\":17038:17091   */\n      tag_96\n      jump\t// in\n    tag_304:\n        /* \"#utility.yul\":17025:17091   */\n      swap1\n      pop\n        /* \"#utility.yul\":16955:17097   */\n      swap2\n      swap1\n      pop\n      jump\t// out\n        /* \"#utility.yul\":17103:17178   */\n    tag_138:\n        /* \"#utility.yul\":17146:17149   */\n      0x00\n        /* \"#utility.yul\":17167:17172   */\n      dup2\n        /* \"#utility.yul\":17160:17172   */\n      swap1\n      pop\n        /* \"#utility.yul\":17103:17178   */\n      swap2\n      swap1\n      pop\n      jump\t// out\n        /* \"#utility.yul\":17184:17453   */\n    tag_139:\n        /* \"#utility.yul\":17294:17333   */\n      tag_309\n        /* \"#utility.yul\":17325:17332   */\n      dup4\n        /* \"#utility.yul\":17294:17333   */\n      tag_137\n      jump\t// in\n    tag_309:\n        /* \"#utility.yul\":17355:17446   */\n      tag_310\n        /* \"#utility.yul\":17404:17445   */\n      tag_311\n        /* \"#utility.yul\":17428:17444   */\n      dup3\n        /* \"#utility.yul\":17404:17445   */\n      tag_138\n      jump\t// in\n    tag_311:\n        /* \"#utility.yul\":17396:17402   */\n      dup5\n        /* \"#utility.yul\":17389:17393   */\n      dup5\n        /* \"#utility.yul\":17383:17394   */\n      sload\n        /* \"#utility.yul\":17355:17446   */\n      tag_135\n      jump\t// in\n    tag_310:\n        /* \"#utility.yul\":17349:17353   */\n      dup3\n        /* \"#utility.yul\":17342:17447   */\n      sstore\n        /* \"#utility.yul\":17260:17453   */\n      pop\n        /* \"#utility.yul\":17184:17453   */\n      pop\n      pop\n      pop\n      jump\t// out\n        /* \"#utility.yul\":17459:17532   */\n    tag_140:\n        /* \"#utility.yul\":17504:17507   */\n      0x00\n        /* \"#utility.yul\":17459:17532   */\n      swap1\n      jump\t// out\n        /* \"#utility.yul\":17538:17727   */\n    tag_141:\n        /* \"#utility.yul\":17615:17647   */\n      tag_314\n      tag_140\n      jump\t// in\n    tag_314:\n        /* \"#utility.yul\":17656:17721   */\n      tag_315\n        /* \"#utility.yul\":17714:17720   */\n      dup2\n        /* \"#utility.yul\":17706:17712   */\n      dup5\n        /* \"#utility.yul\":17700:17704   */\n      dup5\n        /* \"#utility.yul\":17656:17721   */\n      tag_139\n      jump\t// in\n    tag_315:\n        /* \"#utility.yul\":17591:17727   */\n      pop\n        /* \"#utility.yul\":17538:17727   */\n      pop\n      pop\n      jump\t// out\n        /* \"#utility.yul\":17733:17919   */\n    tag_142:\n        /* \"#utility.yul\":17793:17913   */\n    tag_317:\n        /* \"#utility.yul\":17810:17813   */\n      dup2\n        /* \"#utility.yul\":17803:17808   */\n      dup2\n        /* \"#utility.yul\":17800:17814   */\n      lt\n        /* \"#utility.yul\":17793:17913   */\n      iszero\n      tag_319\n      jumpi\n        /* \"#utility.yul\":17864:17903   */\n      tag_320\n        /* \"#utility.yul\":17901:17902   */\n      0x00\n        /* \"#utility.yul\":17894:17899   */\n      dup3\n        /* \"#utility.yul\":17864:17903   */\n      tag_141\n      jump\t// in\n    tag_320:\n        /* \"#utility.yul\":17837:17838   */\n      0x01\n        /* \"#utility.yul\":17830:17835   */\n      dup2\n        /* \"#utility.yul\":17826:17839   */\n      add\n        /* \"#utility.yul\":17817:17839   */\n      swap1\n      pop\n        /* \"#utility.yul\":17793:17913   */\n      jump(tag_317)\n    tag_319:\n        /* \"#utility.yul\":17733:17919   */\n      pop\n      pop\n      jump\t// out\n        /* \"#utility.yul\":17925:18468   */\n    tag_143:\n        /* \"#utility.yul\":18026:18028   */\n      0x1f\n        /* \"#utility.yul\":18021:18024   */\n      dup3\n        /* \"#utility.yul\":18018:18029   */\n      gt\n        /* \"#utility.yul\":18015:18461   */\n      iszero\n      tag_322\n      jumpi\n        /* \"#utility.yul\":18060:18098   */\n      tag_323\n        /* \"#utility.yul\":18092:18097   */\n      dup2\n        /* \"#utility.yul\":18060:18098   */\n      tag_132\n      jump\t// in\n    tag_323:\n        /* \"#utility.yul\":18144:18173   */\n      tag_324\n        /* \"#utility.yul\":18162:18172   */\n      dup5\n        /* \"#utility.yul\":18144:18173   */\n      tag_133\n      jump\t// in\n    tag_324:\n        /* \"#utility.yul\":18134:18142   */\n      dup2\n        /* \"#utility.yul\":18130:18174   */\n      add\n        /* \"#utility.yul\":18327:18329   */\n      0x20\n        /* \"#utility.yul\":18315:18325   */\n      dup6\n        /* \"#utility.yul\":18312:18330   */\n      lt\n        /* \"#utility.yul\":18309:18358   */\n      iszero\n      tag_325\n      jumpi\n        /* \"#utility.yul\":18348:18356   */\n      dup2\n        /* \"#utility.yul\":18333:18356   */\n      swap1\n      pop\n        /* \"#utility.yul\":18309:18358   */\n    tag_325:\n        /* \"#utility.yul\":18371:18451   */\n      tag_326\n        /* \"#utility.yul\":18427:18449   */\n      tag_327\n        /* \"#utility.yul\":18445:18448   */\n      dup6\n        /* \"#utility.yul\":18427:18449   */\n      tag_133\n      jump\t// in\n    tag_327:\n        /* \"#utility.yul\":18417:18425   */\n      dup4\n        /* \"#utility.yul\":18413:18450   */\n      add\n        /* \"#utility.yul\":18400:18411   */\n      dup3\n        /* \"#utility.yul\":18371:18451   */\n      tag_142\n      jump\t// in\n    tag_326:\n        /* \"#utility.yul\":18030:18461   */\n      pop\n      pop\n        /* \"#utility.yul\":18015:18461   */\n    tag_322:\n        /* \"#utility.yul\":17925:18468   */\n      pop\n      pop\n      pop\n      jump\t// out\n        /* \"#utility.yul\":18474:18591   */\n    tag_144:\n        /* \"#utility.yul\":18528:18536   */\n      0x00\n        /* \"#utility.yul\":18578:18583   */\n      dup3\n        /* \"#utility.yul\":18572:18576   */\n      dup3\n        /* \"#utility.yul\":18568:18584   */\n      shr\n        /* \"#utility.yul\":18547:18584   */\n      swap1\n      pop\n        /* \"#utility.yul\":18474:18591   */\n      swap3\n      swap2\n      pop\n      pop\n      jump\t// out\n        /* \"#utility.yul\":18597:18766   */\n    tag_145:\n        /* \"#utility.yul\":18641:18647   */\n      0x00\n        /* \"#utility.yul\":18674:18725   */\n      tag_330\n        /* \"#utility.yul\":18722:18723   */\n      0x00\n        /* \"#utility.yul\":18718:18724   */\n      not\n        /* \"#utility.yul\":18710:18715   */\n      dup5\n        /* \"#utility.yul\":18707:18708   */\n      0x08\n        /* \"#utility.yul\":18703:18716   */\n      mul\n        /* \"#utility.yul\":18674:18725   */\n      tag_144\n      jump\t// in\n    tag_330:\n        /* \"#utility.yul\":18670:18726   */\n      not\n        /* \"#utility.yul\":18755:18759   */\n      dup1\n        /* \"#utility.yul\":18749:18753   */\n      dup4\n        /* \"#utility.yul\":18745:18760   */\n      and\n        /* \"#utility.yul\":18735:18760   */\n      swap2\n      pop\n        /* \"#utility.yul\":18648:18766   */\n      pop\n        /* \"#utility.yul\":18597:18766   */\n      swap3\n      swap2\n      pop\n      pop\n      jump\t// out\n        /* \"#utility.yul\":18771:19066   */\n    tag_146:\n        /* \"#utility.yul\":18847:18851   */\n      0x00\n        /* \"#utility.yul\":18993:19022   */\n      tag_332\n        /* \"#utility.yul\":19018:19021   */\n      dup4\n        /* \"#utility.yul\":19012:19016   */\n      dup4\n        /* \"#utility.yul\":18993:19022   */\n      tag_145\n      jump\t// in\n    tag_332:\n        /* \"#utility.yul\":18985:19022   */\n      swap2\n      pop\n        /* \"#utility.yul\":19055:19058   */\n      dup3\n        /* \"#utility.yul\":19052:19053   */\n      0x02\n        /* \"#utility.yul\":19048:19059   */\n      mul\n        /* \"#utility.yul\":19042:19046   */\n      dup3\n        /* \"#utility.yul\":19039:19060   */\n      or\n        /* \"#utility.yul\":19031:19060   */\n      swap1\n      pop\n        /* \"#utility.yul\":18771:19066   */\n      swap3\n      swap2\n      pop\n      pop\n      jump\t// out\n        /* \"#utility.yul\":19071:20466   */\n    tag_84:\n        /* \"#utility.yul\":19188:19225   */\n      tag_334\n        /* \"#utility.yul\":19221:19224   */\n      dup3\n        /* \"#utility.yul\":19188:19225   */\n      tag_100\n      jump\t// in\n    tag_334:\n        /* \"#utility.yul\":19290:19308   */\n      0xffffffffffffffff\n        /* \"#utility.yul\":19282:19288   */\n      dup2\n        /* \"#utility.yul\":19279:19309   */\n      gt\n        /* \"#utility.yul\":19276:19332   */\n      iszero\n      tag_335\n      jumpi\n        /* \"#utility.yul\":19312:19330   */\n      tag_336\n      tag_120\n      jump\t// in\n    tag_336:\n        /* \"#utility.yul\":19276:19332   */\n    tag_335:\n        /* \"#utility.yul\":19356:19394   */\n      tag_337\n        /* \"#utility.yul\":19388:19392   */\n      dup3\n        /* \"#utility.yul\":19382:19393   */\n      sload\n        /* \"#utility.yul\":19356:19394   */\n      tag_52\n      jump\t// in\n    tag_337:\n        /* \"#utility.yul\":19441:19508   */\n      tag_338\n        /* \"#utility.yul\":19501:19507   */\n      dup3\n        /* \"#utility.yul\":19493:19499   */\n      dup3\n        /* \"#utility.yul\":19487:19491   */\n      dup6\n        /* \"#utility.yul\":19441:19508   */\n      tag_143\n      jump\t// in\n    tag_338:\n        /* \"#utility.yul\":19535:19536   */\n      0x00\n        /* \"#utility.yul\":19559:19563   */\n      0x20\n        /* \"#utility.yul\":19546:19563   */\n      swap1\n      pop\n        /* \"#utility.yul\":19591:19593   */\n      0x1f\n        /* \"#utility.yul\":19583:19589   */\n      dup4\n        /* \"#utility.yul\":19580:19594   */\n      gt\n        /* \"#utility.yul\":19608:19609   */\n      0x01\n        /* \"#utility.yul\":19603:20221   */\n      dup2\n      eq\n      tag_340\n      jumpi\n        /* \"#utility.yul\":20265:20266   */\n      0x00\n        /* \"#utility.yul\":20282:20288   */\n      dup5\n        /* \"#utility.yul\":20279:20356   */\n      iszero\n      tag_341\n      jumpi\n        /* \"#utility.yul\":20331:20340   */\n      dup3\n        /* \"#utility.yul\":20326:20329   */\n      dup8\n        /* \"#utility.yul\":20322:20341   */\n      add\n        /* \"#utility.yul\":20316:20342   */\n      mload\n        /* \"#utility.yul\":20307:20342   */\n      swap1\n      pop\n        /* \"#utility.yul\":20279:20356   */\n    tag_341:\n        /* \"#utility.yul\":20382:20449   */\n      tag_342\n        /* \"#utility.yul\":20442:20448   */\n      dup6\n        /* \"#utility.yul\":20435:20440   */\n      dup3\n        /* \"#utility.yul\":20382:20449   */\n      tag_146\n      jump\t// in\n    tag_342:\n        /* \"#utility.yul\":20376:20380   */\n      dup7\n        /* \"#utility.yul\":20369:20450   */\n      sstore\n        /* \"#utility.yul\":20238:20460   */\n      pop\n        /* \"#utility.yul\":19573:20460   */\n      jump(tag_339)\n        /* \"#utility.yul\":19603:20221   */\n    tag_340:\n        /* \"#utility.yul\":19655:19659   */\n      0x1f\n        /* \"#utility.yul\":19651:19660   */\n      not\n        /* \"#utility.yul\":19643:19649   */\n      dup5\n        /* \"#utility.yul\":19639:19661   */\n      and\n        /* \"#utility.yul\":19689:19726   */\n      tag_343\n        /* \"#utility.yul\":19721:19725   */\n      dup7\n        /* \"#utility.yul\":19689:19726   */\n      tag_132\n      jump\t// in\n    tag_343:\n        /* \"#utility.yul\":19748:19749   */\n      0x00\n        /* \"#utility.yul\":19762:19970   */\n    tag_344:\n        /* \"#utility.yul\":19776:19783   */\n      dup3\n        /* \"#utility.yul\":19773:19774   */\n      dup2\n        /* \"#utility.yul\":19770:19784   */\n      lt\n        /* \"#utility.yul\":19762:19970   */\n      iszero\n      tag_346\n      jumpi\n        /* \"#utility.yul\":19855:19864   */\n      dup5\n        /* \"#utility.yul\":19850:19853   */\n      dup10\n        /* \"#utility.yul\":19846:19865   */\n      add\n        /* \"#utility.yul\":19840:19866   */\n      mload\n        /* \"#utility.yul\":19832:19838   */\n      dup3\n        /* \"#utility.yul\":19825:19867   */\n      sstore\n        /* \"#utility.yul\":19906:19907   */\n      0x01\n        /* \"#utility.yul\":19898:19904   */\n      dup3\n        /* \"#utility.yul\":19894:19908   */\n      add\n        /* \"#utility.yul\":19884:19908   */\n      swap2\n      pop\n        /* \"#utility.yul\":19953:19955   */\n      0x20\n        /* \"#utility.yul\":19942:19951   */\n      dup6\n        /* \"#utility.yul\":19938:19956   */\n      add\n        /* \"#utility.yul\":19925:19956   */\n      swap5\n      pop\n        /* \"#utility.yul\":19799:19803   */\n      0x20\n        /* \"#utility.yul\":19796:19797   */\n      dup2\n        /* \"#utility.yul\":19792:19804   */\n      add\n        /* \"#utility.yul\":19787:19804   */\n      swap1\n      pop\n        /* \"#utility.yul\":19762:19970   */\n      jump(tag_344)\n    tag_346:\n        /* \"#utility.yul\":19998:20004   */\n      dup7\n        /* \"#utility.yul\":19989:19996   */\n      dup4\n        /* \"#utility.yul\":19986:20005   */\n      lt\n        /* \"#utility.yul\":19983:20162   */\n      iszero\n      tag_347\n      jumpi\n        /* \"#utility.yul\":20056:20065   */\n      dup5\n        /* \"#utility.yul\":20051:20054   */\n      dup10\n        /* \"#utility.yul\":20047:20066   */\n      add\n        /* \"#utility.yul\":20041:20067   */\n      mload\n        /* \"#utility.yul\":20099:20147   */\n      tag_348\n        /* \"#utility.yul\":20141:20145   */\n      0x1f\n        /* \"#utility.yul\":20133:20139   */\n      dup10\n        /* \"#utility.yul\":20129:20146   */\n      and\n        /* \"#utility.yul\":20118:20127   */\n      dup3\n        /* \"#utility.yul\":20099:20147   */\n      tag_145\n      jump\t// in\n    tag_348:\n        /* \"#utility.yul\":20091:20097   */\n      dup4\n        /* \"#utility.yul\":20084:20148   */\n      sstore\n        /* \"#utility.yul\":20006:20162   */\n      pop\n        /* \"#utility.yul\":19983:20162   */\n    tag_347:\n        /* \"#utility.yul\":20208:20209   */\n      0x01\n        /* \"#utility.yul\":20204:20205   */\n      0x02\n        /* \"#utility.yul\":20196:20202   */\n      dup9\n        /* \"#utility.yul\":20192:20206   */\n      mul\n        /* \"#utility.yul\":20188:20210   */\n      add\n        /* \"#utility.yul\":20182:20186   */\n      dup9\n        /* \"#utility.yul\":20175:20211   */\n      sstore\n        /* \"#utility.yul\":19610:20221   */\n      pop\n      pop\n      pop\n        /* \"#utility.yul\":19573:20460   */\n    tag_339:\n      pop\n        /* \"#utility.yul\":19163:20466   */\n      pop\n      pop\n      pop\n        /* \"#utility.yul\":19071:20466   */\n      pop\n      pop\n      jump\t// out\n\n    auxdata: 0xa2646970667358221220e65fd2963aa1eccf35d8ec6b56858468f45aa0f2d665eb2987ef296371937aed64736f6c634300081a0033\n}\n",
				"bytecode": {
					"linkReferences": {},
					"object": "60806040526101185f806101000a81548161ffff021916908361ffff160217905550348015602b575f80fd5b503360025f6101000a81548173ffffffffffffffffffffffffffffffffffffffff021916908373ffffffffffffffffffffffffffffffffffffffff160217905550611253806100795f395ff3fe608060405234801561000f575f80fd5b506004361061007b575f3560e01c80636de69b24116100595780636de69b24146100ec57806394495c3c1461011c578063b36fe3f01461014c578063fe0ba9de146101685761007b565b806336013acd1461007f57806349a9839f1461009d5780635c538df3146100b9575b5f80fd5b610087610186565b6040516100949190610811565b60405180910390f35b6100b760048036038101906100b29190610865565b610197565b005b6100d360048036038101906100ce919061091d565b610244565b6040516100e394939291906109e9565b60405180910390f35b6101066004803603810190610101919061091d565b61032f565b6040516101139190610af9565b60405180910390f35b61013660048036038101906101319190610b19565b61049d565b6040516101439190610c5f565b60405180910390f35b61016660048036038101906101619190610dab565b61062e565b005b610170610795565b60405161017d9190610df2565b60405180910390f35b5f8054906101000a900461ffff1681565b60025f9054906101000a900473ffffffffffffffffffffffffffffffffffffffff1673ffffffffffffffffffffffffffffffffffffffff163373ffffffffffffffffffffffffffffffffffffffff1614610226576040517f08c379a000000000000000000000000000000000000000000000000000000000815260040161021d90610e7b565b60405180910390fd5b805f806101000a81548161ffff021916908361ffff16021790555050565b6001602052815f5260405f20818154811061025d575f80fd5b905f5260205f2090600402015f9150915050805f015f9054906101000a900473ffffffffffffffffffffffffffffffffffffffff16908060010180546102a290610ec6565b80601f01602080910402602001604051908101604052809291908181526020018280546102ce90610ec6565b80156103195780601f106102f057610100808354040283529160200191610319565b820191905f5260205f20905b8154815290600101906020018083116102fc57829003601f168201915b5050505050908060020154908060030154905084565b6103376107ba565b60015f8473ffffffffffffffffffffffffffffffffffffffff1673ffffffffffffffffffffffffffffffffffffffff1681526020019081526020015f20828154811061038657610385610ef6565b5b905f5260205f2090600402016040518060800160405290815f82015f9054906101000a900473ffffffffffffffffffffffffffffffffffffffff1673ffffffffffffffffffffffffffffffffffffffff1673ffffffffffffffffffffffffffffffffffffffff16815260200160018201805461040190610ec6565b80601f016020809104026020016040519081016040528092919081815260200182805461042d90610ec6565b80156104785780601f1061044f57610100808354040283529160200191610478565b820191905f5260205f20905b81548152906001019060200180831161045b57829003601f168201915b5050505050815260200160028201548152602001600382015481525050905092915050565b606060015f8373ffffffffffffffffffffffffffffffffffffffff1673ffffffffffffffffffffffffffffffffffffffff1681526020019081526020015f20805480602002602001604051908101604052809291908181526020015f905b82821015610623578382905f5260205f2090600402016040518060800160405290815f82015f9054906101000a900473ffffffffffffffffffffffffffffffffffffffff1673ffffffffffffffffffffffffffffffffffffffff1673ffffffffffffffffffffffffffffffffffffffff16815260200160018201805461058090610ec6565b80601f01602080910402602001604051908101604052809291908181526020018280546105ac90610ec6565b80156105f75780601f106105ce576101008083540402835291602001916105f7565b820191905f5260205f20905b8154815290600101906020018083116105da57829003601f168201915b5050505050815260200160028201548152602001600382015481525050815260200190600101906104fb565b505050509050919050565b5f8054906101000a900461ffff1661ffff1681511115610683576040517f08c379a000000000000000000000000000000000000000000000000000000000815260040161067a90610f93565b60405180910390fd5b5f60405180608001604052803373ffffffffffffffffffffffffffffffffffffffff1681526020018381526020014281526020015f815250905060015f3373ffffffffffffffffffffffffffffffffffffffff1673ffffffffffffffffffffffffffffffffffffffff1681526020019081526020015f2081908060018154018082558091505060019003905f5260205f2090600402015f909190919091505f820151815f015f6101000a81548173ffffffffffffffffffffffffffffffffffffffff021916908373ffffffffffffffffffffffffffffffffffffffff160217905550602082015181600101908161077a919061114e565b50604082015181600201556060820151816003015550505050565b60025f9054906101000a900473ffffffffffffffffffffffffffffffffffffffff1681565b60405180608001604052805f73ffffffffffffffffffffffffffffffffffffffff168152602001606081526020015f81526020015f81525090565b5f61ffff82169050919050565b61080b816107f5565b82525050565b5f6020820190506108245f830184610802565b92915050565b5f604051905090565b5f80fd5b5f80fd5b610844816107f5565b811461084e575f80fd5b50565b5f8135905061085f8161083b565b92915050565b5f6020828403121561087a57610879610833565b5b5f61088784828501610851565b91505092915050565b5f73ffffffffffffffffffffffffffffffffffffffff82169050919050565b5f6108b982610890565b9050919050565b6108c9816108af565b81146108d3575f80fd5b50565b5f813590506108e4816108c0565b92915050565b5f819050919050565b6108fc816108ea565b8114610906575f80fd5b50565b5f81359050610917816108f3565b92915050565b5f806040838503121561093357610932610833565b5b5f610940858286016108d6565b925050602061095185828601610909565b9150509250929050565b610964816108af565b82525050565b5f81519050919050565b5f82825260208201905092915050565b8281835e5f83830152505050565b5f601f19601f8301169050919050565b5f6109ac8261096a565b6109b68185610974565b93506109c6818560208601610984565b6109cf81610992565b840191505092915050565b6109e3816108ea565b82525050565b5f6080820190506109fc5f83018761095b565b8181036020830152610a0e81866109a2565b9050610a1d60408301856109da565b610a2a60608301846109da565b95945050505050565b610a3c816108af565b82525050565b5f82825260208201905092915050565b5f610a5c8261096a565b610a668185610a42565b9350610a76818560208601610984565b610a7f81610992565b840191505092915050565b610a93816108ea565b82525050565b5f608083015f830151610aae5f860182610a33565b5060208301518482036020860152610ac68282610a52565b9150506040830151610adb6040860182610a8a565b506060830151610aee6060860182610a8a565b508091505092915050565b5f6020820190508181035f830152610b118184610a99565b905092915050565b5f60208284031215610b2e57610b2d610833565b5b5f610b3b848285016108d6565b91505092915050565b5f81519050919050565b5f82825260208201905092915050565b5f819050602082019050919050565b5f608083015f830151610b825f860182610a33565b5060208301518482036020860152610b9a8282610a52565b9150506040830151610baf6040860182610a8a565b506060830151610bc26060860182610a8a565b508091505092915050565b5f610bd88383610b6d565b905092915050565b5f602082019050919050565b5f610bf682610b44565b610c008185610b4e565b935083602082028501610c1285610b5e565b805f5b85811015610c4d5784840389528151610c2e8582610bcd565b9450610c3983610be0565b925060208a01995050600181019050610c15565b50829750879550505050505092915050565b5f6020820190508181035f830152610c778184610bec565b905092915050565b5f80fd5b5f80fd5b7f4e487b71000000000000000000000000000000000000000000000000000000005f52604160045260245ffd5b610cbd82610992565b810181811067ffffffffffffffff82111715610cdc57610cdb610c87565b5b80604052505050565b5f610cee61082a565b9050610cfa8282610cb4565b919050565b5f67ffffffffffffffff821115610d1957610d18610c87565b5b610d2282610992565b9050602081019050919050565b828183375f83830152505050565b5f610d4f610d4a84610cff565b610ce5565b905082815260208101848484011115610d6b57610d6a610c83565b5b610d76848285610d2f565b509392505050565b5f82601f830112610d9257610d91610c7f565b5b8135610da2848260208601610d3d565b91505092915050565b5f60208284031215610dc057610dbf610833565b5b5f82013567ffffffffffffffff811115610ddd57610ddc610837565b5b610de984828501610d7e565b91505092915050565b5f602082019050610e055f83018461095b565b92915050565b7f4170656e6173206f20646f6e6f20646f20636f6e747261746f20706f646520655f8201527f7865637574617220657373612066756e63616f21000000000000000000000000602082015250565b5f610e65603483610974565b9150610e7082610e0b565b604082019050919050565b5f6020820190508181035f830152610e9281610e59565b9050919050565b7f4e487b71000000000000000000000000000000000000000000000000000000005f52602260045260245ffd5b5f6002820490506001821680610edd57607f821691505b602082108103610ef057610eef610e99565b5b50919050565b7f4e487b71000000000000000000000000000000000000000000000000000000005f52603260045260245ffd5b7f5175616e746964616465206d6178696d612064652063617261637465726573205f8201527f666f6920756c7472617061737361646121000000000000000000000000000000602082015250565b5f610f7d603183610974565b9150610f8882610f23565b604082019050919050565b5f6020820190508181035f830152610faa81610f71565b9050919050565b5f819050815f5260205f209050919050565b5f6020601f8301049050919050565b5f82821b905092915050565b5f6008830261100d7fffffffffffffffffffffffffffffffffffffffffffffffffffffffffffffffff82610fd2565b6110178683610fd2565b95508019841693508086168417925050509392505050565b5f819050919050565b5f61105261104d611048846108ea565b61102f565b6108ea565b9050919050565b5f819050919050565b61106b83611038565b61107f61107782611059565b848454610fde565b825550505050565b5f90565b611093611087565b61109e818484611062565b505050565b5b818110156110c1576110b65f8261108b565b6001810190506110a4565b5050565b601f821115611106576110d781610fb1565b6110e084610fc3565b810160208510156110ef578190505b6111036110fb85610fc3565b8301826110a3565b50505b505050565b5f82821c905092915050565b5f6111265f198460080261110b565b1980831691505092915050565b5f61113e8383611117565b9150826002028217905092915050565b6111578261096a565b67ffffffffffffffff8111156111705761116f610c87565b5b61117a8254610ec6565b6111858282856110c5565b5f60209050601f8311600181146111b6575f84156111a4578287015190505b6111ae8582611133565b865550611215565b601f1984166111c486610fb1565b5f5b828110156111eb578489015182556001820191506020850194506020810190506111c6565b868310156112085784890151611204601f891682611117565b8355505b6001600288020188555050505b50505050505056fea2646970667358221220e65fd2963aa1eccf35d8ec6b56858468f45aa0f2d665eb2987ef296371937aed64736f6c634300081a0033",
					"opcodes": "PUSH1 0x80 PUSH1 0x40 MSTORE PUSH2 0x118 PUSH0 DUP1 PUSH2 0x100 EXP DUP2 SLOAD DUP2 PUSH2 0xFFFF MUL NOT AND SWAP1 DUP4 PUSH2 0xFFFF AND MUL OR SWAP1 SSTORE POP CALLVALUE DUP1 ISZERO PUSH1 0x2B JUMPI PUSH0 DUP1 REVERT JUMPDEST POP CALLER PUSH1 0x2 PUSH0 PUSH2 0x100 EXP DUP2 SLOAD DUP2 PUSH20 0xFFFFFFFFFFFFFFFFFFFFFFFFFFFFFFFFFFFFFFFF MUL NOT AND SWAP1 DUP4 PUSH20 0xFFFFFFFFFFFFFFFFFFFFFFFFFFFFFFFFFFFFFFFF AND MUL OR SWAP1 SSTORE POP PUSH2 0x1253 DUP1 PUSH2 0x79 PUSH0 CODECOPY PUSH0 RETURN INVALID PUSH1 0x80 PUSH1 0x40 MSTORE CALLVALUE DUP1 ISZERO PUSH2 0xF JUMPI PUSH0 DUP1 REVERT JUMPDEST POP PUSH1 0x4 CALLDATASIZE LT PUSH2 0x7B JUMPI PUSH0 CALLDATALOAD PUSH1 0xE0 SHR DUP1 PUSH4 0x6DE69B24 GT PUSH2 0x59 JUMPI DUP1 PUSH4 0x6DE69B24 EQ PUSH2 0xEC JUMPI DUP1 PUSH4 0x94495C3C EQ PUSH2 0x11C JUMPI DUP1 PUSH4 0xB36FE3F0 EQ PUSH2 0x14C JUMPI DUP1 PUSH4 0xFE0BA9DE EQ PUSH2 0x168 JUMPI PUSH2 0x7B JUMP JUMPDEST DUP1 PUSH4 0x36013ACD EQ PUSH2 0x7F JUMPI DUP1 PUSH4 0x49A9839F EQ PUSH2 0x9D JUMPI DUP1 PUSH4 0x5C538DF3 EQ PUSH2 0xB9 JUMPI JUMPDEST PUSH0 DUP1 REVERT JUMPDEST PUSH2 0x87 PUSH2 0x186 JUMP JUMPDEST PUSH1 0x40 MLOAD PUSH2 0x94 SWAP2 SWAP1 PUSH2 0x811 JUMP JUMPDEST PUSH1 0x40 MLOAD DUP1 SWAP2 SUB SWAP1 RETURN JUMPDEST PUSH2 0xB7 PUSH1 0x4 DUP1 CALLDATASIZE SUB DUP2 ADD SWAP1 PUSH2 0xB2 SWAP2 SWAP1 PUSH2 0x865 JUMP JUMPDEST PUSH2 0x197 JUMP JUMPDEST STOP JUMPDEST PUSH2 0xD3 PUSH1 0x4 DUP1 CALLDATASIZE SUB DUP2 ADD SWAP1 PUSH2 0xCE SWAP2 SWAP1 PUSH2 0x91D JUMP JUMPDEST PUSH2 0x244 JUMP JUMPDEST PUSH1 0x40 MLOAD PUSH2 0xE3 SWAP5 SWAP4 SWAP3 SWAP2 SWAP1 PUSH2 0x9E9 JUMP JUMPDEST PUSH1 0x40 MLOAD DUP1 SWAP2 SUB SWAP1 RETURN JUMPDEST PUSH2 0x106 PUSH1 0x4 DUP1 CALLDATASIZE SUB DUP2 ADD SWAP1 PUSH2 0x101 SWAP2 SWAP1 PUSH2 0x91D JUMP JUMPDEST PUSH2 0x32F JUMP JUMPDEST PUSH1 0x40 MLOAD PUSH2 0x113 SWAP2 SWAP1 PUSH2 0xAF9 JUMP JUMPDEST PUSH1 0x40 MLOAD DUP1 SWAP2 SUB SWAP1 RETURN JUMPDEST PUSH2 0x136 PUSH1 0x4 DUP1 CALLDATASIZE SUB DUP2 ADD SWAP1 PUSH2 0x131 SWAP2 SWAP1 PUSH2 0xB19 JUMP JUMPDEST PUSH2 0x49D JUMP JUMPDEST PUSH1 0x40 MLOAD PUSH2 0x143 SWAP2 SWAP1 PUSH2 0xC5F JUMP JUMPDEST PUSH1 0x40 MLOAD DUP1 SWAP2 SUB SWAP1 RETURN JUMPDEST PUSH2 0x166 PUSH1 0x4 DUP1 CALLDATASIZE SUB DUP2 ADD SWAP1 PUSH2 0x161 SWAP2 SWAP1 PUSH2 0xDAB JUMP JUMPDEST PUSH2 0x62E JUMP JUMPDEST STOP JUMPDEST PUSH2 0x170 PUSH2 0x795 JUMP JUMPDEST PUSH1 0x40 MLOAD PUSH2 0x17D SWAP2 SWAP1 PUSH2 0xDF2 JUMP JUMPDEST PUSH1 0x40 MLOAD DUP1 SWAP2 SUB SWAP1 RETURN JUMPDEST PUSH0 DUP1 SLOAD SWAP1 PUSH2 0x100 EXP SWAP1 DIV PUSH2 0xFFFF AND DUP2 JUMP JUMPDEST PUSH1 0x2 PUSH0 SWAP1 SLOAD SWAP1 PUSH2 0x100 EXP SWAP1 DIV PUSH20 0xFFFFFFFFFFFFFFFFFFFFFFFFFFFFFFFFFFFFFFFF AND PUSH20 0xFFFFFFFFFFFFFFFFFFFFFFFFFFFFFFFFFFFFFFFF AND CALLER PUSH20 0xFFFFFFFFFFFFFFFFFFFFFFFFFFFFFFFFFFFFFFFF AND EQ PUSH2 0x226 JUMPI PUSH1 0x40 MLOAD PUSH32 0x8C379A000000000000000000000000000000000000000000000000000000000 DUP2 MSTORE PUSH1 0x4 ADD PUSH2 0x21D SWAP1 PUSH2 0xE7B JUMP JUMPDEST PUSH1 0x40 MLOAD DUP1 SWAP2 SUB SWAP1 REVERT JUMPDEST DUP1 PUSH0 DUP1 PUSH2 0x100 EXP DUP2 SLOAD DUP2 PUSH2 0xFFFF MUL NOT AND SWAP1 DUP4 PUSH2 0xFFFF AND MUL OR SWAP1 SSTORE POP POP JUMP JUMPDEST PUSH1 0x1 PUSH1 0x20 MSTORE DUP2 PUSH0 MSTORE PUSH1 0x40 PUSH0 KECCAK256 DUP2 DUP2 SLOAD DUP2 LT PUSH2 0x25D JUMPI PUSH0 DUP1 REVERT JUMPDEST SWAP1 PUSH0 MSTORE PUSH1 0x20 PUSH0 KECCAK256 SWAP1 PUSH1 0x4 MUL ADD PUSH0 SWAP2 POP SWAP2 POP POP DUP1 PUSH0 ADD PUSH0 SWAP1 SLOAD SWAP1 PUSH2 0x100 EXP SWAP1 DIV PUSH20 0xFFFFFFFFFFFFFFFFFFFFFFFFFFFFFFFFFFFFFFFF AND SWAP1 DUP1 PUSH1 0x1 ADD DUP1 SLOAD PUSH2 0x2A2 SWAP1 PUSH2 0xEC6 JUMP JUMPDEST DUP1 PUSH1 0x1F ADD PUSH1 0x20 DUP1 SWAP2 DIV MUL PUSH1 0x20 ADD PUSH1 0x40 MLOAD SWAP1 DUP2 ADD PUSH1 0x40 MSTORE DUP1 SWAP3 SWAP2 SWAP1 DUP2 DUP2 MSTORE PUSH1 0x20 ADD DUP3 DUP1 SLOAD PUSH2 0x2CE SWAP1 PUSH2 0xEC6 JUMP JUMPDEST DUP1 ISZERO PUSH2 0x319 JUMPI DUP1 PUSH1 0x1F LT PUSH2 0x2F0 JUMPI PUSH2 0x100 DUP1 DUP4 SLOAD DIV MUL DUP4 MSTORE SWAP2 PUSH1 0x20 ADD SWAP2 PUSH2 0x319 JUMP JUMPDEST DUP3 ADD SWAP2 SWAP1 PUSH0 MSTORE PUSH1 0x20 PUSH0 KECCAK256 SWAP1 JUMPDEST DUP2 SLOAD DUP2 MSTORE SWAP1 PUSH1 0x1 ADD SWAP1 PUSH1 0x20 ADD DUP1 DUP4 GT PUSH2 0x2FC JUMPI DUP3 SWAP1 SUB PUSH1 0x1F AND DUP3 ADD SWAP2 JUMPDEST POP POP POP POP POP SWAP1 DUP1 PUSH1 0x2 ADD SLOAD SWAP1 DUP1 PUSH1 0x3 ADD SLOAD SWAP1 POP DUP5 JUMP JUMPDEST PUSH2 0x337 PUSH2 0x7BA JUMP JUMPDEST PUSH1 0x1 PUSH0 DUP5 PUSH20 0xFFFFFFFFFFFFFFFFFFFFFFFFFFFFFFFFFFFFFFFF AND PUSH20 0xFFFFFFFFFFFFFFFFFFFFFFFFFFFFFFFFFFFFFFFF AND DUP2 MSTORE PUSH1 0x20 ADD SWAP1 DUP2 MSTORE PUSH1 0x20 ADD PUSH0 KECCAK256 DUP3 DUP2 SLOAD DUP2 LT PUSH2 0x386 JUMPI PUSH2 0x385 PUSH2 0xEF6 JUMP JUMPDEST JUMPDEST SWAP1 PUSH0 MSTORE PUSH1 0x20 PUSH0 KECCAK256 SWAP1 PUSH1 0x4 MUL ADD PUSH1 0x40 MLOAD DUP1 PUSH1 0x80 ADD PUSH1 0x40 MSTORE SWAP1 DUP2 PUSH0 DUP3 ADD PUSH0 SWAP1 SLOAD SWAP1 PUSH2 0x100 EXP SWAP1 DIV PUSH20 0xFFFFFFFFFFFFFFFFFFFFFFFFFFFFFFFFFFFFFFFF AND PUSH20 0xFFFFFFFFFFFFFFFFFFFFFFFFFFFFFFFFFFFFFFFF AND PUSH20 0xFFFFFFFFFFFFFFFFFFFFFFFFFFFFFFFFFFFFFFFF AND DUP2 MSTORE PUSH1 0x20 ADD PUSH1 0x1 DUP3 ADD DUP1 SLOAD PUSH2 0x401 SWAP1 PUSH2 0xEC6 JUMP JUMPDEST DUP1 PUSH1 0x1F ADD PUSH1 0x20 DUP1 SWAP2 DIV MUL PUSH1 0x20 ADD PUSH1 0x40 MLOAD SWAP1 DUP2 ADD PUSH1 0x40 MSTORE DUP1 SWAP3 SWAP2 SWAP1 DUP2 DUP2 MSTORE PUSH1 0x20 ADD DUP3 DUP1 SLOAD PUSH2 0x42D SWAP1 PUSH2 0xEC6 JUMP JUMPDEST DUP1 ISZERO PUSH2 0x478 JUMPI DUP1 PUSH1 0x1F LT PUSH2 0x44F JUMPI PUSH2 0x100 DUP1 DUP4 SLOAD DIV MUL DUP4 MSTORE SWAP2 PUSH1 0x20 ADD SWAP2 PUSH2 0x478 JUMP JUMPDEST DUP3 ADD SWAP2 SWAP1 PUSH0 MSTORE PUSH1 0x20 PUSH0 KECCAK256 SWAP1 JUMPDEST DUP2 SLOAD DUP2 MSTORE SWAP1 PUSH1 0x1 ADD SWAP1 PUSH1 0x20 ADD DUP1 DUP4 GT PUSH2 0x45B JUMPI DUP3 SWAP1 SUB PUSH1 0x1F AND DUP3 ADD SWAP2 JUMPDEST POP POP POP POP POP DUP2 MSTORE PUSH1 0x20 ADD PUSH1 0x2 DUP3 ADD SLOAD DUP2 MSTORE PUSH1 0x20 ADD PUSH1 0x3 DUP3 ADD SLOAD DUP2 MSTORE POP POP SWAP1 POP SWAP3 SWAP2 POP POP JUMP JUMPDEST PUSH1 0x60 PUSH1 0x1 PUSH0 DUP4 PUSH20 0xFFFFFFFFFFFFFFFFFFFFFFFFFFFFFFFFFFFFFFFF AND PUSH20 0xFFFFFFFFFFFFFFFFFFFFFFFFFFFFFFFFFFFFFFFF AND DUP2 MSTORE PUSH1 0x20 ADD SWAP1 DUP2 MSTORE PUSH1 0x20 ADD PUSH0 KECCAK256 DUP1 SLOAD DUP1 PUSH1 0x20 MUL PUSH1 0x20 ADD PUSH1 0x40 MLOAD SWAP1 DUP2 ADD PUSH1 0x40 MSTORE DUP1 SWAP3 SWAP2 SWAP1 DUP2 DUP2 MSTORE PUSH1 0x20 ADD PUSH0 SWAP1 JUMPDEST DUP3 DUP3 LT ISZERO PUSH2 0x623 JUMPI DUP4 DUP3 SWAP1 PUSH0 MSTORE PUSH1 0x20 PUSH0 KECCAK256 SWAP1 PUSH1 0x4 MUL ADD PUSH1 0x40 MLOAD DUP1 PUSH1 0x80 ADD PUSH1 0x40 MSTORE SWAP1 DUP2 PUSH0 DUP3 ADD PUSH0 SWAP1 SLOAD SWAP1 PUSH2 0x100 EXP SWAP1 DIV PUSH20 0xFFFFFFFFFFFFFFFFFFFFFFFFFFFFFFFFFFFFFFFF AND PUSH20 0xFFFFFFFFFFFFFFFFFFFFFFFFFFFFFFFFFFFFFFFF AND PUSH20 0xFFFFFFFFFFFFFFFFFFFFFFFFFFFFFFFFFFFFFFFF AND DUP2 MSTORE PUSH1 0x20 ADD PUSH1 0x1 DUP3 ADD DUP1 SLOAD PUSH2 0x580 SWAP1 PUSH2 0xEC6 JUMP JUMPDEST DUP1 PUSH1 0x1F ADD PUSH1 0x20 DUP1 SWAP2 DIV MUL PUSH1 0x20 ADD PUSH1 0x40 MLOAD SWAP1 DUP2 ADD PUSH1 0x40 MSTORE DUP1 SWAP3 SWAP2 SWAP1 DUP2 DUP2 MSTORE PUSH1 0x20 ADD DUP3 DUP1 SLOAD PUSH2 0x5AC SWAP1 PUSH2 0xEC6 JUMP JUMPDEST DUP1 ISZERO PUSH2 0x5F7 JUMPI DUP1 PUSH1 0x1F LT PUSH2 0x5CE JUMPI PUSH2 0x100 DUP1 DUP4 SLOAD DIV MUL DUP4 MSTORE SWAP2 PUSH1 0x20 ADD SWAP2 PUSH2 0x5F7 JUMP JUMPDEST DUP3 ADD SWAP2 SWAP1 PUSH0 MSTORE PUSH1 0x20 PUSH0 KECCAK256 SWAP1 JUMPDEST DUP2 SLOAD DUP2 MSTORE SWAP1 PUSH1 0x1 ADD SWAP1 PUSH1 0x20 ADD DUP1 DUP4 GT PUSH2 0x5DA JUMPI DUP3 SWAP1 SUB PUSH1 0x1F AND DUP3 ADD SWAP2 JUMPDEST POP POP POP POP POP DUP2 MSTORE PUSH1 0x20 ADD PUSH1 0x2 DUP3 ADD SLOAD DUP2 MSTORE PUSH1 0x20 ADD PUSH1 0x3 DUP3 ADD SLOAD DUP2 MSTORE POP POP DUP2 MSTORE PUSH1 0x20 ADD SWAP1 PUSH1 0x1 ADD SWAP1 PUSH2 0x4FB JUMP JUMPDEST POP POP POP POP SWAP1 POP SWAP2 SWAP1 POP JUMP JUMPDEST PUSH0 DUP1 SLOAD SWAP1 PUSH2 0x100 EXP SWAP1 DIV PUSH2 0xFFFF AND PUSH2 0xFFFF AND DUP2 MLOAD GT ISZERO PUSH2 0x683 JUMPI PUSH1 0x40 MLOAD PUSH32 0x8C379A000000000000000000000000000000000000000000000000000000000 DUP2 MSTORE PUSH1 0x4 ADD PUSH2 0x67A SWAP1 PUSH2 0xF93 JUMP JUMPDEST PUSH1 0x40 MLOAD DUP1 SWAP2 SUB SWAP1 REVERT JUMPDEST PUSH0 PUSH1 0x40 MLOAD DUP1 PUSH1 0x80 ADD PUSH1 0x40 MSTORE DUP1 CALLER PUSH20 0xFFFFFFFFFFFFFFFFFFFFFFFFFFFFFFFFFFFFFFFF AND DUP2 MSTORE PUSH1 0x20 ADD DUP4 DUP2 MSTORE PUSH1 0x20 ADD TIMESTAMP DUP2 MSTORE PUSH1 0x20 ADD PUSH0 DUP2 MSTORE POP SWAP1 POP PUSH1 0x1 PUSH0 CALLER PUSH20 0xFFFFFFFFFFFFFFFFFFFFFFFFFFFFFFFFFFFFFFFF AND PUSH20 0xFFFFFFFFFFFFFFFFFFFFFFFFFFFFFFFFFFFFFFFF AND DUP2 MSTORE PUSH1 0x20 ADD SWAP1 DUP2 MSTORE PUSH1 0x20 ADD PUSH0 KECCAK256 DUP2 SWAP1 DUP1 PUSH1 0x1 DUP2 SLOAD ADD DUP1 DUP3 SSTORE DUP1 SWAP2 POP POP PUSH1 0x1 SWAP1 SUB SWAP1 PUSH0 MSTORE PUSH1 0x20 PUSH0 KECCAK256 SWAP1 PUSH1 0x4 MUL ADD PUSH0 SWAP1 SWAP2 SWAP1 SWAP2 SWAP1 SWAP2 POP PUSH0 DUP3 ADD MLOAD DUP2 PUSH0 ADD PUSH0 PUSH2 0x100 EXP DUP2 SLOAD DUP2 PUSH20 0xFFFFFFFFFFFFFFFFFFFFFFFFFFFFFFFFFFFFFFFF MUL NOT AND SWAP1 DUP4 PUSH20 0xFFFFFFFFFFFFFFFFFFFFFFFFFFFFFFFFFFFFFFFF AND MUL OR SWAP1 SSTORE POP PUSH1 0x20 DUP3 ADD MLOAD DUP2 PUSH1 0x1 ADD SWAP1 DUP2 PUSH2 0x77A SWAP2 SWAP1 PUSH2 0x114E JUMP JUMPDEST POP PUSH1 0x40 DUP3 ADD MLOAD DUP2 PUSH1 0x2 ADD SSTORE PUSH1 0x60 DUP3 ADD MLOAD DUP2 PUSH1 0x3 ADD SSTORE POP POP POP POP JUMP JUMPDEST PUSH1 0x2 PUSH0 SWAP1 SLOAD SWAP1 PUSH2 0x100 EXP SWAP1 DIV PUSH20 0xFFFFFFFFFFFFFFFFFFFFFFFFFFFFFFFFFFFFFFFF AND DUP2 JUMP JUMPDEST PUSH1 0x40 MLOAD DUP1 PUSH1 0x80 ADD PUSH1 0x40 MSTORE DUP1 PUSH0 PUSH20 0xFFFFFFFFFFFFFFFFFFFFFFFFFFFFFFFFFFFFFFFF AND DUP2 MSTORE PUSH1 0x20 ADD PUSH1 0x60 DUP2 MSTORE PUSH1 0x20 ADD PUSH0 DUP2 MSTORE PUSH1 0x20 ADD PUSH0 DUP2 MSTORE POP SWAP1 JUMP JUMPDEST PUSH0 PUSH2 0xFFFF DUP3 AND SWAP1 POP SWAP2 SWAP1 POP JUMP JUMPDEST PUSH2 0x80B DUP2 PUSH2 0x7F5 JUMP JUMPDEST DUP3 MSTORE POP POP JUMP JUMPDEST PUSH0 PUSH1 0x20 DUP3 ADD SWAP1 POP PUSH2 0x824 PUSH0 DUP4 ADD DUP5 PUSH2 0x802 JUMP JUMPDEST SWAP3 SWAP2 POP POP JUMP JUMPDEST PUSH0 PUSH1 0x40 MLOAD SWAP1 POP SWAP1 JUMP JUMPDEST PUSH0 DUP1 REVERT JUMPDEST PUSH0 DUP1 REVERT JUMPDEST PUSH2 0x844 DUP2 PUSH2 0x7F5 JUMP JUMPDEST DUP2 EQ PUSH2 0x84E JUMPI PUSH0 DUP1 REVERT JUMPDEST POP JUMP JUMPDEST PUSH0 DUP2 CALLDATALOAD SWAP1 POP PUSH2 0x85F DUP2 PUSH2 0x83B JUMP JUMPDEST SWAP3 SWAP2 POP POP JUMP JUMPDEST PUSH0 PUSH1 0x20 DUP3 DUP5 SUB SLT ISZERO PUSH2 0x87A JUMPI PUSH2 0x879 PUSH2 0x833 JUMP JUMPDEST JUMPDEST PUSH0 PUSH2 0x887 DUP5 DUP3 DUP6 ADD PUSH2 0x851 JUMP JUMPDEST SWAP2 POP POP SWAP3 SWAP2 POP POP JUMP JUMPDEST PUSH0 PUSH20 0xFFFFFFFFFFFFFFFFFFFFFFFFFFFFFFFFFFFFFFFF DUP3 AND SWAP1 POP SWAP2 SWAP1 POP JUMP JUMPDEST PUSH0 PUSH2 0x8B9 DUP3 PUSH2 0x890 JUMP JUMPDEST SWAP1 POP SWAP2 SWAP1 POP JUMP JUMPDEST PUSH2 0x8C9 DUP2 PUSH2 0x8AF JUMP JUMPDEST DUP2 EQ PUSH2 0x8D3 JUMPI PUSH0 DUP1 REVERT JUMPDEST POP JUMP JUMPDEST PUSH0 DUP2 CALLDATALOAD SWAP1 POP PUSH2 0x8E4 DUP2 PUSH2 0x8C0 JUMP JUMPDEST SWAP3 SWAP2 POP POP JUMP JUMPDEST PUSH0 DUP2 SWAP1 POP SWAP2 SWAP1 POP JUMP JUMPDEST PUSH2 0x8FC DUP2 PUSH2 0x8EA JUMP JUMPDEST DUP2 EQ PUSH2 0x906 JUMPI PUSH0 DUP1 REVERT JUMPDEST POP JUMP JUMPDEST PUSH0 DUP2 CALLDATALOAD SWAP1 POP PUSH2 0x917 DUP2 PUSH2 0x8F3 JUMP JUMPDEST SWAP3 SWAP2 POP POP JUMP JUMPDEST PUSH0 DUP1 PUSH1 0x40 DUP4 DUP6 SUB SLT ISZERO PUSH2 0x933 JUMPI PUSH2 0x932 PUSH2 0x833 JUMP JUMPDEST JUMPDEST PUSH0 PUSH2 0x940 DUP6 DUP3 DUP7 ADD PUSH2 0x8D6 JUMP JUMPDEST SWAP3 POP POP PUSH1 0x20 PUSH2 0x951 DUP6 DUP3 DUP7 ADD PUSH2 0x909 JUMP JUMPDEST SWAP2 POP POP SWAP3 POP SWAP3 SWAP1 POP JUMP JUMPDEST PUSH2 0x964 DUP2 PUSH2 0x8AF JUMP JUMPDEST DUP3 MSTORE POP POP JUMP JUMPDEST PUSH0 DUP2 MLOAD SWAP1 POP SWAP2 SWAP1 POP JUMP JUMPDEST PUSH0 DUP3 DUP3 MSTORE PUSH1 0x20 DUP3 ADD SWAP1 POP SWAP3 SWAP2 POP POP JUMP JUMPDEST DUP3 DUP2 DUP4 MCOPY PUSH0 DUP4 DUP4 ADD MSTORE POP POP POP JUMP JUMPDEST PUSH0 PUSH1 0x1F NOT PUSH1 0x1F DUP4 ADD AND SWAP1 POP SWAP2 SWAP1 POP JUMP JUMPDEST PUSH0 PUSH2 0x9AC DUP3 PUSH2 0x96A JUMP JUMPDEST PUSH2 0x9B6 DUP2 DUP6 PUSH2 0x974 JUMP JUMPDEST SWAP4 POP PUSH2 0x9C6 DUP2 DUP6 PUSH1 0x20 DUP7 ADD PUSH2 0x984 JUMP JUMPDEST PUSH2 0x9CF DUP2 PUSH2 0x992 JUMP JUMPDEST DUP5 ADD SWAP2 POP POP SWAP3 SWAP2 POP POP JUMP JUMPDEST PUSH2 0x9E3 DUP2 PUSH2 0x8EA JUMP JUMPDEST DUP3 MSTORE POP POP JUMP JUMPDEST PUSH0 PUSH1 0x80 DUP3 ADD SWAP1 POP PUSH2 0x9FC PUSH0 DUP4 ADD DUP8 PUSH2 0x95B JUMP JUMPDEST DUP2 DUP2 SUB PUSH1 0x20 DUP4 ADD MSTORE PUSH2 0xA0E DUP2 DUP7 PUSH2 0x9A2 JUMP JUMPDEST SWAP1 POP PUSH2 0xA1D PUSH1 0x40 DUP4 ADD DUP6 PUSH2 0x9DA JUMP JUMPDEST PUSH2 0xA2A PUSH1 0x60 DUP4 ADD DUP5 PUSH2 0x9DA JUMP JUMPDEST SWAP6 SWAP5 POP POP POP POP POP JUMP JUMPDEST PUSH2 0xA3C DUP2 PUSH2 0x8AF JUMP JUMPDEST DUP3 MSTORE POP POP JUMP JUMPDEST PUSH0 DUP3 DUP3 MSTORE PUSH1 0x20 DUP3 ADD SWAP1 POP SWAP3 SWAP2 POP POP JUMP JUMPDEST PUSH0 PUSH2 0xA5C DUP3 PUSH2 0x96A JUMP JUMPDEST PUSH2 0xA66 DUP2 DUP6 PUSH2 0xA42 JUMP JUMPDEST SWAP4 POP PUSH2 0xA76 DUP2 DUP6 PUSH1 0x20 DUP7 ADD PUSH2 0x984 JUMP JUMPDEST PUSH2 0xA7F DUP2 PUSH2 0x992 JUMP JUMPDEST DUP5 ADD SWAP2 POP POP SWAP3 SWAP2 POP POP JUMP JUMPDEST PUSH2 0xA93 DUP2 PUSH2 0x8EA JUMP JUMPDEST DUP3 MSTORE POP POP JUMP JUMPDEST PUSH0 PUSH1 0x80 DUP4 ADD PUSH0 DUP4 ADD MLOAD PUSH2 0xAAE PUSH0 DUP7 ADD DUP3 PUSH2 0xA33 JUMP JUMPDEST POP PUSH1 0x20 DUP4 ADD MLOAD DUP5 DUP3 SUB PUSH1 0x20 DUP7 ADD MSTORE PUSH2 0xAC6 DUP3 DUP3 PUSH2 0xA52 JUMP JUMPDEST SWAP2 POP POP PUSH1 0x40 DUP4 ADD MLOAD PUSH2 0xADB PUSH1 0x40 DUP7 ADD DUP3 PUSH2 0xA8A JUMP JUMPDEST POP PUSH1 0x60 DUP4 ADD MLOAD PUSH2 0xAEE PUSH1 0x60 DUP7 ADD DUP3 PUSH2 0xA8A JUMP JUMPDEST POP DUP1 SWAP2 POP POP SWAP3 SWAP2 POP POP JUMP JUMPDEST PUSH0 PUSH1 0x20 DUP3 ADD SWAP1 POP DUP2 DUP2 SUB PUSH0 DUP4 ADD MSTORE PUSH2 0xB11 DUP2 DUP5 PUSH2 0xA99 JUMP JUMPDEST SWAP1 POP SWAP3 SWAP2 POP POP JUMP JUMPDEST PUSH0 PUSH1 0x20 DUP3 DUP5 SUB SLT ISZERO PUSH2 0xB2E JUMPI PUSH2 0xB2D PUSH2 0x833 JUMP JUMPDEST JUMPDEST PUSH0 PUSH2 0xB3B DUP5 DUP3 DUP6 ADD PUSH2 0x8D6 JUMP JUMPDEST SWAP2 POP POP SWAP3 SWAP2 POP POP JUMP JUMPDEST PUSH0 DUP2 MLOAD SWAP1 POP SWAP2 SWAP1 POP JUMP JUMPDEST PUSH0 DUP3 DUP3 MSTORE PUSH1 0x20 DUP3 ADD SWAP1 POP SWAP3 SWAP2 POP POP JUMP JUMPDEST PUSH0 DUP2 SWAP1 POP PUSH1 0x20 DUP3 ADD SWAP1 POP SWAP2 SWAP1 POP JUMP JUMPDEST PUSH0 PUSH1 0x80 DUP4 ADD PUSH0 DUP4 ADD MLOAD PUSH2 0xB82 PUSH0 DUP7 ADD DUP3 PUSH2 0xA33 JUMP JUMPDEST POP PUSH1 0x20 DUP4 ADD MLOAD DUP5 DUP3 SUB PUSH1 0x20 DUP7 ADD MSTORE PUSH2 0xB9A DUP3 DUP3 PUSH2 0xA52 JUMP JUMPDEST SWAP2 POP POP PUSH1 0x40 DUP4 ADD MLOAD PUSH2 0xBAF PUSH1 0x40 DUP7 ADD DUP3 PUSH2 0xA8A JUMP JUMPDEST POP PUSH1 0x60 DUP4 ADD MLOAD PUSH2 0xBC2 PUSH1 0x60 DUP7 ADD DUP3 PUSH2 0xA8A JUMP JUMPDEST POP DUP1 SWAP2 POP POP SWAP3 SWAP2 POP POP JUMP JUMPDEST PUSH0 PUSH2 0xBD8 DUP4 DUP4 PUSH2 0xB6D JUMP JUMPDEST SWAP1 POP SWAP3 SWAP2 POP POP JUMP JUMPDEST PUSH0 PUSH1 0x20 DUP3 ADD SWAP1 POP SWAP2 SWAP1 POP JUMP JUMPDEST PUSH0 PUSH2 0xBF6 DUP3 PUSH2 0xB44 JUMP JUMPDEST PUSH2 0xC00 DUP2 DUP6 PUSH2 0xB4E JUMP JUMPDEST SWAP4 POP DUP4 PUSH1 0x20 DUP3 MUL DUP6 ADD PUSH2 0xC12 DUP6 PUSH2 0xB5E JUMP JUMPDEST DUP1 PUSH0 JUMPDEST DUP6 DUP2 LT ISZERO PUSH2 0xC4D JUMPI DUP5 DUP5 SUB DUP10 MSTORE DUP2 MLOAD PUSH2 0xC2E DUP6 DUP3 PUSH2 0xBCD JUMP JUMPDEST SWAP5 POP PUSH2 0xC39 DUP4 PUSH2 0xBE0 JUMP JUMPDEST SWAP3 POP PUSH1 0x20 DUP11 ADD SWAP10 POP POP PUSH1 0x1 DUP2 ADD SWAP1 POP PUSH2 0xC15 JUMP JUMPDEST POP DUP3 SWAP8 POP DUP8 SWAP6 POP POP POP POP POP POP SWAP3 SWAP2 POP POP JUMP JUMPDEST PUSH0 PUSH1 0x20 DUP3 ADD SWAP1 POP DUP2 DUP2 SUB PUSH0 DUP4 ADD MSTORE PUSH2 0xC77 DUP2 DUP5 PUSH2 0xBEC JUMP JUMPDEST SWAP1 POP SWAP3 SWAP2 POP POP JUMP JUMPDEST PUSH0 DUP1 REVERT JUMPDEST PUSH0 DUP1 REVERT JUMPDEST PUSH32 0x4E487B7100000000000000000000000000000000000000000000000000000000 PUSH0 MSTORE PUSH1 0x41 PUSH1 0x4 MSTORE PUSH1 0x24 PUSH0 REVERT JUMPDEST PUSH2 0xCBD DUP3 PUSH2 0x992 JUMP JUMPDEST DUP2 ADD DUP2 DUP2 LT PUSH8 0xFFFFFFFFFFFFFFFF DUP3 GT OR ISZERO PUSH2 0xCDC JUMPI PUSH2 0xCDB PUSH2 0xC87 JUMP JUMPDEST JUMPDEST DUP1 PUSH1 0x40 MSTORE POP POP POP JUMP JUMPDEST PUSH0 PUSH2 0xCEE PUSH2 0x82A JUMP JUMPDEST SWAP1 POP PUSH2 0xCFA DUP3 DUP3 PUSH2 0xCB4 JUMP JUMPDEST SWAP2 SWAP1 POP JUMP JUMPDEST PUSH0 PUSH8 0xFFFFFFFFFFFFFFFF DUP3 GT ISZERO PUSH2 0xD19 JUMPI PUSH2 0xD18 PUSH2 0xC87 JUMP JUMPDEST JUMPDEST PUSH2 0xD22 DUP3 PUSH2 0x992 JUMP JUMPDEST SWAP1 POP PUSH1 0x20 DUP2 ADD SWAP1 POP SWAP2 SWAP1 POP JUMP JUMPDEST DUP3 DUP2 DUP4 CALLDATACOPY PUSH0 DUP4 DUP4 ADD MSTORE POP POP POP JUMP JUMPDEST PUSH0 PUSH2 0xD4F PUSH2 0xD4A DUP5 PUSH2 0xCFF JUMP JUMPDEST PUSH2 0xCE5 JUMP JUMPDEST SWAP1 POP DUP3 DUP2 MSTORE PUSH1 0x20 DUP2 ADD DUP5 DUP5 DUP5 ADD GT ISZERO PUSH2 0xD6B JUMPI PUSH2 0xD6A PUSH2 0xC83 JUMP JUMPDEST JUMPDEST PUSH2 0xD76 DUP5 DUP3 DUP6 PUSH2 0xD2F JUMP JUMPDEST POP SWAP4 SWAP3 POP POP POP JUMP JUMPDEST PUSH0 DUP3 PUSH1 0x1F DUP4 ADD SLT PUSH2 0xD92 JUMPI PUSH2 0xD91 PUSH2 0xC7F JUMP JUMPDEST JUMPDEST DUP2 CALLDATALOAD PUSH2 0xDA2 DUP5 DUP3 PUSH1 0x20 DUP7 ADD PUSH2 0xD3D JUMP JUMPDEST SWAP2 POP POP SWAP3 SWAP2 POP POP JUMP JUMPDEST PUSH0 PUSH1 0x20 DUP3 DUP5 SUB SLT ISZERO PUSH2 0xDC0 JUMPI PUSH2 0xDBF PUSH2 0x833 JUMP JUMPDEST JUMPDEST PUSH0 DUP3 ADD CALLDATALOAD PUSH8 0xFFFFFFFFFFFFFFFF DUP2 GT ISZERO PUSH2 0xDDD JUMPI PUSH2 0xDDC PUSH2 0x837 JUMP JUMPDEST JUMPDEST PUSH2 0xDE9 DUP5 DUP3 DUP6 ADD PUSH2 0xD7E JUMP JUMPDEST SWAP2 POP POP SWAP3 SWAP2 POP POP JUMP JUMPDEST PUSH0 PUSH1 0x20 DUP3 ADD SWAP1 POP PUSH2 0xE05 PUSH0 DUP4 ADD DUP5 PUSH2 0x95B JUMP JUMPDEST SWAP3 SWAP2 POP POP JUMP JUMPDEST PUSH32 0x4170656E6173206F20646F6E6F20646F20636F6E747261746F20706F64652065 PUSH0 DUP3 ADD MSTORE PUSH32 0x7865637574617220657373612066756E63616F21000000000000000000000000 PUSH1 0x20 DUP3 ADD MSTORE POP JUMP JUMPDEST PUSH0 PUSH2 0xE65 PUSH1 0x34 DUP4 PUSH2 0x974 JUMP JUMPDEST SWAP2 POP PUSH2 0xE70 DUP3 PUSH2 0xE0B JUMP JUMPDEST PUSH1 0x40 DUP3 ADD SWAP1 POP SWAP2 SWAP1 POP JUMP JUMPDEST PUSH0 PUSH1 0x20 DUP3 ADD SWAP1 POP DUP2 DUP2 SUB PUSH0 DUP4 ADD MSTORE PUSH2 0xE92 DUP2 PUSH2 0xE59 JUMP JUMPDEST SWAP1 POP SWAP2 SWAP1 POP JUMP JUMPDEST PUSH32 0x4E487B7100000000000000000000000000000000000000000000000000000000 PUSH0 MSTORE PUSH1 0x22 PUSH1 0x4 MSTORE PUSH1 0x24 PUSH0 REVERT JUMPDEST PUSH0 PUSH1 0x2 DUP3 DIV SWAP1 POP PUSH1 0x1 DUP3 AND DUP1 PUSH2 0xEDD JUMPI PUSH1 0x7F DUP3 AND SWAP2 POP JUMPDEST PUSH1 0x20 DUP3 LT DUP2 SUB PUSH2 0xEF0 JUMPI PUSH2 0xEEF PUSH2 0xE99 JUMP JUMPDEST JUMPDEST POP SWAP2 SWAP1 POP JUMP JUMPDEST PUSH32 0x4E487B7100000000000000000000000000000000000000000000000000000000 PUSH0 MSTORE PUSH1 0x32 PUSH1 0x4 MSTORE PUSH1 0x24 PUSH0 REVERT JUMPDEST PUSH32 0x5175616E746964616465206D6178696D61206465206361726163746572657320 PUSH0 DUP3 ADD MSTORE PUSH32 0x666F6920756C7472617061737361646121000000000000000000000000000000 PUSH1 0x20 DUP3 ADD MSTORE POP JUMP JUMPDEST PUSH0 PUSH2 0xF7D PUSH1 0x31 DUP4 PUSH2 0x974 JUMP JUMPDEST SWAP2 POP PUSH2 0xF88 DUP3 PUSH2 0xF23 JUMP JUMPDEST PUSH1 0x40 DUP3 ADD SWAP1 POP SWAP2 SWAP1 POP JUMP JUMPDEST PUSH0 PUSH1 0x20 DUP3 ADD SWAP1 POP DUP2 DUP2 SUB PUSH0 DUP4 ADD MSTORE PUSH2 0xFAA DUP2 PUSH2 0xF71 JUMP JUMPDEST SWAP1 POP SWAP2 SWAP1 POP JUMP JUMPDEST PUSH0 DUP2 SWAP1 POP DUP2 PUSH0 MSTORE PUSH1 0x20 PUSH0 KECCAK256 SWAP1 POP SWAP2 SWAP1 POP JUMP JUMPDEST PUSH0 PUSH1 0x20 PUSH1 0x1F DUP4 ADD DIV SWAP1 POP SWAP2 SWAP1 POP JUMP JUMPDEST PUSH0 DUP3 DUP3 SHL SWAP1 POP SWAP3 SWAP2 POP POP JUMP JUMPDEST PUSH0 PUSH1 0x8 DUP4 MUL PUSH2 0x100D PUSH32 0xFFFFFFFFFFFFFFFFFFFFFFFFFFFFFFFFFFFFFFFFFFFFFFFFFFFFFFFFFFFFFFFF DUP3 PUSH2 0xFD2 JUMP JUMPDEST PUSH2 0x1017 DUP7 DUP4 PUSH2 0xFD2 JUMP JUMPDEST SWAP6 POP DUP1 NOT DUP5 AND SWAP4 POP DUP1 DUP7 AND DUP5 OR SWAP3 POP POP POP SWAP4 SWAP3 POP POP POP JUMP JUMPDEST PUSH0 DUP2 SWAP1 POP SWAP2 SWAP1 POP JUMP JUMPDEST PUSH0 PUSH2 0x1052 PUSH2 0x104D PUSH2 0x1048 DUP5 PUSH2 0x8EA JUMP JUMPDEST PUSH2 0x102F JUMP JUMPDEST PUSH2 0x8EA JUMP JUMPDEST SWAP1 POP SWAP2 SWAP1 POP JUMP JUMPDEST PUSH0 DUP2 SWAP1 POP SWAP2 SWAP1 POP JUMP JUMPDEST PUSH2 0x106B DUP4 PUSH2 0x1038 JUMP JUMPDEST PUSH2 0x107F PUSH2 0x1077 DUP3 PUSH2 0x1059 JUMP JUMPDEST DUP5 DUP5 SLOAD PUSH2 0xFDE JUMP JUMPDEST DUP3 SSTORE POP POP POP POP JUMP JUMPDEST PUSH0 SWAP1 JUMP JUMPDEST PUSH2 0x1093 PUSH2 0x1087 JUMP JUMPDEST PUSH2 0x109E DUP2 DUP5 DUP5 PUSH2 0x1062 JUMP JUMPDEST POP POP POP JUMP JUMPDEST JUMPDEST DUP2 DUP2 LT ISZERO PUSH2 0x10C1 JUMPI PUSH2 0x10B6 PUSH0 DUP3 PUSH2 0x108B JUMP JUMPDEST PUSH1 0x1 DUP2 ADD SWAP1 POP PUSH2 0x10A4 JUMP JUMPDEST POP POP JUMP JUMPDEST PUSH1 0x1F DUP3 GT ISZERO PUSH2 0x1106 JUMPI PUSH2 0x10D7 DUP2 PUSH2 0xFB1 JUMP JUMPDEST PUSH2 0x10E0 DUP5 PUSH2 0xFC3 JUMP JUMPDEST DUP2 ADD PUSH1 0x20 DUP6 LT ISZERO PUSH2 0x10EF JUMPI DUP2 SWAP1 POP JUMPDEST PUSH2 0x1103 PUSH2 0x10FB DUP6 PUSH2 0xFC3 JUMP JUMPDEST DUP4 ADD DUP3 PUSH2 0x10A3 JUMP JUMPDEST POP POP JUMPDEST POP POP POP JUMP JUMPDEST PUSH0 DUP3 DUP3 SHR SWAP1 POP SWAP3 SWAP2 POP POP JUMP JUMPDEST PUSH0 PUSH2 0x1126 PUSH0 NOT DUP5 PUSH1 0x8 MUL PUSH2 0x110B JUMP JUMPDEST NOT DUP1 DUP4 AND SWAP2 POP POP SWAP3 SWAP2 POP POP JUMP JUMPDEST PUSH0 PUSH2 0x113E DUP4 DUP4 PUSH2 0x1117 JUMP JUMPDEST SWAP2 POP DUP3 PUSH1 0x2 MUL DUP3 OR SWAP1 POP SWAP3 SWAP2 POP POP JUMP JUMPDEST PUSH2 0x1157 DUP3 PUSH2 0x96A JUMP JUMPDEST PUSH8 0xFFFFFFFFFFFFFFFF DUP2 GT ISZERO PUSH2 0x1170 JUMPI PUSH2 0x116F PUSH2 0xC87 JUMP JUMPDEST JUMPDEST PUSH2 0x117A DUP3 SLOAD PUSH2 0xEC6 JUMP JUMPDEST PUSH2 0x1185 DUP3 DUP3 DUP6 PUSH2 0x10C5 JUMP JUMPDEST PUSH0 PUSH1 0x20 SWAP1 POP PUSH1 0x1F DUP4 GT PUSH1 0x1 DUP2 EQ PUSH2 0x11B6 JUMPI PUSH0 DUP5 ISZERO PUSH2 0x11A4 JUMPI DUP3 DUP8 ADD MLOAD SWAP1 POP JUMPDEST PUSH2 0x11AE DUP6 DUP3 PUSH2 0x1133 JUMP JUMPDEST DUP7 SSTORE POP PUSH2 0x1215 JUMP JUMPDEST PUSH1 0x1F NOT DUP5 AND PUSH2 0x11C4 DUP7 PUSH2 0xFB1 JUMP JUMPDEST PUSH0 JUMPDEST DUP3 DUP2 LT ISZERO PUSH2 0x11EB JUMPI DUP5 DUP10 ADD MLOAD DUP3 SSTORE PUSH1 0x1 DUP3 ADD SWAP2 POP PUSH1 0x20 DUP6 ADD SWAP5 POP PUSH1 0x20 DUP2 ADD SWAP1 POP PUSH2 0x11C6 JUMP JUMPDEST DUP7 DUP4 LT ISZERO PUSH2 0x1208 JUMPI DUP5 DUP10 ADD MLOAD PUSH2 0x1204 PUSH1 0x1F DUP10 AND DUP3 PUSH2 0x1117 JUMP JUMPDEST DUP4 SSTORE POP JUMPDEST PUSH1 0x1 PUSH1 0x2 DUP9 MUL ADD DUP9 SSTORE POP POP POP JUMPDEST POP POP POP POP POP POP JUMP INVALID LOG2 PUSH5 0x6970667358 0x22 SLT KECCAK256 0xE6 PUSH0 0xD2 SWAP7 GASPRICE LOG1 0xEC 0xCF CALLDATALOAD 0xD8 0xEC PUSH12 0x56858468F45AA0F2D665EB29 DUP8 0xEF 0x29 PUSH4 0x71937AED PUSH5 0x736F6C6343 STOP ADDMOD BYTE STOP CALLER "
				},
				"gasEstimates": {
					"creation": {
						"codeDepositCost": "938200",
						"executionCost": "49504",
						"totalCost": "987704"
					},
					"external": {
						"MAXIMO_DE_CARACTERES()": "2464",
						"alterarMaximoDeCaracteres(uint16)": "26865",
						"criarPost(string)": "infinite",
						"donoDoContrato()": "2574",
						"posts(address,uint256)": "infinite",
						"visualizarPost(address,uint256)": "infinite",
						"visualizarTodosOsPosts(address)": "infinite"
					}
				},
				"methodIdentifiers": {
					"MAXIMO_DE_CARACTERES()": "36013acd",
					"alterarMaximoDeCaracteres(uint16)": "49a9839f",
					"criarPost(string)": "b36fe3f0",
					"donoDoContrato()": "fe0ba9de",
					"posts(address,uint256)": "5c538df3",
					"visualizarPost(address,uint256)": "6de69b24",
					"visualizarTodosOsPosts(address)": "94495c3c"
				}
			},
			"storageLayout": {
				"storage": [
					{
						"astId": 4,
						"contract": "contracts/freeSocial.sol:freeSocial",
						"label": "MAXIMO_DE_CARACTERES",
						"offset": 0,
						"slot": "0",
						"type": "t_uint16"
					},
					{
						"astId": 19,
						"contract": "contracts/freeSocial.sol:freeSocial",
						"label": "posts",
						"offset": 0,
						"slot": "1",
						"type": "t_mapping(t_address,t_array(t_struct(Post)13_storage)dyn_storage)"
					},
					{
						"astId": 21,
						"contract": "contracts/freeSocial.sol:freeSocial",
						"label": "donoDoContrato",
						"offset": 0,
						"slot": "2",
						"type": "t_address"
					}
				],
				"types": {
					"t_address": {
						"encoding": "inplace",
						"label": "address",
						"numberOfBytes": "20"
					},
					"t_array(t_struct(Post)13_storage)dyn_storage": {
						"base": "t_struct(Post)13_storage",
						"encoding": "dynamic_array",
						"label": "struct freeSocial.Post[]",
						"numberOfBytes": "32"
					},
					"t_mapping(t_address,t_array(t_struct(Post)13_storage)dyn_storage)": {
						"encoding": "mapping",
						"key": "t_address",
						"label": "mapping(address => struct freeSocial.Post[])",
						"numberOfBytes": "32",
						"value": "t_array(t_struct(Post)13_storage)dyn_storage"
					},
					"t_string_storage": {
						"encoding": "bytes",
						"label": "string",
						"numberOfBytes": "32"
					},
					"t_struct(Post)13_storage": {
						"encoding": "inplace",
						"label": "struct freeSocial.Post",
						"members": [
							{
								"astId": 6,
								"contract": "contracts/freeSocial.sol:freeSocial",
								"label": "autor",
								"offset": 0,
								"slot": "0",
								"type": "t_address"
							},
							{
								"astId": 8,
								"contract": "contracts/freeSocial.sol:freeSocial",
								"label": "conteudo",
								"offset": 0,
								"slot": "1",
								"type": "t_string_storage"
							},
							{
								"astId": 10,
								"contract": "contracts/freeSocial.sol:freeSocial",
								"label": "dataHora",
								"offset": 0,
								"slot": "2",
								"type": "t_uint256"
							},
							{
								"astId": 12,
								"contract": "contracts/freeSocial.sol:freeSocial",
								"label": "curtidas",
								"offset": 0,
								"slot": "3",
								"type": "t_uint256"
							}
						],
						"numberOfBytes": "128"
					},
					"t_uint16": {
						"encoding": "inplace",
						"label": "uint16",
						"numberOfBytes": "2"
					},
					"t_uint256": {
						"encoding": "inplace",
						"label": "uint256",
						"numberOfBytes": "32"
					}
				}
			},
			"userdoc": {
				"kind": "user",
				"methods": {},
				"version": 1
			}
		}
	}
}