{
	"data": {
		"bytecode": {
			"linkReferences": {},
			"object": "6080604052348015600e575f80fd5b50610ddc8061001c5f395ff3fe608060405234801561000f575f80fd5b50600436106100fe575f3560e01c8063a34cc0a911610095578063c4e34f6d11610064578063c4e34f6d1461024e578063de7b79d61461026a578063e8c864e614610288578063fa2749cc146102a4576100fe565b8063a34cc0a9146101d8578063aa02c747146101f6578063aecf6aa014610214578063b703599514610232576100fe565b80636428ac52116100d15780636428ac52146101765780636a2ec72a146101945780637a505421146101b25780639421331a146101ce576100fe565b806315c063631461010257806319da14bd1461011e578063213a0d921461013a5780633afa283614610158575b5f80fd5b61011c60048036038101906101179190610707565b6102d4565b005b61013860048036038101906101339190610783565b610309565b005b610142610324565b60405161014f91906107bd565b60405180910390f35b610160610334565b60405161016d9190610836565b60405180910390f35b61017e6103c4565b60405161018b91906107bd565b60405180910390f35b61019c6103d8565b6040516101a99190610836565b60405180910390f35b6101cc60048036038101906101c791906108b0565b610464565b005b6101d66104a7565b005b6101e06104ce565b6040516101ed91906108ea565b60405180910390f35b6101fe6104f6565b60405161020b919061091b565b60405180910390f35b61021c6104ff565b604051610229919061091b565b60405180910390f35b61024c6004803603810190610247919061095e565b610505565b005b61026860048036038101906102639190610707565b61050f565b005b610272610522565b60405161027f91906108ea565b60405180910390f35b6102a2600480360381019061029d919061095e565b610547565b005b6102be60048036038101906102b991906108b0565b610562565b6040516102cb91906107bd565b60405180910390f35b6002816040516020016102e8929190610ab2565b604051602081830303815290604052600290816103059190610c69565b5050565b805f806101000a81548160ff02191690831515021790555050565b5f8054906101000a900460ff1681565b606060028054610343906109b6565b80601f016020809104026020016040519081016040528092919081815260200182805461036f906109b6565b80156103ba5780601f10610391576101008083540402835291602001916103ba565b820191905f5260205f20905b81548152906001019060200180831161039d57829003601f168201915b5050505050905090565b5f805f9054906101000a900460ff16905090565b600280546103e5906109b6565b80601f0160208091040260200160405190810160405280929190818152602001828054610411906109b6565b801561045c5780601f106104335761010080835404028352916020019161045c565b820191905f5260205f20905b81548152906001019060200180831161043f57829003601f168201915b505050505081565b8060035f6101000a81548173ffffffffffffffffffffffffffffffffffffffff021916908373ffffffffffffffffffffffffffffffffffffffff16021790555050565b5f8054906101000a900460ff16155f806101000a81548160ff021916908315150217905550565b5f60035f9054906101000a900473ffffffffffffffffffffffffffffffffffffffff16905090565b5f600154905090565b60015481565b8060018190555050565b806002908161051e9190610c69565b5050565b60035f9054906101000a900473ffffffffffffffffffffffffffffffffffffffff1681565b8060015f8282546105589190610d65565b9250508190555050565b5f8173ffffffffffffffffffffffffffffffffffffffff1660035f9054906101000a900473ffffffffffffffffffffffffffffffffffffffff1673ffffffffffffffffffffffffffffffffffffffff16149050919050565b5f604051905090565b5f80fd5b5f80fd5b5f80fd5b5f80fd5b5f601f19601f8301169050919050565b7f4e487b71000000000000000000000000000000000000000000000000000000005f52604160045260245ffd5b610619826105d3565b810181811067ffffffffffffffff82111715610638576106376105e3565b5b80604052505050565b5f61064a6105ba565b90506106568282610610565b919050565b5f67ffffffffffffffff821115610675576106746105e3565b5b61067e826105d3565b9050602081019050919050565b828183375f83830152505050565b5f6106ab6106a68461065b565b610641565b9050828152602081018484840111156106c7576106c66105cf565b5b6106d284828561068b565b509392505050565b5f82601f8301126106ee576106ed6105cb565b5b81356106fe848260208601610699565b91505092915050565b5f6020828403121561071c5761071b6105c3565b5b5f82013567ffffffffffffffff811115610739576107386105c7565b5b610745848285016106da565b91505092915050565b5f8115159050919050565b6107628161074e565b811461076c575f80fd5b50565b5f8135905061077d81610759565b92915050565b5f60208284031215610798576107976105c3565b5b5f6107a58482850161076f565b91505092915050565b6107b78161074e565b82525050565b5f6020820190506107d05f8301846107ae565b92915050565b5f81519050919050565b5f82825260208201905092915050565b8281835e5f83830152505050565b5f610808826107d6565b61081281856107e0565b93506108228185602086016107f0565b61082b816105d3565b840191505092915050565b5f6020820190508181035f83015261084e81846107fe565b905092915050565b5f73ffffffffffffffffffffffffffffffffffffffff82169050919050565b5f61087f82610856565b9050919050565b61088f81610875565b8114610899575f80fd5b50565b5f813590506108aa81610886565b92915050565b5f602082840312156108c5576108c46105c3565b5b5f6108d28482850161089c565b91505092915050565b6108e481610875565b82525050565b5f6020820190506108fd5f8301846108db565b92915050565b5f819050919050565b61091581610903565b82525050565b5f60208201905061092e5f83018461090c565b92915050565b61093d81610903565b8114610947575f80fd5b50565b5f8135905061095881610934565b92915050565b5f60208284031215610973576109726105c3565b5b5f6109808482850161094a565b91505092915050565b7f4e487b71000000000000000000000000000000000000000000000000000000005f52602260045260245ffd5b5f60028204905060018216806109cd57607f821691505b6020821081036109e0576109df610989565b5b50919050565b5f81905092915050565b5f819050815f5260205f209050919050565b5f8154610a0e816109b6565b610a1881866109e6565b9450600182165f8114610a325760018114610a4757610a79565b60ff1983168652811515820286019350610a79565b610a50856109f0565b5f5b83811015610a7157815481890152600182019150602081019050610a52565b838801955050505b50505092915050565b5f610a8c826107d6565b610a9681856109e6565b9350610aa68185602086016107f0565b80840191505092915050565b5f610abd8285610a02565b9150610ac98284610a82565b91508190509392505050565b5f6020601f8301049050919050565b5f82821b905092915050565b5f60088302610b1f7fffffffffffffffffffffffffffffffffffffffffffffffffffffffffffffffff82610ae4565b610b298683610ae4565b95508019841693508086168417925050509392505050565b5f819050919050565b5f819050919050565b5f610b6d610b68610b6384610b41565b610b4a565b610b41565b9050919050565b5f819050919050565b610b8683610b53565b610b9a610b9282610b74565b848454610af0565b825550505050565b5f90565b610bae610ba2565b610bb9818484610b7d565b505050565b5b81811015610bdc57610bd15f82610ba6565b600181019050610bbf565b5050565b601f821115610c2157610bf2816109f0565b610bfb84610ad5565b81016020851015610c0a578190505b610c1e610c1685610ad5565b830182610bbe565b50505b505050565b5f82821c905092915050565b5f610c415f1984600802610c26565b1980831691505092915050565b5f610c598383610c32565b9150826002028217905092915050565b610c72826107d6565b67ffffffffffffffff811115610c8b57610c8a6105e3565b5b610c9582546109b6565b610ca0828285610be0565b5f60209050601f831160018114610cd1575f8415610cbf578287015190505b610cc98582610c4e565b865550610d30565b601f198416610cdf866109f0565b5f5b82811015610d0657848901518255600182019150602085019450602081019050610ce1565b86831015610d235784890151610d1f601f891682610c32565b8355505b6001600288020188555050505b505050505050565b7f4e487b71000000000000000000000000000000000000000000000000000000005f52601160045260245ffd5b5f610d6f82610903565b9150610d7a83610903565b92508282019050828112155f8312168382125f841215161715610da057610d9f610d38565b5b9291505056fea26469706673582212207d66eeeaf2de7207dd584d854ba01de9ae63ac1e12ea43cb1a2d5c60c809b24d64736f6c634300081a0033",
			"opcodes": "PUSH1 0x80 PUSH1 0x40 MSTORE CALLVALUE DUP1 ISZERO PUSH1 0xE JUMPI PUSH0 DUP1 REVERT JUMPDEST POP PUSH2 0xDDC DUP1 PUSH2 0x1C PUSH0 CODECOPY PUSH0 RETURN INVALID PUSH1 0x80 PUSH1 0x40 MSTORE CALLVALUE DUP1 ISZERO PUSH2 0xF JUMPI PUSH0 DUP1 REVERT JUMPDEST POP PUSH1 0x4 CALLDATASIZE LT PUSH2 0xFE JUMPI PUSH0 CALLDATALOAD PUSH1 0xE0 SHR DUP1 PUSH4 0xA34CC0A9 GT PUSH2 0x95 JUMPI DUP1 PUSH4 0xC4E34F6D GT PUSH2 0x64 JUMPI DUP1 PUSH4 0xC4E34F6D EQ PUSH2 0x24E JUMPI DUP1 PUSH4 0xDE7B79D6 EQ PUSH2 0x26A JUMPI DUP1 PUSH4 0xE8C864E6 EQ PUSH2 0x288 JUMPI DUP1 PUSH4 0xFA2749CC EQ PUSH2 0x2A4 JUMPI PUSH2 0xFE JUMP JUMPDEST DUP1 PUSH4 0xA34CC0A9 EQ PUSH2 0x1D8 JUMPI DUP1 PUSH4 0xAA02C747 EQ PUSH2 0x1F6 JUMPI DUP1 PUSH4 0xAECF6AA0 EQ PUSH2 0x214 JUMPI DUP1 PUSH4 0xB7035995 EQ PUSH2 0x232 JUMPI PUSH2 0xFE JUMP JUMPDEST DUP1 PUSH4 0x6428AC52 GT PUSH2 0xD1 JUMPI DUP1 PUSH4 0x6428AC52 EQ PUSH2 0x176 JUMPI DUP1 PUSH4 0x6A2EC72A EQ PUSH2 0x194 JUMPI DUP1 PUSH4 0x7A505421 EQ PUSH2 0x1B2 JUMPI DUP1 PUSH4 0x9421331A EQ PUSH2 0x1CE JUMPI PUSH2 0xFE JUMP JUMPDEST DUP1 PUSH4 0x15C06363 EQ PUSH2 0x102 JUMPI DUP1 PUSH4 0x19DA14BD EQ PUSH2 0x11E JUMPI DUP1 PUSH4 0x213A0D92 EQ PUSH2 0x13A JUMPI DUP1 PUSH4 0x3AFA2836 EQ PUSH2 0x158 JUMPI JUMPDEST PUSH0 DUP1 REVERT JUMPDEST PUSH2 0x11C PUSH1 0x4 DUP1 CALLDATASIZE SUB DUP2 ADD SWAP1 PUSH2 0x117 SWAP2 SWAP1 PUSH2 0x707 JUMP JUMPDEST PUSH2 0x2D4 JUMP JUMPDEST STOP JUMPDEST PUSH2 0x138 PUSH1 0x4 DUP1 CALLDATASIZE SUB DUP2 ADD SWAP1 PUSH2 0x133 SWAP2 SWAP1 PUSH2 0x783 JUMP JUMPDEST PUSH2 0x309 JUMP JUMPDEST STOP JUMPDEST PUSH2 0x142 PUSH2 0x324 JUMP JUMPDEST PUSH1 0x40 MLOAD PUSH2 0x14F SWAP2 SWAP1 PUSH2 0x7BD JUMP JUMPDEST PUSH1 0x40 MLOAD DUP1 SWAP2 SUB SWAP1 RETURN JUMPDEST PUSH2 0x160 PUSH2 0x334 JUMP JUMPDEST PUSH1 0x40 MLOAD PUSH2 0x16D SWAP2 SWAP1 PUSH2 0x836 JUMP JUMPDEST PUSH1 0x40 MLOAD DUP1 SWAP2 SUB SWAP1 RETURN JUMPDEST PUSH2 0x17E PUSH2 0x3C4 JUMP JUMPDEST PUSH1 0x40 MLOAD PUSH2 0x18B SWAP2 SWAP1 PUSH2 0x7BD JUMP JUMPDEST PUSH1 0x40 MLOAD DUP1 SWAP2 SUB SWAP1 RETURN JUMPDEST PUSH2 0x19C PUSH2 0x3D8 JUMP JUMPDEST PUSH1 0x40 MLOAD PUSH2 0x1A9 SWAP2 SWAP1 PUSH2 0x836 JUMP JUMPDEST PUSH1 0x40 MLOAD DUP1 SWAP2 SUB SWAP1 RETURN JUMPDEST PUSH2 0x1CC PUSH1 0x4 DUP1 CALLDATASIZE SUB DUP2 ADD SWAP1 PUSH2 0x1C7 SWAP2 SWAP1 PUSH2 0x8B0 JUMP JUMPDEST PUSH2 0x464 JUMP JUMPDEST STOP JUMPDEST PUSH2 0x1D6 PUSH2 0x4A7 JUMP JUMPDEST STOP JUMPDEST PUSH2 0x1E0 PUSH2 0x4CE JUMP JUMPDEST PUSH1 0x40 MLOAD PUSH2 0x1ED SWAP2 SWAP1 PUSH2 0x8EA JUMP JUMPDEST PUSH1 0x40 MLOAD DUP1 SWAP2 SUB SWAP1 RETURN JUMPDEST PUSH2 0x1FE PUSH2 0x4F6 JUMP JUMPDEST PUSH1 0x40 MLOAD PUSH2 0x20B SWAP2 SWAP1 PUSH2 0x91B JUMP JUMPDEST PUSH1 0x40 MLOAD DUP1 SWAP2 SUB SWAP1 RETURN JUMPDEST PUSH2 0x21C PUSH2 0x4FF JUMP JUMPDEST PUSH1 0x40 MLOAD PUSH2 0x229 SWAP2 SWAP1 PUSH2 0x91B JUMP JUMPDEST PUSH1 0x40 MLOAD DUP1 SWAP2 SUB SWAP1 RETURN JUMPDEST PUSH2 0x24C PUSH1 0x4 DUP1 CALLDATASIZE SUB DUP2 ADD SWAP1 PUSH2 0x247 SWAP2 SWAP1 PUSH2 0x95E JUMP JUMPDEST PUSH2 0x505 JUMP JUMPDEST STOP JUMPDEST PUSH2 0x268 PUSH1 0x4 DUP1 CALLDATASIZE SUB DUP2 ADD SWAP1 PUSH2 0x263 SWAP2 SWAP1 PUSH2 0x707 JUMP JUMPDEST PUSH2 0x50F JUMP JUMPDEST STOP JUMPDEST PUSH2 0x272 PUSH2 0x522 JUMP JUMPDEST PUSH1 0x40 MLOAD PUSH2 0x27F SWAP2 SWAP1 PUSH2 0x8EA JUMP JUMPDEST PUSH1 0x40 MLOAD DUP1 SWAP2 SUB SWAP1 RETURN JUMPDEST PUSH2 0x2A2 PUSH1 0x4 DUP1 CALLDATASIZE SUB DUP2 ADD SWAP1 PUSH2 0x29D SWAP2 SWAP1 PUSH2 0x95E JUMP JUMPDEST PUSH2 0x547 JUMP JUMPDEST STOP JUMPDEST PUSH2 0x2BE PUSH1 0x4 DUP1 CALLDATASIZE SUB DUP2 ADD SWAP1 PUSH2 0x2B9 SWAP2 SWAP1 PUSH2 0x8B0 JUMP JUMPDEST PUSH2 0x562 JUMP JUMPDEST PUSH1 0x40 MLOAD PUSH2 0x2CB SWAP2 SWAP1 PUSH2 0x7BD JUMP JUMPDEST PUSH1 0x40 MLOAD DUP1 SWAP2 SUB SWAP1 RETURN JUMPDEST PUSH1 0x2 DUP2 PUSH1 0x40 MLOAD PUSH1 0x20 ADD PUSH2 0x2E8 SWAP3 SWAP2 SWAP1 PUSH2 0xAB2 JUMP JUMPDEST PUSH1 0x40 MLOAD PUSH1 0x20 DUP2 DUP4 SUB SUB DUP2 MSTORE SWAP1 PUSH1 0x40 MSTORE PUSH1 0x2 SWAP1 DUP2 PUSH2 0x305 SWAP2 SWAP1 PUSH2 0xC69 JUMP JUMPDEST POP POP JUMP JUMPDEST DUP1 PUSH0 DUP1 PUSH2 0x100 EXP DUP2 SLOAD DUP2 PUSH1 0xFF MUL NOT AND SWAP1 DUP4 ISZERO ISZERO MUL OR SWAP1 SSTORE POP POP JUMP JUMPDEST PUSH0 DUP1 SLOAD SWAP1 PUSH2 0x100 EXP SWAP1 DIV PUSH1 0xFF AND DUP2 JUMP JUMPDEST PUSH1 0x60 PUSH1 0x2 DUP1 SLOAD PUSH2 0x343 SWAP1 PUSH2 0x9B6 JUMP JUMPDEST DUP1 PUSH1 0x1F ADD PUSH1 0x20 DUP1 SWAP2 DIV MUL PUSH1 0x20 ADD PUSH1 0x40 MLOAD SWAP1 DUP2 ADD PUSH1 0x40 MSTORE DUP1 SWAP3 SWAP2 SWAP1 DUP2 DUP2 MSTORE PUSH1 0x20 ADD DUP3 DUP1 SLOAD PUSH2 0x36F SWAP1 PUSH2 0x9B6 JUMP JUMPDEST DUP1 ISZERO PUSH2 0x3BA JUMPI DUP1 PUSH1 0x1F LT PUSH2 0x391 JUMPI PUSH2 0x100 DUP1 DUP4 SLOAD DIV MUL DUP4 MSTORE SWAP2 PUSH1 0x20 ADD SWAP2 PUSH2 0x3BA JUMP JUMPDEST DUP3 ADD SWAP2 SWAP1 PUSH0 MSTORE PUSH1 0x20 PUSH0 KECCAK256 SWAP1 JUMPDEST DUP2 SLOAD DUP2 MSTORE SWAP1 PUSH1 0x1 ADD SWAP1 PUSH1 0x20 ADD DUP1 DUP4 GT PUSH2 0x39D JUMPI DUP3 SWAP1 SUB PUSH1 0x1F AND DUP3 ADD SWAP2 JUMPDEST POP POP POP POP POP SWAP1 POP SWAP1 JUMP JUMPDEST PUSH0 DUP1 PUSH0 SWAP1 SLOAD SWAP1 PUSH2 0x100 EXP SWAP1 DIV PUSH1 0xFF AND SWAP1 POP SWAP1 JUMP JUMPDEST PUSH1 0x2 DUP1 SLOAD PUSH2 0x3E5 SWAP1 PUSH2 0x9B6 JUMP JUMPDEST DUP1 PUSH1 0x1F ADD PUSH1 0x20 DUP1 SWAP2 DIV MUL PUSH1 0x20 ADD PUSH1 0x40 MLOAD SWAP1 DUP2 ADD PUSH1 0x40 MSTORE DUP1 SWAP3 SWAP2 SWAP1 DUP2 DUP2 MSTORE PUSH1 0x20 ADD DUP3 DUP1 SLOAD PUSH2 0x411 SWAP1 PUSH2 0x9B6 JUMP JUMPDEST DUP1 ISZERO PUSH2 0x45C JUMPI DUP1 PUSH1 0x1F LT PUSH2 0x433 JUMPI PUSH2 0x100 DUP1 DUP4 SLOAD DIV MUL DUP4 MSTORE SWAP2 PUSH1 0x20 ADD SWAP2 PUSH2 0x45C JUMP JUMPDEST DUP3 ADD SWAP2 SWAP1 PUSH0 MSTORE PUSH1 0x20 PUSH0 KECCAK256 SWAP1 JUMPDEST DUP2 SLOAD DUP2 MSTORE SWAP1 PUSH1 0x1 ADD SWAP1 PUSH1 0x20 ADD DUP1 DUP4 GT PUSH2 0x43F JUMPI DUP3 SWAP1 SUB PUSH1 0x1F AND DUP3 ADD SWAP2 JUMPDEST POP POP POP POP POP DUP2 JUMP JUMPDEST DUP1 PUSH1 0x3 PUSH0 PUSH2 0x100 EXP DUP2 SLOAD DUP2 PUSH20 0xFFFFFFFFFFFFFFFFFFFFFFFFFFFFFFFFFFFFFFFF MUL NOT AND SWAP1 DUP4 PUSH20 0xFFFFFFFFFFFFFFFFFFFFFFFFFFFFFFFFFFFFFFFF AND MUL OR SWAP1 SSTORE POP POP JUMP JUMPDEST PUSH0 DUP1 SLOAD SWAP1 PUSH2 0x100 EXP SWAP1 DIV PUSH1 0xFF AND ISZERO PUSH0 DUP1 PUSH2 0x100 EXP DUP2 SLOAD DUP2 PUSH1 0xFF MUL NOT AND SWAP1 DUP4 ISZERO ISZERO MUL OR SWAP1 SSTORE POP JUMP JUMPDEST PUSH0 PUSH1 0x3 PUSH0 SWAP1 SLOAD SWAP1 PUSH2 0x100 EXP SWAP1 DIV PUSH20 0xFFFFFFFFFFFFFFFFFFFFFFFFFFFFFFFFFFFFFFFF AND SWAP1 POP SWAP1 JUMP JUMPDEST PUSH0 PUSH1 0x1 SLOAD SWAP1 POP SWAP1 JUMP JUMPDEST PUSH1 0x1 SLOAD DUP2 JUMP JUMPDEST DUP1 PUSH1 0x1 DUP2 SWAP1 SSTORE POP POP JUMP JUMPDEST DUP1 PUSH1 0x2 SWAP1 DUP2 PUSH2 0x51E SWAP2 SWAP1 PUSH2 0xC69 JUMP JUMPDEST POP POP JUMP JUMPDEST PUSH1 0x3 PUSH0 SWAP1 SLOAD SWAP1 PUSH2 0x100 EXP SWAP1 DIV PUSH20 0xFFFFFFFFFFFFFFFFFFFFFFFFFFFFFFFFFFFFFFFF AND DUP2 JUMP JUMPDEST DUP1 PUSH1 0x1 PUSH0 DUP3 DUP3 SLOAD PUSH2 0x558 SWAP2 SWAP1 PUSH2 0xD65 JUMP JUMPDEST SWAP3 POP POP DUP2 SWAP1 SSTORE POP POP JUMP JUMPDEST PUSH0 DUP2 PUSH20 0xFFFFFFFFFFFFFFFFFFFFFFFFFFFFFFFFFFFFFFFF AND PUSH1 0x3 PUSH0 SWAP1 SLOAD SWAP1 PUSH2 0x100 EXP SWAP1 DIV PUSH20 0xFFFFFFFFFFFFFFFFFFFFFFFFFFFFFFFFFFFFFFFF AND PUSH20 0xFFFFFFFFFFFFFFFFFFFFFFFFFFFFFFFFFFFFFFFF AND EQ SWAP1 POP SWAP2 SWAP1 POP JUMP JUMPDEST PUSH0 PUSH1 0x40 MLOAD SWAP1 POP SWAP1 JUMP JUMPDEST PUSH0 DUP1 REVERT JUMPDEST PUSH0 DUP1 REVERT JUMPDEST PUSH0 DUP1 REVERT JUMPDEST PUSH0 DUP1 REVERT JUMPDEST PUSH0 PUSH1 0x1F NOT PUSH1 0x1F DUP4 ADD AND SWAP1 POP SWAP2 SWAP1 POP JUMP JUMPDEST PUSH32 0x4E487B7100000000000000000000000000000000000000000000000000000000 PUSH0 MSTORE PUSH1 0x41 PUSH1 0x4 MSTORE PUSH1 0x24 PUSH0 REVERT JUMPDEST PUSH2 0x619 DUP3 PUSH2 0x5D3 JUMP JUMPDEST DUP2 ADD DUP2 DUP2 LT PUSH8 0xFFFFFFFFFFFFFFFF DUP3 GT OR ISZERO PUSH2 0x638 JUMPI PUSH2 0x637 PUSH2 0x5E3 JUMP JUMPDEST JUMPDEST DUP1 PUSH1 0x40 MSTORE POP POP POP JUMP JUMPDEST PUSH0 PUSH2 0x64A PUSH2 0x5BA JUMP JUMPDEST SWAP1 POP PUSH2 0x656 DUP3 DUP3 PUSH2 0x610 JUMP JUMPDEST SWAP2 SWAP1 POP JUMP JUMPDEST PUSH0 PUSH8 0xFFFFFFFFFFFFFFFF DUP3 GT ISZERO PUSH2 0x675 JUMPI PUSH2 0x674 PUSH2 0x5E3 JUMP JUMPDEST JUMPDEST PUSH2 0x67E DUP3 PUSH2 0x5D3 JUMP JUMPDEST SWAP1 POP PUSH1 0x20 DUP2 ADD SWAP1 POP SWAP2 SWAP1 POP JUMP JUMPDEST DUP3 DUP2 DUP4 CALLDATACOPY PUSH0 DUP4 DUP4 ADD MSTORE POP POP POP JUMP JUMPDEST PUSH0 PUSH2 0x6AB PUSH2 0x6A6 DUP5 PUSH2 0x65B JUMP JUMPDEST PUSH2 0x641 JUMP JUMPDEST SWAP1 POP DUP3 DUP2 MSTORE PUSH1 0x20 DUP2 ADD DUP5 DUP5 DUP5 ADD GT ISZERO PUSH2 0x6C7 JUMPI PUSH2 0x6C6 PUSH2 0x5CF JUMP JUMPDEST JUMPDEST PUSH2 0x6D2 DUP5 DUP3 DUP6 PUSH2 0x68B JUMP JUMPDEST POP SWAP4 SWAP3 POP POP POP JUMP JUMPDEST PUSH0 DUP3 PUSH1 0x1F DUP4 ADD SLT PUSH2 0x6EE JUMPI PUSH2 0x6ED PUSH2 0x5CB JUMP JUMPDEST JUMPDEST DUP2 CALLDATALOAD PUSH2 0x6FE DUP5 DUP3 PUSH1 0x20 DUP7 ADD PUSH2 0x699 JUMP JUMPDEST SWAP2 POP POP SWAP3 SWAP2 POP POP JUMP JUMPDEST PUSH0 PUSH1 0x20 DUP3 DUP5 SUB SLT ISZERO PUSH2 0x71C JUMPI PUSH2 0x71B PUSH2 0x5C3 JUMP JUMPDEST JUMPDEST PUSH0 DUP3 ADD CALLDATALOAD PUSH8 0xFFFFFFFFFFFFFFFF DUP2 GT ISZERO PUSH2 0x739 JUMPI PUSH2 0x738 PUSH2 0x5C7 JUMP JUMPDEST JUMPDEST PUSH2 0x745 DUP5 DUP3 DUP6 ADD PUSH2 0x6DA JUMP JUMPDEST SWAP2 POP POP SWAP3 SWAP2 POP POP JUMP JUMPDEST PUSH0 DUP2 ISZERO ISZERO SWAP1 POP SWAP2 SWAP1 POP JUMP JUMPDEST PUSH2 0x762 DUP2 PUSH2 0x74E JUMP JUMPDEST DUP2 EQ PUSH2 0x76C JUMPI PUSH0 DUP1 REVERT JUMPDEST POP JUMP JUMPDEST PUSH0 DUP2 CALLDATALOAD SWAP1 POP PUSH2 0x77D DUP2 PUSH2 0x759 JUMP JUMPDEST SWAP3 SWAP2 POP POP JUMP JUMPDEST PUSH0 PUSH1 0x20 DUP3 DUP5 SUB SLT ISZERO PUSH2 0x798 JUMPI PUSH2 0x797 PUSH2 0x5C3 JUMP JUMPDEST JUMPDEST PUSH0 PUSH2 0x7A5 DUP5 DUP3 DUP6 ADD PUSH2 0x76F JUMP JUMPDEST SWAP2 POP POP SWAP3 SWAP2 POP POP JUMP JUMPDEST PUSH2 0x7B7 DUP2 PUSH2 0x74E JUMP JUMPDEST DUP3 MSTORE POP POP JUMP JUMPDEST PUSH0 PUSH1 0x20 DUP3 ADD SWAP1 POP PUSH2 0x7D0 PUSH0 DUP4 ADD DUP5 PUSH2 0x7AE JUMP JUMPDEST SWAP3 SWAP2 POP POP JUMP JUMPDEST PUSH0 DUP2 MLOAD SWAP1 POP SWAP2 SWAP1 POP JUMP JUMPDEST PUSH0 DUP3 DUP3 MSTORE PUSH1 0x20 DUP3 ADD SWAP1 POP SWAP3 SWAP2 POP POP JUMP JUMPDEST DUP3 DUP2 DUP4 MCOPY PUSH0 DUP4 DUP4 ADD MSTORE POP POP POP JUMP JUMPDEST PUSH0 PUSH2 0x808 DUP3 PUSH2 0x7D6 JUMP JUMPDEST PUSH2 0x812 DUP2 DUP6 PUSH2 0x7E0 JUMP JUMPDEST SWAP4 POP PUSH2 0x822 DUP2 DUP6 PUSH1 0x20 DUP7 ADD PUSH2 0x7F0 JUMP JUMPDEST PUSH2 0x82B DUP2 PUSH2 0x5D3 JUMP JUMPDEST DUP5 ADD SWAP2 POP POP SWAP3 SWAP2 POP POP JUMP JUMPDEST PUSH0 PUSH1 0x20 DUP3 ADD SWAP1 POP DUP2 DUP2 SUB PUSH0 DUP4 ADD MSTORE PUSH2 0x84E DUP2 DUP5 PUSH2 0x7FE JUMP JUMPDEST SWAP1 POP SWAP3 SWAP2 POP POP JUMP JUMPDEST PUSH0 PUSH20 0xFFFFFFFFFFFFFFFFFFFFFFFFFFFFFFFFFFFFFFFF DUP3 AND SWAP1 POP SWAP2 SWAP1 POP JUMP JUMPDEST PUSH0 PUSH2 0x87F DUP3 PUSH2 0x856 JUMP JUMPDEST SWAP1 POP SWAP2 SWAP1 POP JUMP JUMPDEST PUSH2 0x88F DUP2 PUSH2 0x875 JUMP JUMPDEST DUP2 EQ PUSH2 0x899 JUMPI PUSH0 DUP1 REVERT JUMPDEST POP JUMP JUMPDEST PUSH0 DUP2 CALLDATALOAD SWAP1 POP PUSH2 0x8AA DUP2 PUSH2 0x886 JUMP JUMPDEST SWAP3 SWAP2 POP POP JUMP JUMPDEST PUSH0 PUSH1 0x20 DUP3 DUP5 SUB SLT ISZERO PUSH2 0x8C5 JUMPI PUSH2 0x8C4 PUSH2 0x5C3 JUMP JUMPDEST JUMPDEST PUSH0 PUSH2 0x8D2 DUP5 DUP3 DUP6 ADD PUSH2 0x89C JUMP JUMPDEST SWAP2 POP POP SWAP3 SWAP2 POP POP JUMP JUMPDEST PUSH2 0x8E4 DUP2 PUSH2 0x875 JUMP JUMPDEST DUP3 MSTORE POP POP JUMP JUMPDEST PUSH0 PUSH1 0x20 DUP3 ADD SWAP1 POP PUSH2 0x8FD PUSH0 DUP4 ADD DUP5 PUSH2 0x8DB JUMP JUMPDEST SWAP3 SWAP2 POP POP JUMP JUMPDEST PUSH0 DUP2 SWAP1 POP SWAP2 SWAP1 POP JUMP JUMPDEST PUSH2 0x915 DUP2 PUSH2 0x903 JUMP JUMPDEST DUP3 MSTORE POP POP JUMP JUMPDEST PUSH0 PUSH1 0x20 DUP3 ADD SWAP1 POP PUSH2 0x92E PUSH0 DUP4 ADD DUP5 PUSH2 0x90C JUMP JUMPDEST SWAP3 SWAP2 POP POP JUMP JUMPDEST PUSH2 0x93D DUP2 PUSH2 0x903 JUMP JUMPDEST DUP2 EQ PUSH2 0x947 JUMPI PUSH0 DUP1 REVERT JUMPDEST POP JUMP JUMPDEST PUSH0 DUP2 CALLDATALOAD SWAP1 POP PUSH2 0x958 DUP2 PUSH2 0x934 JUMP JUMPDEST SWAP3 SWAP2 POP POP JUMP JUMPDEST PUSH0 PUSH1 0x20 DUP3 DUP5 SUB SLT ISZERO PUSH2 0x973 JUMPI PUSH2 0x972 PUSH2 0x5C3 JUMP JUMPDEST JUMPDEST PUSH0 PUSH2 0x980 DUP5 DUP3 DUP6 ADD PUSH2 0x94A JUMP JUMPDEST SWAP2 POP POP SWAP3 SWAP2 POP POP JUMP JUMPDEST PUSH32 0x4E487B7100000000000000000000000000000000000000000000000000000000 PUSH0 MSTORE PUSH1 0x22 PUSH1 0x4 MSTORE PUSH1 0x24 PUSH0 REVERT JUMPDEST PUSH0 PUSH1 0x2 DUP3 DIV SWAP1 POP PUSH1 0x1 DUP3 AND DUP1 PUSH2 0x9CD JUMPI PUSH1 0x7F DUP3 AND SWAP2 POP JUMPDEST PUSH1 0x20 DUP3 LT DUP2 SUB PUSH2 0x9E0 JUMPI PUSH2 0x9DF PUSH2 0x989 JUMP JUMPDEST JUMPDEST POP SWAP2 SWAP1 POP JUMP JUMPDEST PUSH0 DUP2 SWAP1 POP SWAP3 SWAP2 POP POP JUMP JUMPDEST PUSH0 DUP2 SWAP1 POP DUP2 PUSH0 MSTORE PUSH1 0x20 PUSH0 KECCAK256 SWAP1 POP SWAP2 SWAP1 POP JUMP JUMPDEST PUSH0 DUP2 SLOAD PUSH2 0xA0E DUP2 PUSH2 0x9B6 JUMP JUMPDEST PUSH2 0xA18 DUP2 DUP7 PUSH2 0x9E6 JUMP JUMPDEST SWAP5 POP PUSH1 0x1 DUP3 AND PUSH0 DUP2 EQ PUSH2 0xA32 JUMPI PUSH1 0x1 DUP2 EQ PUSH2 0xA47 JUMPI PUSH2 0xA79 JUMP JUMPDEST PUSH1 0xFF NOT DUP4 AND DUP7 MSTORE DUP2 ISZERO ISZERO DUP3 MUL DUP7 ADD SWAP4 POP PUSH2 0xA79 JUMP JUMPDEST PUSH2 0xA50 DUP6 PUSH2 0x9F0 JUMP JUMPDEST PUSH0 JUMPDEST DUP4 DUP2 LT ISZERO PUSH2 0xA71 JUMPI DUP2 SLOAD DUP2 DUP10 ADD MSTORE PUSH1 0x1 DUP3 ADD SWAP2 POP PUSH1 0x20 DUP2 ADD SWAP1 POP PUSH2 0xA52 JUMP JUMPDEST DUP4 DUP9 ADD SWAP6 POP POP POP JUMPDEST POP POP POP SWAP3 SWAP2 POP POP JUMP JUMPDEST PUSH0 PUSH2 0xA8C DUP3 PUSH2 0x7D6 JUMP JUMPDEST PUSH2 0xA96 DUP2 DUP6 PUSH2 0x9E6 JUMP JUMPDEST SWAP4 POP PUSH2 0xAA6 DUP2 DUP6 PUSH1 0x20 DUP7 ADD PUSH2 0x7F0 JUMP JUMPDEST DUP1 DUP5 ADD SWAP2 POP POP SWAP3 SWAP2 POP POP JUMP JUMPDEST PUSH0 PUSH2 0xABD DUP3 DUP6 PUSH2 0xA02 JUMP JUMPDEST SWAP2 POP PUSH2 0xAC9 DUP3 DUP5 PUSH2 0xA82 JUMP JUMPDEST SWAP2 POP DUP2 SWAP1 POP SWAP4 SWAP3 POP POP POP JUMP JUMPDEST PUSH0 PUSH1 0x20 PUSH1 0x1F DUP4 ADD DIV SWAP1 POP SWAP2 SWAP1 POP JUMP JUMPDEST PUSH0 DUP3 DUP3 SHL SWAP1 POP SWAP3 SWAP2 POP POP JUMP JUMPDEST PUSH0 PUSH1 0x8 DUP4 MUL PUSH2 0xB1F PUSH32 0xFFFFFFFFFFFFFFFFFFFFFFFFFFFFFFFFFFFFFFFFFFFFFFFFFFFFFFFFFFFFFFFF DUP3 PUSH2 0xAE4 JUMP JUMPDEST PUSH2 0xB29 DUP7 DUP4 PUSH2 0xAE4 JUMP JUMPDEST SWAP6 POP DUP1 NOT DUP5 AND SWAP4 POP DUP1 DUP7 AND DUP5 OR SWAP3 POP POP POP SWAP4 SWAP3 POP POP POP JUMP JUMPDEST PUSH0 DUP2 SWAP1 POP SWAP2 SWAP1 POP JUMP JUMPDEST PUSH0 DUP2 SWAP1 POP SWAP2 SWAP1 POP JUMP JUMPDEST PUSH0 PUSH2 0xB6D PUSH2 0xB68 PUSH2 0xB63 DUP5 PUSH2 0xB41 JUMP JUMPDEST PUSH2 0xB4A JUMP JUMPDEST PUSH2 0xB41 JUMP JUMPDEST SWAP1 POP SWAP2 SWAP1 POP JUMP JUMPDEST PUSH0 DUP2 SWAP1 POP SWAP2 SWAP1 POP JUMP JUMPDEST PUSH2 0xB86 DUP4 PUSH2 0xB53 JUMP JUMPDEST PUSH2 0xB9A PUSH2 0xB92 DUP3 PUSH2 0xB74 JUMP JUMPDEST DUP5 DUP5 SLOAD PUSH2 0xAF0 JUMP JUMPDEST DUP3 SSTORE POP POP POP POP JUMP JUMPDEST PUSH0 SWAP1 JUMP JUMPDEST PUSH2 0xBAE PUSH2 0xBA2 JUMP JUMPDEST PUSH2 0xBB9 DUP2 DUP5 DUP5 PUSH2 0xB7D JUMP JUMPDEST POP POP POP JUMP JUMPDEST JUMPDEST DUP2 DUP2 LT ISZERO PUSH2 0xBDC JUMPI PUSH2 0xBD1 PUSH0 DUP3 PUSH2 0xBA6 JUMP JUMPDEST PUSH1 0x1 DUP2 ADD SWAP1 POP PUSH2 0xBBF JUMP JUMPDEST POP POP JUMP JUMPDEST PUSH1 0x1F DUP3 GT ISZERO PUSH2 0xC21 JUMPI PUSH2 0xBF2 DUP2 PUSH2 0x9F0 JUMP JUMPDEST PUSH2 0xBFB DUP5 PUSH2 0xAD5 JUMP JUMPDEST DUP2 ADD PUSH1 0x20 DUP6 LT ISZERO PUSH2 0xC0A JUMPI DUP2 SWAP1 POP JUMPDEST PUSH2 0xC1E PUSH2 0xC16 DUP6 PUSH2 0xAD5 JUMP JUMPDEST DUP4 ADD DUP3 PUSH2 0xBBE JUMP JUMPDEST POP POP JUMPDEST POP POP POP JUMP JUMPDEST PUSH0 DUP3 DUP3 SHR SWAP1 POP SWAP3 SWAP2 POP POP JUMP JUMPDEST PUSH0 PUSH2 0xC41 PUSH0 NOT DUP5 PUSH1 0x8 MUL PUSH2 0xC26 JUMP JUMPDEST NOT DUP1 DUP4 AND SWAP2 POP POP SWAP3 SWAP2 POP POP JUMP JUMPDEST PUSH0 PUSH2 0xC59 DUP4 DUP4 PUSH2 0xC32 JUMP JUMPDEST SWAP2 POP DUP3 PUSH1 0x2 MUL DUP3 OR SWAP1 POP SWAP3 SWAP2 POP POP JUMP JUMPDEST PUSH2 0xC72 DUP3 PUSH2 0x7D6 JUMP JUMPDEST PUSH8 0xFFFFFFFFFFFFFFFF DUP2 GT ISZERO PUSH2 0xC8B JUMPI PUSH2 0xC8A PUSH2 0x5E3 JUMP JUMPDEST JUMPDEST PUSH2 0xC95 DUP3 SLOAD PUSH2 0x9B6 JUMP JUMPDEST PUSH2 0xCA0 DUP3 DUP3 DUP6 PUSH2 0xBE0 JUMP JUMPDEST PUSH0 PUSH1 0x20 SWAP1 POP PUSH1 0x1F DUP4 GT PUSH1 0x1 DUP2 EQ PUSH2 0xCD1 JUMPI PUSH0 DUP5 ISZERO PUSH2 0xCBF JUMPI DUP3 DUP8 ADD MLOAD SWAP1 POP JUMPDEST PUSH2 0xCC9 DUP6 DUP3 PUSH2 0xC4E JUMP JUMPDEST DUP7 SSTORE POP PUSH2 0xD30 JUMP JUMPDEST PUSH1 0x1F NOT DUP5 AND PUSH2 0xCDF DUP7 PUSH2 0x9F0 JUMP JUMPDEST PUSH0 JUMPDEST DUP3 DUP2 LT ISZERO PUSH2 0xD06 JUMPI DUP5 DUP10 ADD MLOAD DUP3 SSTORE PUSH1 0x1 DUP3 ADD SWAP2 POP PUSH1 0x20 DUP6 ADD SWAP5 POP PUSH1 0x20 DUP2 ADD SWAP1 POP PUSH2 0xCE1 JUMP JUMPDEST DUP7 DUP4 LT ISZERO PUSH2 0xD23 JUMPI DUP5 DUP10 ADD MLOAD PUSH2 0xD1F PUSH1 0x1F DUP10 AND DUP3 PUSH2 0xC32 JUMP JUMPDEST DUP4 SSTORE POP JUMPDEST PUSH1 0x1 PUSH1 0x2 DUP9 MUL ADD DUP9 SSTORE POP POP POP JUMPDEST POP POP POP POP POP POP JUMP JUMPDEST PUSH32 0x4E487B7100000000000000000000000000000000000000000000000000000000 PUSH0 MSTORE PUSH1 0x11 PUSH1 0x4 MSTORE PUSH1 0x24 PUSH0 REVERT JUMPDEST PUSH0 PUSH2 0xD6F DUP3 PUSH2 0x903 JUMP JUMPDEST SWAP2 POP PUSH2 0xD7A DUP4 PUSH2 0x903 JUMP JUMPDEST SWAP3 POP DUP3 DUP3 ADD SWAP1 POP DUP3 DUP2 SLT ISZERO PUSH0 DUP4 SLT AND DUP4 DUP3 SLT PUSH0 DUP5 SLT ISZERO AND OR ISZERO PUSH2 0xDA0 JUMPI PUSH2 0xD9F PUSH2 0xD38 JUMP JUMPDEST JUMPDEST SWAP3 SWAP2 POP POP JUMP INVALID LOG2 PUSH5 0x6970667358 0x22 SLT KECCAK256 PUSH30 0x66EEEAF2DE7207DD584D854BA01DE9AE63AC1E12EA43CB1A2D5C60C809B2 0x4D PUSH5 0x736F6C6343 STOP ADDMOD BYTE STOP CALLER "
		},
		"gasEstimates": {
			"creation": {
				"codeDepositCost": "709600",
				"executionCost": "739",
				"totalCost": "710339"
			},
			"external": {
				"alternarBool()": "26633",
				"anexarString(string)": "infinite",
				"compararEnderecos(address)": "2888",
				"definirMeuBool(bool)": "24719",
				"definirMeuEndereco(address)": "24782",
				"definirMeuInt(int256)": "22604",
				"definirMinhaString(string)": "infinite",
				"incrementarInt(int256)": "infinite",
				"meuBool()": "2531",
				"meuEndereco()": "2552",
				"meuInt()": "2492",
				"minhaString()": "infinite",
				"obterMeuBool()": "2496",
				"obterMeuEndereco()": "2538",
				"obterMeuInt()": "2477",
				"obterMinhaString()": "infinite"
			}
		},
		"methodIdentifiers": {
			"alternarBool()": "9421331a",
			"anexarString(string)": "15c06363",
			"compararEnderecos(address)": "fa2749cc",
			"definirMeuBool(bool)": "19da14bd",
			"definirMeuEndereco(address)": "7a505421",
			"definirMeuInt(int256)": "b7035995",
			"definirMinhaString(string)": "c4e34f6d",
			"incrementarInt(int256)": "e8c864e6",
			"meuBool()": "213a0d92",
			"meuEndereco()": "de7b79d6",
			"meuInt()": "aecf6aa0",
			"minhaString()": "6a2ec72a",
			"obterMeuBool()": "6428ac52",
			"obterMeuEndereco()": "a34cc0a9",
			"obterMeuInt()": "aa02c747",
			"obterMinhaString()": "3afa2836"
		}
	},
	"abi": [
		{
			"inputs": [],
			"name": "alternarBool",
			"outputs": [],
			"stateMutability": "nonpayable",
			"type": "function"
		},
		{
			"inputs": [
				{
					"internalType": "string",
					"name": "_anexarString",
					"type": "string"
				}
			],
			"name": "anexarString",
			"outputs": [],
			"stateMutability": "nonpayable",
			"type": "function"
		},
		{
			"inputs": [
				{
					"internalType": "address",
					"name": "_endereco",
					"type": "address"
				}
			],
			"name": "compararEnderecos",
			"outputs": [
				{
					"internalType": "bool",
					"name": "",
					"type": "bool"
				}
			],
			"stateMutability": "view",
			"type": "function"
		},
		{
			"inputs": [
				{
					"internalType": "bool",
					"name": "_meuBool",
					"type": "bool"
				}
			],
			"name": "definirMeuBool",
			"outputs": [],
			"stateMutability": "nonpayable",
			"type": "function"
		},
		{
			"inputs": [
				{
					"internalType": "address",
					"name": "_meuEndereco",
					"type": "address"
				}
			],
			"name": "definirMeuEndereco",
			"outputs": [],
			"stateMutability": "nonpayable",
			"type": "function"
		},
		{
			"inputs": [
				{
					"internalType": "int256",
					"name": "_meuInt",
					"type": "int256"
				}
			],
			"name": "definirMeuInt",
			"outputs": [],
			"stateMutability": "nonpayable",
			"type": "function"
		},
		{
			"inputs": [
				{
					"internalType": "string",
					"name": "_minhaString",
					"type": "string"
				}
			],
			"name": "definirMinhaString",
			"outputs": [],
			"stateMutability": "nonpayable",
			"type": "function"
		},
		{
			"inputs": [
				{
					"internalType": "int256",
					"name": "_valor",
					"type": "int256"
				}
			],
			"name": "incrementarInt",
			"outputs": [],
			"stateMutability": "nonpayable",
			"type": "function"
		},
		{
			"inputs": [],
			"name": "meuBool",
			"outputs": [
				{
					"internalType": "bool",
					"name": "",
					"type": "bool"
				}
			],
			"stateMutability": "view",
			"type": "function"
		},
		{
			"inputs": [],
			"name": "meuEndereco",
			"outputs": [
				{
					"internalType": "address",
					"name": "",
					"type": "address"
				}
			],
			"stateMutability": "view",
			"type": "function"
		},
		{
			"inputs": [],
			"name": "meuInt",
			"outputs": [
				{
					"internalType": "int256",
					"name": "",
					"type": "int256"
				}
			],
			"stateMutability": "view",
			"type": "function"
		},
		{
			"inputs": [],
			"name": "minhaString",
			"outputs": [
				{
					"internalType": "string",
					"name": "",
					"type": "string"
				}
			],
			"stateMutability": "view",
			"type": "function"
		},
		{
			"inputs": [],
			"name": "obterMeuBool",
			"outputs": [
				{
					"internalType": "bool",
					"name": "",
					"type": "bool"
				}
			],
			"stateMutability": "view",
			"type": "function"
		},
		{
			"inputs": [],
			"name": "obterMeuEndereco",
			"outputs": [
				{
					"internalType": "address",
					"name": "",
					"type": "address"
				}
			],
			"stateMutability": "view",
			"type": "function"
		},
		{
			"inputs": [],
			"name": "obterMeuInt",
			"outputs": [
				{
					"internalType": "int256",
					"name": "",
					"type": "int256"
				}
			],
			"stateMutability": "view",
			"type": "function"
		},
		{
			"inputs": [],
			"name": "obterMinhaString",
			"outputs": [
				{
					"internalType": "string",
					"name": "",
					"type": "string"
				}
			],
			"stateMutability": "view",
			"type": "function"
		}
	]
}